{
  "_format": "hh-sol-artifact-1",
  "contractName": "Activity",
  "sourceName": "contracts/activity/Activity.sol",
  "abi": [
    {
      "anonymous": false,
      "inputs": [
        {
          "indexed": false,
          "internalType": "uint8",
          "name": "version",
          "type": "uint8"
        }
      ],
      "name": "Initialized",
      "type": "event"
    },
    {
      "anonymous": false,
      "inputs": [
        {
          "indexed": true,
          "internalType": "address",
          "name": "previousOwner",
          "type": "address"
        },
        {
          "indexed": true,
          "internalType": "address",
          "name": "newOwner",
          "type": "address"
        }
      ],
      "name": "OwnershipTransferred",
      "type": "event"
    },
    {
      "anonymous": false,
      "inputs": [
        {
          "indexed": true,
          "internalType": "bytes32",
          "name": "role",
          "type": "bytes32"
        },
        {
          "indexed": true,
          "internalType": "bytes32",
          "name": "previousAdminRole",
          "type": "bytes32"
        },
        {
          "indexed": true,
          "internalType": "bytes32",
          "name": "newAdminRole",
          "type": "bytes32"
        }
      ],
      "name": "RoleAdminChanged",
      "type": "event"
    },
    {
      "anonymous": false,
      "inputs": [
        {
          "indexed": true,
          "internalType": "bytes32",
          "name": "role",
          "type": "bytes32"
        },
        {
          "indexed": true,
          "internalType": "address",
          "name": "account",
          "type": "address"
        },
        {
          "indexed": true,
          "internalType": "address",
          "name": "sender",
          "type": "address"
        }
      ],
      "name": "RoleGranted",
      "type": "event"
    },
    {
      "anonymous": false,
      "inputs": [
        {
          "indexed": true,
          "internalType": "bytes32",
          "name": "role",
          "type": "bytes32"
        },
        {
          "indexed": true,
          "internalType": "address",
          "name": "account",
          "type": "address"
        },
        {
          "indexed": true,
          "internalType": "address",
          "name": "sender",
          "type": "address"
        }
      ],
      "name": "RoleRevoked",
      "type": "event"
    },
    {
      "inputs": [],
      "name": "DEFAULT_ADMIN_ROLE",
      "outputs": [
        {
          "internalType": "bytes32",
          "name": "",
          "type": "bytes32"
        }
      ],
      "stateMutability": "view",
      "type": "function"
    },
    {
      "inputs": [],
      "name": "MINT_ROLE",
      "outputs": [
        {
          "internalType": "bytes32",
          "name": "",
          "type": "bytes32"
        }
      ],
      "stateMutability": "view",
      "type": "function"
    },
    {
      "inputs": [
        {
          "internalType": "address[]",
          "name": "addressList",
          "type": "address[]"
        }
      ],
      "name": "addWhiteList",
      "outputs": [],
      "stateMutability": "nonpayable",
      "type": "function"
    },
    {
      "inputs": [],
      "name": "duplicatable",
      "outputs": [
        {
          "internalType": "bool",
          "name": "",
          "type": "bool"
        }
      ],
      "stateMutability": "view",
      "type": "function"
    },
    {
      "inputs": [],
      "name": "freeMintable",
      "outputs": [
        {
          "internalType": "bool",
          "name": "",
          "type": "bool"
        }
      ],
      "stateMutability": "view",
      "type": "function"
    },
    {
      "inputs": [
        {
          "internalType": "bytes32",
          "name": "role",
          "type": "bytes32"
        }
      ],
      "name": "getRoleAdmin",
      "outputs": [
        {
          "internalType": "bytes32",
          "name": "",
          "type": "bytes32"
        }
      ],
      "stateMutability": "view",
      "type": "function"
    },
    {
      "inputs": [
        {
          "internalType": "bytes32",
          "name": "role",
          "type": "bytes32"
        },
        {
          "internalType": "address",
          "name": "account",
          "type": "address"
        }
      ],
      "name": "grantRole",
      "outputs": [],
      "stateMutability": "nonpayable",
      "type": "function"
    },
    {
      "inputs": [
        {
          "internalType": "bytes32",
          "name": "role",
          "type": "bytes32"
        },
        {
          "internalType": "address",
          "name": "account",
          "type": "address"
        }
      ],
      "name": "hasRole",
      "outputs": [
        {
          "internalType": "bool",
          "name": "",
          "type": "bool"
        }
      ],
      "stateMutability": "view",
      "type": "function"
    },
    {
      "inputs": [
        {
          "internalType": "address",
          "name": "owner_",
          "type": "address"
        },
        {
          "internalType": "address",
          "name": "semanticSBT_",
          "type": "address"
        },
        {
          "internalType": "string",
          "name": "predicate",
          "type": "string"
        },
        {
          "internalType": "string",
          "name": "subjectValue",
          "type": "string"
        },
        {
          "internalType": "string",
          "name": "className",
          "type": "string"
        }
      ],
      "name": "initialize",
      "outputs": [],
      "stateMutability": "nonpayable",
      "type": "function"
    },
    {
      "inputs": [],
      "name": "mint",
      "outputs": [],
      "stateMutability": "nonpayable",
      "type": "function"
    },
    {
      "inputs": [],
      "name": "owner",
      "outputs": [
        {
          "internalType": "address",
          "name": "",
          "type": "address"
        }
      ],
      "stateMutability": "view",
      "type": "function"
    },
    {
      "inputs": [],
      "name": "renounceOwnership",
      "outputs": [],
      "stateMutability": "nonpayable",
      "type": "function"
    },
    {
      "inputs": [
        {
          "internalType": "bytes32",
          "name": "role",
          "type": "bytes32"
        },
        {
          "internalType": "address",
          "name": "account",
          "type": "address"
        }
      ],
      "name": "renounceRole",
      "outputs": [],
      "stateMutability": "nonpayable",
      "type": "function"
    },
    {
      "inputs": [
        {
          "internalType": "bytes32",
          "name": "role",
          "type": "bytes32"
        },
        {
          "internalType": "address",
          "name": "account",
          "type": "address"
        }
      ],
      "name": "revokeRole",
      "outputs": [],
      "stateMutability": "nonpayable",
      "type": "function"
    },
    {
      "inputs": [
        {
          "internalType": "bool",
          "name": "duplicatable_",
          "type": "bool"
        }
      ],
      "name": "setDuplicatable",
      "outputs": [],
      "stateMutability": "nonpayable",
      "type": "function"
    },
    {
      "inputs": [
        {
          "internalType": "bool",
          "name": "freeMintable_",
          "type": "bool"
        }
      ],
      "name": "setFreeMintable",
      "outputs": [],
      "stateMutability": "nonpayable",
      "type": "function"
    },
    {
      "inputs": [
        {
          "internalType": "bytes4",
          "name": "interfaceId",
          "type": "bytes4"
        }
      ],
      "name": "supportsInterface",
      "outputs": [
        {
          "internalType": "bool",
          "name": "",
          "type": "bool"
        }
      ],
      "stateMutability": "view",
      "type": "function"
    },
    {
      "inputs": [
        {
          "internalType": "address",
          "name": "newOwner",
          "type": "address"
        }
      ],
      "name": "transferOwnership",
      "outputs": [],
      "stateMutability": "nonpayable",
      "type": "function"
    },
    {
      "inputs": [
        {
          "internalType": "address",
          "name": "",
          "type": "address"
        }
      ],
      "name": "whiteList",
      "outputs": [
        {
          "internalType": "bool",
          "name": "",
          "type": "bool"
        }
      ],
      "stateMutability": "view",
      "type": "function"
    },
    {
      "inputs": [
        {
          "internalType": "uint256",
          "name": "offset",
          "type": "uint256"
        },
        {
          "internalType": "uint256",
          "name": "limit",
          "type": "uint256"
        }
      ],
      "name": "whiteListRange",
      "outputs": [
        {
          "internalType": "address[]",
          "name": "whiteList_",
          "type": "address[]"
        }
      ],
      "stateMutability": "view",
      "type": "function"
    }
  ],
  "bytecode": "0x6080806040523461005b5760008054336001600160a01b0319821681178355916001600160a01b03909116907f8be0079c531659141344cd1fd0a4f28419497f9722a3daafe3b4186f6b6457e09084a3611da390816100628239f35b50600080fdfe608060408181526004361015610017575b5050600080fd5b600091823560e01c90816301ffc9a71461039c5750806302702a7f1461036e5780630c54d108146103575780631249c58b146103405780631abd1df214610315578063248a9ca3146102db5780632f2ff15d146102c357806336568abe146102ab578063372c12b1146102765780633f2f5ee21461025b5780635e1045ec14610244578063715018a61461022d5780638da5cb5b1461020057806391d14854146101b4578063a217fddf14610199578063d547741f14610181578063e9a9c85014610161578063f1371c1a1461014a578063f2fde38b146101305763f5c57a8f1461010157610010565b3461012c57610128915061011d6101173661072a565b906115ef565b905191829182610740565b0390f35b5080fd5b503461012c5761014761014236610470565b610c9d565b51f35b503461012c5761014761015c366103fe565b6117e7565b50903461017c5750610172366103f0565b5160018152602090f35b809150fd5b503461012c5761014761019336610441565b906109fc565b50903461017c57506101aa366103f0565b5160008152602090f35b503461012c5761012891506101ef6101e86101e36101d136610441565b91906000526001602052604060002090565b6104c7565b5460ff1690565b905191829182901515815260200190565b503461012c5761012891610213366103f0565b5490516001600160a01b0390911681529081906020820190565b503461012c5761023c366103f0565b610147610c06565b503461012c57610147610256366106a4565b6116c8565b503461012c5761014761026d366105e4565b93929092610f36565b503461012c5761012891506101ef61028d36610470565b6001600160a01b031660009081526003602052604090205460ff1690565b503461012c576101476102bd36610441565b90610a20565b503461012c576101476102d536610441565b906107b0565b503461012c5761012891506103066102f23661041a565b600052600160205260016040600020015490565b90519081529081906020820190565b503461012c576101289150610329366103f0565b60ff60095416905191829182901515815260200190565b503461012c5761034f366103f0565b610147611bb3565b503461012c57610147610369366103fe565b611801565b503461012c576101289150610382366103f0565b60ff60095460081c16905191829182901515815260200190565b929150503461017c5750806101286103bb6103b6366103c6565b610784565b151582526020820190565b60209060031901126103ea576004356001600160e01b031981168114156100105790565b50600080fd5b60009060031901126103ea57565b60209060031901126103ea576004358015158114156100105790565b60209060031901126103ea5760043590565b35906001600160a01b03821682141561001057565b60409060031901126103ea57600435906024356001600160a01b0381168114156104685790565b505050600080fd5b60209060031901126103ea576004356001600160a01b0381168114156100105790565b6001600160a01b0316600090815260036020526040902090565b6001600160a01b0316600090815260086020526040902090565b9060018060a01b0316600052602052604060002090565b50634e487b7160e01b600052604160045260246000fd5b604081019081106001600160401b0382111761051057604052565b6105186104de565b604052565b602081019081106001600160401b0382111761051057604052565b601f909101601f19168101906001600160401b0382119082101761051057604052565b60405190610568826104f5565b565b6020906001600160401b038111610587575b601f01601f19160190565b61058f6104de565b61057c565b81601f82011215610468578035906105ab8261056a565b926105b96040519485610538565b828452602083830101116105db57816000926020809301838601378301015290565b50505050600080fd5b60a0600319820112610010576001600160a01b03916004358381168114156105db57926024359081168114156105db57916001600160401b0391604435838111610673578261063591600401610594565b92606435818111610667578361064d91600401610594565b926084359182116106675761066491600401610594565b90565b50505050505050600080fd5b505050505050600080fd5b6020906001600160401b038111610697575b60051b0190565b61069f6104de565b610690565b60208060031983011261046857600435916001600160401b0383116105db57806023840112156105db5782600401356106dc8161067e565b936106ea6040519586610538565b81855260248486019260051b82010192831161067357602401905b828210610713575050505090565b83809161071f8461042c565b815201910190610705565b60409060031901126103ea576004359060243590565b6020908160408183019282815285518094520193019160005b828110610767575050505090565b83516001600160a01b031685529381019392810192600101610759565b63ffffffff60e01b16637965db0b60e01b81149081156107a2575090565b6301ffc9a760e01b14919050565b60009080825260016020526107cb6001604084200154610830565b808252600160205260ff6107e284604085206104c7565b5416156107ee57505050565b808252600160205261080383604084206104c7565b805460ff1916600117905560405133936001600160a01b031692600080516020611d0083398151915291a4565b806000526001908160205260ff61084b3360406000206104c7565b541615610856575050565b90915033610862610d83565b92603061086e85610dd4565b53607861087a85610dea565b536029905b808211610929575050610925926108ff6108a86108e2946108a361090d9515610e35565b610e81565b6108dc6040519586946108dc6020870160179076020b1b1b2b9b9a1b7b73a3937b61d1030b1b1b7bab73a1604d1b81520190565b906109af565b7001034b99036b4b9b9b4b733903937b6329607d1b815260110190565b03601f198101835282610538565b60405162461bcd60e51b8152918291600483016109eb565b0390fd5b909180600f6109679216601081101561096d575b6f181899199a1a9b1b9c1cb0b131b232b360811b901a61095d8588610dfb565b5360041c92610e1a565b9061087f565b610975610dbd565b61093d565b918091926000905b82821061099a575011610993575050565b6000910152565b91508060209183015181860152018291610982565b906109c26020928281519485920161097a565b0190565b906020916109df8151809281855285808601910161097a565b601f01601f1916010190565b9060206106649281815201906109c6565b9061056891806000526001602052610a1b600160406000200154610830565b610b8c565b906001600160a01b038116331415610a3b5761056891610b8c565b505060405162461bcd60e51b815260206004820152602f60248201527f416363657373436f6e74726f6c3a2063616e206f6e6c792072656e6f756e636560448201526e103937b632b9903337b91039b2b63360891b606482015260849150fd5b6000808052600160205260ff610ad1837fa6eef7e35abe7026729641147f7915573c7e97b47efa546f5f6e3230263bcb496104c7565b541615610adc575050565b8080526001602052610af182604083206104c7565b805460ff1916600117905560405133926001600160a01b03169190600080516020611d00833981519152908290a4565b6001806000528060205260ff610b3b8360406000206104c7565b541615610b46575050565b8060005280602052610b5c8260406000206104c7565b805460ff19168217905560405133926001600160a01b03169190600080516020611d0083398151915290600090a4565b80600052600160205260ff610ba58360406000206104c7565b5416610baf575050565b806000526001602052610bc68260406000206104c7565b805460ff1916905560405133926001600160a01b031691907ff6391f5c32d9c69d2a47ea670b442974b53935d1edc7fd64eb21e047a839171b90600090a4565b610c0e610c43565b600080546001600160a01b0319811682556040516001600160a01b0390911690600080516020611d40833981519152908390a3565b6000546001600160a01b0316331415610c5857565b50606460405162461bcd60e51b815260206004820152602060248201527f4f776e61626c653a2063616c6c6572206973206e6f7420746865206f776e65726044820152fd5b610ca5610c43565b6001600160a01b03908116908115610ce457600080546001600160a01b0319811684178255604051921691600080516020611d408339815191529190a3565b505060405162461bcd60e51b815260206004820152602660248201527f4f776e61626c653a206e6577206f776e657220697320746865207a65726f206160448201526564647265737360d01b606482015260849150fd5b50634e487b7160e01b600052601160045260246000fd5b8019603011610d62575b60300190565b610d6a610d3b565b610d5c565b81198111610d7b570190565b6109c2610d3b565b60405190606082016001600160401b03811183821017610db0575b604052602a8252604082602036910137565b610db86104de565b610d9e565b50634e487b7160e01b600052603260045260246000fd5b602090805115610de2570190565b6109c2610dbd565b602190805160011015610de2570190565b906020918051821015610e0d57010190565b610e15610dbd565b010190565b8015610e28575b6000190190565b610e30610d3b565b610e21565b15610e3c57565b50606460405162461bcd60e51b815260206004820152602060248201527f537472696e67733a20686578206c656e67746820696e73756666696369656e746044820152fd5b60405190608082016001600160401b03811183821017610f29575b6040526042825260603660208401376030610eb683610dd4565b536078610ec283610dea565b536041905b60018211610eda57610664915015610e35565b80600f610f1692166010811015610f1c575b6f181899199a1a9b1b9c1cb0b131b232b360811b901a610f0c8486610dfb565b5360041c91610e1a565b90610ec7565b610f24610dbd565b610eec565b610f316104de565b610e9c565b929093916000549460ff8660a81c16158096819761105c575b8115611039575b5015610fd7576000805460ff60a01b1916600160a01b179055610f7d9486610fbf5761106e565b610f8357565b6000805460ff60a81b19169055604051600181527f7f26b83ff96e1f2b6a682f133852f6798a09c465da95921460cefb384740249890602090a1565b6000805460ff60a81b1916600160a81b17905561106e565b50505050505050608460405162461bcd60e51b815260206004820152602e60248201527f496e697469616c697a61626c653a20636f6e747261637420697320616c72656160448201526d191e481a5b9a5d1a585b1a5e995960921b6064820152fd5b303b1591508161104b575b5038610f56565b60a01c60ff16600114905038611044565b9050600160ff8260a01c161090610f4f565b926111126110f8602080956110c0611160999661109e6111469a611090610c43565b61109981610a9b565b610b21565b600280546001600160a01b0319166001600160a01b0392909216919091179055565b6002546110dd906001600160a01b03165b6001600160a01b031690565b6040518080958194639377268d60e01b8352600483016109eb565b03915afa9081156111e9575b6000916111d4575b50600555565b600254611127906001600160a01b03166110d1565b906000604051809681958294630a06da3560e31b845260048401611212565b03925af19081156111c7575b6000916111a9575b50600655565b6105686111a461116e611237565b611176611237565b61117e611237565b61118960055461147f565b9061119560065461147f565b9261119e611237565b94611254565b611375565b6111c191506111b83d82610538565b3d8101906111f6565b3861115a565b6111cf611205565b611152565b6111e391506111b83d82610538565b3861110c565b6111f1611205565b611104565b90816020910312610010575190565b506040513d6000823e3d90fd5b9091611229610664936040845260408401906109c6565b9160208184039101526109c6565b60405190611244826104f5565b60018252605f60f81b6020830152565b92936105689496959192966040519788948651611279816020998a808b01910161097a565b860161128d825180938a808501910161097a565b016112a08251809389808501910161097a565b016112b38251809388808501910161097a565b016112c68251809387808501910161097a565b016112d98251809386808501910161097a565b01038085520183610538565b90600182811c92168015611317575b60208310146112ff57565b5050634e487b7160e01b600052602260045260246000fd5b91607f16916112f4565b601f811161132d575050565b6000906007825260208220906020601f850160051c8301941061136b575b601f0160051c01915b82811061136057505050565b818155600101611354565b909250829061134b565b80519091906001600160401b03811161144b575b61139d816113986007546112e5565b611321565b602080601f83116001146113d957508192936000926113ce575b50508160011b916000199060031b1c191617600755565b0151905038806113b7565b6007600052601f19831694909190600080516020611d20833981519152926000905b87821061143357505083600195961061141a575b505050811b01600755565b015160001960f88460031b161c1916905538808061140f565b806001859682949686015181550195019301906113fb565b6114536104de565b611389565b6001906000198114610d7b570190565b818110611473570390565b61147b610d3b565b0390565b801561153a57806000908282935b611526575061149b8361056a565b926114a96040519485610538565b80845281601f196114b98361056a565b013660208701375b6114cb5750505090565b60018110611519575b6000190190600a90826115106115076114f76114f1868606610d52565b60ff1690565b60f81b6001600160f81b03191690565b861a9187610dfb565b530490816114c1565b611521610d3b565b6114d4565b92611532600a91611458565b93048061148d565b50604051611547816104f5565b60018152600360fc1b602082015290565b604051906115658261051d565b6000808352366020840137565b9061157c8261067e565b6115896040519182610538565b828152809261159a601f199161067e565b0190602036910137565b6004548110156115c0575b600460005260206000200190600090565b6115c8610dbd565b6115af565b60209181518110156115e2575b60051b010190565b6115ea610dbd565b6115da565b91906004548084116116bc5783816116349261160b8584610d6f565b11156116ac5780935b8161161f8285610d6f565b11156116a45750818110611697575b03611572565b92805b82811061164357505050565b8061168d61166b611656611692946115a4565b905460039190911b1c6001600160a01b031690565b61167e6116788685611468565b896115cd565b6001600160a01b039091169052565b611458565b611637565b61169f610d3b565b61162e565b915050611572565b6116b68483610d6f565b93611614565b50509050610664611558565b6000808052600160208181527fa6eef7e35abe7026729641147f7915573c7e97b47efa546f5f6e3230263bcb4a54919384926040919061170790610830565b84935b611717575b505050505050565b80518410156117e2578593611754906001600160a01b038061173983866115cd565b511688526003865260ff85892054161561175a575b50611458565b9361170a565b61177f6117728261176b85886115cd565b5116610493565b805460ff19166001179055565b61178982856115cd565b51166004805490600160401b8210156117d5575b8882018082558210156117c8575b89528689200180546001600160a01b03191690911790553861174e565b6117d0610dbd565b6117ab565b6117dd6104de565b61179d565b61170f565b6117ef610c43565b60ff8019600954169115151617600955565b611809610c43565b61ff0060095491151560081b169061ff00191617600955565b1561182957565b5060405162461bcd60e51b81526020600482015260116024820152701c195c9b5a5cdcda5bdb8819195b9a5959607a1b6044820152606490fd5b60405190816000600754611876816112e5565b906001908181169081156118e6575060011461189b575b505060209281520301902090565b60076000908152600080516020611d208339815191529593506020915b8382106118d05750505060209350820190923861188d565b86548883015295860195879550908201906118b8565b60ff1916855250508201905060203861188d565b1561190157565b5060405162461bcd60e51b815260206004820152600e60248201526d185b1c9958591e481b5a5b9d195960921b6044820152606490fd5b604090815191611947836104f5565b600183528291600091825b60208082101561197e5782516020929161196b826104f5565b8682528681830152828901015201611952565b50505091925050565b6040516119938161051d565b6000815290565b90815180825260208080930193019160005b8281106119ba575050505090565b83518051865282015185830152604090940193928101926001016119ac565b90815180825260208092019182818360051b85019501936000915b848310611a045750505050505090565b9091929394958480611a308385600195038752828b5180518352015190604090818582015201906109c6565b98019301930191949392906119f4565b90815180825260208080930193019160005b828110611a60575050505090565b8351805186528201516001600160a01b03168583015260409094019392810192600101611a52565b9094929493919360018060a01b03168152602091600083830152611aee611adf611ad0611ac160409860e08a88015260e087019061199a565b6060998682038b8801526119d9565b60809385820385870152611a40565b60a0958482038786015261199a565b9160c08184039101528651938483528383019184808760051b8601019901966000945b878610611b25575050505050505050505090565b9091929394959697989a998780611b9d878f94888f600197611b7b611b6b8f93611b8d948d601f199089030190525196875187528988015190808b89015287019061199a565b868d0151868203878f01526119d9565b90808601519085830390860152611a40565b920151908981840391015261199a565b9c9d9b0199989791909101950193929190611b11565b60ff600954818160081c168015611ce8575b611bce90611822565b168015611cc4575b611bdf906118fa565b611c05611772611c00611bf1336104ad565b60008052602052604060002090565b611863565b611c0d611938565b600554600654611c1b61055b565b9182526020820152611c2c82610dd4565b52611c3681610dd4565b50600254602090611c4f906001600160a01b03166110d1565b611c57611987565b90611c60611987565b6000611c6a611987565b93611c94611c76611987565b6040516352e89bbd60e01b8152988997889687953360048801611a88565b03925af18015611cb7575b611ca65750565b611cb4906111b83d82610538565b50565b611cbf611205565b611c9f565b50611bdf611ce1611cdd6101e8611c00611bf1336104ad565b1590565b9050611bd6565b50611bce611cf86101e833610493565b9050611bc556fe2f8788117e7eff1d82e926ec794901d17c78024a50270940304540a733656f0da66cc928b5edb82af9bd49922954155ab7b0942694bea4ce44661d9a8736c6888be0079c531659141344cd1fd0a4f28419497f9722a3daafe3b4186f6b6457e0a3646970667358221220746355922e0bee7d7842e732777b0f37f477c95a5680118706c78ee104bbbf636c6578706572696d656e74616cf564736f6c634300080c0041",
  "linkReferences": {},
  "deployedLinkReferences": {}
}