{
  "_format": "hh-sol-artifact-1",
  "contractName": "SemanticSBTPrivacy",
  "sourceName": "contracts/core/SemanticSBTPrivacy.sol",
  "abi": [
    {
      "anonymous": false,
      "inputs": [
        {
          "indexed": true,
          "internalType": "address",
          "name": "owner",
          "type": "address"
        },
        {
          "indexed": true,
          "internalType": "address",
          "name": "approved",
          "type": "address"
        },
        {
          "indexed": true,
          "internalType": "uint256",
          "name": "tokenId",
          "type": "uint256"
        }
      ],
      "name": "Approval",
      "type": "event"
    },
    {
      "anonymous": false,
      "inputs": [
        {
          "indexed": true,
          "internalType": "address",
          "name": "owner",
          "type": "address"
        },
        {
          "indexed": true,
          "internalType": "address",
          "name": "operator",
          "type": "address"
        },
        {
          "indexed": false,
          "internalType": "bool",
          "name": "approved",
          "type": "bool"
        }
      ],
      "name": "ApprovalForAll",
      "type": "event"
    },
    {
      "anonymous": false,
      "inputs": [
        {
          "indexed": true,
          "internalType": "address",
          "name": "operator",
          "type": "address"
        },
        {
          "indexed": true,
          "internalType": "address",
          "name": "owner",
          "type": "address"
        },
        {
          "indexed": true,
          "internalType": "uint256",
          "name": "tokenId",
          "type": "uint256"
        },
        {
          "indexed": false,
          "internalType": "string",
          "name": "rdf",
          "type": "string"
        }
      ],
      "name": "CreateSBT",
      "type": "event"
    },
    {
      "anonymous": false,
      "inputs": [
        {
          "indexed": true,
          "internalType": "address",
          "name": "newMinter",
          "type": "address"
        }
      ],
      "name": "EventMinterAdded",
      "type": "event"
    },
    {
      "anonymous": false,
      "inputs": [
        {
          "indexed": true,
          "internalType": "address",
          "name": "oldMinter",
          "type": "address"
        }
      ],
      "name": "EventMinterRemoved",
      "type": "event"
    },
    {
      "anonymous": false,
      "inputs": [
        {
          "indexed": false,
          "internalType": "uint8",
          "name": "version",
          "type": "uint8"
        }
      ],
      "name": "Initialized",
      "type": "event"
    },
    {
      "anonymous": false,
      "inputs": [
        {
          "indexed": true,
          "internalType": "address",
          "name": "previousOwner",
          "type": "address"
        },
        {
          "indexed": true,
          "internalType": "address",
          "name": "newOwner",
          "type": "address"
        }
      ],
      "name": "OwnershipTransferred",
      "type": "event"
    },
    {
      "anonymous": false,
      "inputs": [
        {
          "indexed": true,
          "internalType": "address",
          "name": "operator",
          "type": "address"
        },
        {
          "indexed": true,
          "internalType": "address",
          "name": "owner",
          "type": "address"
        },
        {
          "indexed": true,
          "internalType": "uint256",
          "name": "tokenId",
          "type": "uint256"
        },
        {
          "indexed": false,
          "internalType": "string",
          "name": "rdf",
          "type": "string"
        }
      ],
      "name": "RemoveSBT",
      "type": "event"
    },
    {
      "anonymous": false,
      "inputs": [
        {
          "indexed": true,
          "internalType": "address",
          "name": "from",
          "type": "address"
        },
        {
          "indexed": true,
          "internalType": "address",
          "name": "to",
          "type": "address"
        },
        {
          "indexed": true,
          "internalType": "uint256",
          "name": "tokenId",
          "type": "uint256"
        }
      ],
      "name": "Transfer",
      "type": "event"
    },
    {
      "inputs": [
        {
          "internalType": "address",
          "name": "minter",
          "type": "address"
        }
      ],
      "name": "addMinter",
      "outputs": [],
      "stateMutability": "nonpayable",
      "type": "function"
    },
    {
      "inputs": [
        {
          "internalType": "string",
          "name": "value",
          "type": "string"
        },
        {
          "internalType": "string",
          "name": "className_",
          "type": "string"
        }
      ],
      "name": "addSubject",
      "outputs": [
        {
          "internalType": "uint256",
          "name": "sIndex",
          "type": "uint256"
        }
      ],
      "stateMutability": "nonpayable",
      "type": "function"
    },
    {
      "inputs": [
        {
          "internalType": "address",
          "name": "viewer",
          "type": "address"
        },
        {
          "internalType": "uint256",
          "name": "tokenId",
          "type": "uint256"
        }
      ],
      "name": "addViewer",
      "outputs": [],
      "stateMutability": "nonpayable",
      "type": "function"
    },
    {
      "inputs": [
        {
          "internalType": "address",
          "name": "to",
          "type": "address"
        },
        {
          "internalType": "uint256",
          "name": "tokenId",
          "type": "uint256"
        }
      ],
      "name": "approve",
      "outputs": [],
      "stateMutability": "nonpayable",
      "type": "function"
    },
    {
      "inputs": [
        {
          "internalType": "address",
          "name": "owner",
          "type": "address"
        }
      ],
      "name": "balanceOf",
      "outputs": [
        {
          "internalType": "uint256",
          "name": "",
          "type": "uint256"
        }
      ],
      "stateMutability": "view",
      "type": "function"
    },
    {
      "inputs": [],
      "name": "baseURI",
      "outputs": [
        {
          "internalType": "string",
          "name": "",
          "type": "string"
        }
      ],
      "stateMutability": "view",
      "type": "function"
    },
    {
      "inputs": [
        {
          "internalType": "address",
          "name": "account",
          "type": "address"
        },
        {
          "internalType": "uint256",
          "name": "id",
          "type": "uint256"
        }
      ],
      "name": "burn",
      "outputs": [],
      "stateMutability": "nonpayable",
      "type": "function"
    },
    {
      "inputs": [
        {
          "internalType": "address",
          "name": "account",
          "type": "address"
        },
        {
          "internalType": "uint256[]",
          "name": "ids",
          "type": "uint256[]"
        }
      ],
      "name": "burnBatch",
      "outputs": [],
      "stateMutability": "nonpayable",
      "type": "function"
    },
    {
      "inputs": [
        {
          "internalType": "string",
          "name": "className_",
          "type": "string"
        }
      ],
      "name": "classIndex",
      "outputs": [
        {
          "internalType": "uint256",
          "name": "classIndex_",
          "type": "uint256"
        }
      ],
      "stateMutability": "view",
      "type": "function"
    },
    {
      "inputs": [
        {
          "internalType": "uint256",
          "name": "cIndex",
          "type": "uint256"
        }
      ],
      "name": "className",
      "outputs": [
        {
          "internalType": "string",
          "name": "name_",
          "type": "string"
        }
      ],
      "stateMutability": "view",
      "type": "function"
    },
    {
      "inputs": [
        {
          "internalType": "uint256",
          "name": "tokenId",
          "type": "uint256"
        }
      ],
      "name": "getApproved",
      "outputs": [
        {
          "internalType": "address",
          "name": "",
          "type": "address"
        }
      ],
      "stateMutability": "view",
      "type": "function"
    },
    {
      "inputs": [],
      "name": "getMinted",
      "outputs": [
        {
          "internalType": "uint256",
          "name": "",
          "type": "uint256"
        }
      ],
      "stateMutability": "view",
      "type": "function"
    },
    {
      "inputs": [
        {
          "internalType": "address",
          "name": "minter",
          "type": "address"
        },
        {
          "internalType": "string",
          "name": "name_",
          "type": "string"
        },
        {
          "internalType": "string",
          "name": "symbol_",
          "type": "string"
        },
        {
          "internalType": "string",
          "name": "baseURI_",
          "type": "string"
        },
        {
          "internalType": "string",
          "name": "schemaURI_",
          "type": "string"
        },
        {
          "internalType": "string[]",
          "name": "classes_",
          "type": "string[]"
        },
        {
          "components": [
            {
              "internalType": "string",
              "name": "name",
              "type": "string"
            },
            {
              "internalType": "enum FieldType",
              "name": "fieldType",
              "type": "uint8"
            }
          ],
          "internalType": "struct Predicate[]",
          "name": "predicates_",
          "type": "tuple[]"
        }
      ],
      "name": "initialize",
      "outputs": [],
      "stateMutability": "nonpayable",
      "type": "function"
    },
    {
      "inputs": [
        {
          "internalType": "address",
          "name": "owner",
          "type": "address"
        },
        {
          "internalType": "address",
          "name": "operator",
          "type": "address"
        }
      ],
      "name": "isApprovedForAll",
      "outputs": [
        {
          "internalType": "bool",
          "name": "",
          "type": "bool"
        }
      ],
      "stateMutability": "view",
      "type": "function"
    },
    {
      "inputs": [
        {
          "internalType": "address",
          "name": "account",
          "type": "address"
        },
        {
          "internalType": "uint256",
          "name": "id",
          "type": "uint256"
        }
      ],
      "name": "isOwnerOf",
      "outputs": [
        {
          "internalType": "bool",
          "name": "",
          "type": "bool"
        }
      ],
      "stateMutability": "view",
      "type": "function"
    },
    {
      "inputs": [
        {
          "internalType": "address",
          "name": "viewer",
          "type": "address"
        },
        {
          "internalType": "uint256",
          "name": "tokenId",
          "type": "uint256"
        }
      ],
      "name": "isViewerOf",
      "outputs": [
        {
          "internalType": "bool",
          "name": "",
          "type": "bool"
        }
      ],
      "stateMutability": "view",
      "type": "function"
    },
    {
      "inputs": [
        {
          "internalType": "address",
          "name": "account",
          "type": "address"
        },
        {
          "internalType": "uint256",
          "name": "sIndex",
          "type": "uint256"
        },
        {
          "components": [
            {
              "internalType": "uint256",
              "name": "pIndex",
              "type": "uint256"
            },
            {
              "internalType": "uint256",
              "name": "o",
              "type": "uint256"
            }
          ],
          "internalType": "struct IntPO[]",
          "name": "intPOList",
          "type": "tuple[]"
        },
        {
          "components": [
            {
              "internalType": "uint256",
              "name": "pIndex",
              "type": "uint256"
            },
            {
              "internalType": "string",
              "name": "o",
              "type": "string"
            }
          ],
          "internalType": "struct StringPO[]",
          "name": "stringPOList",
          "type": "tuple[]"
        },
        {
          "components": [
            {
              "internalType": "uint256",
              "name": "pIndex",
              "type": "uint256"
            },
            {
              "internalType": "address",
              "name": "o",
              "type": "address"
            }
          ],
          "internalType": "struct AddressPO[]",
          "name": "addressPOList",
          "type": "tuple[]"
        },
        {
          "components": [
            {
              "internalType": "uint256",
              "name": "pIndex",
              "type": "uint256"
            },
            {
              "internalType": "uint256",
              "name": "oIndex",
              "type": "uint256"
            }
          ],
          "internalType": "struct SubjectPO[]",
          "name": "subjectPOList",
          "type": "tuple[]"
        },
        {
          "components": [
            {
              "internalType": "uint256",
              "name": "pIndex",
              "type": "uint256"
            },
            {
              "components": [
                {
                  "internalType": "uint256",
                  "name": "pIndex",
                  "type": "uint256"
                },
                {
                  "internalType": "uint256",
                  "name": "o",
                  "type": "uint256"
                }
              ],
              "internalType": "struct IntPO[]",
              "name": "intO",
              "type": "tuple[]"
            },
            {
              "components": [
                {
                  "internalType": "uint256",
                  "name": "pIndex",
                  "type": "uint256"
                },
                {
                  "internalType": "string",
                  "name": "o",
                  "type": "string"
                }
              ],
              "internalType": "struct StringPO[]",
              "name": "stringO",
              "type": "tuple[]"
            },
            {
              "components": [
                {
                  "internalType": "uint256",
                  "name": "pIndex",
                  "type": "uint256"
                },
                {
                  "internalType": "address",
                  "name": "o",
                  "type": "address"
                }
              ],
              "internalType": "struct AddressPO[]",
              "name": "addressO",
              "type": "tuple[]"
            },
            {
              "components": [
                {
                  "internalType": "uint256",
                  "name": "pIndex",
                  "type": "uint256"
                },
                {
                  "internalType": "uint256",
                  "name": "oIndex",
                  "type": "uint256"
                }
              ],
              "internalType": "struct SubjectPO[]",
              "name": "subjectO",
              "type": "tuple[]"
            }
          ],
          "internalType": "struct BlankNodePO[]",
          "name": "blankNodePOList",
          "type": "tuple[]"
        }
      ],
      "name": "mint",
      "outputs": [
        {
          "internalType": "uint256",
          "name": "",
          "type": "uint256"
        }
      ],
      "stateMutability": "nonpayable",
      "type": "function"
    },
    {
      "inputs": [
        {
          "internalType": "uint256",
          "name": "tokenId",
          "type": "uint256"
        },
        {
          "internalType": "uint256",
          "name": "pIndex",
          "type": "uint256"
        },
        {
          "internalType": "string",
          "name": "object",
          "type": "string"
        }
      ],
      "name": "mintPrivacy",
      "outputs": [
        {
          "internalType": "uint256",
          "name": "",
          "type": "uint256"
        }
      ],
      "stateMutability": "nonpayable",
      "type": "function"
    },
    {
      "inputs": [
        {
          "internalType": "address",
          "name": "account",
          "type": "address"
        }
      ],
      "name": "minters",
      "outputs": [
        {
          "internalType": "bool",
          "name": "",
          "type": "bool"
        }
      ],
      "stateMutability": "view",
      "type": "function"
    },
    {
      "inputs": [],
      "name": "name",
      "outputs": [
        {
          "internalType": "string",
          "name": "",
          "type": "string"
        }
      ],
      "stateMutability": "view",
      "type": "function"
    },
    {
      "inputs": [
        {
          "internalType": "address",
          "name": "owner",
          "type": "address"
        }
      ],
      "name": "ownedPrepareTokenId",
      "outputs": [
        {
          "internalType": "uint256",
          "name": "",
          "type": "uint256"
        }
      ],
      "stateMutability": "view",
      "type": "function"
    },
    {
      "inputs": [],
      "name": "owner",
      "outputs": [
        {
          "internalType": "address",
          "name": "",
          "type": "address"
        }
      ],
      "stateMutability": "view",
      "type": "function"
    },
    {
      "inputs": [
        {
          "internalType": "uint256",
          "name": "tokenId",
          "type": "uint256"
        }
      ],
      "name": "ownerOf",
      "outputs": [
        {
          "internalType": "address",
          "name": "",
          "type": "address"
        }
      ],
      "stateMutability": "view",
      "type": "function"
    },
    {
      "inputs": [
        {
          "internalType": "uint256",
          "name": "pIndex",
          "type": "uint256"
        }
      ],
      "name": "predicate",
      "outputs": [
        {
          "internalType": "string",
          "name": "name_",
          "type": "string"
        },
        {
          "internalType": "enum FieldType",
          "name": "fieldType",
          "type": "uint8"
        }
      ],
      "stateMutability": "view",
      "type": "function"
    },
    {
      "inputs": [
        {
          "internalType": "string",
          "name": "predicateName_",
          "type": "string"
        }
      ],
      "name": "predicateIndex",
      "outputs": [
        {
          "internalType": "uint256",
          "name": "predicateIndex_",
          "type": "uint256"
        }
      ],
      "stateMutability": "view",
      "type": "function"
    },
    {
      "inputs": [],
      "name": "prepareTokenId",
      "outputs": [
        {
          "internalType": "uint256",
          "name": "",
          "type": "uint256"
        }
      ],
      "stateMutability": "nonpayable",
      "type": "function"
    },
    {
      "inputs": [
        {
          "internalType": "uint256",
          "name": "tokenId",
          "type": "uint256"
        }
      ],
      "name": "rdfOf",
      "outputs": [
        {
          "internalType": "string",
          "name": "",
          "type": "string"
        }
      ],
      "stateMutability": "view",
      "type": "function"
    },
    {
      "inputs": [
        {
          "internalType": "address",
          "name": "minter",
          "type": "address"
        }
      ],
      "name": "removeMinter",
      "outputs": [],
      "stateMutability": "nonpayable",
      "type": "function"
    },
    {
      "inputs": [],
      "name": "renounceOwnership",
      "outputs": [],
      "stateMutability": "nonpayable",
      "type": "function"
    },
    {
      "inputs": [
        {
          "internalType": "address",
          "name": "from",
          "type": "address"
        },
        {
          "internalType": "address",
          "name": "to",
          "type": "address"
        },
        {
          "internalType": "uint256",
          "name": "tokenId",
          "type": "uint256"
        }
      ],
      "name": "safeTransferFrom",
      "outputs": [],
      "stateMutability": "nonpayable",
      "type": "function"
    },
    {
      "inputs": [
        {
          "internalType": "address",
          "name": "from",
          "type": "address"
        },
        {
          "internalType": "address",
          "name": "to",
          "type": "address"
        },
        {
          "internalType": "uint256",
          "name": "tokenId",
          "type": "uint256"
        },
        {
          "internalType": "bytes",
          "name": "_data",
          "type": "bytes"
        }
      ],
      "name": "safeTransferFrom",
      "outputs": [],
      "stateMutability": "nonpayable",
      "type": "function"
    },
    {
      "inputs": [],
      "name": "schemaURI",
      "outputs": [
        {
          "internalType": "string",
          "name": "",
          "type": "string"
        }
      ],
      "stateMutability": "view",
      "type": "function"
    },
    {
      "inputs": [
        {
          "internalType": "address",
          "name": "operator",
          "type": "address"
        },
        {
          "internalType": "bool",
          "name": "approved",
          "type": "bool"
        }
      ],
      "name": "setApprovalForAll",
      "outputs": [],
      "stateMutability": "nonpayable",
      "type": "function"
    },
    {
      "inputs": [
        {
          "internalType": "string",
          "name": "newName",
          "type": "string"
        }
      ],
      "name": "setName",
      "outputs": [],
      "stateMutability": "nonpayable",
      "type": "function"
    },
    {
      "inputs": [
        {
          "internalType": "string",
          "name": "newSymbol",
          "type": "string"
        }
      ],
      "name": "setSymbol",
      "outputs": [],
      "stateMutability": "nonpayable",
      "type": "function"
    },
    {
      "inputs": [
        {
          "internalType": "bool",
          "name": "transferable_",
          "type": "bool"
        }
      ],
      "name": "setTransferable",
      "outputs": [],
      "stateMutability": "nonpayable",
      "type": "function"
    },
    {
      "inputs": [
        {
          "internalType": "string",
          "name": "newURI",
          "type": "string"
        }
      ],
      "name": "setURI",
      "outputs": [],
      "stateMutability": "nonpayable",
      "type": "function"
    },
    {
      "inputs": [
        {
          "internalType": "uint256",
          "name": "index",
          "type": "uint256"
        }
      ],
      "name": "subject",
      "outputs": [
        {
          "internalType": "string",
          "name": "subjectValue",
          "type": "string"
        },
        {
          "internalType": "string",
          "name": "className_",
          "type": "string"
        }
      ],
      "stateMutability": "view",
      "type": "function"
    },
    {
      "inputs": [
        {
          "internalType": "string",
          "name": "subjectValue",
          "type": "string"
        },
        {
          "internalType": "string",
          "name": "className_",
          "type": "string"
        }
      ],
      "name": "subjectIndex",
      "outputs": [
        {
          "internalType": "uint256",
          "name": "",
          "type": "uint256"
        }
      ],
      "stateMutability": "view",
      "type": "function"
    },
    {
      "inputs": [
        {
          "internalType": "bytes4",
          "name": "interfaceId",
          "type": "bytes4"
        }
      ],
      "name": "supportsInterface",
      "outputs": [
        {
          "internalType": "bool",
          "name": "",
          "type": "bool"
        }
      ],
      "stateMutability": "view",
      "type": "function"
    },
    {
      "inputs": [],
      "name": "symbol",
      "outputs": [
        {
          "internalType": "string",
          "name": "",
          "type": "string"
        }
      ],
      "stateMutability": "view",
      "type": "function"
    },
    {
      "inputs": [
        {
          "internalType": "uint256",
          "name": "index",
          "type": "uint256"
        }
      ],
      "name": "tokenByIndex",
      "outputs": [
        {
          "internalType": "uint256",
          "name": "",
          "type": "uint256"
        }
      ],
      "stateMutability": "view",
      "type": "function"
    },
    {
      "inputs": [
        {
          "internalType": "address",
          "name": "owner",
          "type": "address"
        },
        {
          "internalType": "uint256",
          "name": "index",
          "type": "uint256"
        }
      ],
      "name": "tokenOfOwnerByIndex",
      "outputs": [
        {
          "internalType": "uint256",
          "name": "",
          "type": "uint256"
        }
      ],
      "stateMutability": "view",
      "type": "function"
    },
    {
      "inputs": [
        {
          "internalType": "uint256",
          "name": "tokenId",
          "type": "uint256"
        }
      ],
      "name": "tokenURI",
      "outputs": [
        {
          "internalType": "string",
          "name": "",
          "type": "string"
        }
      ],
      "stateMutability": "view",
      "type": "function"
    },
    {
      "inputs": [],
      "name": "totalSupply",
      "outputs": [
        {
          "internalType": "uint256",
          "name": "",
          "type": "uint256"
        }
      ],
      "stateMutability": "view",
      "type": "function"
    },
    {
      "inputs": [
        {
          "internalType": "address",
          "name": "from",
          "type": "address"
        },
        {
          "internalType": "address",
          "name": "to",
          "type": "address"
        },
        {
          "internalType": "uint256",
          "name": "tokenId",
          "type": "uint256"
        }
      ],
      "name": "transferFrom",
      "outputs": [],
      "stateMutability": "nonpayable",
      "type": "function"
    },
    {
      "inputs": [
        {
          "internalType": "address",
          "name": "newOwner",
          "type": "address"
        }
      ],
      "name": "transferOwnership",
      "outputs": [],
      "stateMutability": "nonpayable",
      "type": "function"
    },
    {
      "inputs": [],
      "name": "transferable",
      "outputs": [
        {
          "internalType": "bool",
          "name": "",
          "type": "bool"
        }
      ],
      "stateMutability": "view",
      "type": "function"
    }
  ],
  "bytecode": "0x60808060405234620000f45760008054336001600160a01b0319821681178355620000e49390916001600160a01b0316907f8be0079c531659141344cd1fd0a4f28419497f9722a3daafe3b4186f6b6457e0908490a3620000b86200006362000160565b6200006d62000160565b6200007762000111565b9184835284602084015260408301526060820152620000b26200009962000140565b91620000a46200019d565b8352846020840152620002a4565b620004c5565b620000c262000608565b620000cc62000140565b90620000d76200019d565b8252602082015262000703565b6040516158d19081620008618239f35b50600080fd5b50634e487b7160e01b600052604160045260246000fd5b60405190608082016001600160401b038111838210176200013157604052565b6200013b620000fa565b604052565b60408051919082016001600160401b038111838210176200013157604052565b6040516020810191906000906001600160401b038411818510176200018d575b8360405281815292369037565b62000197620000fa565b62000180565b60405190602082016001600160401b03811183821017620001c2575b60405260008252565b620001cc620000fa565b620001b9565b50634e487b7160e01b600052603260045260246000fd5b50634e487b7160e01b600052600060045260246000fd5b8181106200020c575050565b6000815560010162000200565b81519168010000000000000000831162000294575b815483835580841062000273575b50602080910191600052806000206000925b8484106200025d575050505050565b600183828293518555019201930192906200024e565b6200028d9083600052846020600020918201910162000200565b386200023c565b6200029e620000fa565b6200022e565b600454906801000000000000000080831015620003ca575b60019081840180600455841015620003ba575b60046000908152835160029590951b7f8a35acfbc15ff81a39ae7d344fd709f28e8600b4aa8c65c6b64bfe7fe36bd19b0180546001600160a01b0319166001600160a01b039690961695909517855560208085015184870155600286018160408701518051958611620003aa575b82548684558087106200038d575b5091845282842091015b8484106200037957505050505050906003606062000377930151910162000219565b565b805182559285019290850190820162000355565b838652828620620003a391810190880162000200565b386200034b565b620003b4620000fa565b6200033d565b620003c4620001d2565b620002cf565b620003d4620000fa565b620002bc565b600a54811015620003fb575b600a60005260206000209060011b0190600090565b62000405620001d2565b620003e6565b6011548110156200042c575b601160005260206000209060011b0190600090565b62000436620001d2565b62000417565b90600182811c9216801562000470575b60208310146200045857565b5050634e487b7160e01b600052602260045260246000fd5b91607f16916200044c565b9190601f81116200048b57505050565b62000377926000526020600020906020601f840160051c83019310620004ba575b601f0160051c019062000200565b9091508190620004ac565b600a5468010000000000000000811015620005f8575b620004ee600191828101600a55620003da565b929092620005e8575b805180519091906001600160401b038111620005d8575b62000526816200051f87546200043c565b876200047b565b806020938490601f831160011462000568576000926200055c575b5050600019600383901b1c191690841b1784555b0151910155565b01519050388062000541565b90869350601f198316916200058289600052602060002090565b9260005b88828210620005c15750508411620005a7575b505050811b01845562000555565b015160001960f88460031b161c1916905538808062000599565b8385015186558a9790950194938401930162000586565b620005e2620000fa565b6200050e565b620005f2620001e9565b620004f7565b62000602620000fa565b620004db565b6000600f54680100000000000000008110156200069f575b6001810180600f558110156200068f575b600f82527f8d1108e10bcb7c27dddfc02ed9d693a074039d026cf4ea4240b40f7d581ac80201805462000664906200043c565b601f811162000671575055565b818352602083206200068c91601f0160051c81019062000200565b55565b62000699620001d2565b62000631565b620006a9620000fa565b62000620565b60051115620006ba57565b50634e487b7160e01b600052602160045260246000fd5b906005811015620006ea5760ff80198354169116179055565b505050634e487b7160e01b600052602160045260246000fd5b906011546801000000000000000081101562000850575b6200072d6001918281016011556200040b565b91909162000840575b83518051946001600160401b03861162000830575b62000763866200075c86546200043c565b866200047b565b6020918290601f8811600114620007bb57968091620003779798600092620007af575b5050600019600383901b1c191690841b1784555b015191620007a883620006af565b01620006d1565b01519050388062000786565b90601f19881691620007d287600052602060002090565b9260005b8181106200081a5750918693918a620003779a9b941062000800575b505050811b0184556200079a565b015160001960f88460031b161c19169055388080620007f2565b82840151855593870193928601928601620007d6565b6200083a620000fa565b6200074b565b6200084a620001e9565b62000736565b6200085a620000fa565b6200071a56fe6040608081526004361015610015575b50600080fd5b600090813560e01c806301ffc9a7146107db57806302fe5305146107c357806306fdde03146107a7578063081812fc1461078b578063095ea7b314610773578063152407ae1461075757806318160ddd1461073b5780631b1d639d146107235780631dfc01e5146107065780631f624755146106d457806323b872dd146106bc5780632f745c591461069f5780633092afd51461068857806341be3f181461066b57806342842e0e146106535780634f6ccce7146106375780635036d1a81461061a57806352e89bbd146105f757806358e23bac146105db5780636352211e146105b45780636c0360eb1461059857806370a082311461057c578063715018a6146105655780638bb07877146105495780638da5cb5b1461052157806392ff0d31146104f65780639377268d146104da57806395d89b41146104be578063983b2d56146104a75780639cd23707146104905780639dc29fac14610478578063a22cb46514610460578063a6c1653d14610443578063a9ff13a61461041a578063ac72200d146103ef578063b2dc5dc3146103d7578063b84c8246146103bf578063b88d4fde146103a4578063c47f00271461038c578063c5b8f7721461036f578063c87b56dd14610353578063d49116f514610335578063d4b0c4031461030c578063deeec344146102f0578063e985e9c5146102c0578063f2fde38b146102a6578063f46eccc4146102605763fbafb69814610232575061000f565b3461025c57610258915061024d61024836610915565b6125ea565b905191829182610904565b0390f35b5080fd5b503461025c57610258915061029561027736610b50565b6001600160a01b031660009081526008602052604090205460ff1690565b905191829182901515815260200190565b503461025c576102bd6102b836610b50565b611794565b51f35b503461025c5761025891506102956102e96102e46102dd366116ca565b9190611b36565b611b84565b5460ff1690565b503461025c57610258915061024d61030736610915565b61224c565b503461025c57610258915061032861032336610915565b6123ee565b929091519283928361168b565b503461025c576102bd610347366115b3565b95949094939193611851565b503461025c57610258915061024d61036a36610915565b612ac4565b503461025c57610258915061029561038636610966565b906129ab565b503461025c576102bd61039e3661083a565b90614f9f565b503461025c576102bd6103b63661140c565b929190916130b0565b503461025c576102bd6103d13661083a565b90615076565b503461025c576102bd6103e9366113ab565b91614a30565b503461025c5761025891506104033661089c565b61040b6126b4565b90519081529081906020820190565b503461025c57610258915061043661043136610915565b6124c1565b9290915192839283611386565b503461025c57610258915061040b61045a36610baa565b90612495565b503461025c576102bd61047236611355565b90612e94565b503461025c576102bd61048a36610966565b906148aa565b503461025c576102bd6104a236611339565b614f85565b503461025c576102bd6104b936610b50565b615150565b503461025c5761025891506104d23661089c565b61024d61118b565b503461025c57610258915061040b6104f136610af4565b6122e1565b503461025c57610258915061050a3661089c565b60ff60095416905191829182901515815260200190565b503461025c57610258916105343661089c565b5490519182916001600160a01b031682610927565b503461025c57610258915061055d3661089c565b61040b6153eb565b503461025c576105743661089c565b6102bd6116fd565b503461025c57610258915061040b61059336610b50565b6128b3565b503461025c5761025891506105ac3661089c565b61024d611104565b503461025c5761025891506105d06105cb36610915565b61292d565b905191829182610927565b503461025c5761025891506105ef3661089c565b61024d611212565b503461025c57610258915061040b61060e36610f5c565b95949094939193613fad565b503461025c57610258915061040b61063136610baa565b90613e9d565b503461025c57610258915061040b61064e36610915565b6127e6565b503461025c576102bd61066536610b73565b91613020565b503461025c57610258915061029561068236610966565b90615305565b503461025c576102bd61069a36610b50565b61524c565b503461025c57610258915061040b6106b636610966565b90612711565b503461025c576102bd6106ce36610b73565b91612f8e565b503461025c57610258915061040b6106eb36610b50565b6001600160a01b031660009081526015602052604090205490565b503461025c57610258915061040b61071d36610b1e565b9161557f565b503461025c576102bd61073536610966565b906153a6565b503461025c57610258915061074f3661089c565b61040b6126c6565b503461025c57610258915061040b61076e36610af4565b612228565b503461025c576102bd61078536610966565b90612d02565b503461025c5761025891506105d06107a236610915565b612e0f565b503461025c5761025891506107bb3661089c565b61024d61106c565b503461025c576102bd6107d53661083a565b90614eab565b5050346108095750607f196108046107fa6107f53661081f565b61212b565b151560805260a090565b016080f35b80fd5b6001600160e01b03198116141561000f57565b602090600319011261000f576004356108378161080c565b90565b906020600319830112610895576001600160401b03916004359083821161088c578060238301121561088c57816004013593841161088c5760248483010111610884576024019190565b505050600080fd5b50505050600080fd5b5050600080fd5b600090600319011261000f57565b918091926000905b8282106108ca5750116108c3575050565b6000910152565b915080602091830151818601520182916108b2565b906020916108f8815180928185528580860191016108aa565b601f01601f1916010190565b9060206108379281815201906108df565b602090600319011261000f5760043590565b6001600160a01b03909116815260200190565b600435906001600160a01b03821682141561089557565b35906001600160a01b03821682141561089557565b604090600319011261000f576004356001600160a01b038116811415610895579060243590565b50634e487b7160e01b600052604160045260246000fd5b604081019081106001600160401b038211176109bf57604052565b6109c761098d565b604052565b608081019081106001600160401b038211176109bf57604052565b602081019081106001600160401b038211176109bf57604052565b606081019081106001600160401b038211176109bf57604052565b601f909101601f19168101906001600160401b038211908210176109bf57604052565b6040519060a082016001600160401b038111838210176109bf57604052565b60405190610a6c826109a4565b565b6020906001600160401b038111610a8b575b601f01601f19160190565b610a9361098d565b610a80565b929192610aa482610a6e565b91610ab26040519384610a1d565b829481845281830111610acf578281602093846000960137010152565b5050505050600080fd5b9080601f830112156108845781602061083793359101610a98565b602060031982011261089557600435906001600160401b0382116108845761083791600401610ad9565b6060600319820112610895576004359160243591604435906001600160401b038211610acf5761083791600401610ad9565b602090600319011261000f576004356001600160a01b0381168114156108955790565b606090600319011261000f576001600160a01b03906004358281168114156108845791602435908116811415610884579060443590565b906040600319830112610895576001600160401b0360043581811161088c5783610bd691600401610ad9565b9260243591821161088c5761083791600401610ad9565b6020906001600160401b038111610c06575b60051b0190565b610c0e61098d565b610bff565b81601f8201121561088457803590610c2a82610bed565b92604092610c3a84519586610a1d565b808552602091828087019260061b85010193818511610c95578301915b848310610c675750505050505090565b8583830312610c95578386918251610c7e816109a4565b853581528286013583820152815201920191610c57565b5050505050505050600080fd5b81601f8201121561088457803590610cb982610bed565b92604092610cc984519586610a1d565b808552602093848087019260051b85010193838511610c9557858101925b858410610cf8575050505050505090565b6001600160401b038435818111610d665783019184601f198489030112610d66578451610d24816109a4565b89840135815285840135928311610d5557610d46888b80969581960101610ad9565b83820152815201930192610ce7565b505050505050505050505050600080fd5b5050505050505050505050600080fd5b81601f8201121561088457803590610d8d82610bed565b92604092610d9d84519586610a1d565b808552602091828087019260061b85010193818511610c95578301915b848310610dca5750505050505090565b8583830312610c95578386918251610de1816109a4565b85358152610df0838701610951565b83820152815201920191610dba565b9080601f83011215610884578135610e1681610bed565b92604091610e2683519586610a1d565b808552602093848087019260051b84010193818511610c9557858401925b858410610e55575050505050505090565b6001600160401b038435818111610d665786019160a080601f198588030112610d5557610e80610a40565b908a850135825285850135848111610f4957878c610ea092880101610c13565b8b83015260609081860135858111610f3557888d610ec092890101610ca2565b8784015260809182870135868111610f2057898e610ee0928a0101610d76565b90840152850135938411610f0e57610eff878c80979681970101610c13565b90820152815201930192610e44565b50505050505050505050505050600080fd5b50505050505050505050505050505050600080fd5b505050505050505050505050505050600080fd5b5050505050505050505050505050600080fd5b9060e060031983011261089557610f7161093a565b91602435916001600160401b0360443581811161100e5783610f9591600401610c13565b926064358281116110025781610fad91600401610ca2565b92608435838111610c955782610fc591600401610d76565b9260a435818111610ff45783610fdd91600401610c13565b9260c435918211610ff45761083791600401610dff565b505050505050505050600080fd5b50505050505050600080fd5b505050505050600080fd5b50634e487b7160e01b600052600060045260246000fd5b90600182811c92168015611062575b602083101461104a57565b5050634e487b7160e01b600052602260045260246000fd5b91607f169161103f565b60405190600082600191825461108181611030565b808452908481169081156110e757506001146110a5575b50610a6c92500383610a1d565b9280915060005260209081600020936000915b8183106110cf575050610a6c935082010138611098565b855488840185015294850194879450918301916110b8565b94505050505060ff19166020830152610a6c826040810138611098565b60405190600082600c549161111883611030565b8083526001938085169081156110e7575060011461113d5750610a6c92500383610a1d565b600c600090815260008051602061574e83398151915294602093509091905b818310611173575050610a6c935082010138611098565b8554888401850152948501948794509183019161115c565b604051906000826002549161119f83611030565b8083526001938085169081156110e757506001146111c45750610a6c92500383610a1d565b6002600090815260008051602061572e83398151915294602093509091905b8183106111fa575050610a6c935082010138611098565b855488840185015294850194879450918301916111e3565b60405190600082600d549161122683611030565b8083526001938085169081156110e7575060011461124b5750610a6c92500383610a1d565b600d600090815260008051602061576e83398151915294602093509091905b818310611281575050610a6c935082010138611098565b8554888401850152948501948794509183019161126a565b90604051918260008254926112ad84611030565b90818452600194858116908160001461131a57506001146112d7575b5050610a6c92500383610a1d565b9093915060005260209081600020936000915b818310611302575050610a6c935082010138806112c9565b855488840185015294850194879450918301916112ea565b9550505050505060ff19166020830152610a6c826040810138806112c9565b602090600319011261000f576004358015158114156108955790565b604090600319011261000f576004356001600160a01b03811681141561089557906024358015158114156108845790565b909161139d610837936040845260408401906108df565b9160208184039101526108df565b6040600319820112610895576004356001600160a01b03811681141561088457916001600160401b039160243590838211610acf5780602383011215610acf578160040135938411610acf5760248460051b8301011161088c576024019190565b906080600319830112610895576001600160a01b039160043583811681141561088c579260243590811681141561088c579160443591606435906001600160401b03821161100e578060238301121561100e5781602461083793600401359101610a98565b9080601f830112156108845781359061148982610bed565b926114976040519485610a1d565b828452602092838086019160051b8301019280841161100257848301915b8483106114c55750505050505090565b82356001600160401b038111610ff45786916114e684848094890101610ad9565b8152019201916114b5565b9080601f830112156108845781359161150983610bed565b92604061151881519586610a1d565b8185526020938486019185600594851b86010194828611610ff457868101935b86851061154a57505050505050505090565b6001600160401b03908535828111610d555783019184601f198488030112610d5557845192611578846109a4565b8a810135918211610f0e57611592878c8894840101610ad9565b845201359087821015610d5557828a93928480940152815201940193611538565b60e0600319820112610895576115c761093a565b916001600160401b039160243590838211610acf576115ea816004938401610ad9565b936044358181116110025782611601918501610ad9565b93606435828111610c955783611618918601610ad9565b93608435838111610ff4578461162f918301610ad9565b9360a43584811161165b5781611646918401611471565b9360c43590811161165b5761083792016114f1565b50505050505050505050600080fd5b6005111561167457565b50634e487b7160e01b600052602160045260246000fd5b9291906116a0906040855260408501906108df565b9260058210156116b05760200152565b50505050634e487b7160e01b600052602160045260246000fd5b604090600319011261000f576001600160a01b039060043582811681141561088457916024359081168114156108845790565b61170561173a565b600080546001600160a01b0319811682556040516001600160a01b03909116906000805160206157ee833981519152908390a3565b6000546001600160a01b031633141561174f57565b50606460405162461bcd60e51b815260206004820152602060248201527f4f776e61626c653a2063616c6c6572206973206e6f7420746865206f776e65726044820152fd5b61179c61173a565b6001600160a01b039081169081156117db57600080546001600160a01b03198116841782556040519216916000805160206157ee8339815191529190a3565b505060405162461bcd60e51b815260206004820152602660248201527f4f776e61626c653a206e6577206f776e657220697320746865207a65726f206160448201526564647265737360d01b606482015260849150fd5b80546001600160a01b0319166001600160a01b03909216919091179055565b9492909593916000549660ff8860a81c16158098819961197b575b8115611958575b50156118f4576000805460ff60a01b1916600160a01b17905561189a96886118dc5761198d565b6118a057565b6000805460ff60a81b19169055604051600181527f7f26b83ff96e1f2b6a682f133852f6798a09c465da95921460cefb384740249890602090a1565b6000805460ff60a81b1916600160a81b17905561198d565b505050505050505050608460405162461bcd60e51b815260206004820152602e60248201527f496e697469616c697a61626c653a20636f6e747261637420697320616c72656160448201526d191e481a5b9a5d1a585b1a5e995960921b6064820152fd5b303b1591508161196a575b5038611873565b60a01c60ff16600114905038611963565b9050600160ff8260a01c16109061186c565b959394919461199a61173a565b6040516020810160208152816119b360408201856108df565b03916119c7601f1993848101835282610a1d565b519020906040516119f96020820192826119ed8560409060208152600060208201520190565b03908101835282610a1d565b51902014611a7857611a4a611a5494611a45611a5998611a40611a4f96611a3b611a2e8e611a298e511515611ad4565b611b50565b805460ff19166001179055565b611cdf565b611dc0565b611ea3565b611f86565b6132f4565b61346a565b60018060a01b03166000805160206157ce8339815191526000604051a2565b5050505050505050608460405162461bcd60e51b815260206004820152602760248201527f53656d616e7469635342543a20736368656d61205552492063616e6e6f7420626044820152666520656d70747960c81b6064820152fd5b15611adb57565b5060405162461bcd60e51b815260206004820152602c60248201527f53656d616e7469635342543a207072656469636174652073697a652063616e2060448201526b6e6f7420626520656d70747960a01b6064820152608490fd5b6001600160a01b0316600090815260076020526040902090565b6001600160a01b0316600090815260086020526040902090565b6001600160a01b0316600090815260056020526040902090565b9060018060a01b0316600052602052604060002090565b818110611ba6575050565b60008155600101611b9b565b90601f8211611bbf575050565b610a6c91600c6000526020600020906020601f840160051c83019310611bed575b601f0160051c0190611b9b565b9091508190611be0565b90601f8211611c04575050565b610a6c9160016000526020600020906020601f840160051c83019310611bed57601f0160051c0190611b9b565b90601f8211611c3e575050565b610a6c9160026000526020600020906020601f840160051c83019310611bed57601f0160051c0190611b9b565b90601f8211611c78575050565b610a6c91600d6000526020600020906020601f840160051c83019310611bed57601f0160051c0190611b9b565b9190601f8111611cb457505050565b610a6c926000526020600020906020601f840160051c83019310611bed57601f0160051c0190611b9b565b80519091906001600160401b038111611db3575b600190611d0981611d048454611030565b611bf7565b602080601f8311600114611d44575081929394600092611d39575b5050600019600383901b1c191690821b179055565b015190503880611d24565b6001600052601f1983169590919060008051602061582e833981519152926000905b888210611d9c5750508385969710611d83575b505050811b019055565b015160001960f88460031b161c19169055388080611d79565b808785968294968601518155019501930190611d66565b611dbb61098d565b611cf3565b80519091906001600160401b038111611e96575b611de881611de3600254611030565b611c31565b602080601f8311600114611e245750819293600092611e19575b50508160011b916000199060031b1c191617600255565b015190503880611e02565b6002600052601f1983169490919060008051602061572e833981519152926000905b878210611e7e575050836001959610611e65575b505050811b01600255565b015160001960f88460031b161c19169055388080611e5a565b80600185968294968601518155019501930190611e46565b611e9e61098d565b611dd4565b80519091906001600160401b038111611f79575b611ecb81611ec6600c54611030565b611bb2565b602080601f8311600114611f075750819293600092611efc575b50508160011b916000199060031b1c191617600c55565b015190503880611ee5565b600c600052601f1983169490919060008051602061574e833981519152926000905b878210611f61575050836001959610611f48575b505050811b01600c55565b015160001960f88460031b161c19169055388080611f3d565b80600185968294968601518155019501930190611f29565b611f8161098d565b611eb7565b80519091906001600160401b03811161205c575b611fae81611fa9600d54611030565b611c6b565b602080601f8311600114611fea5750819293600092611fdf575b50508160011b916000199060031b1c191617600d55565b015190503880611fc8565b600d600052601f1983169490919060008051602061576e833981519152926000905b87821061204457505083600195961061202b575b505050811b01600d55565b015160001960f88460031b161c19169055388080612020565b8060018596829496860151815501950193019061200c565b61206461098d565b611f9a565b81519192916001600160401b03811161211e575b6120918161208b8454611030565b84611ca5565b602080601f83116001146120cd5750819293946000926120c2575b50508160011b916000199060031b1c1916179055565b0151905038806120ac565b90601f198316956120e385600052602060002090565b926000905b88821061210657505083600195969710611d8357505050811b019055565b806001859682949686015181550195019301906120e8565b61212661098d565b61207d565b63ffffffff60e01b166380ac58cd60e01b811490811561218e575b811561217d575b811561216c575b811561215e575090565b6301ffc9a760e01b14919050565b6316388eeb60e21b81149150612154565b631f75f6d360e31b8114915061214d565b635b5e139f60e01b81149150612146565b906121b2602092828151948592016108aa565b0190565b60206121cf9181604051938285809451938492016108aa565b8101600e81520301902090565b60206121f59181604051938285809451938492016108aa565b8101601081520301902090565b60209061221c9282604051948386809551938492016108aa565b82019081520301902090565b612231906121b6565b5490565b50634e487b7160e01b600052603260045260246000fd5b801515806122d6575b156122905761083790600f54811015612283575b600f60005260008051602061586e83398151915201611299565b61228b612235565b612269565b505060405162461bcd60e51b815260206004820152601c60248201527b14d95b585b9d1a58d4d0950e8818db185cdcc81b9bdd08195e1a5cdd60221b6044820152606490fd5b50600f548110612255565b612231906121dc565b156122f157565b50606460405162461bcd60e51b815260206004820152602060248201527f53656d616e7469635342543a20707265646963617465206e6f742065786973746044820152fd5b601154811015612356575b601160005260206000209060011b0190600090565b61235e612235565b612341565b600a54811015612383575b600a60005260206000209060011b0190600090565b61238b612235565b61236e565b6013548110156123b0575b601360005260206000209060011b0190600090565b6123b8612235565b61239b565b906040516123ca816109a4565b60ff600182946123d981611299565b84520154169060058210156116b05760200152565b61240c612412918015158061243f575b612407906122ea565b612336565b506123bd565b906020825192015160058110156124265790565b505050634e487b7160e01b600052602160045260246000fd5b5060115481106123fe565b1561245157565b5060405162461bcd60e51b815260206004820152601b60248201527a14d95b585b9d1a58d4d0950e88191bd95cc81b9bdd08195e1a5cdd602a1b6044820152606490fd5b6124a16124b5926121b6565b54600052600b602052604060002090612202565b5461083781151561244a565b908115158061251b575b6124d49061244a565b61083760016124f46124ee6124e886612363565b50611299565b94612363565b500154600f5481101561228357600f60005260008051602061586e83398151915201611299565b50600a5482106124cb565b600454811015612546575b600460005260206000209060021b0190600090565b61254e612235565b612531565b9060405191828154918282526020928383019160005283600020936000905b82821061258857505050610a6c92500383610a1d565b855484526001958601958895509381019390910190612572565b906040516125af816109cc565b60606125e56003839560018060a01b038154168552600181015460208601526125da60028201612553565b604086015201612553565b910152565b6125f381613118565b156126125761260d61260761083792612526565b506125a2565b61355a565b505060405162461bcd60e51b815260206004820152602760248201527f53656d616e7469635342543a2053656d616e74696353425420646f6573206e6f6044820152661d08195e1a5cdd60ca1b6064820152608490fd5b50634e487b7160e01b600052601160045260246000fd5b60018110612690575b6000190190565b612698612669565b612689565b8181106126a8570390565b6126b0612669565b0390565b60045460018110612690576000190190565b6126ce6126b4565b600354908181106126a8570390565b60019060001981146126ed570190565b6121b2612669565b60019060011981116126ed570190565b811981116126ed570190565b9060006001918293600454945b8581106127845750505050505050608460405162461bcd60e51b815260206004820152602b60248201527f455243373231456e756d657261626c653a206f776e657220696e646578206f7560448201526a74206f6620626f756e647360a81b6064820152fd5b61278d81612526565b50546001600160a01b038381169116146127b0575b6127ab906126dd565b61271e565b928281146127dd57846127ab9160011981116127d0575b019390506127a2565b6127d8612669565b6127c7565b50505091505090565b60006001908192600454935b84811061285757505050505050608460405162461bcd60e51b815260206004820152602b60248201527f455243373231456e756d657261626c653a20746f6b656e20696e646578206f7560448201526a74206f6620626f756e647360a81b6064820152fd5b61286081612526565b50546001600160a01b031661287e575b612879906126dd565b6127f2565b918181146128ab578361287991600119811161289e575b01929050612870565b6128a6612669565b612895565b505091505090565b6001600160a01b031680156128d357600052600560205260406000205490565b505060405162461bcd60e51b815260206004820152602a60248201527f4552433732313a2062616c616e636520717565727920666f7220746865207a65604482015269726f206164647265737360b01b6064820152608490fd5b61293681613118565b156129525761294490612526565b50546001600160a01b031690565b505060405162461bcd60e51b815260206004820152602960248201527f4552433732313a206f776e657220717565727920666f72206e6f6e657869737460448201526832b73a103a37b5b2b760b91b6064820152608490fd5b906129b59061292d565b6001600160a01b0390811691161490565b604051906129d3826109e7565b60008252565b600c54600092916129e982611030565b91600190818116908115612a3a5750600114612a0457505050565b9091929350600c60005260209081600020906000915b858310612a2957505050500190565b805485840152918301918101612a1a565b60ff191683525050019150565b600092918154612a5681611030565b92600191808316908115612aaf5750600114612a73575b50505050565b90919293945060005260209081600020906000915b858310612a9e5750505050019038808080612a6d565b805485840152918301918101612a88565b60ff1916845250505001915038808080612a6d565b612acd81613118565b15612b3457612add600c54611030565b15612b2b57610837612af1612b0c92612bc5565b612b1d604051938492612b06602085016129d9565b9061219f565b64173539b7b760d91b815260050190565b03601f198101835282610a1d565b506108376129c6565b505060405162461bcd60e51b815260206004820152602f60248201527f4552433732314d657461646174613a2055524920717565727920666f72206e6f60448201526e3732bc34b9ba32b73a103a37b5b2b760891b6064820152608490fd5b90612b9d82610a6e565b612baa6040519182610a1d565b8281528092612bbb601f1991610a6e565b0190602036910137565b6000908072184f03e93ff9f4daa797ed6e38ed64bf6a1f0160401b80821015612cf4575b506904ee2d6d415b85acef8160201b80831015612ce5575b50662386f26fc1000080831015612cd6575b506305f5e10080831015612cc7575b5061271080831015612cb8575b506064821015612ca8575b600a80921015612c9e575b600190816021612c56828701612b93565b95860101905b612c68575b5050505090565b600019019083906f181899199a1a9b1b9c1cb0b131b232b360811b8282061a835304918215612c9957919082612c5c565b612c61565b9160010191612c45565b9190606460029104910191612c3a565b60049193920491019138612c2f565b60089193920491019138612c22565b60109193920491019138612c13565b60209193920491019138612c01565b604093508104915038612be9565b90612d0c8161292d565b6001600160a01b038181169084168114612dbc573314908115612da2575b5015612d3957610a6c91614cd6565b505060405162461bcd60e51b815260206004820152603860248201527f4552433732313a20617070726f76652063616c6c6572206973206e6f74206f776044820152771b995c881b9bdc88185c1c1c9bdd995908199bdc88185b1b60421b606482015260849150fd5b60ff9150612db4906102e43391611b36565b541638612d2a565b5050505050608460405162461bcd60e51b815260206004820152602160248201527f4552433732313a20617070726f76616c20746f2063757272656e74206f776e656044820152603960f91b6064820152fd5b612e1881613118565b15612e38576000908152600660205260409020546001600160a01b031690565b505060405162461bcd60e51b815260206004820152602c60248201527f4552433732313a20617070726f76656420717565727920666f72206e6f6e657860448201526b34b9ba32b73a103a37b5b2b760a11b6064820152608490fd5b6001600160a01b0381169190338314612efd57612ebe903360005260076020526040600020611b84565b9015159060ff1981541660ff83161790556040519081527f17307eab39ab6107e8899845ad3d59bd9653f200f220920489ca2b5937696c3160203392a3565b50505050606460405162461bcd60e51b815260206004820152601960248201527822a9219b99189d1030b8383937bb32903a379031b0b63632b960391b6044820152fd5b15612f4857565b5060405162461bcd60e51b815260206004820152601e60248201527f53656d616e7469635342543a206d757374207472616e7366657261626c6500006044820152606490fd5b90610a6c9291612fa260ff60095416612f41565b612fb4612faf8433613158565b612fb9565b614bab565b15612fc057565b5060405162461bcd60e51b815260206004820152603160248201527f4552433732313a207472616e736665722063616c6c6572206973206e6f74206f6044820152701ddb995c881b9bdc88185c1c1c9bdd9959607a1b6064820152608490fd5b909161307e9260ff600954169261303684612f41565b6040519361306190602086016001600160401b038111878210176130a3575b60405260008652612f41565b61306e612faf8433613158565b613079838383614bab565b614e70565b1561308557565b5060405162461bcd60e51b81528061309f600482016130c5565b0390fd5b6130ab61098d565b613055565b9061307e93929161306160ff60095416612f41565b60809060208152603260208201527f4552433732313a207472616e7366657220746f206e6f6e20455243373231526560408201527131b2b4bb32b91034b6b83632b6b2b73a32b960711b60608201520190565b8015159081613145575b8161312b575090565b6131359150612526565b50546001600160a01b0316151590565b905061314f6126b4565b81111590613122565b6001600160a01b038061316a8461292d565b1690808316908282149485156131a9575b505050821561318957505090565b60ff9250906131a49160005260076020526040600020611b84565b541690565b6131b69192939550612e0f565b16149138808061317b565b6020908051156131cf570190565b6121b2612235565b60209181518110156131ec575b60051b010190565b6131f4612235565b6131e4565b1561320057565b5060405162461bcd60e51b815260206004820152602260248201527f53656d616e7469635342543a20436c6173732063616e6e6f7420626520656d70604482015261747960f01b6064820152608490fd5b1561325857565b5060405162461bcd60e51b815260206004820152601a60248201527914d95b585b9d1a58d4d0950e88185b1c9958591e48185919195960321b6044820152606490fd5b600f54610a6c9190600160401b8110156132e7575b6001810180600f558110156132da575b600f60005260008051602061586e83398151915201612069565b6132e2612235565b6132c0565b6132ef61098d565b6132b0565b9060005b82518110156133a3578061330f61339e92856131d7565b5161336860408051602061335e8183018361332a8883610904565b039361333e601f1995868101835282610a1d565b519020935191820192826119ed8560409060208152600060208201520190565b51902014156131f9565b61337b613374826121b6565b5415613251565b6133848161329b565b613398613392600f54612680565b916121b6565b556126dd565b6132f8565b509050565b156133af57565b5060405162461bcd60e51b815260206004820152602660248201527f53656d616e7469635342543a205072656469636174652063616e6e6f7420626560448201526520656d70747960d01b6064820152608490fd5b602060016134256011548260401b81101561345d575b828101601155612336565b613450575b613435845182612069565b0191015160058110156124265760ff80198354169116179055565b613458611019565b61342a565b61346561098d565b61341a565b9060005b82518110156133a357806134856134da92856131d7565b516134af81516040908151906134a56020918361332a8482019283610904565b51902014156133a8565b6134bc61337482516121dc565b6134c581613404565b6133986134d3601154612680565b91516121dc565b61346e565b6020610a6c91939293604051948161350087935180928680870191016108aa565b8201613514825180938680850191016108aa565b01038085520183610a1d565b6040519061352d826109a4565b60018252603b60f81b6020830152565b6040519061354a826109a4565b60018252601760f91b6020830152565b61356381613837565b91600080935b604084018051805187101561374957916135fc91602061359861240c6135928b613602986131d7565b51612336565b0180516135a48161166a565b6135ad8161166a565b6136105750906135e46135ed916135de6135c88b86516131d7565b516135d78c60608d01516131d7565b5190613a4e565b906134df565b915b5151612680565b871415613608576135de61353d565b946126dd565b93613569565b6135de613520565b805161361b8161166a565b6136248161166a565b6001141561365f5750906136596135ed916135de6136438b86516131d7565b516136528c60608d01516131d7565b5190613a89565b916135e6565b805161366a8161166a565b6136738161166a565b600214156136a85750906136596135ed916135de6136928b86516131d7565b516136a18c60608d01516131d7565b5190613afe565b80516136b38161166a565b6136bc8161166a565b600314156136f15750906136596135ed916135de6136db8b86516131d7565b516136ea8c60608d01516131d7565b5190613b6c565b516136fb8161166a565b6137048161166a565b600414613715575b6135ed906135e6565b906137416135ed916135de61372b8b86516131d7565b5161373a8c60608d01516131d7565b5190613c94565b91905061370c565b50509350509050565b6040519061375f826109a4565b600482526314dbdd5b60e21b6020830152565b6040519061377f826109a4565b60018252601d60f91b6020830152565b6040519061379c826109a4565b60018252605f60f81b6020830152565b604051906137b9826109a4565b60018252600160fd1b6020830152565b919493610a6c9360405196879385516137ea8160209889808a0191016108aa565b85016137fe825180938980850191016108aa565b01613811825180938880850191016108aa565b01613824825180938780850191016108aa565b01613514825180938680850191016108aa565b6020810180516108379290600090806138a3575050613854613752565b915b519081613891575161387191506001600160a01b03166138d2565b613879613772565b9161388261378f565b9061388b6137ac565b936137c9565b506124e861389e91612363565b613871565b60206138bf92600f548310156138c5575b600f81522001611299565b91613856565b6138cd612235565b6138b4565b604051906001600160a01b03166138e882610a02565b602a8252604036602084013760306138ff836131c1565b53607861390b83613972565b536029905b60018211613923576108379150156139af565b80600f61395f92166010811015613965575b6f181899199a1a9b1b9c1cb0b131b232b360811b901a6139558486613983565b5360041c916139a2565b90613910565b61396d612235565b613935565b6021908051600110156131cf570190565b90602091805182101561399557010190565b61399d612235565b010190565b8015612690576000190190565b156139b657565b50606460405162461bcd60e51b815260206004820152602060248201527f537472696e67733a20686578206c656e67746820696e73756666696369656e746044820152fd5b60405190613a08826109a4565b6002825261381d60f11b6020830152565b610a6c919392936040519485918351613a3a816020968780880191016108aa565b8301613824825180938780850191016108aa565b90613a7a613a74613a6461240c61083795612336565b613a6c6139fb565b9051906134df565b91612bc5565b90613a836137ac565b90613a19565b90613a9c613a6461240c61083794612336565b90601254811015613af1575b601260005260206000200190613ae960016040518094613ad7601160f91b918260208501526021840190612a47565b90815203601e19810185520183610a1d565b613a836137ac565b613af9612235565b613aa8565b90613b11613a6461240c61083794612336565b613ae9613b1c613772565b613b24613752565b613b3e613b2f61378f565b956001600160a01b03166138d2565b6040519586928451613b58816020978880890191016108aa565b8401613811825180938880850191016108aa565b90613b7c61240c61083793612336565b90613ae96001613b8b83612363565b500154600f54811015613c2f575b600f600052613c21613bbd613bb46020938460002001611299565b95613a6c6139fb565b93613bc6613772565b92613bd8613bd261378f565b92612363565b50916040519785613bf28a9751809286808b0191016108aa565b8601613c06825180938680850191016108aa565b01613c19825180938580850191016108aa565b010190612a47565b03601f198101845283610a1d565b613c37612235565b613b99565b60405190613c49826109a4565b6002825261203b60f01b6020830152565b60405190613c67826109a4565b60018252605b60f81b6020830152565b60405190613c84826109a4565b60018252605d60f81b6020830152565b90613ca7613a6461240c613cd094612336565b90613cc3613cbd613cb783612390565b50612553565b91612390565b5060019384809201612553565b91613cd96129c6565b926000925b613d04575b5050506108379250613cf36137ac565b613cfb613c5a565b9061388b613c77565b9091928251841015613e4c5785906020613d2461240c61359288886131d7565b018051613d308161166a565b613d398161166a565b613d965750613d5a906135de613d4f87876131d7565b516135d788876131d7565b935b613d668451612680565b8110613d7e575b613d76906126dd565b929190613cde565b93613d8e613d76916135de613c3c565b949050613d6d565b8051613da18161166a565b613daa8161166a565b831415613dd45750613dce906135de613dc387876131d7565b5161365288876131d7565b93613d5c565b8051613ddf8161166a565b613de88161166a565b60021415613e0d5750613dce906135de613e0287876131d7565b516136a188876131d7565b94909451613e1a8161166a565b613e238161166a565b600314613e2f57613d5c565b93613dce906135de613e4187876131d7565b516136ea88876131d7565b92613ce3565b15613e5957565b5060405162461bcd60e51b815260206004820152601b60248201527a29b2b6b0b73a34b1a9a12a1d1036bab9ba1031329036b4b73a32b960291b6044820152606490fd5b6001604092613ec46000913383526008602052613ebf60ff8785205416613e52565b6121b6565b5490613ed1821515613f65565b818152600b602052613ee861337486832086612202565b613f00600a54958284889452600b6020522085612202565b5560405192613f0e846109a4565b8352602083019081528160401b841015613f58575b818401600a55613f44613f3585612363565b949094613f4b575b5184612069565b5191015590565b613f53611019565b613f3d565b613f6061098d565b613f23565b15613f6c57565b5060405162461bcd60e51b815260206004820152601860248201527729b2b6b0b73a34b1a9a12a1d103830b930b69032b93937b960411b6044820152606490fd5b94929096959391336000526008602052613fce60ff60406000205416613e52565b6001600160a01b03861697881561412657613fec600a548210613f65565b613ff4614695565b613ffc614695565b916040519a61400a8c6109cc565b8b5260208b015260408a0152606089015260045461403b90600160401b811015614119575b60018101600455612526565b98909861410c575b8051614058906001600160a01b03168a611832565b60208181015160018b0155604082015180519160028c0191600160401b84116140ff575b82548484558085106140e2575b50019060005260206000206000915b8383106140cc5750505050610837969798600360606140ba93015191016146af565b6140c5600454612680565b96876141ee565b6001602082829351855501920192019190614098565b6140f9908460005285846000209182019101611b9b565b38614089565b61410761098d565b61407c565b614114611019565b614043565b61412161098d565b61402f565b505050505050505050608460405162461bcd60e51b815260206004820152602560248201527f53656d616e7469635342543a206d696e7420746f20746865207a65726f206164604482015264647265737360d81b6064820152fd5b1561418857565b5060405162461bcd60e51b815260206004820152603760248201527f53656d616e7469635342543a207472616e7366657220746f206e6f6e204552436044820152761b9918a932b1b2b4bb32b91034b6b83632b6b2b73a32b960491b6064820152608490fd5b919461423361423a92979561422c6142259a96600261420c88612526565b50019b8c9a600361421c8a612526565b5001809c6143eb565b898c6144bb565b878a61454d565b85886145e0565b60005b835181101561430157806142f76142576142fc93876131d7565b516142668151601154116122ea565b6142f1601354916142ea614278614695565b61429b614283614695565b9161428c610a5f565b9081526020928382015261472b565b6142a485612390565b50906142c160016142b488612390565b50019185015182846143eb565b6142d0604085015182846144bb565b6142df6060850151828461454d565b6080840151916145e0565b518b6143a6565b876143a6565b6126dd565b61423d565b50939250936143139150541515613f65565b61431c81611b6a565b61432681546126f5565b905561434261433d6143366129c6565b8484614dbb565b614181565b60018060a01b03168181600060008051602061580e83398151915281604051a461437161260d61260784612526565b7f6ca139c4cce2c6dfdd350d203c7ac907df3bdc839acb0c9f1d59d01950aaaead604051806143a1339482610904565b0390a4565b805490600160401b8210156143de575b600182018082558210156143d1575b60005260206000200155565b6143d9612235565b6143c5565b6143e661098d565b6143b6565b929190600091825b81518110156144b35761440681836131d7565b519060ff600161442284518015158061243f57612407906122ea565b50015416600581101561449757614454576142f760208361444761444f95518b6143a6565b0151856143a6565b6143f3565b50505050505050608460405162461bcd60e51b815260206004820152602160248201526000805160206157ae8339815191526044820152603960f91b6064820152fd5b5050634e487b7160e01b84525050602160045250602492509050fd5b505050509050565b60009392845b81518110156144b357806142f76144db61452e93856131d7565b516144e681516147f4565b614528601291614521835493848d6020908186015193600160401b841015614540575b60018401808255841015614533575b81522001612069565b51876143a6565b866143a6565b6144c1565b61453b612235565b614518565b61454861098d565b614509565b90929192600093845b81518110156144b35761456981836131d7565b519060ff600161458584518015158061243f57612407906122ea565b5001541660058110156145c45760021415614454576142f7826145ac6145bf9451886143a6565b602001516001600160a01b0316856143a6565b614556565b5050634e487b7160e01b86525050602160045250602492915050fd5b90929160005b815181101561468e576145f981836131d7565b51614604815161487a565b6020908181019182518015159081614682575b5015614636575061463192916145216142f79251876143a6565b6145e6565b95505050505050606491506040519062461bcd60e51b82526004820152601e60248201527f53656d616e7469635342543a207375626a656374206e6f7420657869737400006044820152fd5b9050600a541138614617565b5050509050565b604051906146a2826109e7565b6000808352366020840137565b815191600160401b831161471e575b8154838355808410614700575b50602080910191600052806000206000925b8484106146eb575050505050565b600183828293518555019201930192906146dd565b61471890836000528460206000209182019101611b9b565b386146cb565b61472661098d565b6146be565b90601354600160401b90818110156147e7575b61474f600191828101601355612390565b9290926147da575b84519081519081116147cd575b83548185558082106147af575b50602080920184600052826000206000915b83831061479c5750505050610a6c9394015191016146af565b8051825591850191908501908401614783565b6147c790856000528260206000209182019101611b9b565b38614771565b6147d561098d565b614764565b6147e2611019565b614757565b6147ef61098d565b61473e565b600161480d60ff928015158061243f57612407906122ea565b500154166005811015614862576001141561482457565b5060405162461bcd60e51b815260206004820152602160248201526000805160206157ae8339815191526044820152603960f91b6064820152608490fd5b5050634e487b7160e01b600052602160045260246000fd5b600161489360ff928015158061243f57612407906122ea565b500154166005811015614862576003141561482457565b3360005260086020526148c460ff60406000205416613e52565b6148d66148d18333613158565b614988565b6148df8261292d565b6001600160a01b0380831692916148f8911683146149ea565b61492761490a61260d61260786612526565b9161491485614c92565b61491f6003546126dd565b600355611b6a565b6149318154612680565b905561493c83612526565b5080546001600160a01b031916905560405160008051602061578e833981519152908460008560008051602061580e8339815191528285a460208152806143a1339460208301906108df565b1561498f57565b5060405162461bcd60e51b815260206004820152602c60248201527f53656d616e7469635342543a2063616c6c6572206973206e6f7420617070726f60448201526b3b32b21037b91037bbb732b960a11b6064820152608490fd5b156149f157565b5060405162461bcd60e51b815260206004820152601660248201527529b2b6b0b73a34b1a9a12a1d103737ba1037bbb732b960511b6044820152606490fd5b90916000913383526008602052604091614a4f60ff8486205416613e52565b614a63614a5e82600354612705565b600355565b614a6c82611b6a565b614a7782825461269d565b9055835b818110614a8a57505050505050565b80614a99614b35928489614b3a565b35614aa76148d18233613158565b614ab9614ab482876129ab565b6149ea565b614ac861260d61260783612526565b614ad182614c92565b614aee614add83612526565b5080546001600160a01b0319169055565b86516001600160a01b038716919060008051602061578e83398151915290848b8560008051602061580e8339815191528285a480614b2d339482610904565b0390a46126dd565b614a7b565b9190811015614b4a5760051b0190565b610c0e612235565b15614b5957565b5060405162461bcd60e51b8152602060048201526024808201527f4552433732313a207472616e7366657220746f20746865207a65726f206164646044820152637265737360e01b6064820152608490fd5b90614bb58361292d565b6001600160a01b038381169290918216831415614c3657614bef614c0092821694614be1861515614b52565b614bea87614c92565b611b6a565b614bf98154612680565b9055611b6a565b614c0a81546126f5565b9055614c1f82614c1985612526565b50611832565b60008051602061580e8339815191526000604051a4565b505050505050608460405162461bcd60e51b815260206004820152602960248201527f4552433732313a207472616e73666572206f6620746f6b656e2074686174206960448201526839903737ba1037bbb760b91b6064820152fd5b600081815260066020526040812080546001600160a01b03191690556001600160a01b03614cbf8361292d565b1660008051602061584e83398151915282604051a4565b816000526006602052614ced816040600020611832565b6001600160a01b0380614cff8461292d565b1691169060008051602061584e8339815191526000604051a4565b9081602091031261089557516108378161080c565b610837939260809260018060a01b0316825260006020830152604082015281606082015201906108df565b6001600160a01b039182168152911660208201526040810191909152608060608201819052610837929101906108df565b3d15614db6573d90614d9c82610a6e565b91614daa6040519384610a1d565b82523d6000602084013e565b606090565b919091803b614dcc57505050600190565b614df4602091600093604051948580948193630a85bd0160e11b998a84523360048501614d2f565b03926001600160a01b03165af160009181614e50575b50614e4257505050614e1a614d8b565b80519081614e3d57505060405162461bcd60e51b81528061309f600482016130c5565b602001fd5b6001600160e01b0319161490565b614e69919250614e603d82610a1d565b3d810190614d1a565b9038614e0a565b92919091823b614e835750505050600190565b614df4926020926000604051809681958294630a85bd0160e11b9a8b85523360048601614d5a565b9190614eb561173a565b6001600160401b038111614f78575b614ed381611ec6600c54611030565b6000601f8211600114614f0c57819293600092614f015750508160011b916000199060031b1c191617600c55565b013590503880611ee5565b600c600052601f1982169360008051602061574e83398151915291805b868110614f605750836001959610614f4657505050811b01600c55565b0135600019600384901b60f8161c19169055388080611f3d565b90926020600181928686013581550194019101614f29565b614f8061098d565b614ec4565b614f8d61173a565b60ff8019600954169115151617600955565b9190614fa961173a565b6001600160401b038111615069575b600190614fc981611d048454611030565b6000601f82116001146150015781929394600092614ff6575050600019600383901b1c191690821b179055565b013590503880611d24565b6001600052601f1982169460008051602061582e83398151915291805b8781106150535750838596971061503957505050811b019055565b0135600019600384901b60f8161c19169055388080611d79565b828201358455928501926020918201910161501e565b61507161098d565b614fb8565b919061508061173a565b6001600160401b038111615143575b61509e81611de3600254611030565b6000601f82116001146150d7578192936000926150cc5750508160011b916000199060031b1c191617600255565b013590503880611e02565b6002600052601f1982169360008051602061572e83398151915291805b86811061512b575083600195961061511157505050811b01600255565b0135600019600384901b60f8161c19169055388080611e5a565b909260206001819286860135815501940191016150f4565b61514b61098d565b61508f565b61515861173a565b6001600160a01b0381169081156151ef5760ff61517482611b50565b541661519d57611a2e61518691611b50565b6000805160206157ce8339815191526000604051a2565b505060405162461bcd60e51b815260206004820152602160248201527f53656d616e7469635342543a206d696e74657220616c726561647920616464656044820152601960fa1b606482015260849150fd5b505060405162461bcd60e51b815260206004820152602c60248201527f53656d616e7469635342543a206d696e746572206d757374206e6f742062652060448201526b6e756c6c206164647265737360a01b606482015260849150fd5b61525461173a565b6001600160a01b03811660008181526008602052604090205490919060ff16156152b25761528190611b50565b60ff1981541690557f7df677640dd30a79584f8ecea06aeea15d215b861c5d3b5f8c26962d691f820e6000604051a2565b505060405162461bcd60e51b815260206004820152602260248201527f53656d616e7469635342543a206d696e74657220646f6573206e6f74206578696044820152611cdd60f21b606482015260849150fd5b9061530f8161292d565b6001600160a01b039283169216821491821561532a57505090565b909150600052601460205260406000209060005260205260ff6040600020541690565b1561535457565b5060405162461bcd60e51b8152602060048201526024808201527f53656d616e746963534254507269766163793a5065726d697373696f6e2064656044820152631b9a595960e21b6064820152608490fd5b6001600160a01b03906153c433836153bd8661292d565b161461534d565b1660005260146020526040600020906000526020526040600020600160ff19825416179055565b600033815260209060158252604081205461552d57615408614695565b615410614695565b6040519161541d836109cc565b338352848301848152604084019182526060840192835260045491600160401b9182841015615520575b61547361545b600195868101600455612526565b979097615513575b516001600160a01b031687611832565b5183860155866002860191518051938411615506575b82548484558085106154ec575b500190865286862086915b8383106154d9575050505050916154c26040926003601596955191016146af565b6154cd600454612680565b93849333835252205590565b80518255918401919084019088016154a1565b838952828920615500918101908601611b9b565b38615496565b61550e61098d565b615489565b61551b611019565b615463565b61552861098d565b615447565b50608491506040519062461bcd60e51b82526004820152602360248201527f53656d616e746963534254507269766163793a416c72656164792070726570616044820152621c995960ea1b6064820152fd5b919061558a816147f4565b3360005260156020526155a3836040600020541461534d565b3360005260166020526155ba604060002083612202565b5461562357816155fa61561f926155f386956040516155d8816109a4565b60098152685b507269766163795d60b81b60208201526134df565b908561567e565b3360009081526015602052604081205533600090815260166020526040902090612202565b5590565b50505050606460405162461bcd60e51b815260206004820152601f60248201527f53656d616e746963534254507269766163793a416c7265616479206d696e74006044820152fd5b604051615677816109e7565b6000815290565b909160409384519061568f826109a4565b60018252600093845b6020808210156156c5578851602092916156b1826109a4565b888252606081830152828701015201615698565b5050939190959294610a6c958451916156dd836109a4565b825260208201526156ed826131c1565b526156f7816131c1565b50825192615704846109e7565b8284525191615712836109e7565b825261571c61566b565b9261572561566b565b9433906141ee56fe405787fa12a823e0f2b7631cc41b3ba8828b3321ca811111fa75cd3aa3bb5acedf6966c971051c3d54ec59162606531493a51404a002842f56009d7e5cf4a8c7d7b6990105719101dabeb77144f2a3385c8033acd3af97e9423a695e81ad1eb58ea074c4be03960be214c047b695cecdc52be7382eee092c135d1726fabfc44453656d616e7469635342543a207072656469636174652074797065206572726f3a159411d00fa06a3ec11d4578931f1b7f877cceadb1e083929d74ec020cb2438be0079c531659141344cd1fd0a4f28419497f9722a3daafe3b4186f6b6457e0ddf252ad1be2c89b69c2b068fc378daa952ba7f163c4a11628f55a4df523b3efb10e2d527612073b26eecdfd717e6a320cf44b4afac2b0732d9fcbe2b7fa0cf68c5be1e5ebec7d5bd14f71427d1e84f3dd0314c0f7b2291e5b200ac8c7c3b9258d1108e10bcb7c27dddfc02ed9d693a074039d026cf4ea4240b40f7d581ac802a36469706673582212205a834920b363751336518126caf188ecb3498c6bc792e1d526fa61382648589e6c6578706572696d656e74616cf564736f6c634300080c0041",
  "linkReferences": {},
  "deployedLinkReferences": {}
}