{
  "_format": "hh-sol-artifact-1",
  "contractName": "SemanticSBTPrivacy",
  "sourceName": "contracts/core/SemanticSBTPrivacy.sol",
  "abi": [
    {
      "anonymous": false,
      "inputs": [
        {
          "indexed": true,
          "internalType": "address",
          "name": "owner",
          "type": "address"
        },
        {
          "indexed": true,
          "internalType": "address",
          "name": "approved",
          "type": "address"
        },
        {
          "indexed": true,
          "internalType": "uint256",
          "name": "tokenId",
          "type": "uint256"
        }
      ],
      "name": "Approval",
      "type": "event"
    },
    {
      "anonymous": false,
      "inputs": [
        {
          "indexed": true,
          "internalType": "address",
          "name": "owner",
          "type": "address"
        },
        {
          "indexed": true,
          "internalType": "address",
          "name": "operator",
          "type": "address"
        },
        {
          "indexed": false,
          "internalType": "bool",
          "name": "approved",
          "type": "bool"
        }
      ],
      "name": "ApprovalForAll",
      "type": "event"
    },
    {
      "anonymous": false,
      "inputs": [
        {
          "indexed": true,
          "internalType": "address",
          "name": "operator",
          "type": "address"
        },
        {
          "indexed": true,
          "internalType": "address",
          "name": "owner",
          "type": "address"
        },
        {
          "indexed": true,
          "internalType": "uint256",
          "name": "tokenId",
          "type": "uint256"
        },
        {
          "indexed": false,
          "internalType": "string",
          "name": "rdf",
          "type": "string"
        }
      ],
      "name": "CreateSBT",
      "type": "event"
    },
    {
      "anonymous": false,
      "inputs": [
        {
          "indexed": true,
          "internalType": "address",
          "name": "newMinter",
          "type": "address"
        }
      ],
      "name": "EventMinterAdded",
      "type": "event"
    },
    {
      "anonymous": false,
      "inputs": [
        {
          "indexed": true,
          "internalType": "address",
          "name": "oldMinter",
          "type": "address"
        }
      ],
      "name": "EventMinterRemoved",
      "type": "event"
    },
    {
      "anonymous": false,
      "inputs": [
        {
          "indexed": false,
          "internalType": "uint8",
          "name": "version",
          "type": "uint8"
        }
      ],
      "name": "Initialized",
      "type": "event"
    },
    {
      "anonymous": false,
      "inputs": [
        {
          "indexed": true,
          "internalType": "address",
          "name": "previousOwner",
          "type": "address"
        },
        {
          "indexed": true,
          "internalType": "address",
          "name": "newOwner",
          "type": "address"
        }
      ],
      "name": "OwnershipTransferred",
      "type": "event"
    },
    {
      "anonymous": false,
      "inputs": [
        {
          "indexed": true,
          "internalType": "address",
          "name": "operator",
          "type": "address"
        },
        {
          "indexed": true,
          "internalType": "address",
          "name": "owner",
          "type": "address"
        },
        {
          "indexed": true,
          "internalType": "uint256",
          "name": "tokenId",
          "type": "uint256"
        },
        {
          "indexed": false,
          "internalType": "string",
          "name": "rdf",
          "type": "string"
        }
      ],
      "name": "RemoveSBT",
      "type": "event"
    },
    {
      "anonymous": false,
      "inputs": [
        {
          "indexed": true,
          "internalType": "address",
          "name": "from",
          "type": "address"
        },
        {
          "indexed": true,
          "internalType": "address",
          "name": "to",
          "type": "address"
        },
        {
          "indexed": true,
          "internalType": "uint256",
          "name": "tokenId",
          "type": "uint256"
        }
      ],
      "name": "Transfer",
      "type": "event"
    },
    {
      "inputs": [
        {
          "internalType": "address",
          "name": "minter",
          "type": "address"
        }
      ],
      "name": "addMinter",
      "outputs": [],
      "stateMutability": "nonpayable",
      "type": "function"
    },
    {
      "inputs": [
        {
          "internalType": "string",
          "name": "value",
          "type": "string"
        },
        {
          "internalType": "string",
          "name": "className_",
          "type": "string"
        }
      ],
      "name": "addSubject",
      "outputs": [
        {
          "internalType": "uint256",
          "name": "sIndex",
          "type": "uint256"
        }
      ],
      "stateMutability": "nonpayable",
      "type": "function"
    },
    {
      "inputs": [
        {
          "internalType": "address[]",
          "name": "viewer",
          "type": "address[]"
        },
        {
          "internalType": "uint256",
          "name": "tokenId",
          "type": "uint256"
        }
      ],
      "name": "addViewer",
      "outputs": [],
      "stateMutability": "nonpayable",
      "type": "function"
    },
    {
      "inputs": [
        {
          "internalType": "address",
          "name": "to",
          "type": "address"
        },
        {
          "internalType": "uint256",
          "name": "tokenId",
          "type": "uint256"
        }
      ],
      "name": "approve",
      "outputs": [],
      "stateMutability": "nonpayable",
      "type": "function"
    },
    {
      "inputs": [
        {
          "internalType": "address",
          "name": "owner",
          "type": "address"
        }
      ],
      "name": "balanceOf",
      "outputs": [
        {
          "internalType": "uint256",
          "name": "",
          "type": "uint256"
        }
      ],
      "stateMutability": "view",
      "type": "function"
    },
    {
      "inputs": [],
      "name": "baseURI",
      "outputs": [
        {
          "internalType": "string",
          "name": "",
          "type": "string"
        }
      ],
      "stateMutability": "view",
      "type": "function"
    },
    {
      "inputs": [
        {
          "internalType": "address",
          "name": "account",
          "type": "address"
        },
        {
          "internalType": "uint256",
          "name": "id",
          "type": "uint256"
        }
      ],
      "name": "burn",
      "outputs": [],
      "stateMutability": "nonpayable",
      "type": "function"
    },
    {
      "inputs": [
        {
          "internalType": "address",
          "name": "account",
          "type": "address"
        },
        {
          "internalType": "uint256[]",
          "name": "ids",
          "type": "uint256[]"
        }
      ],
      "name": "burnBatch",
      "outputs": [],
      "stateMutability": "nonpayable",
      "type": "function"
    },
    {
      "inputs": [
        {
          "internalType": "string",
          "name": "className_",
          "type": "string"
        }
      ],
      "name": "classIndex",
      "outputs": [
        {
          "internalType": "uint256",
          "name": "classIndex_",
          "type": "uint256"
        }
      ],
      "stateMutability": "view",
      "type": "function"
    },
    {
      "inputs": [
        {
          "internalType": "uint256",
          "name": "cIndex",
          "type": "uint256"
        }
      ],
      "name": "className",
      "outputs": [
        {
          "internalType": "string",
          "name": "name_",
          "type": "string"
        }
      ],
      "stateMutability": "view",
      "type": "function"
    },
    {
      "inputs": [
        {
          "internalType": "uint256",
          "name": "tokenId",
          "type": "uint256"
        }
      ],
      "name": "getApproved",
      "outputs": [
        {
          "internalType": "address",
          "name": "",
          "type": "address"
        }
      ],
      "stateMutability": "view",
      "type": "function"
    },
    {
      "inputs": [],
      "name": "getMinted",
      "outputs": [
        {
          "internalType": "uint256",
          "name": "",
          "type": "uint256"
        }
      ],
      "stateMutability": "view",
      "type": "function"
    },
    {
      "inputs": [
        {
          "internalType": "address",
          "name": "minter",
          "type": "address"
        },
        {
          "internalType": "string",
          "name": "name_",
          "type": "string"
        },
        {
          "internalType": "string",
          "name": "symbol_",
          "type": "string"
        },
        {
          "internalType": "string",
          "name": "baseURI_",
          "type": "string"
        },
        {
          "internalType": "string",
          "name": "schemaURI_",
          "type": "string"
        },
        {
          "internalType": "string[]",
          "name": "classes_",
          "type": "string[]"
        },
        {
          "components": [
            {
              "internalType": "string",
              "name": "name",
              "type": "string"
            },
            {
              "internalType": "enum FieldType",
              "name": "fieldType",
              "type": "uint8"
            }
          ],
          "internalType": "struct Predicate[]",
          "name": "predicates_",
          "type": "tuple[]"
        }
      ],
      "name": "initialize",
      "outputs": [],
      "stateMutability": "nonpayable",
      "type": "function"
    },
    {
      "inputs": [
        {
          "internalType": "address",
          "name": "owner",
          "type": "address"
        },
        {
          "internalType": "address",
          "name": "operator",
          "type": "address"
        }
      ],
      "name": "isApprovedForAll",
      "outputs": [
        {
          "internalType": "bool",
          "name": "",
          "type": "bool"
        }
      ],
      "stateMutability": "view",
      "type": "function"
    },
    {
      "inputs": [
        {
          "internalType": "address",
          "name": "account",
          "type": "address"
        },
        {
          "internalType": "uint256",
          "name": "id",
          "type": "uint256"
        }
      ],
      "name": "isOwnerOf",
      "outputs": [
        {
          "internalType": "bool",
          "name": "",
          "type": "bool"
        }
      ],
      "stateMutability": "view",
      "type": "function"
    },
    {
      "inputs": [
        {
          "internalType": "address",
          "name": "viewer",
          "type": "address"
        },
        {
          "internalType": "uint256",
          "name": "tokenId",
          "type": "uint256"
        }
      ],
      "name": "isViewerOf",
      "outputs": [
        {
          "internalType": "bool",
          "name": "",
          "type": "bool"
        }
      ],
      "stateMutability": "view",
      "type": "function"
    },
    {
      "inputs": [
        {
          "internalType": "address",
          "name": "account",
          "type": "address"
        },
        {
          "internalType": "uint256",
          "name": "sIndex",
          "type": "uint256"
        },
        {
          "components": [
            {
              "internalType": "uint256",
              "name": "pIndex",
              "type": "uint256"
            },
            {
              "internalType": "uint256",
              "name": "o",
              "type": "uint256"
            }
          ],
          "internalType": "struct IntPO[]",
          "name": "intPOList",
          "type": "tuple[]"
        },
        {
          "components": [
            {
              "internalType": "uint256",
              "name": "pIndex",
              "type": "uint256"
            },
            {
              "internalType": "string",
              "name": "o",
              "type": "string"
            }
          ],
          "internalType": "struct StringPO[]",
          "name": "stringPOList",
          "type": "tuple[]"
        },
        {
          "components": [
            {
              "internalType": "uint256",
              "name": "pIndex",
              "type": "uint256"
            },
            {
              "internalType": "address",
              "name": "o",
              "type": "address"
            }
          ],
          "internalType": "struct AddressPO[]",
          "name": "addressPOList",
          "type": "tuple[]"
        },
        {
          "components": [
            {
              "internalType": "uint256",
              "name": "pIndex",
              "type": "uint256"
            },
            {
              "internalType": "uint256",
              "name": "oIndex",
              "type": "uint256"
            }
          ],
          "internalType": "struct SubjectPO[]",
          "name": "subjectPOList",
          "type": "tuple[]"
        },
        {
          "components": [
            {
              "internalType": "uint256",
              "name": "pIndex",
              "type": "uint256"
            },
            {
              "components": [
                {
                  "internalType": "uint256",
                  "name": "pIndex",
                  "type": "uint256"
                },
                {
                  "internalType": "uint256",
                  "name": "o",
                  "type": "uint256"
                }
              ],
              "internalType": "struct IntPO[]",
              "name": "intO",
              "type": "tuple[]"
            },
            {
              "components": [
                {
                  "internalType": "uint256",
                  "name": "pIndex",
                  "type": "uint256"
                },
                {
                  "internalType": "string",
                  "name": "o",
                  "type": "string"
                }
              ],
              "internalType": "struct StringPO[]",
              "name": "stringO",
              "type": "tuple[]"
            },
            {
              "components": [
                {
                  "internalType": "uint256",
                  "name": "pIndex",
                  "type": "uint256"
                },
                {
                  "internalType": "address",
                  "name": "o",
                  "type": "address"
                }
              ],
              "internalType": "struct AddressPO[]",
              "name": "addressO",
              "type": "tuple[]"
            },
            {
              "components": [
                {
                  "internalType": "uint256",
                  "name": "pIndex",
                  "type": "uint256"
                },
                {
                  "internalType": "uint256",
                  "name": "oIndex",
                  "type": "uint256"
                }
              ],
              "internalType": "struct SubjectPO[]",
              "name": "subjectO",
              "type": "tuple[]"
            }
          ],
          "internalType": "struct BlankNodePO[]",
          "name": "blankNodePOList",
          "type": "tuple[]"
        }
      ],
      "name": "mint",
      "outputs": [
        {
          "internalType": "uint256",
          "name": "",
          "type": "uint256"
        }
      ],
      "stateMutability": "nonpayable",
      "type": "function"
    },
    {
      "inputs": [
        {
          "internalType": "uint256",
          "name": "tokenId",
          "type": "uint256"
        },
        {
          "internalType": "uint256",
          "name": "pIndex",
          "type": "uint256"
        },
        {
          "internalType": "string",
          "name": "object",
          "type": "string"
        }
      ],
      "name": "mintPrivacy",
      "outputs": [
        {
          "internalType": "uint256",
          "name": "",
          "type": "uint256"
        }
      ],
      "stateMutability": "nonpayable",
      "type": "function"
    },
    {
      "inputs": [
        {
          "internalType": "address",
          "name": "owner",
          "type": "address"
        },
        {
          "internalType": "string",
          "name": "object",
          "type": "string"
        }
      ],
      "name": "mintedObject",
      "outputs": [
        {
          "internalType": "uint256",
          "name": "",
          "type": "uint256"
        }
      ],
      "stateMutability": "view",
      "type": "function"
    },
    {
      "inputs": [
        {
          "internalType": "address",
          "name": "account",
          "type": "address"
        }
      ],
      "name": "minters",
      "outputs": [
        {
          "internalType": "bool",
          "name": "",
          "type": "bool"
        }
      ],
      "stateMutability": "view",
      "type": "function"
    },
    {
      "inputs": [],
      "name": "name",
      "outputs": [
        {
          "internalType": "string",
          "name": "",
          "type": "string"
        }
      ],
      "stateMutability": "view",
      "type": "function"
    },
    {
      "inputs": [
        {
          "internalType": "address",
          "name": "owner",
          "type": "address"
        }
      ],
      "name": "ownedPrepareToken",
      "outputs": [
        {
          "internalType": "uint256",
          "name": "",
          "type": "uint256"
        }
      ],
      "stateMutability": "view",
      "type": "function"
    },
    {
      "inputs": [],
      "name": "owner",
      "outputs": [
        {
          "internalType": "address",
          "name": "",
          "type": "address"
        }
      ],
      "stateMutability": "view",
      "type": "function"
    },
    {
      "inputs": [
        {
          "internalType": "uint256",
          "name": "tokenId",
          "type": "uint256"
        }
      ],
      "name": "ownerOf",
      "outputs": [
        {
          "internalType": "address",
          "name": "",
          "type": "address"
        }
      ],
      "stateMutability": "view",
      "type": "function"
    },
    {
      "inputs": [
        {
          "internalType": "uint256",
          "name": "pIndex",
          "type": "uint256"
        }
      ],
      "name": "predicate",
      "outputs": [
        {
          "internalType": "string",
          "name": "name_",
          "type": "string"
        },
        {
          "internalType": "enum FieldType",
          "name": "fieldType",
          "type": "uint8"
        }
      ],
      "stateMutability": "view",
      "type": "function"
    },
    {
      "inputs": [
        {
          "internalType": "string",
          "name": "predicateName_",
          "type": "string"
        }
      ],
      "name": "predicateIndex",
      "outputs": [
        {
          "internalType": "uint256",
          "name": "predicateIndex_",
          "type": "uint256"
        }
      ],
      "stateMutability": "view",
      "type": "function"
    },
    {
      "inputs": [],
      "name": "prepareToken",
      "outputs": [
        {
          "internalType": "uint256",
          "name": "",
          "type": "uint256"
        }
      ],
      "stateMutability": "nonpayable",
      "type": "function"
    },
    {
      "inputs": [
        {
          "internalType": "uint256",
          "name": "tokenId",
          "type": "uint256"
        }
      ],
      "name": "rdfOf",
      "outputs": [
        {
          "internalType": "string",
          "name": "",
          "type": "string"
        }
      ],
      "stateMutability": "view",
      "type": "function"
    },
    {
      "inputs": [
        {
          "internalType": "address",
          "name": "minter",
          "type": "address"
        }
      ],
      "name": "removeMinter",
      "outputs": [],
      "stateMutability": "nonpayable",
      "type": "function"
    },
    {
      "inputs": [],
      "name": "renounceOwnership",
      "outputs": [],
      "stateMutability": "nonpayable",
      "type": "function"
    },
    {
      "inputs": [
        {
          "internalType": "address",
          "name": "from",
          "type": "address"
        },
        {
          "internalType": "address",
          "name": "to",
          "type": "address"
        },
        {
          "internalType": "uint256",
          "name": "tokenId",
          "type": "uint256"
        }
      ],
      "name": "safeTransferFrom",
      "outputs": [],
      "stateMutability": "nonpayable",
      "type": "function"
    },
    {
      "inputs": [
        {
          "internalType": "address",
          "name": "from",
          "type": "address"
        },
        {
          "internalType": "address",
          "name": "to",
          "type": "address"
        },
        {
          "internalType": "uint256",
          "name": "tokenId",
          "type": "uint256"
        },
        {
          "internalType": "bytes",
          "name": "_data",
          "type": "bytes"
        }
      ],
      "name": "safeTransferFrom",
      "outputs": [],
      "stateMutability": "nonpayable",
      "type": "function"
    },
    {
      "inputs": [],
      "name": "schemaURI",
      "outputs": [
        {
          "internalType": "string",
          "name": "",
          "type": "string"
        }
      ],
      "stateMutability": "view",
      "type": "function"
    },
    {
      "inputs": [
        {
          "internalType": "address",
          "name": "operator",
          "type": "address"
        },
        {
          "internalType": "bool",
          "name": "approved",
          "type": "bool"
        }
      ],
      "name": "setApprovalForAll",
      "outputs": [],
      "stateMutability": "nonpayable",
      "type": "function"
    },
    {
      "inputs": [
        {
          "internalType": "string",
          "name": "newName",
          "type": "string"
        }
      ],
      "name": "setName",
      "outputs": [],
      "stateMutability": "nonpayable",
      "type": "function"
    },
    {
      "inputs": [
        {
          "internalType": "string",
          "name": "newSymbol",
          "type": "string"
        }
      ],
      "name": "setSymbol",
      "outputs": [],
      "stateMutability": "nonpayable",
      "type": "function"
    },
    {
      "inputs": [
        {
          "internalType": "bool",
          "name": "transferable_",
          "type": "bool"
        }
      ],
      "name": "setTransferable",
      "outputs": [],
      "stateMutability": "nonpayable",
      "type": "function"
    },
    {
      "inputs": [
        {
          "internalType": "string",
          "name": "newURI",
          "type": "string"
        }
      ],
      "name": "setURI",
      "outputs": [],
      "stateMutability": "nonpayable",
      "type": "function"
    },
    {
      "inputs": [
        {
          "internalType": "uint256",
          "name": "index",
          "type": "uint256"
        }
      ],
      "name": "subject",
      "outputs": [
        {
          "internalType": "string",
          "name": "subjectValue",
          "type": "string"
        },
        {
          "internalType": "string",
          "name": "className_",
          "type": "string"
        }
      ],
      "stateMutability": "view",
      "type": "function"
    },
    {
      "inputs": [
        {
          "internalType": "string",
          "name": "subjectValue",
          "type": "string"
        },
        {
          "internalType": "string",
          "name": "className_",
          "type": "string"
        }
      ],
      "name": "subjectIndex",
      "outputs": [
        {
          "internalType": "uint256",
          "name": "",
          "type": "uint256"
        }
      ],
      "stateMutability": "view",
      "type": "function"
    },
    {
      "inputs": [
        {
          "internalType": "bytes4",
          "name": "interfaceId",
          "type": "bytes4"
        }
      ],
      "name": "supportsInterface",
      "outputs": [
        {
          "internalType": "bool",
          "name": "",
          "type": "bool"
        }
      ],
      "stateMutability": "view",
      "type": "function"
    },
    {
      "inputs": [],
      "name": "symbol",
      "outputs": [
        {
          "internalType": "string",
          "name": "",
          "type": "string"
        }
      ],
      "stateMutability": "view",
      "type": "function"
    },
    {
      "inputs": [
        {
          "internalType": "uint256",
          "name": "index",
          "type": "uint256"
        }
      ],
      "name": "tokenByIndex",
      "outputs": [
        {
          "internalType": "uint256",
          "name": "",
          "type": "uint256"
        }
      ],
      "stateMutability": "view",
      "type": "function"
    },
    {
      "inputs": [
        {
          "internalType": "address",
          "name": "owner",
          "type": "address"
        },
        {
          "internalType": "uint256",
          "name": "index",
          "type": "uint256"
        }
      ],
      "name": "tokenOfOwnerByIndex",
      "outputs": [
        {
          "internalType": "uint256",
          "name": "",
          "type": "uint256"
        }
      ],
      "stateMutability": "view",
      "type": "function"
    },
    {
      "inputs": [
        {
          "internalType": "uint256",
          "name": "tokenId",
          "type": "uint256"
        }
      ],
      "name": "tokenURI",
      "outputs": [
        {
          "internalType": "string",
          "name": "",
          "type": "string"
        }
      ],
      "stateMutability": "view",
      "type": "function"
    },
    {
      "inputs": [],
      "name": "totalSupply",
      "outputs": [
        {
          "internalType": "uint256",
          "name": "",
          "type": "uint256"
        }
      ],
      "stateMutability": "view",
      "type": "function"
    },
    {
      "inputs": [
        {
          "internalType": "address",
          "name": "from",
          "type": "address"
        },
        {
          "internalType": "address",
          "name": "to",
          "type": "address"
        },
        {
          "internalType": "uint256",
          "name": "tokenId",
          "type": "uint256"
        }
      ],
      "name": "transferFrom",
      "outputs": [],
      "stateMutability": "nonpayable",
      "type": "function"
    },
    {
      "inputs": [
        {
          "internalType": "address",
          "name": "newOwner",
          "type": "address"
        }
      ],
      "name": "transferOwnership",
      "outputs": [],
      "stateMutability": "nonpayable",
      "type": "function"
    },
    {
      "inputs": [],
      "name": "transferable",
      "outputs": [
        {
          "internalType": "bool",
          "name": "",
          "type": "bool"
        }
      ],
      "stateMutability": "view",
      "type": "function"
    }
  ],
  "bytecode": "0x60808060405234620000f45760008054336001600160a01b0319821681178355620000e49390916001600160a01b0316907f8be0079c531659141344cd1fd0a4f28419497f9722a3daafe3b4186f6b6457e0908490a3620000b86200006362000160565b6200006d62000160565b6200007762000111565b9184835284602084015260408301526060820152620000b26200009962000140565b91620000a46200019d565b8352846020840152620002a4565b620004c5565b620000c262000608565b620000cc62000140565b90620000d76200019d565b8252602082015262000703565b604051615add9081620008618239f35b50600080fd5b50634e487b7160e01b600052604160045260246000fd5b60405190608082016001600160401b038111838210176200013157604052565b6200013b620000fa565b604052565b60408051919082016001600160401b038111838210176200013157604052565b6040516020810191906000906001600160401b038411818510176200018d575b8360405281815292369037565b62000197620000fa565b62000180565b60405190602082016001600160401b03811183821017620001c2575b60405260008252565b620001cc620000fa565b620001b9565b50634e487b7160e01b600052603260045260246000fd5b50634e487b7160e01b600052600060045260246000fd5b8181106200020c575050565b6000815560010162000200565b81519168010000000000000000831162000294575b815483835580841062000273575b50602080910191600052806000206000925b8484106200025d575050505050565b600183828293518555019201930192906200024e565b6200028d9083600052846020600020918201910162000200565b386200023c565b6200029e620000fa565b6200022e565b600454906801000000000000000080831015620003ca575b60019081840180600455841015620003ba575b60046000908152835160029590951b7f8a35acfbc15ff81a39ae7d344fd709f28e8600b4aa8c65c6b64bfe7fe36bd19b0180546001600160a01b0319166001600160a01b039690961695909517855560208085015184870155600286018160408701518051958611620003aa575b82548684558087106200038d575b5091845282842091015b8484106200037957505050505050906003606062000377930151910162000219565b565b805182559285019290850190820162000355565b838652828620620003a391810190880162000200565b386200034b565b620003b4620000fa565b6200033d565b620003c4620001d2565b620002cf565b620003d4620000fa565b620002bc565b600a54811015620003fb575b600a60005260206000209060011b0190600090565b62000405620001d2565b620003e6565b6011548110156200042c575b601160005260206000209060011b0190600090565b62000436620001d2565b62000417565b90600182811c9216801562000470575b60208310146200045857565b5050634e487b7160e01b600052602260045260246000fd5b91607f16916200044c565b9190601f81116200048b57505050565b62000377926000526020600020906020601f840160051c83019310620004ba575b601f0160051c019062000200565b9091508190620004ac565b600a5468010000000000000000811015620005f8575b620004ee600191828101600a55620003da565b929092620005e8575b805180519091906001600160401b038111620005d8575b62000526816200051f87546200043c565b876200047b565b806020938490601f831160011462000568576000926200055c575b5050600019600383901b1c191690841b1784555b0151910155565b01519050388062000541565b90869350601f198316916200058289600052602060002090565b9260005b88828210620005c15750508411620005a7575b505050811b01845562000555565b015160001960f88460031b161c1916905538808062000599565b8385015186558a9790950194938401930162000586565b620005e2620000fa565b6200050e565b620005f2620001e9565b620004f7565b62000602620000fa565b620004db565b6000600f54680100000000000000008110156200069f575b6001810180600f558110156200068f575b600f82527f8d1108e10bcb7c27dddfc02ed9d693a074039d026cf4ea4240b40f7d581ac80201805462000664906200043c565b601f811162000671575055565b818352602083206200068c91601f0160051c81019062000200565b55565b62000699620001d2565b62000631565b620006a9620000fa565b62000620565b60051115620006ba57565b50634e487b7160e01b600052602160045260246000fd5b906005811015620006ea5760ff80198354169116179055565b505050634e487b7160e01b600052602160045260246000fd5b906011546801000000000000000081101562000850575b6200072d6001918281016011556200040b565b91909162000840575b83518051946001600160401b03861162000830575b62000763866200075c86546200043c565b866200047b565b6020918290601f8811600114620007bb57968091620003779798600092620007af575b5050600019600383901b1c191690841b1784555b015191620007a883620006af565b01620006d1565b01519050388062000786565b90601f19881691620007d287600052602060002090565b9260005b8181106200081a5750918693918a620003779a9b941062000800575b505050811b0184556200079a565b015160001960f88460031b161c19169055388080620007f2565b82840151855593870193928601928601620007d6565b6200083a620000fa565b6200074b565b6200084a620001e9565b62000736565b6200085a620000fa565b6200071a56fe6040608081526004361015610015575b50600080fd5b600090813560e01c806301ffc9a71461081d57806302fe53051461080557806306fdde03146107e9578063081812fc146107cd578063095ea7b3146107b5578063152407ae1461079957806318160ddd1461077d5780631dfc01e51461076057806323b872dd146107485780632f745c591461072b5780633092afd51461071457806341be3f18146106f757806342842e0e146106df5780634862a96c146106c75780634f6ccce7146106ab5780635036d1a81461068e57806352e89bbd1461066b57806358e23bac1461064f5780636352211e146106285780636c0360eb1461060c57806370a08231146105f0578063715018a6146105d95780638da5cb5b146105b157806392ff0d31146105865780639377268d1461056a57806395d89b411461054e578063983b2d56146105375780639cd23707146105205780639d317c0e146105045780639dc29fac146104ec578063a22cb465146104d4578063a6c1653d146104b7578063a9ff13a61461048e578063ac72200d14610472578063b2dc5dc31461045a578063b75a61a314610419578063b84c824614610401578063b88d4fde146103e6578063c47f0027146103ce578063c5b8f772146103b1578063c87b56dd14610395578063d49116f514610377578063d4b0c4031461034e578063de2581ce14610317578063deeec344146102fb578063e985e9c5146102cb578063f2fde38b146102b1578063f46eccc41461026b5763fbafb6981461023d575061000f565b3461026757610263915061025861025336610957565b6126b8565b905191829182610946565b0390f35b5080fd5b50346102675761026391506102a061028236610bc9565b6001600160a01b031660009081526008602052604090205460ff1690565b905191829182901515815260200190565b5034610267576102c86102c336610bc9565b6118a2565b51f35b50346102675761026391506102a06102f46102ef6102e8366117d8565b9190611c5e565b611cc6565b5460ff1690565b503461026757610263915061025861031236610957565b61231a565b503461026757610263915061033e61033861033136611798565b9190611c44565b906122d0565b5490519081529081906020820190565b503461026757610263915061036a61036536610957565b6124bc565b9290915192839283611759565b5034610267576102c861038936611681565b9594909493919361195f565b50346102675761026391506102586103ac36610957565b612b92565b50346102675761026391506102a06103c8366109a8565b90612a79565b5034610267576102c86103e03661087c565b90615073565b5034610267576102c86103f8366114da565b92919091613184565b5034610267576102c86104133661087c565b9061514a565b503461026757610263915061044b61043036610bc9565b6001600160a01b031660009081526015602052604090205490565b90519081529081906020820190565b5034610267576102c861046c36611479565b91614b04565b5034610267576102639150610486366108de565b61044b612782565b50346102675761026391506104aa6104a536610957565b61258f565b9290915192839283611454565b503461026757610263915061044b6104ce36610ca9565b90612563565b5034610267576102c86104e636611423565b90612f68565b5034610267576102c86104fe366109a8565b9061497e565b5034610267576102639150610518366108de565b61044b615520565b5034610267576102c861053236611407565b615059565b5034610267576102c861054936610bc9565b615224565b5034610267576102639150610562366108de565b610258611259565b503461026757610263915061044b61058136610b36565b6123af565b503461026757610263915061059a366108de565b60ff60095416905191829182901515815260200190565b503461026757610263916105c4366108de565b5490519182916001600160a01b031682610969565b5034610267576105e8366108de565b6102c861180b565b503461026757610263915061044b61060736610bc9565b612981565b5034610267576102639150610620366108de565b6102586111d2565b503461026757610263915061064461063f36610957565b6129fb565b905191829182610969565b5034610267576102639150610663366108de565b6102586112e0565b503461026757610263915061044b61068236611035565b95949094939193614081565b503461026757610263915061044b6106a536610ca9565b90613f71565b503461026757610263915061044b6106c236610957565b6128b4565b5034610267576102c86106d936610c12565b9061547a565b5034610267576102c86106f136610b92565b916130f4565b50346102675761026391506102a061070e366109a8565b906153d9565b5034610267576102c861072636610bc9565b615320565b503461026757610263915061044b610742366109a8565b906127df565b5034610267576102c861075a36610b92565b91613062565b503461026757610263915061044b61077736610b60565b916156d9565b5034610267576102639150610791366108de565b61044b612794565b503461026757610263915061044b6107b036610b36565b6122f6565b5034610267576102c86107c7366109a8565b90612dd0565b50346102675761026391506106446107e436610957565b612ee3565b50346102675761026391506107fd366108de565b61025861113a565b5034610267576102c86108173661087c565b90614f7f565b50503461084b5750607f1961084661083c61083736610861565b6158af565b151560805260a090565b016080f35b80fd5b6001600160e01b03198116141561000f57565b602090600319011261000f576004356108798161084e565b90565b9060206003198301126108d7576001600160401b0391600435908382116108ce57806023830112156108ce5781600401359384116108ce57602484830101116108c6576024019190565b505050600080fd5b50505050600080fd5b5050600080fd5b600090600319011261000f57565b918091926000905b82821061090c575011610905575050565b6000910152565b915080602091830151818601520182916108f4565b9060209161093a815180928185528580860191016108ec565b601f01601f1916010190565b906020610879928181520190610921565b602090600319011261000f5760043590565b6001600160a01b03909116815260200190565b600435906001600160a01b0382168214156108d757565b35906001600160a01b0382168214156108d757565b604090600319011261000f576004356001600160a01b0381168114156108d7579060243590565b50634e487b7160e01b600052604160045260246000fd5b604081019081106001600160401b03821117610a0157604052565b610a096109cf565b604052565b608081019081106001600160401b03821117610a0157604052565b602081019081106001600160401b03821117610a0157604052565b606081019081106001600160401b03821117610a0157604052565b601f909101601f19168101906001600160401b03821190821017610a0157604052565b6040519060a082016001600160401b03811183821017610a0157604052565b60405190610aae826109e6565b565b6020906001600160401b038111610acd575b601f01601f19160190565b610ad56109cf565b610ac2565b929192610ae682610ab0565b91610af46040519384610a5f565b829481845281830111610b11578281602093846000960137010152565b5050505050600080fd5b9080601f830112156108c65781602061087993359101610ada565b60206003198201126108d757600435906001600160401b0382116108c65761087991600401610b1b565b60606003198201126108d7576004359160243591604435906001600160401b038211610b115761087991600401610b1b565b606090600319011261000f576001600160a01b03906004358281168114156108c657916024359081168114156108c6579060443590565b602090600319011261000f576004356001600160a01b0381168114156108d75790565b6020906001600160401b038111610c05575b60051b0190565b610c0d6109cf565b610bfe565b60406003198201126108d7576004356001600160401b0381116108c657816023820112156108c657806004013591610c4983610bec565b92610c576040519485610a5f565b80845260209260248486019260051b820101928311610c9e57602401905b828210610c8757505050509060243590565b838091610c9384610993565b815201910190610c75565b505050505050600080fd5b9060406003198301126108d7576001600160401b036004358181116108ce5783610cd591600401610b1b565b926024359182116108ce5761087991600401610b1b565b81601f820112156108c657803590610d0382610bec565b92604092610d1384519586610a5f565b808552602091828087019260061b85010193818511610d6e578301915b848310610d405750505050505090565b8583830312610d6e578386918251610d57816109e6565b853581528286013583820152815201920191610d30565b5050505050505050600080fd5b81601f820112156108c657803590610d9282610bec565b92604092610da284519586610a5f565b808552602093848087019260051b85010193838511610d6e57858101925b858410610dd1575050505050505090565b6001600160401b038435818111610e3f5783019184601f198489030112610e3f578451610dfd816109e6565b89840135815285840135928311610e2e57610e1f888b80969581960101610b1b565b83820152815201930192610dc0565b505050505050505050505050600080fd5b5050505050505050505050600080fd5b81601f820112156108c657803590610e6682610bec565b92604092610e7684519586610a5f565b808552602091828087019260061b85010193818511610d6e578301915b848310610ea35750505050505090565b8583830312610d6e578386918251610eba816109e6565b85358152610ec9838701610993565b83820152815201920191610e93565b9080601f830112156108c6578135610eef81610bec565b92604091610eff83519586610a5f565b808552602093848087019260051b84010193818511610d6e57858401925b858410610f2e575050505050505090565b6001600160401b038435818111610e3f5786019160a080601f198588030112610e2e57610f59610a82565b908a85013582528585013584811161102257878c610f7992880101610cec565b8b8301526060908186013585811161100e57888d610f9992890101610d7b565b8784015260809182870135868111610ff957898e610fb9928a0101610e4f565b90840152850135938411610fe757610fd8878c80979681970101610cec565b90820152815201930192610f1d565b50505050505050505050505050600080fd5b50505050505050505050505050505050600080fd5b505050505050505050505050505050600080fd5b5050505050505050505050505050600080fd5b9060e06003198301126108d75761104a61097c565b91602435916001600160401b03604435818111610c9e578361106e91600401610cec565b926064358281116110db578161108691600401610d7b565b92608435838111610d6e578261109e91600401610e4f565b9260a4358181116110cd57836110b691600401610cec565b9260c4359182116110cd5761087991600401610ed8565b505050505050505050600080fd5b50505050505050600080fd5b50634e487b7160e01b600052600060045260246000fd5b90600182811c92168015611130575b602083101461111857565b5050634e487b7160e01b600052602260045260246000fd5b91607f169161110d565b60405190600082600191825461114f816110fe565b808452908481169081156111b55750600114611173575b50610aae92500383610a5f565b9280915060005260209081600020936000915b81831061119d575050610aae935082010138611166565b85548884018501529485019487945091830191611186565b94505050505060ff19166020830152610aae826040810138611166565b60405190600082600c54916111e6836110fe565b8083526001938085169081156111b5575060011461120b5750610aae92500383610a5f565b600c600090815260008051602061595a83398151915294602093509091905b818310611241575050610aae935082010138611166565b8554888401850152948501948794509183019161122a565b604051906000826002549161126d836110fe565b8083526001938085169081156111b557506001146112925750610aae92500383610a5f565b6002600090815260008051602061593a83398151915294602093509091905b8183106112c8575050610aae935082010138611166565b855488840185015294850194879450918301916112b1565b60405190600082600d54916112f4836110fe565b8083526001938085169081156111b557506001146113195750610aae92500383610a5f565b600d600090815260008051602061597a83398151915294602093509091905b81831061134f575050610aae935082010138611166565b85548884018501529485019487945091830191611338565b906040519182600082549261137b846110fe565b9081845260019485811690816000146113e857506001146113a5575b5050610aae92500383610a5f565b9093915060005260209081600020936000915b8183106113d0575050610aae93508201013880611397565b855488840185015294850194879450918301916113b8565b9550505050505060ff19166020830152610aae82604081013880611397565b602090600319011261000f576004358015158114156108d75790565b604090600319011261000f576004356001600160a01b0381168114156108d757906024358015158114156108c65790565b909161146b61087993604084526040840190610921565b916020818403910152610921565b60406003198201126108d7576004356001600160a01b0381168114156108c657916001600160401b039160243590838211610b115780602383011215610b11578160040135938411610b115760248460051b830101116108ce576024019190565b9060806003198301126108d7576001600160a01b03916004358381168114156108ce57926024359081168114156108ce579160443591606435906001600160401b038211610c9e5780602383011215610c9e5781602461087993600401359101610ada565b9080601f830112156108c65781359061155782610bec565b926115656040519485610a5f565b828452602092838086019160051b830101928084116110db57848301915b8483106115935750505050505090565b82356001600160401b0381116110cd5786916115b484848094890101610b1b565b815201920191611583565b9080601f830112156108c6578135916115d783610bec565b9260406115e681519586610a5f565b8185526020938486019185600594851b860101948286116110cd57868101935b86851061161857505050505050505090565b6001600160401b03908535828111610e2e5783019184601f198488030112610e2e57845192611646846109e6565b8a810135918211610fe757611660878c8894840101610b1b565b845201359087821015610e2e57828a93928480940152815201940193611606565b60e06003198201126108d75761169561097c565b916001600160401b039160243590838211610b11576116b8816004938401610b1b565b936044358181116110db57826116cf918501610b1b565b93606435828111610d6e57836116e6918601610b1b565b936084358381116110cd57846116fd918301610b1b565b9360a435848111611729578161171491840161153f565b9360c4359081116117295761087992016115bf565b50505050505050505050600080fd5b6005111561174257565b50634e487b7160e01b600052602160045260246000fd5b92919061176e90604085526040850190610921565b92600582101561177e5760200152565b50505050634e487b7160e01b600052602160045260246000fd5b9060406003198301126108d7576004356001600160a01b0381168114156108c65791602435906001600160401b0382116108ce5761087991600401610b1b565b604090600319011261000f576001600160a01b03906004358281168114156108c657916024359081168114156108c65790565b611813611848565b600080546001600160a01b0319811682556040516001600160a01b03909116906000805160206159fa833981519152908390a3565b6000546001600160a01b031633141561185d57565b50606460405162461bcd60e51b815260206004820152602060248201527f4f776e61626c653a2063616c6c6572206973206e6f7420746865206f776e65726044820152fd5b6118aa611848565b6001600160a01b039081169081156118e957600080546001600160a01b03198116841782556040519216916000805160206159fa8339815191529190a3565b505060405162461bcd60e51b815260206004820152602660248201527f4f776e61626c653a206e6577206f776e657220697320746865207a65726f206160448201526564647265737360d01b606482015260849150fd5b80546001600160a01b0319166001600160a01b03909216919091179055565b9492909593916000549660ff8860a81c161580988199611a89575b8115611a66575b5015611a02576000805460ff60a01b1916600160a01b1790556119a896886119ea57611a9b565b6119ae57565b6000805460ff60a81b19169055604051600181527f7f26b83ff96e1f2b6a682f133852f6798a09c465da95921460cefb384740249890602090a1565b6000805460ff60a81b1916600160a81b179055611a9b565b505050505050505050608460405162461bcd60e51b815260206004820152602e60248201527f496e697469616c697a61626c653a20636f6e747261637420697320616c72656160448201526d191e481a5b9a5d1a585b1a5e995960921b6064820152fd5b303b15915081611a78575b5038611981565b60a01c60ff16600114905038611a71565b9050600160ff8260a01c16109061197a565b9593949194611aa8611848565b604051602081016020815281611ac16040820185610921565b0391611ad5601f1993848101835282610a5f565b51902090604051611b07602082019282611afb8560409060208152600060208201520190565b03908101835282610a5f565b51902014611b8657611b58611b6294611b53611b6798611b4e611b5d96611b49611b3c8e611b378e511515611be2565b611c78565b805460ff19166001179055565b611e21565b611f02565b611fe5565b6120c8565b6133c8565b61353e565b60018060a01b03166000805160206159da8339815191526000604051a2565b5050505050505050608460405162461bcd60e51b815260206004820152602760248201527f53656d616e7469635342543a20736368656d61205552492063616e6e6f7420626044820152666520656d70747960c81b6064820152fd5b15611be957565b5060405162461bcd60e51b815260206004820152602c60248201527f53656d616e7469635342543a207072656469636174652073697a652063616e2060448201526b6e6f7420626520656d70747960a01b6064820152608490fd5b6001600160a01b0316600090815260166020526040902090565b6001600160a01b0316600090815260076020526040902090565b6001600160a01b0316600090815260086020526040902090565b6001600160a01b0316600090815260056020526040902090565b6001600160a01b0316600090815260156020526040902090565b9060018060a01b0316600052602052604060002090565b818110611ce8575050565b60008155600101611cdd565b90601f8211611d01575050565b610aae91600c6000526020600020906020601f840160051c83019310611d2f575b601f0160051c0190611cdd565b9091508190611d22565b90601f8211611d46575050565b610aae9160016000526020600020906020601f840160051c83019310611d2f57601f0160051c0190611cdd565b90601f8211611d80575050565b610aae9160026000526020600020906020601f840160051c83019310611d2f57601f0160051c0190611cdd565b90601f8211611dba575050565b610aae91600d6000526020600020906020601f840160051c83019310611d2f57601f0160051c0190611cdd565b9190601f8111611df657505050565b610aae926000526020600020906020601f840160051c83019310611d2f57601f0160051c0190611cdd565b80519091906001600160401b038111611ef5575b600190611e4b81611e4684546110fe565b611d39565b602080601f8311600114611e86575081929394600092611e7b575b5050600019600383901b1c191690821b179055565b015190503880611e66565b6001600052601f19831695909190600080516020615a3a833981519152926000905b888210611ede5750508385969710611ec5575b505050811b019055565b015160001960f88460031b161c19169055388080611ebb565b808785968294968601518155019501930190611ea8565b611efd6109cf565b611e35565b80519091906001600160401b038111611fd8575b611f2a81611f256002546110fe565b611d73565b602080601f8311600114611f665750819293600092611f5b575b50508160011b916000199060031b1c191617600255565b015190503880611f44565b6002600052601f1983169490919060008051602061593a833981519152926000905b878210611fc0575050836001959610611fa7575b505050811b01600255565b015160001960f88460031b161c19169055388080611f9c565b80600185968294968601518155019501930190611f88565b611fe06109cf565b611f16565b80519091906001600160401b0381116120bb575b61200d81612008600c546110fe565b611cf4565b602080601f8311600114612049575081929360009261203e575b50508160011b916000199060031b1c191617600c55565b015190503880612027565b600c600052601f1983169490919060008051602061595a833981519152926000905b8782106120a357505083600195961061208a575b505050811b01600c55565b015160001960f88460031b161c1916905538808061207f565b8060018596829496860151815501950193019061206b565b6120c36109cf565b611ff9565b80519091906001600160401b03811161219e575b6120f0816120eb600d546110fe565b611dad565b602080601f831160011461212c5750819293600092612121575b50508160011b916000199060031b1c191617600d55565b01519050388061210a565b600d600052601f1983169490919060008051602061597a833981519152926000905b87821061218657505083600195961061216d575b505050811b01600d55565b015160001960f88460031b161c19169055388080612162565b8060018596829496860151815501950193019061214e565b6121a66109cf565b6120dc565b81519192916001600160401b038111612260575b6121d3816121cd84546110fe565b84611de7565b602080601f831160011461220f575081929394600092612204575b50508160011b916000199060031b1c1916179055565b0151905038806121ee565b90601f1983169561222585600052602060002090565b926000905b88821061224857505083600195969710611ec557505050811b019055565b8060018596829496860151815501950193019061222a565b6122686109cf565b6121bf565b90612280602092828151948592016108ec565b0190565b602061229d9181604051938285809451938492016108ec565b8101600e81520301902090565b60206122c39181604051938285809451938492016108ec565b8101601081520301902090565b6020906122ea9282604051948386809551938492016108ec565b82019081520301902090565b6122ff90612284565b5490565b50634e487b7160e01b600052603260045260246000fd5b801515806123a4575b1561235e5761087990600f54811015612351575b600f600052600080516020615a7a83398151915201611367565b612359612303565b612337565b505060405162461bcd60e51b815260206004820152601c60248201527b14d95b585b9d1a58d4d0950e8818db185cdcc81b9bdd08195e1a5cdd60221b6044820152606490fd5b50600f548110612323565b6122ff906122aa565b156123bf57565b50606460405162461bcd60e51b815260206004820152602060248201527f53656d616e7469635342543a20707265646963617465206e6f742065786973746044820152fd5b601154811015612424575b601160005260206000209060011b0190600090565b61242c612303565b61240f565b600a54811015612451575b600a60005260206000209060011b0190600090565b612459612303565b61243c565b60135481101561247e575b601360005260206000209060011b0190600090565b612486612303565b612469565b90604051612498816109e6565b60ff600182946124a781611367565b845201541690600582101561177e5760200152565b6124da6124e0918015158061250d575b6124d5906123b8565b612404565b5061248b565b906020825192015160058110156124f45790565b505050634e487b7160e01b600052602160045260246000fd5b5060115481106124cc565b1561251f57565b5060405162461bcd60e51b815260206004820152601b60248201527a14d95b585b9d1a58d4d0950e88191bd95cc81b9bdd08195e1a5cdd602a1b6044820152606490fd5b61256f61258392612284565b54600052600b6020526040600020906122d0565b54610879811515612518565b90811515806125e9575b6125a290612518565b61087960016125c26125bc6125b686612431565b50611367565b94612431565b500154600f5481101561235157600f600052600080516020615a7a83398151915201611367565b50600a548210612599565b600454811015612614575b600460005260206000209060021b0190600090565b61261c612303565b6125ff565b9060405191828154918282526020928383019160005283600020936000905b82821061265657505050610aae92500383610a5f565b855484526001958601958895509381019390910190612640565b9060405161267d81610a0e565b60606126b36003839560018060a01b038154168552600181015460208601526126a860028201612621565b604086015201612621565b910152565b6126c1816131ec565b156126e0576126db6126d5610879926125f4565b50612670565b61362e565b505060405162461bcd60e51b815260206004820152602760248201527f53656d616e7469635342543a2053656d616e74696353425420646f6573206e6f6044820152661d08195e1a5cdd60ca1b6064820152608490fd5b50634e487b7160e01b600052601160045260246000fd5b6001811061275e575b6000190190565b612766612737565b612757565b818110612776570390565b61277e612737565b0390565b6004546001811061275e576000190190565b61279c612782565b60035490818110612776570390565b60019060001981146127bb570190565b612280612737565b60019060011981116127bb570190565b811981116127bb570190565b9060006001918293600454945b8581106128525750505050505050608460405162461bcd60e51b815260206004820152602b60248201527f455243373231456e756d657261626c653a206f776e657220696e646578206f7560448201526a74206f6620626f756e647360a81b6064820152fd5b61285b816125f4565b50546001600160a01b0383811691161461287e575b612879906127ab565b6127ec565b928281146128ab578461287991600119811161289e575b01939050612870565b6128a6612737565b612895565b50505091505090565b60006001908192600454935b84811061292557505050505050608460405162461bcd60e51b815260206004820152602b60248201527f455243373231456e756d657261626c653a20746f6b656e20696e646578206f7560448201526a74206f6620626f756e647360a81b6064820152fd5b61292e816125f4565b50546001600160a01b031661294c575b612947906127ab565b6128c0565b91818114612979578361294791600119811161296c575b0192905061293e565b612974612737565b612963565b505091505090565b6001600160a01b031680156129a157600052600560205260406000205490565b505060405162461bcd60e51b815260206004820152602a60248201527f4552433732313a2062616c616e636520717565727920666f7220746865207a65604482015269726f206164647265737360b01b6064820152608490fd5b612a04816131ec565b15612a2057612a12906125f4565b50546001600160a01b031690565b505060405162461bcd60e51b815260206004820152602960248201527f4552433732313a206f776e657220717565727920666f72206e6f6e657869737460448201526832b73a103a37b5b2b760b91b6064820152608490fd5b90612a83906129fb565b6001600160a01b0390811691161490565b60405190612aa182610a29565b60008252565b600c5460009291612ab7826110fe565b91600190818116908115612b085750600114612ad257505050565b9091929350600c60005260209081600020906000915b858310612af757505050500190565b805485840152918301918101612ae8565b60ff191683525050019150565b600092918154612b24816110fe565b92600191808316908115612b7d5750600114612b41575b50505050565b90919293945060005260209081600020906000915b858310612b6c5750505050019038808080612b3b565b805485840152918301918101612b56565b60ff1916845250505001915038808080612b3b565b612b9b816131ec565b15612c0257612bab600c546110fe565b15612bf957610879612bbf612bda92612c93565b612beb604051938492612bd460208501612aa7565b9061226d565b64173539b7b760d91b815260050190565b03601f198101835282610a5f565b50610879612a94565b505060405162461bcd60e51b815260206004820152602f60248201527f4552433732314d657461646174613a2055524920717565727920666f72206e6f60448201526e3732bc34b9ba32b73a103a37b5b2b760891b6064820152608490fd5b90612c6b82610ab0565b612c786040519182610a5f565b8281528092612c89601f1991610ab0565b0190602036910137565b6000908072184f03e93ff9f4daa797ed6e38ed64bf6a1f0160401b80821015612dc2575b506904ee2d6d415b85acef8160201b80831015612db3575b50662386f26fc1000080831015612da4575b506305f5e10080831015612d95575b5061271080831015612d86575b506064821015612d76575b600a80921015612d6c575b600190816021612d24828701612c61565b95860101905b612d36575b5050505090565b600019019083906f181899199a1a9b1b9c1cb0b131b232b360811b8282061a835304918215612d6757919082612d2a565b612d2f565b9160010191612d13565b9190606460029104910191612d08565b60049193920491019138612cfd565b60089193920491019138612cf0565b60109193920491019138612ce1565b60209193920491019138612ccf565b604093508104915038612cb7565b90612dda816129fb565b6001600160a01b038181169084168114612e8a573314908115612e70575b5015612e0757610aae91614daa565b505060405162461bcd60e51b815260206004820152603860248201527f4552433732313a20617070726f76652063616c6c6572206973206e6f74206f776044820152771b995c881b9bdc88185c1c1c9bdd995908199bdc88185b1b60421b606482015260849150fd5b60ff9150612e82906102ef3391611c5e565b541638612df8565b5050505050608460405162461bcd60e51b815260206004820152602760248201527f4552433732313a2063616e6e6f7420617070726f766520746f2063757272656e6044820152663a1037bbb732b960c91b6064820152fd5b612eec816131ec565b15612f0c576000908152600660205260409020546001600160a01b031690565b505060405162461bcd60e51b815260206004820152602c60248201527f4552433732313a20617070726f76656420717565727920666f72206e6f6e657860448201526b34b9ba32b73a103a37b5b2b760a11b6064820152608490fd5b6001600160a01b0381169190338314612fd157612f92903360005260076020526040600020611cc6565b9015159060ff1981541660ff83161790556040519081527f17307eab39ab6107e8899845ad3d59bd9653f200f220920489ca2b5937696c3160203392a3565b50505050606460405162461bcd60e51b815260206004820152601960248201527822a9219b99189d1030b8383937bb32903a379031b0b63632b960391b6044820152fd5b1561301c57565b5060405162461bcd60e51b815260206004820152601e60248201527f53656d616e7469635342543a206d757374207472616e7366657261626c6500006044820152606490fd5b90610aae929161307660ff60095416613015565b613088613083843361322c565b61308d565b614c7f565b1561309457565b5060405162461bcd60e51b815260206004820152603160248201527f4552433732313a207472616e736665722063616c6c6572206973206e6f74206f6044820152701ddb995c881b9bdc88185c1c1c9bdd9959607a1b6064820152608490fd5b90916131529260ff600954169261310a84613015565b6040519361313590602086016001600160401b03811187821017613177575b60405260008652613015565b613142613083843361322c565b61314d838383614c7f565b614f44565b1561315957565b5060405162461bcd60e51b81528061317360048201613199565b0390fd5b61317f6109cf565b613129565b9061315293929161313560ff60095416613015565b60809060208152603260208201527f4552433732313a207472616e7366657220746f206e6f6e20455243373231526560408201527131b2b4bb32b91034b6b83632b6b2b73a32b960711b60608201520190565b8015159081613219575b816131ff575090565b61320991506125f4565b50546001600160a01b0316151590565b9050613223612782565b811115906131f6565b6001600160a01b038061323e846129fb565b16908083169082821494851561327d575b505050821561325d57505090565b60ff9250906132789160005260076020526040600020611cc6565b541690565b61328a9192939550612ee3565b16149138808061324f565b6020908051156132a3570190565b612280612303565b60209181518110156132c0575b60051b010190565b6132c8612303565b6132b8565b156132d457565b5060405162461bcd60e51b815260206004820152602260248201527f53656d616e7469635342543a20436c6173732063616e6e6f7420626520656d70604482015261747960f01b6064820152608490fd5b1561332c57565b5060405162461bcd60e51b815260206004820152601a60248201527914d95b585b9d1a58d4d0950e88185b1c9958591e48185919195960321b6044820152606490fd5b600f54610aae9190600160401b8110156133bb575b6001810180600f558110156133ae575b600f600052600080516020615a7a833981519152016121ab565b6133b6612303565b613394565b6133c36109cf565b613384565b9060005b825181101561347757806133e361347292856132ab565b5161343c604080516020613432818301836133fe8883610946565b0393613412601f1995868101835282610a5f565b51902093519182019282611afb8560409060208152600060208201520190565b51902014156132cd565b61344f61344882612284565b5415613325565b6134588161336f565b61346c613466600f5461274e565b91612284565b556127ab565b6133cc565b509050565b1561348357565b5060405162461bcd60e51b815260206004820152602660248201527f53656d616e7469635342543a205072656469636174652063616e6e6f7420626560448201526520656d70747960d01b6064820152608490fd5b602060016134f96011548260401b811015613531575b828101601155612404565b613524575b6135098451826121ab565b0191015160058110156124f45760ff80198354169116179055565b61352c6110e7565b6134fe565b6135396109cf565b6134ee565b9060005b825181101561347757806135596135ae92856132ab565b516135838151604090815190613579602091836133fe8482019283610946565b519020141561347c565b61359061344882516122aa565b613599816134d8565b61346c6135a760115461274e565b91516122aa565b613542565b6020610aae9193929360405194816135d487935180928680870191016108ec565b82016135e8825180938680850191016108ec565b01038085520183610a5f565b60405190613601826109e6565b60018252603b60f81b6020830152565b6040519061361e826109e6565b60018252601760f91b6020830152565b6136378161390b565b91600080935b604084018051805187101561381d57916136d091602061366c6124da6136668b6136d6986132ab565b51612404565b01805161367881611738565b61368181611738565b6136e45750906136b86136c1916136b261369c8b86516132ab565b516136ab8c60608d01516132ab565b5190613b22565b906135b3565b915b515161274e565b8714156136dc576136b2613611565b946127ab565b9361363d565b6136b26135f4565b80516136ef81611738565b6136f881611738565b6001141561373357509061372d6136c1916136b26137178b86516132ab565b516137268c60608d01516132ab565b5190613b5d565b916136ba565b805161373e81611738565b61374781611738565b6002141561377c57509061372d6136c1916136b26137668b86516132ab565b516137758c60608d01516132ab565b5190613bd2565b805161378781611738565b61379081611738565b600314156137c557509061372d6136c1916136b26137af8b86516132ab565b516137be8c60608d01516132ab565b5190613c40565b516137cf81611738565b6137d881611738565b6004146137e9575b6136c1906136ba565b906138156136c1916136b26137ff8b86516132ab565b5161380e8c60608d01516132ab565b5190613d68565b9190506137e0565b50509350509050565b60405190613833826109e6565b600482526314dbdd5b60e21b6020830152565b60405190613853826109e6565b60018252601d60f91b6020830152565b60405190613870826109e6565b60018252605f60f81b6020830152565b6040519061388d826109e6565b60018252600160fd1b6020830152565b919493610aae9360405196879385516138be8160209889808a0191016108ec565b85016138d2825180938980850191016108ec565b016138e5825180938880850191016108ec565b016138f8825180938780850191016108ec565b016135e8825180938680850191016108ec565b602081018051610879929060009080613977575050613928613826565b915b519081613965575161394591506001600160a01b03166139a6565b61394d613846565b91613956613863565b9061395f613880565b9361389d565b506125b661397291612431565b613945565b602061399392600f54831015613999575b600f81522001611367565b9161392a565b6139a1612303565b613988565b604051906001600160a01b03166139bc82610a44565b602a8252604036602084013760306139d383613295565b5360786139df83613a46565b536029905b600182116139f757610879915015613a83565b80600f613a3392166010811015613a39575b6f181899199a1a9b1b9c1cb0b131b232b360811b901a613a298486613a57565b5360041c91613a76565b906139e4565b613a41612303565b613a09565b6021908051600110156132a3570190565b906020918051821015613a6957010190565b613a71612303565b010190565b801561275e576000190190565b15613a8a57565b50606460405162461bcd60e51b815260206004820152602060248201527f537472696e67733a20686578206c656e67746820696e73756666696369656e746044820152fd5b60405190613adc826109e6565b6002825261381d60f11b6020830152565b610aae919392936040519485918351613b0e816020968780880191016108ec565b83016138f8825180938780850191016108ec565b90613b4e613b48613b386124da61087995612404565b613b40613acf565b9051906135b3565b91612c93565b90613b57613880565b90613aed565b90613b70613b386124da61087994612404565b90601254811015613bc5575b601260005260206000200190613bbd60016040518094613bab601160f91b918260208501526021840190612b15565b90815203601e19810185520183610a5f565b613b57613880565b613bcd612303565b613b7c565b90613be5613b386124da61087994612404565b613bbd613bf0613846565b613bf8613826565b613c12613c03613863565b956001600160a01b03166139a6565b6040519586928451613c2c816020978880890191016108ec565b84016138e5825180938880850191016108ec565b90613c506124da61087993612404565b90613bbd6001613c5f83612431565b500154600f54811015613d03575b600f600052613cf5613c91613c886020938460002001611367565b95613b40613acf565b93613c9a613846565b92613cac613ca6613863565b92612431565b50916040519785613cc68a9751809286808b0191016108ec565b8601613cda825180938680850191016108ec565b01613ced825180938580850191016108ec565b010190612b15565b03601f198101845283610a5f565b613d0b612303565b613c6d565b60405190613d1d826109e6565b6002825261203b60f01b6020830152565b60405190613d3b826109e6565b60018252605b60f81b6020830152565b60405190613d58826109e6565b60018252605d60f81b6020830152565b90613d7b613b386124da613da494612404565b90613d97613d91613d8b8361245e565b50612621565b9161245e565b5060019384809201612621565b91613dad612a94565b926000925b613dd8575b5050506108799250613dc7613880565b613dcf613d2e565b9061395f613d4b565b9091928251841015613f205785906020613df86124da61366688886132ab565b018051613e0481611738565b613e0d81611738565b613e6a5750613e2e906136b2613e2387876132ab565b516136ab88876132ab565b935b613e3a845161274e565b8110613e52575b613e4a906127ab565b929190613db2565b93613e62613e4a916136b2613d10565b949050613e41565b8051613e7581611738565b613e7e81611738565b831415613ea85750613ea2906136b2613e9787876132ab565b5161372688876132ab565b93613e30565b8051613eb381611738565b613ebc81611738565b60021415613ee15750613ea2906136b2613ed687876132ab565b5161377588876132ab565b94909451613eee81611738565b613ef781611738565b600314613f0357613e30565b93613ea2906136b2613f1587876132ab565b516137be88876132ab565b92613db7565b15613f2d57565b5060405162461bcd60e51b815260206004820152601b60248201527a29b2b6b0b73a34b1a9a12a1d1036bab9ba1031329036b4b73a32b960291b6044820152606490fd5b6001604092613f986000913383526008602052613f9360ff8785205416613f26565b612284565b5490613fa5821515614039565b818152600b602052613fbc613448868320866122d0565b613fd4600a54958284889452600b60205220856122d0565b5560405192613fe2846109e6565b8352602083019081528160401b84101561402c575b818401600a5561401861400985612431565b94909461401f575b51846121ab565b5191015590565b6140276110e7565b614011565b6140346109cf565b613ff7565b1561404057565b5060405162461bcd60e51b815260206004820152601860248201527729b2b6b0b73a34b1a9a12a1d103830b930b69032b93937b960411b6044820152606490fd5b949290969593913360005260086020526140a260ff60406000205416613f26565b6001600160a01b0386169788156141fa576140c0600a548210614039565b6140c8614769565b6140d0614769565b916040519a6140de8c610a0e565b8b5260208b015260408a0152606089015260045461410f90600160401b8110156141ed575b600181016004556125f4565b9890986141e0575b805161412c906001600160a01b03168a611940565b60208181015160018b0155604082015180519160028c0191600160401b84116141d3575b82548484558085106141b6575b50019060005260206000206000915b8383106141a057505050506108799697986003606061418e9301519101614783565b61419960045461274e565b96876142c2565b600160208282935185550192019201919061416c565b6141cd908460005285846000209182019101611cdd565b3861415d565b6141db6109cf565b614150565b6141e86110e7565b614117565b6141f56109cf565b614103565b505050505050505050608460405162461bcd60e51b815260206004820152602560248201527f53656d616e7469635342543a206d696e7420746f20746865207a65726f206164604482015264647265737360d81b6064820152fd5b1561425c57565b5060405162461bcd60e51b815260206004820152603760248201527f53656d616e7469635342543a207472616e7366657220746f206e6f6e204552436044820152761b9918a932b1b2b4bb32b91034b6b83632b6b2b73a32b960491b6064820152608490fd5b919461430761430e9297956143006142f99a9660026142e0886125f4565b50019b8c9a60036142f08a6125f4565b5001809c6144bf565b898c61458f565b878a614621565b85886146b4565b60005b83518110156143d557806143cb61432b6143d093876132ab565b5161433a8151601154116123b8565b6143c5601354916143be61434c614769565b61436f614357614769565b91614360610aa1565b908152602092838201526147ff565b6143788561245e565b509061439560016143888861245e565b50019185015182846144bf565b6143a46040850151828461458f565b6143b360608501518284614621565b6080840151916146b4565b518b61447a565b8761447a565b6127ab565b614311565b50939250936143e79150541515614039565b6143f081611c92565b6143fa81546127c3565b905561441661441161440a612a94565b8484614e8f565b614255565b60018060a01b031681816000600080516020615a1a83398151915281604051a46144456126db6126d5846125f4565b7f6ca139c4cce2c6dfdd350d203c7ac907df3bdc839acb0c9f1d59d01950aaaead60405180614475339482610946565b0390a4565b805490600160401b8210156144b2575b600182018082558210156144a5575b60005260206000200155565b6144ad612303565b614499565b6144ba6109cf565b61448a565b929190600091825b8151811015614587576144da81836132ab565b519060ff60016144f684518015158061250d576124d5906123b8565b50015416600581101561456b57614528576143cb60208361451b61452395518b61447a565b01518561447a565b6144c7565b50505050505050608460405162461bcd60e51b815260206004820152602160248201526000805160206159ba8339815191526044820152603960f91b6064820152fd5b5050634e487b7160e01b84525050602160045250602492509050fd5b505050509050565b60009392845b815181101561458757806143cb6145af61460293856132ab565b516145ba81516148c8565b6145fc6012916145f5835493848d6020908186015193600160401b841015614614575b60018401808255841015614607575b815220016121ab565b518761447a565b8661447a565b614595565b61460f612303565b6145ec565b61461c6109cf565b6145dd565b90929192600093845b81518110156145875761463d81836132ab565b519060ff600161465984518015158061250d576124d5906123b8565b5001541660058110156146985760021415614528576143cb8261468061469394518861447a565b602001516001600160a01b03168561447a565b61462a565b5050634e487b7160e01b86525050602160045250602492915050fd5b90929160005b8151811015614762576146cd81836132ab565b516146d8815161494e565b6020908181019182518015159081614756575b501561470a575061470592916145f56143cb92518761447a565b6146ba565b95505050505050606491506040519062461bcd60e51b82526004820152601e60248201527f53656d616e7469635342543a207375626a656374206e6f7420657869737400006044820152fd5b9050600a5411386146eb565b5050509050565b6040519061477682610a29565b6000808352366020840137565b815191600160401b83116147f2575b81548383558084106147d4575b50602080910191600052806000206000925b8484106147bf575050505050565b600183828293518555019201930192906147b1565b6147ec90836000528460206000209182019101611cdd565b3861479f565b6147fa6109cf565b614792565b90601354600160401b90818110156148bb575b61482360019182810160135561245e565b9290926148ae575b84519081519081116148a1575b8354818555808210614883575b50602080920184600052826000206000915b8383106148705750505050610aae939401519101614783565b8051825591850191908501908401614857565b61489b90856000528260206000209182019101611cdd565b38614845565b6148a96109cf565b614838565b6148b66110e7565b61482b565b6148c36109cf565b614812565b60016148e160ff928015158061250d576124d5906123b8565b50015416600581101561493657600114156148f857565b5060405162461bcd60e51b815260206004820152602160248201526000805160206159ba8339815191526044820152603960f91b6064820152608490fd5b5050634e487b7160e01b600052602160045260246000fd5b600161496760ff928015158061250d576124d5906123b8565b50015416600581101561493657600314156148f857565b33600052600860205261499860ff60406000205416613f26565b6149aa6149a5833361322c565b614a5c565b6149b3826129fb565b6001600160a01b0380831692916149cc91168314614abe565b6149fb6149de6126db6126d5866125f4565b916149e885614d66565b6149f36003546127ab565b600355611c92565b614a05815461274e565b9055614a10836125f4565b5080546001600160a01b031916905560405160008051602061599a8339815191529084600085600080516020615a1a8339815191528285a4602081528061447533946020830190610921565b15614a6357565b5060405162461bcd60e51b815260206004820152602c60248201527f53656d616e7469635342543a2063616c6c6572206973206e6f7420617070726f60448201526b3b32b21037b91037bbb732b960a11b6064820152608490fd5b15614ac557565b5060405162461bcd60e51b815260206004820152601660248201527529b2b6b0b73a34b1a9a12a1d103737ba1037bbb732b960511b6044820152606490fd5b90916000913383526008602052604091614b2360ff8486205416613f26565b614b37614b32826003546127d3565b600355565b614b4082611c92565b614b4b82825461276b565b9055835b818110614b5e57505050505050565b80614b6d614c09928489614c0e565b35614b7b6149a5823361322c565b614b8d614b888287612a79565b614abe565b614b9c6126db6126d5836125f4565b614ba582614d66565b614bc2614bb1836125f4565b5080546001600160a01b0319169055565b86516001600160a01b038716919060008051602061599a83398151915290848b85600080516020615a1a8339815191528285a480614c01339482610946565b0390a46127ab565b614b4f565b9190811015614c1e5760051b0190565b610c0d612303565b15614c2d57565b5060405162461bcd60e51b8152602060048201526024808201527f4552433732313a207472616e7366657220746f20746865207a65726f206164646044820152637265737360e01b6064820152608490fd5b90614c89836129fb565b6001600160a01b038381169290918216831415614d0a57614cc3614cd492821694614cb5861515614c26565b614cbe87614d66565b611c92565b614ccd815461274e565b9055611c92565b614cde81546127c3565b9055614cf382614ced856125f4565b50611940565b600080516020615a1a8339815191526000604051a4565b505050505050608460405162461bcd60e51b815260206004820152602960248201527f4552433732313a207472616e73666572206f6620746f6b656e2074686174206960448201526839903737ba1037bbb760b91b6064820152fd5b600081815260066020526040812080546001600160a01b03191690556001600160a01b03614d93836129fb565b16600080516020615a5a83398151915282604051a4565b816000526006602052614dc1816040600020611940565b6001600160a01b0380614dd3846129fb565b16911690600080516020615a5a8339815191526000604051a4565b908160209103126108d757516108798161084e565b610879939260809260018060a01b031682526000602083015260408201528160608201520190610921565b6001600160a01b03918216815291166020820152604081019190915260806060820181905261087992910190610921565b3d15614e8a573d90614e7082610ab0565b91614e7e6040519384610a5f565b82523d6000602084013e565b606090565b919091803b614ea057505050600190565b614ec8602091600093604051948580948193630a85bd0160e11b998a84523360048501614e03565b03926001600160a01b03165af160009181614f24575b50614f1657505050614eee614e5f565b80519081614f1157505060405162461bcd60e51b81528061317360048201613199565b602001fd5b6001600160e01b0319161490565b614f3d919250614f343d82610a5f565b3d810190614dee565b9038614ede565b92919091823b614f575750505050600190565b614ec8926020926000604051809681958294630a85bd0160e11b9a8b85523360048601614e2e565b9190614f89611848565b6001600160401b03811161504c575b614fa781612008600c546110fe565b6000601f8211600114614fe057819293600092614fd55750508160011b916000199060031b1c191617600c55565b013590503880612027565b600c600052601f1982169360008051602061595a83398151915291805b868110615034575083600195961061501a57505050811b01600c55565b0135600019600384901b60f8161c1916905538808061207f565b90926020600181928686013581550194019101614ffd565b6150546109cf565b614f98565b615061611848565b60ff8019600954169115151617600955565b919061507d611848565b6001600160401b03811161513d575b60019061509d81611e4684546110fe565b6000601f82116001146150d557819293946000926150ca575050600019600383901b1c191690821b179055565b013590503880611e66565b6001600052601f19821694600080516020615a3a83398151915291805b8781106151275750838596971061510d57505050811b019055565b0135600019600384901b60f8161c19169055388080611ebb565b82820135845592850192602091820191016150f2565b6151456109cf565b61508c565b9190615154611848565b6001600160401b038111615217575b61517281611f256002546110fe565b6000601f82116001146151ab578192936000926151a05750508160011b916000199060031b1c191617600255565b013590503880611f44565b6002600052601f1982169360008051602061593a83398151915291805b8681106151ff57508360019596106151e557505050811b01600255565b0135600019600384901b60f8161c19169055388080611f9c565b909260206001819286860135815501940191016151c8565b61521f6109cf565b615163565b61522c611848565b6001600160a01b0381169081156152c35760ff61524882611c78565b541661527157611b3c61525a91611c78565b6000805160206159da8339815191526000604051a2565b505060405162461bcd60e51b815260206004820152602160248201527f53656d616e7469635342543a206d696e74657220616c726561647920616464656044820152601960fa1b606482015260849150fd5b505060405162461bcd60e51b815260206004820152602c60248201527f53656d616e7469635342543a206d696e746572206d757374206e6f742062652060448201526b6e756c6c206164647265737360a01b606482015260849150fd5b615328611848565b6001600160a01b03811660008181526008602052604090205490919060ff16156153865761535590611c78565b60ff1981541690557f7df677640dd30a79584f8ecea06aeea15d215b861c5d3b5f8c26962d691f820e6000604051a2565b505060405162461bcd60e51b815260206004820152602260248201527f53656d616e7469635342543a206d696e74657220646f6573206e6f74206578696044820152611cdd60f21b606482015260849150fd5b906153e3816129fb565b6001600160a01b03928316921682149182156153fe57505090565b909150600052601460205260406000209060005260205260ff6040600020541690565b1561542857565b5060405162461bcd60e51b8152602060048201526024808201527f53656d616e746963534254507269766163793a5065726d697373696f6e2064656044820152631b9a595960e21b6064820152608490fd5b91906001600160a01b036154993382615492856129fb565b1614615421565b60005b84518110156147625780826154b46154e393886132ab565b5116600052601460208181526040908160002087600052815260ff826000205416156154e8575b5050506127ab565b61549c565b61551892866154f7868c6132ab565b5116600052815281600020908760005252600020600160ff19825416179055565b3880806154db565b60003381526020906015825260408120546156625761553d614769565b615545614769565b6040519161555283610a0e565b338352848301848152604084019182526060840192835260045491600160401b9182841015615655575b6155a86155906001958681016004556125f4565b979097615648575b516001600160a01b031687611940565b518386015586600286019151805193841161563b575b8254848455808510615621575b500190865286862086915b83831061560e575050505050916155f7604092600360159695519101614783565b61560260045461274e565b93849333835252205590565b80518255918401919084019088016155d6565b838952828920615635918101908601611cdd565b386155cb565b6156436109cf565b6155be565b6156506110e7565b615598565b61565d6109cf565b61557c565b50608491506040519062461bcd60e51b82526004820152602360248201527f53656d616e746963534254507269766163793a416c72656164792070726570616044820152621c995960ea1b6064820152fd5b604051906156c1826109e6565b60098252685b507269766163795d60b81b6020830152565b91906156e4816148c8565b8215615797576156fe836156f733611cac565b5414615421565b61571061570a33611c44565b836122d0565b5461574f578161573661574b9261572f869561572a6156b4565b6135b3565b9085615800565b600061574133611cac565b5561033833611c44565b5590565b50505050606460405162461bcd60e51b815260206004820152601f60248201527f53656d616e746963534254507269766163793a416c7265616479206d696e74006044820152fd5b50505050608460405162461bcd60e51b815260206004820152602560248201527f53656d616e746963534254507269766163793a546f6b656e206964206e6f7420604482015264195e1a5cdd60da1b6064820152fd5b6040516157f981610a29565b6000815290565b9091604093845190615811826109e6565b60018252600093845b60208082101561584757885160209291615833826109e6565b88825260608183015282870101520161581a565b5050939190959294610aae9584519161585f836109e6565b8252602082015261586f82613295565b5261587981613295565b5082519261588684610a29565b828452519161589483610a29565b825261589e6157ed565b926158a76157ed565b9433906142c2565b63ffffffff60e01b16630837c7e360e31b81149081156158cd575090565b6380ac58cd60e01b811491508115615928575b8115615917575b8115615906575b81156158f8575090565b6301ffc9a760e01b14905090565b6316388eeb60e21b811491506158ee565b631f75f6d360e31b811491506158e7565b635b5e139f60e01b811491506158e056fe405787fa12a823e0f2b7631cc41b3ba8828b3321ca811111fa75cd3aa3bb5acedf6966c971051c3d54ec59162606531493a51404a002842f56009d7e5cf4a8c7d7b6990105719101dabeb77144f2a3385c8033acd3af97e9423a695e81ad1eb58ea074c4be03960be214c047b695cecdc52be7382eee092c135d1726fabfc44453656d616e7469635342543a207072656469636174652074797065206572726f3a159411d00fa06a3ec11d4578931f1b7f877cceadb1e083929d74ec020cb2438be0079c531659141344cd1fd0a4f28419497f9722a3daafe3b4186f6b6457e0ddf252ad1be2c89b69c2b068fc378daa952ba7f163c4a11628f55a4df523b3efb10e2d527612073b26eecdfd717e6a320cf44b4afac2b0732d9fcbe2b7fa0cf68c5be1e5ebec7d5bd14f71427d1e84f3dd0314c0f7b2291e5b200ac8c7c3b9258d1108e10bcb7c27dddfc02ed9d693a074039d026cf4ea4240b40f7d581ac802a36469706673582212203ef0a2a852f3522997c0aadc8edb610c621c0ffc6e115d7ff855a5bb5480467a6c6578706572696d656e74616cf564736f6c634300080c0041",
  "linkReferences": {},
  "deployedLinkReferences": {}
}