{
  "_format": "hh-sol-artifact-1",
  "contractName": "SemanticSBT",
  "sourceName": "contracts/core/SemanticSBT.sol",
  "abi": [
    {
      "inputs": [],
      "stateMutability": "nonpayable",
      "type": "constructor"
    },
    {
      "anonymous": false,
      "inputs": [
        {
          "indexed": true,
          "internalType": "address",
          "name": "owner",
          "type": "address"
        },
        {
          "indexed": true,
          "internalType": "address",
          "name": "approved",
          "type": "address"
        },
        {
          "indexed": true,
          "internalType": "uint256",
          "name": "tokenId",
          "type": "uint256"
        }
      ],
      "name": "Approval",
      "type": "event"
    },
    {
      "anonymous": false,
      "inputs": [
        {
          "indexed": true,
          "internalType": "address",
          "name": "owner",
          "type": "address"
        },
        {
          "indexed": true,
          "internalType": "address",
          "name": "operator",
          "type": "address"
        },
        {
          "indexed": false,
          "internalType": "bool",
          "name": "approved",
          "type": "bool"
        }
      ],
      "name": "ApprovalForAll",
      "type": "event"
    },
    {
      "anonymous": false,
      "inputs": [
        {
          "indexed": true,
          "internalType": "address",
          "name": "operator",
          "type": "address"
        },
        {
          "indexed": true,
          "internalType": "address",
          "name": "owner",
          "type": "address"
        },
        {
          "indexed": true,
          "internalType": "uint256",
          "name": "tokenId",
          "type": "uint256"
        },
        {
          "indexed": false,
          "internalType": "string",
          "name": "rdf",
          "type": "string"
        }
      ],
      "name": "CreateSBT",
      "type": "event"
    },
    {
      "anonymous": false,
      "inputs": [
        {
          "indexed": true,
          "internalType": "address",
          "name": "newMinter",
          "type": "address"
        }
      ],
      "name": "EventMinterAdded",
      "type": "event"
    },
    {
      "anonymous": false,
      "inputs": [
        {
          "indexed": true,
          "internalType": "address",
          "name": "oldMinter",
          "type": "address"
        }
      ],
      "name": "EventMinterRemoved",
      "type": "event"
    },
    {
      "anonymous": false,
      "inputs": [
        {
          "indexed": false,
          "internalType": "uint8",
          "name": "version",
          "type": "uint8"
        }
      ],
      "name": "Initialized",
      "type": "event"
    },
    {
      "anonymous": false,
      "inputs": [
        {
          "indexed": true,
          "internalType": "address",
          "name": "previousOwner",
          "type": "address"
        },
        {
          "indexed": true,
          "internalType": "address",
          "name": "newOwner",
          "type": "address"
        }
      ],
      "name": "OwnershipTransferred",
      "type": "event"
    },
    {
      "anonymous": false,
      "inputs": [
        {
          "indexed": true,
          "internalType": "address",
          "name": "operator",
          "type": "address"
        },
        {
          "indexed": true,
          "internalType": "address",
          "name": "owner",
          "type": "address"
        },
        {
          "indexed": true,
          "internalType": "uint256",
          "name": "tokenId",
          "type": "uint256"
        },
        {
          "indexed": false,
          "internalType": "string",
          "name": "rdf",
          "type": "string"
        }
      ],
      "name": "RemoveSBT",
      "type": "event"
    },
    {
      "anonymous": false,
      "inputs": [
        {
          "indexed": true,
          "internalType": "address",
          "name": "from",
          "type": "address"
        },
        {
          "indexed": true,
          "internalType": "address",
          "name": "to",
          "type": "address"
        },
        {
          "indexed": true,
          "internalType": "uint256",
          "name": "tokenId",
          "type": "uint256"
        }
      ],
      "name": "Transfer",
      "type": "event"
    },
    {
      "inputs": [
        {
          "internalType": "address",
          "name": "minter",
          "type": "address"
        }
      ],
      "name": "addMinter",
      "outputs": [],
      "stateMutability": "nonpayable",
      "type": "function"
    },
    {
      "inputs": [
        {
          "internalType": "string",
          "name": "value",
          "type": "string"
        },
        {
          "internalType": "string",
          "name": "className_",
          "type": "string"
        }
      ],
      "name": "addSubject",
      "outputs": [
        {
          "internalType": "uint256",
          "name": "sIndex",
          "type": "uint256"
        }
      ],
      "stateMutability": "nonpayable",
      "type": "function"
    },
    {
      "inputs": [
        {
          "internalType": "address",
          "name": "to",
          "type": "address"
        },
        {
          "internalType": "uint256",
          "name": "tokenId",
          "type": "uint256"
        }
      ],
      "name": "approve",
      "outputs": [],
      "stateMutability": "nonpayable",
      "type": "function"
    },
    {
      "inputs": [
        {
          "internalType": "address",
          "name": "owner",
          "type": "address"
        }
      ],
      "name": "balanceOf",
      "outputs": [
        {
          "internalType": "uint256",
          "name": "",
          "type": "uint256"
        }
      ],
      "stateMutability": "view",
      "type": "function"
    },
    {
      "inputs": [],
      "name": "baseURI",
      "outputs": [
        {
          "internalType": "string",
          "name": "",
          "type": "string"
        }
      ],
      "stateMutability": "view",
      "type": "function"
    },
    {
      "inputs": [
        {
          "internalType": "address",
          "name": "account",
          "type": "address"
        },
        {
          "internalType": "uint256",
          "name": "id",
          "type": "uint256"
        }
      ],
      "name": "burn",
      "outputs": [],
      "stateMutability": "nonpayable",
      "type": "function"
    },
    {
      "inputs": [
        {
          "internalType": "address",
          "name": "account",
          "type": "address"
        },
        {
          "internalType": "uint256[]",
          "name": "ids",
          "type": "uint256[]"
        }
      ],
      "name": "burnBatch",
      "outputs": [],
      "stateMutability": "nonpayable",
      "type": "function"
    },
    {
      "inputs": [
        {
          "internalType": "string",
          "name": "className_",
          "type": "string"
        }
      ],
      "name": "classIndex",
      "outputs": [
        {
          "internalType": "uint256",
          "name": "classIndex_",
          "type": "uint256"
        }
      ],
      "stateMutability": "view",
      "type": "function"
    },
    {
      "inputs": [
        {
          "internalType": "uint256",
          "name": "cIndex",
          "type": "uint256"
        }
      ],
      "name": "className",
      "outputs": [
        {
          "internalType": "string",
          "name": "name_",
          "type": "string"
        }
      ],
      "stateMutability": "view",
      "type": "function"
    },
    {
      "inputs": [
        {
          "internalType": "uint256",
          "name": "tokenId",
          "type": "uint256"
        }
      ],
      "name": "getApproved",
      "outputs": [
        {
          "internalType": "address",
          "name": "",
          "type": "address"
        }
      ],
      "stateMutability": "view",
      "type": "function"
    },
    {
      "inputs": [],
      "name": "getMinted",
      "outputs": [
        {
          "internalType": "uint256",
          "name": "",
          "type": "uint256"
        }
      ],
      "stateMutability": "view",
      "type": "function"
    },
    {
      "inputs": [
        {
          "internalType": "address",
          "name": "minter",
          "type": "address"
        },
        {
          "internalType": "string",
          "name": "name_",
          "type": "string"
        },
        {
          "internalType": "string",
          "name": "symbol_",
          "type": "string"
        },
        {
          "internalType": "string",
          "name": "baseURI_",
          "type": "string"
        },
        {
          "internalType": "string",
          "name": "schemaURI_",
          "type": "string"
        },
        {
          "internalType": "string[]",
          "name": "classes_",
          "type": "string[]"
        },
        {
          "components": [
            {
              "internalType": "string",
              "name": "name",
              "type": "string"
            },
            {
              "internalType": "enum FieldType",
              "name": "fieldType",
              "type": "uint8"
            }
          ],
          "internalType": "struct Predicate[]",
          "name": "predicates_",
          "type": "tuple[]"
        }
      ],
      "name": "initialize",
      "outputs": [],
      "stateMutability": "nonpayable",
      "type": "function"
    },
    {
      "inputs": [
        {
          "internalType": "address",
          "name": "owner",
          "type": "address"
        },
        {
          "internalType": "address",
          "name": "operator",
          "type": "address"
        }
      ],
      "name": "isApprovedForAll",
      "outputs": [
        {
          "internalType": "bool",
          "name": "",
          "type": "bool"
        }
      ],
      "stateMutability": "view",
      "type": "function"
    },
    {
      "inputs": [
        {
          "internalType": "address",
          "name": "account",
          "type": "address"
        },
        {
          "internalType": "uint256",
          "name": "id",
          "type": "uint256"
        }
      ],
      "name": "isOwnerOf",
      "outputs": [
        {
          "internalType": "bool",
          "name": "",
          "type": "bool"
        }
      ],
      "stateMutability": "view",
      "type": "function"
    },
    {
      "inputs": [
        {
          "internalType": "address",
          "name": "account",
          "type": "address"
        },
        {
          "internalType": "uint256",
          "name": "sIndex",
          "type": "uint256"
        },
        {
          "components": [
            {
              "internalType": "uint256",
              "name": "pIndex",
              "type": "uint256"
            },
            {
              "internalType": "uint256",
              "name": "o",
              "type": "uint256"
            }
          ],
          "internalType": "struct IntPO[]",
          "name": "intPOList",
          "type": "tuple[]"
        },
        {
          "components": [
            {
              "internalType": "uint256",
              "name": "pIndex",
              "type": "uint256"
            },
            {
              "internalType": "string",
              "name": "o",
              "type": "string"
            }
          ],
          "internalType": "struct StringPO[]",
          "name": "stringPOList",
          "type": "tuple[]"
        },
        {
          "components": [
            {
              "internalType": "uint256",
              "name": "pIndex",
              "type": "uint256"
            },
            {
              "internalType": "address",
              "name": "o",
              "type": "address"
            }
          ],
          "internalType": "struct AddressPO[]",
          "name": "addressPOList",
          "type": "tuple[]"
        },
        {
          "components": [
            {
              "internalType": "uint256",
              "name": "pIndex",
              "type": "uint256"
            },
            {
              "internalType": "uint256",
              "name": "oIndex",
              "type": "uint256"
            }
          ],
          "internalType": "struct SubjectPO[]",
          "name": "subjectPOList",
          "type": "tuple[]"
        },
        {
          "components": [
            {
              "internalType": "uint256",
              "name": "pIndex",
              "type": "uint256"
            },
            {
              "components": [
                {
                  "internalType": "uint256",
                  "name": "pIndex",
                  "type": "uint256"
                },
                {
                  "internalType": "uint256",
                  "name": "o",
                  "type": "uint256"
                }
              ],
              "internalType": "struct IntPO[]",
              "name": "intO",
              "type": "tuple[]"
            },
            {
              "components": [
                {
                  "internalType": "uint256",
                  "name": "pIndex",
                  "type": "uint256"
                },
                {
                  "internalType": "string",
                  "name": "o",
                  "type": "string"
                }
              ],
              "internalType": "struct StringPO[]",
              "name": "stringO",
              "type": "tuple[]"
            },
            {
              "components": [
                {
                  "internalType": "uint256",
                  "name": "pIndex",
                  "type": "uint256"
                },
                {
                  "internalType": "address",
                  "name": "o",
                  "type": "address"
                }
              ],
              "internalType": "struct AddressPO[]",
              "name": "addressO",
              "type": "tuple[]"
            },
            {
              "components": [
                {
                  "internalType": "uint256",
                  "name": "pIndex",
                  "type": "uint256"
                },
                {
                  "internalType": "uint256",
                  "name": "oIndex",
                  "type": "uint256"
                }
              ],
              "internalType": "struct SubjectPO[]",
              "name": "subjectO",
              "type": "tuple[]"
            }
          ],
          "internalType": "struct BlankNodePO[]",
          "name": "blankNodePOList",
          "type": "tuple[]"
        }
      ],
      "name": "mint",
      "outputs": [
        {
          "internalType": "uint256",
          "name": "",
          "type": "uint256"
        }
      ],
      "stateMutability": "nonpayable",
      "type": "function"
    },
    {
      "inputs": [
        {
          "internalType": "address",
          "name": "account",
          "type": "address"
        }
      ],
      "name": "minters",
      "outputs": [
        {
          "internalType": "bool",
          "name": "",
          "type": "bool"
        }
      ],
      "stateMutability": "view",
      "type": "function"
    },
    {
      "inputs": [],
      "name": "name",
      "outputs": [
        {
          "internalType": "string",
          "name": "",
          "type": "string"
        }
      ],
      "stateMutability": "view",
      "type": "function"
    },
    {
      "inputs": [],
      "name": "owner",
      "outputs": [
        {
          "internalType": "address",
          "name": "",
          "type": "address"
        }
      ],
      "stateMutability": "view",
      "type": "function"
    },
    {
      "inputs": [
        {
          "internalType": "uint256",
          "name": "tokenId",
          "type": "uint256"
        }
      ],
      "name": "ownerOf",
      "outputs": [
        {
          "internalType": "address",
          "name": "",
          "type": "address"
        }
      ],
      "stateMutability": "view",
      "type": "function"
    },
    {
      "inputs": [
        {
          "internalType": "uint256",
          "name": "pIndex",
          "type": "uint256"
        }
      ],
      "name": "predicate",
      "outputs": [
        {
          "internalType": "string",
          "name": "name_",
          "type": "string"
        },
        {
          "internalType": "enum FieldType",
          "name": "fieldType",
          "type": "uint8"
        }
      ],
      "stateMutability": "view",
      "type": "function"
    },
    {
      "inputs": [
        {
          "internalType": "string",
          "name": "predicateName_",
          "type": "string"
        }
      ],
      "name": "predicateIndex",
      "outputs": [
        {
          "internalType": "uint256",
          "name": "predicateIndex_",
          "type": "uint256"
        }
      ],
      "stateMutability": "view",
      "type": "function"
    },
    {
      "inputs": [
        {
          "internalType": "uint256",
          "name": "tokenId",
          "type": "uint256"
        }
      ],
      "name": "rdfOf",
      "outputs": [
        {
          "internalType": "string",
          "name": "",
          "type": "string"
        }
      ],
      "stateMutability": "view",
      "type": "function"
    },
    {
      "inputs": [
        {
          "internalType": "address",
          "name": "minter",
          "type": "address"
        }
      ],
      "name": "removeMinter",
      "outputs": [],
      "stateMutability": "nonpayable",
      "type": "function"
    },
    {
      "inputs": [],
      "name": "renounceOwnership",
      "outputs": [],
      "stateMutability": "nonpayable",
      "type": "function"
    },
    {
      "inputs": [
        {
          "internalType": "address",
          "name": "from",
          "type": "address"
        },
        {
          "internalType": "address",
          "name": "to",
          "type": "address"
        },
        {
          "internalType": "uint256",
          "name": "tokenId",
          "type": "uint256"
        }
      ],
      "name": "safeTransferFrom",
      "outputs": [],
      "stateMutability": "nonpayable",
      "type": "function"
    },
    {
      "inputs": [
        {
          "internalType": "address",
          "name": "from",
          "type": "address"
        },
        {
          "internalType": "address",
          "name": "to",
          "type": "address"
        },
        {
          "internalType": "uint256",
          "name": "tokenId",
          "type": "uint256"
        },
        {
          "internalType": "bytes",
          "name": "_data",
          "type": "bytes"
        }
      ],
      "name": "safeTransferFrom",
      "outputs": [],
      "stateMutability": "nonpayable",
      "type": "function"
    },
    {
      "inputs": [],
      "name": "schemaURI",
      "outputs": [
        {
          "internalType": "string",
          "name": "",
          "type": "string"
        }
      ],
      "stateMutability": "view",
      "type": "function"
    },
    {
      "inputs": [
        {
          "internalType": "address",
          "name": "operator",
          "type": "address"
        },
        {
          "internalType": "bool",
          "name": "approved",
          "type": "bool"
        }
      ],
      "name": "setApprovalForAll",
      "outputs": [],
      "stateMutability": "nonpayable",
      "type": "function"
    },
    {
      "inputs": [
        {
          "internalType": "string",
          "name": "newName",
          "type": "string"
        }
      ],
      "name": "setName",
      "outputs": [],
      "stateMutability": "nonpayable",
      "type": "function"
    },
    {
      "inputs": [
        {
          "internalType": "string",
          "name": "newSymbol",
          "type": "string"
        }
      ],
      "name": "setSymbol",
      "outputs": [],
      "stateMutability": "nonpayable",
      "type": "function"
    },
    {
      "inputs": [
        {
          "internalType": "bool",
          "name": "transferable_",
          "type": "bool"
        }
      ],
      "name": "setTransferable",
      "outputs": [],
      "stateMutability": "nonpayable",
      "type": "function"
    },
    {
      "inputs": [
        {
          "internalType": "string",
          "name": "newURI",
          "type": "string"
        }
      ],
      "name": "setURI",
      "outputs": [],
      "stateMutability": "nonpayable",
      "type": "function"
    },
    {
      "inputs": [
        {
          "internalType": "uint256",
          "name": "index",
          "type": "uint256"
        }
      ],
      "name": "subject",
      "outputs": [
        {
          "internalType": "string",
          "name": "subjectValue",
          "type": "string"
        },
        {
          "internalType": "string",
          "name": "className_",
          "type": "string"
        }
      ],
      "stateMutability": "view",
      "type": "function"
    },
    {
      "inputs": [
        {
          "internalType": "string",
          "name": "subjectValue",
          "type": "string"
        },
        {
          "internalType": "string",
          "name": "className_",
          "type": "string"
        }
      ],
      "name": "subjectIndex",
      "outputs": [
        {
          "internalType": "uint256",
          "name": "",
          "type": "uint256"
        }
      ],
      "stateMutability": "view",
      "type": "function"
    },
    {
      "inputs": [
        {
          "internalType": "bytes4",
          "name": "interfaceId",
          "type": "bytes4"
        }
      ],
      "name": "supportsInterface",
      "outputs": [
        {
          "internalType": "bool",
          "name": "",
          "type": "bool"
        }
      ],
      "stateMutability": "view",
      "type": "function"
    },
    {
      "inputs": [],
      "name": "symbol",
      "outputs": [
        {
          "internalType": "string",
          "name": "",
          "type": "string"
        }
      ],
      "stateMutability": "view",
      "type": "function"
    },
    {
      "inputs": [
        {
          "internalType": "uint256",
          "name": "index",
          "type": "uint256"
        }
      ],
      "name": "tokenByIndex",
      "outputs": [
        {
          "internalType": "uint256",
          "name": "",
          "type": "uint256"
        }
      ],
      "stateMutability": "view",
      "type": "function"
    },
    {
      "inputs": [
        {
          "internalType": "address",
          "name": "owner",
          "type": "address"
        },
        {
          "internalType": "uint256",
          "name": "index",
          "type": "uint256"
        }
      ],
      "name": "tokenOfOwnerByIndex",
      "outputs": [
        {
          "internalType": "uint256",
          "name": "",
          "type": "uint256"
        }
      ],
      "stateMutability": "view",
      "type": "function"
    },
    {
      "inputs": [
        {
          "internalType": "uint256",
          "name": "tokenId",
          "type": "uint256"
        }
      ],
      "name": "tokenURI",
      "outputs": [
        {
          "internalType": "string",
          "name": "",
          "type": "string"
        }
      ],
      "stateMutability": "view",
      "type": "function"
    },
    {
      "inputs": [],
      "name": "totalSupply",
      "outputs": [
        {
          "internalType": "uint256",
          "name": "",
          "type": "uint256"
        }
      ],
      "stateMutability": "view",
      "type": "function"
    },
    {
      "inputs": [
        {
          "internalType": "address",
          "name": "from",
          "type": "address"
        },
        {
          "internalType": "address",
          "name": "to",
          "type": "address"
        },
        {
          "internalType": "uint256",
          "name": "tokenId",
          "type": "uint256"
        }
      ],
      "name": "transferFrom",
      "outputs": [],
      "stateMutability": "nonpayable",
      "type": "function"
    },
    {
      "inputs": [
        {
          "internalType": "address",
          "name": "newOwner",
          "type": "address"
        }
      ],
      "name": "transferOwnership",
      "outputs": [],
      "stateMutability": "nonpayable",
      "type": "function"
    },
    {
      "inputs": [],
      "name": "transferable",
      "outputs": [
        {
          "internalType": "bool",
          "name": "",
          "type": "bool"
        }
      ],
      "stateMutability": "view",
      "type": "function"
    }
  ],
  "bytecode": "0x60808060405234620000f45760008054336001600160a01b0319821681178355620000e49390916001600160a01b0316907f8be0079c531659141344cd1fd0a4f28419497f9722a3daafe3b4186f6b6457e0908490a3620000b86200006362000160565b6200006d62000160565b6200007762000111565b9184835284602084015260408301526060820152620000b26200009962000140565b91620000a46200019d565b8352846020840152620002a4565b620004c5565b620000c262000608565b620000cc62000140565b90620000d76200019d565b8252602082015262000703565b6040516154359081620008618239f35b50600080fd5b50634e487b7160e01b600052604160045260246000fd5b60405190608082016001600160401b038111838210176200013157604052565b6200013b620000fa565b604052565b60408051919082016001600160401b038111838210176200013157604052565b6040516020810191906000906001600160401b038411818510176200018d575b8360405281815292369037565b62000197620000fa565b62000180565b60405190602082016001600160401b03811183821017620001c2575b60405260008252565b620001cc620000fa565b620001b9565b50634e487b7160e01b600052603260045260246000fd5b50634e487b7160e01b600052600060045260246000fd5b8181106200020c575050565b6000815560010162000200565b81519168010000000000000000831162000294575b815483835580841062000273575b50602080910191600052806000206000925b8484106200025d575050505050565b600183828293518555019201930192906200024e565b6200028d9083600052846020600020918201910162000200565b386200023c565b6200029e620000fa565b6200022e565b600454906801000000000000000080831015620003ca575b60019081840180600455841015620003ba575b60046000908152835160029590951b7f8a35acfbc15ff81a39ae7d344fd709f28e8600b4aa8c65c6b64bfe7fe36bd19b0180546001600160a01b0319166001600160a01b039690961695909517855560208085015184870155600286018160408701518051958611620003aa575b82548684558087106200038d575b5091845282842091015b8484106200037957505050505050906003606062000377930151910162000219565b565b805182559285019290850190820162000355565b838652828620620003a391810190880162000200565b386200034b565b620003b4620000fa565b6200033d565b620003c4620001d2565b620002cf565b620003d4620000fa565b620002bc565b600a54811015620003fb575b600a60005260206000209060011b0190600090565b62000405620001d2565b620003e6565b6011548110156200042c575b601160005260206000209060011b0190600090565b62000436620001d2565b62000417565b90600182811c9216801562000470575b60208310146200045857565b5050634e487b7160e01b600052602260045260246000fd5b91607f16916200044c565b9190601f81116200048b57505050565b62000377926000526020600020906020601f840160051c83019310620004ba575b601f0160051c019062000200565b9091508190620004ac565b600a5468010000000000000000811015620005f8575b620004ee600191828101600a55620003da565b929092620005e8575b805180519091906001600160401b038111620005d8575b62000526816200051f87546200043c565b876200047b565b806020938490601f831160011462000568576000926200055c575b5050600019600383901b1c191690841b1784555b0151910155565b01519050388062000541565b90869350601f198316916200058289600052602060002090565b9260005b88828210620005c15750508411620005a7575b505050811b01845562000555565b015160001960f88460031b161c1916905538808062000599565b8385015186558a9790950194938401930162000586565b620005e2620000fa565b6200050e565b620005f2620001e9565b620004f7565b62000602620000fa565b620004db565b6000600f54680100000000000000008110156200069f575b6001810180600f558110156200068f575b600f82527f8d1108e10bcb7c27dddfc02ed9d693a074039d026cf4ea4240b40f7d581ac80201805462000664906200043c565b601f811162000671575055565b818352602083206200068c91601f0160051c81019062000200565b55565b62000699620001d2565b62000631565b620006a9620000fa565b62000620565b60051115620006ba57565b50634e487b7160e01b600052602160045260246000fd5b906005811015620006ea5760ff80198354169116179055565b505050634e487b7160e01b600052602160045260246000fd5b906011546801000000000000000081101562000850575b6200072d6001918281016011556200040b565b91909162000840575b83518051946001600160401b03861162000830575b62000763866200075c86546200043c565b866200047b565b6020918290601f8811600114620007bb57968091620003779798600092620007af575b5050600019600383901b1c191690841b1784555b015191620007a883620006af565b01620006d1565b01519050388062000786565b90601f19881691620007d287600052602060002090565b9260005b8181106200081a5750918693918a620003779a9b941062000800575b505050811b0184556200079a565b015160001960f88460031b161c19169055388080620007f2565b82840151855593870193928601928601620007d6565b6200083a620000fa565b6200074b565b6200084a620001e9565b62000736565b6200085a620000fa565b6200071a56fe6040608081526004361015610015575b50600080fd5b600090813560e01c806301ffc9a71461070457806302fe5305146106ec57806306fdde03146106d0578063081812fc146106b4578063095ea7b31461069c578063152407ae1461068057806318160ddd1461066457806323b872dd1461064c5780632f745c591461062f5780633092afd51461061857806342842e0e146106005780634f6ccce7146105e45780635036d1a8146105c757806352e89bbd146105a457806358e23bac146105885780636352211e146105615780636c0360eb1461054557806370a0823114610529578063715018a6146105125780638da5cb5b146104ea57806392ff0d31146104bf5780639377268d146104a357806395d89b4114610487578063983b2d56146104705780639cd23707146104595780639dc29fac14610441578063a22cb46514610429578063a6c1653d1461040c578063a9ff13a6146103e3578063ac72200d146103b8578063b2dc5dc3146103a0578063b84c824614610388578063b88d4fde1461036d578063c47f002714610355578063c5b8f77214610338578063c87b56dd1461031c578063d49116f5146102fe578063d4b0c403146102d5578063deeec344146102b9578063e985e9c514610289578063f2fde38b1461026f578063f46eccc4146102295763fbafb698146101fb575061000f565b346102255761022191506102166102113661083e565b61251d565b90519182918261082d565b0390f35b5080fd5b503461022557610221915061025e61024036610a82565b6001600160a01b031660009081526008602052604090205460ff1690565b905191829182901515815260200190565b50346102255761028661028136610a82565b61168f565b51f35b503461022557610221915061025e6102b26102ad6102a6366115c5565b9190611a31565b611a7f565b5460ff1690565b50346102255761022191506102166102d03661083e565b61215f565b50346102255761022191506102f16102ec3661083e565b612301565b9290915192839283611586565b503461022557610286610310366114ae565b9594909493919361174c565b50346102255761022191506102166103333661083e565b6129f7565b503461022557610221915061025e61034f3661088f565b906128de565b50346102255761028661036736610763565b90614f2b565b50346102255761028661037f36611307565b92919091612fe3565b50346102255761028661039a36610763565b90615002565b5034610225576102866103b2366112a6565b916149bc565b50346102255761022191506103cc366107c5565b6103d46125e7565b90519081529081906020820190565b50346102255761022191506103ff6103fa3661083e565b6123d4565b9290915192839283611281565b50346102255761022191506103d461042336610aa5565b906123a8565b50346102255761028661043b36611250565b90612dc7565b5034610225576102866104533661088f565b90614831565b50346102255761028661046b36611234565b614f11565b50346102255761028661048236610a82565b6150dc565b503461022557610221915061049b366107c5565b610216611086565b50346102255761022191506103d46104ba36610a21565b6121f4565b50346102255761022191506104d3366107c5565b60ff60095416905191829182901515815260200190565b503461022557610221916104fd366107c5565b5490519182916001600160a01b031682610850565b503461022557610521366107c5565b6102866115f8565b50346102255761022191506103d461054036610a82565b6127e6565b5034610225576102219150610559366107c5565b610216610fff565b503461022557610221915061057d6105783661083e565b612860565b905191829182610850565b503461022557610221915061059c366107c5565b61021661110d565b50346102255761022191506103d46105bb36610e57565b95949094939193613f4b565b50346102255761022191506103d46105de36610aa5565b90613e3b565b50346102255761022191506103d46105fb3661083e565b612719565b50346102255761028661061236610a4b565b91612f53565b50346102255761028661062a36610a82565b6151d8565b50346102255761022191506103d46106463661088f565b90612644565b50346102255761028661065e36610a4b565b91612ec1565b5034610225576102219150610678366107c5565b6103d46125f9565b50346102255761022191506103d461069736610a21565b61213b565b5034610225576102866106ae3661088f565b90612c35565b503461022557610221915061057d6106cb3661083e565b612d42565b50346102255761022191506106e4366107c5565b610216610f67565b5034610225576102866106fe36610763565b90614e37565b5050346107325750607f1961072d61072361071e36610748565b612026565b151560805260a090565b016080f35b80fd5b6001600160e01b03198116141561000f57565b602090600319011261000f5760043561076081610735565b90565b9060206003198301126107be576001600160401b0391600435908382116107b557806023830112156107b55781600401359384116107b557602484830101116107ad576024019190565b505050600080fd5b50505050600080fd5b5050600080fd5b600090600319011261000f57565b918091926000905b8282106107f35750116107ec575050565b6000910152565b915080602091830151818601520182916107db565b90602091610821815180928185528580860191016107d3565b601f01601f1916010190565b906020610760928181520190610808565b602090600319011261000f5760043590565b6001600160a01b03909116815260200190565b600435906001600160a01b0382168214156107be57565b35906001600160a01b0382168214156107be57565b604090600319011261000f576004356001600160a01b0381168114156107be579060243590565b50634e487b7160e01b600052604160045260246000fd5b604081019081106001600160401b038211176108e857604052565b6108f06108b6565b604052565b602081019081106001600160401b038211176108e857604052565b606081019081106001600160401b038211176108e857604052565b601f909101601f19168101906001600160401b038211908210176108e857604052565b6040519060a082016001600160401b038111838210176108e857604052565b60405190608082016001600160401b038111838210176108e857604052565b60405190610999826108cd565b565b6020906001600160401b0381116109b8575b601f01601f19160190565b6109c06108b6565b6109ad565b9291926109d18261099b565b916109df604051938461092b565b8294818452818301116109fc578281602093846000960137010152565b5050505050600080fd5b9080601f830112156107ad57816020610760933591016109c5565b60206003198201126107be57600435906001600160401b0382116107ad5761076091600401610a06565b606090600319011261000f576001600160a01b03906004358281168114156107ad57916024359081168114156107ad579060443590565b602090600319011261000f576004356001600160a01b0381168114156107be5790565b9060406003198301126107be576001600160401b036004358181116107b55783610ad191600401610a06565b926024359182116107b55761076091600401610a06565b6020906001600160401b038111610b01575b60051b0190565b610b096108b6565b610afa565b81601f820112156107ad57803590610b2582610ae8565b92604092610b358451958661092b565b808552602091828087019260061b85010193818511610b90578301915b848310610b625750505050505090565b8583830312610b90578386918251610b79816108cd565b853581528286013583820152815201920191610b52565b5050505050505050600080fd5b81601f820112156107ad57803590610bb482610ae8565b92604092610bc48451958661092b565b808552602093848087019260051b85010193838511610b9057858101925b858410610bf3575050505050505090565b6001600160401b038435818111610c615783019184601f198489030112610c61578451610c1f816108cd565b89840135815285840135928311610c5057610c41888b80969581960101610a06565b83820152815201930192610be2565b505050505050505050505050600080fd5b5050505050505050505050600080fd5b81601f820112156107ad57803590610c8882610ae8565b92604092610c988451958661092b565b808552602091828087019260061b85010193818511610b90578301915b848310610cc55750505050505090565b8583830312610b90578386918251610cdc816108cd565b85358152610ceb83870161087a565b83820152815201920191610cb5565b9080601f830112156107ad578135610d1181610ae8565b92604091610d218351958661092b565b808552602093848087019260051b84010193818511610b9057858401925b858410610d50575050505050505090565b6001600160401b038435818111610c615786019160a080601f198588030112610c5057610d7b61094e565b908a850135825285850135848111610e4457878c610d9b92880101610b0e565b8b83015260609081860135858111610e3057888d610dbb92890101610b9d565b8784015260809182870135868111610e1b57898e610ddb928a0101610c71565b90840152850135938411610e0957610dfa878c80979681970101610b0e565b90820152815201930192610d3f565b50505050505050505050505050600080fd5b50505050505050505050505050505050600080fd5b505050505050505050505050505050600080fd5b5050505050505050505050505050600080fd5b9060e06003198301126107be57610e6c610863565b91602435916001600160401b03604435818111610f095783610e9091600401610b0e565b92606435828111610efd5781610ea891600401610b9d565b92608435838111610b905782610ec091600401610c71565b9260a435818111610eef5783610ed891600401610b0e565b9260c435918211610eef5761076091600401610cfa565b505050505050505050600080fd5b50505050505050600080fd5b505050505050600080fd5b50634e487b7160e01b600052600060045260246000fd5b90600182811c92168015610f5d575b6020831014610f4557565b5050634e487b7160e01b600052602260045260246000fd5b91607f1691610f3a565b604051906000826001918254610f7c81610f2b565b80845290848116908115610fe25750600114610fa0575b506109999250038361092b565b9280915060005260209081600020936000915b818310610fca575050610999935082010138610f93565b85548884018501529485019487945091830191610fb3565b94505050505060ff19166020830152610999826040810138610f93565b60405190600082600c549161101383610f2b565b808352600193808516908115610fe2575060011461103857506109999250038361092b565b600c60009081526000805160206152b283398151915294602093509091905b81831061106e575050610999935082010138610f93565b85548884018501529485019487945091830191611057565b604051906000826002549161109a83610f2b565b808352600193808516908115610fe257506001146110bf57506109999250038361092b565b6002600090815260008051602061529283398151915294602093509091905b8183106110f5575050610999935082010138610f93565b855488840185015294850194879450918301916110de565b60405190600082600d549161112183610f2b565b808352600193808516908115610fe2575060011461114657506109999250038361092b565b600d60009081526000805160206152d283398151915294602093509091905b81831061117c575050610999935082010138610f93565b85548884018501529485019487945091830191611165565b90604051918260008254926111a884610f2b565b90818452600194858116908160001461121557506001146111d2575b50506109999250038361092b565b9093915060005260209081600020936000915b8183106111fd575050610999935082010138806111c4565b855488840185015294850194879450918301916111e5565b9550505050505060ff19166020830152610999826040810138806111c4565b602090600319011261000f576004358015158114156107be5790565b604090600319011261000f576004356001600160a01b0381168114156107be57906024358015158114156107ad5790565b909161129861076093604084526040840190610808565b916020818403910152610808565b60406003198201126107be576004356001600160a01b0381168114156107ad57916001600160401b0391602435908382116109fc57806023830112156109fc5781600401359384116109fc5760248460051b830101116107b5576024019190565b9060806003198301126107be576001600160a01b03916004358381168114156107b557926024359081168114156107b5579160443591606435906001600160401b038211610f095780602383011215610f0957816024610760936004013591016109c5565b9080601f830112156107ad5781359061138482610ae8565b92611392604051948561092b565b828452602092838086019160051b83010192808411610efd57848301915b8483106113c05750505050505090565b82356001600160401b038111610eef5786916113e184848094890101610a06565b8152019201916113b0565b9080601f830112156107ad5781359161140483610ae8565b9260406114138151958661092b565b8185526020938486019185600594851b86010194828611610eef57868101935b86851061144557505050505050505090565b6001600160401b03908535828111610c505783019184601f198488030112610c5057845192611473846108cd565b8a810135918211610e095761148d878c8894840101610a06565b845201359087821015610c5057828a93928480940152815201940193611433565b60e06003198201126107be576114c2610863565b916001600160401b0391602435908382116109fc576114e5816004938401610a06565b93604435818111610efd57826114fc918501610a06565b93606435828111610b905783611513918601610a06565b93608435838111610eef578461152a918301610a06565b9360a435848111611556578161154191840161136c565b9360c4359081116115565761076092016113ec565b50505050505050505050600080fd5b6005111561156f57565b50634e487b7160e01b600052602160045260246000fd5b92919061159b90604085526040850190610808565b9260058210156115ab5760200152565b50505050634e487b7160e01b600052602160045260246000fd5b604090600319011261000f576001600160a01b03906004358281168114156107ad57916024359081168114156107ad5790565b611600611635565b600080546001600160a01b0319811682556040516001600160a01b0390911690600080516020615352833981519152908390a3565b6000546001600160a01b031633141561164a57565b50606460405162461bcd60e51b815260206004820152602060248201527f4f776e61626c653a2063616c6c6572206973206e6f7420746865206f776e65726044820152fd5b611697611635565b6001600160a01b039081169081156116d657600080546001600160a01b03198116841782556040519216916000805160206153528339815191529190a3565b505060405162461bcd60e51b815260206004820152602660248201527f4f776e61626c653a206e6577206f776e657220697320746865207a65726f206160448201526564647265737360d01b606482015260849150fd5b80546001600160a01b0319166001600160a01b03909216919091179055565b9492909593916000549660ff8860a81c161580988199611876575b8115611853575b50156117ef576000805460ff60a01b1916600160a01b17905561179596886117d757611888565b61179b57565b6000805460ff60a81b19169055604051600181527f7f26b83ff96e1f2b6a682f133852f6798a09c465da95921460cefb384740249890602090a1565b6000805460ff60a81b1916600160a81b179055611888565b505050505050505050608460405162461bcd60e51b815260206004820152602e60248201527f496e697469616c697a61626c653a20636f6e747261637420697320616c72656160448201526d191e481a5b9a5d1a585b1a5e995960921b6064820152fd5b303b15915081611865575b503861176e565b60a01c60ff1660011490503861185e565b9050600160ff8260a01c161090611767565b9593949194611895611635565b6040516020810160208152816118ae6040820185610808565b03916118c2601f199384810183528261092b565b519020906040516118f46020820192826118e88560409060208152600060208201520190565b0390810183528261092b565b519020146119735761194561194f946119406119549861193b61194a966119366119298e6119248e5115156119cf565b611a4b565b805460ff19166001179055565b611bda565b611cbb565b611d9e565b611e81565b61327c565b6133f2565b60018060a01b03166000805160206153328339815191526000604051a2565b5050505050505050608460405162461bcd60e51b815260206004820152602760248201527f53656d616e7469635342543a20736368656d61205552492063616e6e6f7420626044820152666520656d70747960c81b6064820152fd5b156119d657565b5060405162461bcd60e51b815260206004820152602c60248201527f53656d616e7469635342543a207072656469636174652073697a652063616e2060448201526b6e6f7420626520656d70747960a01b6064820152608490fd5b6001600160a01b0316600090815260076020526040902090565b6001600160a01b0316600090815260086020526040902090565b6001600160a01b0316600090815260056020526040902090565b9060018060a01b0316600052602052604060002090565b818110611aa1575050565b60008155600101611a96565b90601f8211611aba575050565b61099991600c6000526020600020906020601f840160051c83019310611ae8575b601f0160051c0190611a96565b9091508190611adb565b90601f8211611aff575050565b6109999160016000526020600020906020601f840160051c83019310611ae857601f0160051c0190611a96565b90601f8211611b39575050565b6109999160026000526020600020906020601f840160051c83019310611ae857601f0160051c0190611a96565b90601f8211611b73575050565b61099991600d6000526020600020906020601f840160051c83019310611ae857601f0160051c0190611a96565b9190601f8111611baf57505050565b610999926000526020600020906020601f840160051c83019310611ae857601f0160051c0190611a96565b80519091906001600160401b038111611cae575b600190611c0481611bff8454610f2b565b611af2565b602080601f8311600114611c3f575081929394600092611c34575b5050600019600383901b1c191690821b179055565b015190503880611c1f565b6001600052601f19831695909190600080516020615392833981519152926000905b888210611c975750508385969710611c7e575b505050811b019055565b015160001960f88460031b161c19169055388080611c74565b808785968294968601518155019501930190611c61565b611cb66108b6565b611bee565b80519091906001600160401b038111611d91575b611ce381611cde600254610f2b565b611b2c565b602080601f8311600114611d1f5750819293600092611d14575b50508160011b916000199060031b1c191617600255565b015190503880611cfd565b6002600052601f19831694909190600080516020615292833981519152926000905b878210611d79575050836001959610611d60575b505050811b01600255565b015160001960f88460031b161c19169055388080611d55565b80600185968294968601518155019501930190611d41565b611d996108b6565b611ccf565b80519091906001600160401b038111611e74575b611dc681611dc1600c54610f2b565b611aad565b602080601f8311600114611e025750819293600092611df7575b50508160011b916000199060031b1c191617600c55565b015190503880611de0565b600c600052601f198316949091906000805160206152b2833981519152926000905b878210611e5c575050836001959610611e43575b505050811b01600c55565b015160001960f88460031b161c19169055388080611e38565b80600185968294968601518155019501930190611e24565b611e7c6108b6565b611db2565b80519091906001600160401b038111611f57575b611ea981611ea4600d54610f2b565b611b66565b602080601f8311600114611ee55750819293600092611eda575b50508160011b916000199060031b1c191617600d55565b015190503880611ec3565b600d600052601f198316949091906000805160206152d2833981519152926000905b878210611f3f575050836001959610611f26575b505050811b01600d55565b015160001960f88460031b161c19169055388080611f1b565b80600185968294968601518155019501930190611f07565b611f5f6108b6565b611e95565b81519192916001600160401b038111612019575b611f8c81611f868454610f2b565b84611ba0565b602080601f8311600114611fc8575081929394600092611fbd575b50508160011b916000199060031b1c1916179055565b015190503880611fa7565b90601f19831695611fde85600052602060002090565b926000905b88821061200157505083600195969710611c7e57505050811b019055565b80600185968294968601518155019501930190611fe3565b6120216108b6565b611f78565b63ffffffff60e01b166380ac58cd60e01b81149081156120a1575b8115612090575b811561207f575b811561206e575b8115612060575090565b6301ffc9a760e01b14919050565b6392ff0d3160e01b81149150612056565b6316388eeb60e21b8114915061204f565b631f75f6d360e31b81149150612048565b635b5e139f60e01b81149150612041565b906120c5602092828151948592016107d3565b0190565b60206120e29181604051938285809451938492016107d3565b8101600e81520301902090565b60206121089181604051938285809451938492016107d3565b8101601081520301902090565b60209061212f9282604051948386809551938492016107d3565b82019081520301902090565b612144906120c9565b5490565b50634e487b7160e01b600052603260045260246000fd5b801515806121e9575b156121a35761076090600f54811015612196575b600f6000526000805160206153d283398151915201611194565b61219e612148565b61217c565b505060405162461bcd60e51b815260206004820152601c60248201527b14d95b585b9d1a58d4d0950e8818db185cdcc81b9bdd08195e1a5cdd60221b6044820152606490fd5b50600f548110612168565b612144906120ef565b1561220457565b50606460405162461bcd60e51b815260206004820152602060248201527f53656d616e7469635342543a20707265646963617465206e6f742065786973746044820152fd5b601154811015612269575b601160005260206000209060011b0190600090565b612271612148565b612254565b600a54811015612296575b600a60005260206000209060011b0190600090565b61229e612148565b612281565b6013548110156122c3575b601360005260206000209060011b0190600090565b6122cb612148565b6122ae565b906040516122dd816108cd565b60ff600182946122ec81611194565b84520154169060058210156115ab5760200152565b61231f6123259180151580612352575b61231a906121fd565b612249565b506122d0565b906020825192015160058110156123395790565b505050634e487b7160e01b600052602160045260246000fd5b506011548110612311565b1561236457565b5060405162461bcd60e51b815260206004820152601b60248201527a14d95b585b9d1a58d4d0950e88191bd95cc81b9bdd08195e1a5cdd602a1b6044820152606490fd5b6123b46123c8926120c9565b54600052600b602052604060002090612115565b5461076081151561235d565b908115158061242e575b6123e79061235d565b61076060016124076124016123fb86612276565b50611194565b94612276565b500154600f5481101561219657600f6000526000805160206153d283398151915201611194565b50600a5482106123de565b600454811015612459575b600460005260206000209060021b0190600090565b612461612148565b612444565b9060405191828154918282526020928383019160005283600020936000905b82821061249b575050506109999250038361092b565b855484526001958601958895509381019390910190612485565b604051909190608081016001600160401b03811182821017612510575b604052606061250b6003839560018060a01b0381541685526001810154602086015261250060028201612466565b604086015201612466565b910152565b6125186108b6565b6124d2565b6125268161304b565b156125455761254061253a61076092612439565b506124b5565b6134e2565b505060405162461bcd60e51b815260206004820152602760248201527f53656d616e7469635342543a2053656d616e74696353425420646f6573206e6f6044820152661d08195e1a5cdd60ca1b6064820152608490fd5b50634e487b7160e01b600052601160045260246000fd5b600181106125c3575b6000190190565b6125cb61259c565b6125bc565b8181106125db570390565b6125e361259c565b0390565b600454600181106125c3576000190190565b6126016125e7565b600354908181106125db570390565b6001906000198114612620570190565b6120c561259c565b6001906001198111612620570190565b81198111612620570190565b9060006001918293600454945b8581106126b75750505050505050608460405162461bcd60e51b815260206004820152602b60248201527f455243373231456e756d657261626c653a206f776e657220696e646578206f7560448201526a74206f6620626f756e647360a81b6064820152fd5b6126c081612439565b50546001600160a01b038381169116146126e3575b6126de90612610565b612651565b9282811461271057846126de916001198111612703575b019390506126d5565b61270b61259c565b6126fa565b50505091505090565b60006001908192600454935b84811061278a57505050505050608460405162461bcd60e51b815260206004820152602b60248201527f455243373231456e756d657261626c653a20746f6b656e20696e646578206f7560448201526a74206f6620626f756e647360a81b6064820152fd5b61279381612439565b50546001600160a01b03166127b1575b6127ac90612610565b612725565b918181146127de57836127ac9160011981116127d1575b019290506127a3565b6127d961259c565b6127c8565b505091505090565b6001600160a01b0316801561280657600052600560205260406000205490565b505060405162461bcd60e51b815260206004820152602a60248201527f4552433732313a2062616c616e636520717565727920666f7220746865207a65604482015269726f206164647265737360b01b6064820152608490fd5b6128698161304b565b156128855761287790612439565b50546001600160a01b031690565b505060405162461bcd60e51b815260206004820152602960248201527f4552433732313a206f776e657220717565727920666f72206e6f6e657869737460448201526832b73a103a37b5b2b760b91b6064820152608490fd5b906128e890612860565b6001600160a01b0390811691161490565b60405190612906826108f5565b60008252565b600c546000929161291c82610f2b565b9160019081811690811561296d575060011461293757505050565b9091929350600c60005260209081600020906000915b85831061295c57505050500190565b80548584015291830191810161294d565b60ff191683525050019150565b60009291815461298981610f2b565b926001918083169081156129e257506001146129a6575b50505050565b90919293945060005260209081600020906000915b8583106129d157505050500190388080806129a0565b8054858401529183019181016129bb565b60ff19168452505050019150388080806129a0565b612a008161304b565b15612a6757612a10600c54610f2b565b15612a5e57610760612a24612a3f92612af8565b612a50604051938492612a396020850161290c565b906120b2565b64173539b7b760d91b815260050190565b03601f19810183528261092b565b506107606128f9565b505060405162461bcd60e51b815260206004820152602f60248201527f4552433732314d657461646174613a2055524920717565727920666f72206e6f60448201526e3732bc34b9ba32b73a103a37b5b2b760891b6064820152608490fd5b90612ad08261099b565b612add604051918261092b565b8281528092612aee601f199161099b565b0190602036910137565b6000908072184f03e93ff9f4daa797ed6e38ed64bf6a1f0160401b80821015612c27575b506904ee2d6d415b85acef8160201b80831015612c18575b50662386f26fc1000080831015612c09575b506305f5e10080831015612bfa575b5061271080831015612beb575b506064821015612bdb575b600a80921015612bd1575b600190816021612b89828701612ac6565b95860101905b612b9b575b5050505090565b600019019083906f181899199a1a9b1b9c1cb0b131b232b360811b8282061a835304918215612bcc57919082612b8f565b612b94565b9160010191612b78565b9190606460029104910191612b6d565b60049193920491019138612b62565b60089193920491019138612b55565b60109193920491019138612b46565b60209193920491019138612b34565b604093508104915038612b1c565b90612c3f81612860565b6001600160a01b038181169084168114612cef573314908115612cd5575b5015612c6c5761099991614c62565b505060405162461bcd60e51b815260206004820152603860248201527f4552433732313a20617070726f76652063616c6c6572206973206e6f74206f776044820152771b995c881b9bdc88185c1c1c9bdd995908199bdc88185b1b60421b606482015260849150fd5b60ff9150612ce7906102ad3391611a31565b541638612c5d565b5050505050608460405162461bcd60e51b815260206004820152602160248201527f4552433732313a20617070726f76616c20746f2063757272656e74206f776e656044820152603960f91b6064820152fd5b612d4b8161304b565b15612d6b576000908152600660205260409020546001600160a01b031690565b505060405162461bcd60e51b815260206004820152602c60248201527f4552433732313a20617070726f76656420717565727920666f72206e6f6e657860448201526b34b9ba32b73a103a37b5b2b760a11b6064820152608490fd5b6001600160a01b0381169190338314612e3057612df1903360005260076020526040600020611a7f565b9015159060ff1981541660ff83161790556040519081527f17307eab39ab6107e8899845ad3d59bd9653f200f220920489ca2b5937696c3160203392a3565b50505050606460405162461bcd60e51b815260206004820152601960248201527822a9219b99189d1030b8383937bb32903a379031b0b63632b960391b6044820152fd5b15612e7b57565b5060405162461bcd60e51b815260206004820152601e60248201527f53656d616e7469635342543a206d757374207472616e7366657261626c6500006044820152606490fd5b906109999291612ed560ff60095416612e74565b612ee7612ee2843361308b565b612eec565b614b37565b15612ef357565b5060405162461bcd60e51b815260206004820152603160248201527f4552433732313a207472616e736665722063616c6c6572206973206e6f74206f6044820152701ddb995c881b9bdc88185c1c1c9bdd9959607a1b6064820152608490fd5b9091612fb19260ff6009541692612f6984612e74565b60405193612f9490602086016001600160401b03811187821017612fd6575b60405260008652612e74565b612fa1612ee2843361308b565b612fac838383614b37565b614dfc565b15612fb857565b5060405162461bcd60e51b815280612fd260048201612ff8565b0390fd5b612fde6108b6565b612f88565b90612fb1939291612f9460ff60095416612e74565b60809060208152603260208201527f4552433732313a207472616e7366657220746f206e6f6e20455243373231526560408201527131b2b4bb32b91034b6b83632b6b2b73a32b960711b60608201520190565b8015159081613078575b8161305e575090565b6130689150612439565b50546001600160a01b0316151590565b90506130826125e7565b81111590613055565b6001600160a01b038061309d84612860565b1690808316908282149485156130dc575b50505082156130bc57505090565b60ff9250906130d79160005260076020526040600020611a7f565b541690565b6130e99192939550612d42565b1614913880806130ae565b6020918151811015613109575b60051b010190565b613111612148565b613101565b1561311d57565b5060405162461bcd60e51b815260206004820152602260248201527f53656d616e7469635342543a20436c6173732063616e6e6f7420626520656d70604482015261747960f01b6064820152608490fd5b1561317557565b5060405162461bcd60e51b815260206004820152601a60248201527914d95b585b9d1a58d4d0950e88185b1c9958591e48185919195960321b6044820152606490fd5b600f546109999190600160401b811015613204575b6001810180600f558110156131f7575b600f6000526000805160206153d283398151915201611f64565b6131ff612148565b6131dd565b61320c6108b6565b6131cd565b6012546109999190600160401b81101561326f575b6001810180601255811015613262575b60126000527fbb8a6a4669ba250d26cd7a459eca9d215f8307e33aebe50379bc5a3617ec344401611f64565b61326a612148565b613236565b6132776108b6565b613226565b9060005b825181101561332b578061329761332692856130f4565b516132f06040805160206132e6818301836132b2888361082d565b03936132c6601f199586810183528261092b565b519020935191820192826118e88560409060208152600060208201520190565b5190201415613116565b6133036132fc826120c9565b541561316e565b61330c816131b8565b61332061331a600f546125b3565b916120c9565b55612610565b613280565b509050565b1561333757565b5060405162461bcd60e51b815260206004820152602660248201527f53656d616e7469635342543a205072656469636174652063616e6e6f7420626560448201526520656d70747960d01b6064820152608490fd5b602060016133ad6011548260401b8110156133e5575b828101601155612249565b6133d8575b6133bd845182611f64565b0191015160058110156123395760ff80198354169116179055565b6133e0610f14565b6133b2565b6133ed6108b6565b6133a2565b9060005b825181101561332b578061340d61346292856130f4565b51613437815160409081519061342d602091836132b2848201928361082d565b5190201415613330565b6134446132fc82516120ef565b61344d8161338c565b61332061345b6011546125b3565b91516120ef565b6133f6565b602061099991939293604051948161348887935180928680870191016107d3565b820161349c825180938680850191016107d3565b0103808552018361092b565b604051906134b5826108cd565b60018252603b60f81b6020830152565b604051906134d2826108cd565b60018252601760f91b6020830152565b6134eb816137bf565b91600080935b60408401805180518710156136d1579161358491602061352061231f61351a8b61358a986130f4565b51612249565b01805161352c81611565565b61353581611565565b61359857509061356c613575916135666135508b86516130f4565b5161355f8c60608d01516130f4565b51906139ec565b90613467565b915b51516125b3565b871415613590576135666134c5565b94612610565b936134f1565b6135666134a8565b80516135a381611565565b6135ac81611565565b600114156135e75750906135e1613575916135666135cb8b86516130f4565b516135da8c60608d01516130f4565b5190613a27565b9161356e565b80516135f281611565565b6135fb81611565565b600214156136305750906135e16135759161356661361a8b86516130f4565b516136298c60608d01516130f4565b5190613a9c565b805161363b81611565565b61364481611565565b600314156136795750906135e1613575916135666136638b86516130f4565b516136728c60608d01516130f4565b5190613b0a565b5161368381611565565b61368c81611565565b60041461369d575b6135759061356e565b906136c9613575916135666136b38b86516130f4565b516136c28c60608d01516130f4565b5190613c32565b919050613694565b50509350509050565b604051906136e7826108cd565b600482526314dbdd5b60e21b6020830152565b60405190613707826108cd565b60018252601d60f91b6020830152565b60405190613724826108cd565b60018252605f60f81b6020830152565b60405190613741826108cd565b60018252600160fd1b6020830152565b9194936109999360405196879385516137728160209889808a0191016107d3565b8501613786825180938980850191016107d3565b01613799825180938880850191016107d3565b016137ac825180938780850191016107d3565b0161349c825180938680850191016107d3565b60208101805161076092906000908061382b5750506137dc6136da565b915b51908161381957516137f991506001600160a01b031661385a565b6138016136fa565b9161380a613717565b90613813613734565b93613751565b506123fb61382691612276565b6137f9565b602061384792600f5483101561384d575b600f81522001611194565b916137de565b613855612148565b61383c565b604051906001600160a01b031661387082610910565b602a825260403660208401376030613887836138fa565b53607861389383613910565b536029905b600182116138ab5761076091501561394d565b80600f6138e7921660108110156138ed575b6f181899199a1a9b1b9c1cb0b131b232b360811b901a6138dd8486613921565b5360041c91613940565b90613898565b6138f5612148565b6138bd565b602090805115613908570190565b6120c5612148565b602190805160011015613908570190565b90602091805182101561393357010190565b61393b612148565b010190565b80156125c3576000190190565b1561395457565b50606460405162461bcd60e51b815260206004820152602060248201527f537472696e67733a20686578206c656e67746820696e73756666696369656e746044820152fd5b604051906139a6826108cd565b6002825261381d60f11b6020830152565b6109999193929360405194859183516139d8816020968780880191016107d3565b83016137ac825180938780850191016107d3565b90613a18613a12613a0261231f61076095612249565b613a0a613999565b905190613467565b91612af8565b90613a21613734565b906139b7565b90613a3a613a0261231f61076094612249565b90601254811015613a8f575b601260005260206000200190613a8760016040518094613a75601160f91b91826020850152602184019061297a565b90815203601e1981018552018361092b565b613a21613734565b613a97612148565b613a46565b90613aaf613a0261231f61076094612249565b613a87613aba6136fa565b613ac26136da565b613adc613acd613717565b956001600160a01b031661385a565b6040519586928451613af6816020978880890191016107d3565b8401613799825180938880850191016107d3565b90613b1a61231f61076093612249565b90613a876001613b2983612276565b500154600f54811015613bcd575b600f600052613bbf613b5b613b526020938460002001611194565b95613a0a613999565b93613b646136fa565b92613b76613b70613717565b92612276565b50916040519785613b908a9751809286808b0191016107d3565b8601613ba4825180938680850191016107d3565b01613bb7825180938580850191016107d3565b01019061297a565b03601f19810184528361092b565b613bd5612148565b613b37565b60405190613be7826108cd565b6002825261203b60f01b6020830152565b60405190613c05826108cd565b60018252605b60f81b6020830152565b60405190613c22826108cd565b60018252605d60f81b6020830152565b90613c45613a0261231f613c6e94612249565b90613c61613c5b613c55836122a3565b50612466565b916122a3565b5060019384809201612466565b91613c776128f9565b926000925b613ca2575b5050506107609250613c91613734565b613c99613bf8565b90613813613c15565b9091928251841015613dea5785906020613cc261231f61351a88886130f4565b018051613cce81611565565b613cd781611565565b613d345750613cf890613566613ced87876130f4565b5161355f88876130f4565b935b613d0484516125b3565b8110613d1c575b613d1490612610565b929190613c7c565b93613d2c613d1491613566613bda565b949050613d0b565b8051613d3f81611565565b613d4881611565565b831415613d725750613d6c90613566613d6187876130f4565b516135da88876130f4565b93613cfa565b8051613d7d81611565565b613d8681611565565b60021415613dab5750613d6c90613566613da087876130f4565b5161362988876130f4565b94909451613db881611565565b613dc181611565565b600314613dcd57613cfa565b93613d6c90613566613ddf87876130f4565b5161367288876130f4565b92613c81565b15613df757565b5060405162461bcd60e51b815260206004820152601b60248201527a29b2b6b0b73a34b1a9a12a1d1036bab9ba1031329036b4b73a32b960291b6044820152606490fd5b6001604092613e626000913383526008602052613e5d60ff8785205416613df0565b6120c9565b5490613e6f821515613f03565b818152600b602052613e866132fc86832086612115565b613e9e600a54958284889452600b6020522085612115565b5560405192613eac846108cd565b8352602083019081528160401b841015613ef6575b818401600a55613ee2613ed385612276565b949094613ee9575b5184611f64565b5191015590565b613ef1610f14565b613edb565b613efe6108b6565b613ec1565b15613f0a57565b5060405162461bcd60e51b815260206004820152601860248201527729b2b6b0b73a34b1a9a12a1d103830b930b69032b93937b960411b6044820152606490fd5b92919094939533600052600860205260406000205460ff16613f6c90613df0565b6001600160a01b03841694613f828615156140d0565b600a548710613f9090613f03565b600454978897613f9e61412b565b613fa661412b565b90613faf61096d565b6001600160a01b038b16815292602084015260408301526060820152613fd4906141c1565b613fdd88612439565b5060020194613feb89612439565b5060030194613ffb908688614364565b614006908587614439565b6140119084866144cf565b61401c908385614562565b61402691836146e7565b54151561403290613f03565b61403b81611a65565b805461404690612628565b9055826140516128f9565b9061405b92614d47565b614064906142b2565b818160405160008051602061537283398151915260008092a461408682612439565b50614090906124b5565b614099906134e2565b6040518033926140a9908261082d565b037f6ca139c4cce2c6dfdd350d203c7ac907df3bdc839acb0c9f1d59d01950aaaead91a490565b156140d757565b5060405162461bcd60e51b815260206004820152602560248201527f53656d616e7469635342543a206d696e7420746f20746865207a65726f206164604482015264647265737360d81b6064820152608490fd5b60405190614138826108f5565b6000808352366020840137565b815191600160401b83116141b4575b8154838355808410614196575b50602080910191600052806000206000925b848410614181575050505050565b60018382829351855501920193019290614173565b6141ae90836000528460206000209182019101611a96565b38614161565b6141bc6108b6565b614154565b600454600160401b9190828110156142a5575b6141e5600191828101600455612439565b939093614298575b8251614202906001600160a01b03168561172d565b602080840151838601556002850190806040860151805194851161428b575b835485855580861061426e575b500191600052806000206000925b84841061425b5750505050505090600360606109999301519101614145565b805182559285019290850190820161423c565b614285908560005286846000209182019101611a96565b3861422e565b6142936108b6565b614221565b6142a0610f14565b6141ed565b6142ad6108b6565b6141d4565b156142b957565b5060405162461bcd60e51b815260206004820152603760248201527f53656d616e7469635342543a207472616e7366657220746f206e6f6e204552436044820152761b9918a932b1b2b4bb32b91034b6b83632b6b2b73a32b960491b6064820152608490fd5b805490600160401b821015614357575b6001820180825582101561434a575b60005260206000200155565b614352612148565b61433e565b61435f6108b6565b61432f565b929190600091825b81518110156144315761437f81836130f4565b519060ff600161439b8451801515806123525761231a906121fd565b500154166005811015614415576143d2576143c86020836143c06143cd95518b61431f565b01518561431f565b612610565b61436c565b50505050505050608460405162461bcd60e51b815260206004820152602160248201526000805160206153128339815191526044820152603960f91b6064820152fd5b5050634e487b7160e01b84525050602160045250602492509050fd5b505050509050565b909291600090815b81518110156144315761445481836130f4565b519061446c8251801515806123525761231a906121fd565b5060ff6001809201541660058110156144b25714156143d2576143c86144ad926144a7601254916144a06020820151613211565b518861431f565b8861431f565b614441565b5050634e487b7160e01b8452505060216004525060249350915050fd5b90929192600093845b8151811015614431576144eb81836130f4565b519060ff60016145078451801515806123525761231a906121fd565b50015416600581101561454657600214156143d2576143c88261452e61454194518861431f565b602001516001600160a01b03168561431f565b6144d8565b5050634e487b7160e01b86525050602160045250602492915050fd5b90929160005b81518110156146175761457b81836130f4565b5161458681516147ab565b602090818101918251801515908161460b575b50156145bf57506145ba92916145b36143c892518761431f565b518761431f565b614568565b95505050505050606491506040519062461bcd60e51b82526004820152601e60248201527f53656d616e7469635342543a207375626a656374206e6f7420657869737400006044820152fd5b9050600a541138614599565b5050509050565b90601354600160401b90818110156146da575b6146426001918281016013556122a3565b9290926146cd575b84519081519081116146c0575b83548185558082106146a2575b50602080920184600052826000206000915b83831061468f5750505050610999939401519101614145565b8051825591850191908501908401614676565b6146ba90856000528260206000209182019101611a96565b38614664565b6146c86108b6565b614657565b6146d5610f14565b61464a565b6146e26108b6565b614631565b929160005b815181101561461757806143c86147066147a693856130f4565b516147158151601154116121fd565b6147a06013549161479961472761412b565b61474a61473261412b565b9161473b61098c565b9081526020928382015261461e565b614753856122a3565b50906147706001614763886122a3565b5001918501518284614364565b61477f60408501518284614439565b61478e606085015182846144cf565b608084015191614562565b518961431f565b8561431f565b6146ec565b60016147c460ff92801515806123525761231a906121fd565b50015416600581101561481957600314156147db57565b5060405162461bcd60e51b815260206004820152602160248201526000805160206153128339815191526044820152603960f91b6064820152608490fd5b5050634e487b7160e01b600052602160045260246000fd5b33600052600860205261484b60ff60406000205416613df0565b61485d614858833361308b565b614914565b61486682612860565b6001600160a01b03808316929161487f91168314614976565b6148ae61489161254061253a86612439565b9161489b85614c1e565b6148a6600354612610565b600355611a65565b6148b881546125b3565b90556148c383612439565b5080546001600160a01b03191690556040516000805160206152f283398151915290846000856000805160206153728339815191528285a4602081528061490f33946020830190610808565b0390a4565b1561491b57565b5060405162461bcd60e51b815260206004820152602c60248201527f53656d616e7469635342543a2063616c6c6572206973206e6f7420617070726f60448201526b3b32b21037b91037bbb732b960a11b6064820152608490fd5b1561497d57565b5060405162461bcd60e51b815260206004820152601660248201527529b2b6b0b73a34b1a9a12a1d103737ba1037bbb732b960511b6044820152606490fd5b909160009133835260086020526040916149db60ff8486205416613df0565b6149ef6149ea82600354612638565b600355565b6149f882611a65565b614a038282546125d0565b9055835b818110614a1657505050505050565b80614a25614ac1928489614ac6565b35614a33614858823361308b565b614a45614a4082876128de565b614976565b614a5461254061253a83612439565b614a5d82614c1e565b614a7a614a6983612439565b5080546001600160a01b0319169055565b86516001600160a01b03871691906000805160206152f283398151915290848b856000805160206153728339815191528285a480614ab933948261082d565b0390a4612610565b614a07565b9190811015614ad65760051b0190565b610b09612148565b15614ae557565b5060405162461bcd60e51b8152602060048201526024808201527f4552433732313a207472616e7366657220746f20746865207a65726f206164646044820152637265737360e01b6064820152608490fd5b90614b4183612860565b6001600160a01b038381169290918216831415614bc257614b7b614b8c92821694614b6d861515614ade565b614b7687614c1e565b611a65565b614b8581546125b3565b9055611a65565b614b968154612628565b9055614bab82614ba585612439565b5061172d565b6000805160206153728339815191526000604051a4565b505050505050608460405162461bcd60e51b815260206004820152602960248201527f4552433732313a207472616e73666572206f6620746f6b656e2074686174206960448201526839903737ba1037bbb760b91b6064820152fd5b600081815260066020526040812080546001600160a01b03191690556001600160a01b03614c4b83612860565b166000805160206153b283398151915282604051a4565b816000526006602052614c7981604060002061172d565b6001600160a01b0380614c8b84612860565b169116906000805160206153b28339815191526000604051a4565b908160209103126107be575161076081610735565b610760939260809260018060a01b031682526000602083015260408201528160608201520190610808565b6001600160a01b03918216815291166020820152604081019190915260806060820181905261076092910190610808565b3d15614d42573d90614d288261099b565b91614d36604051938461092b565b82523d6000602084013e565b606090565b919091803b614d5857505050600190565b614d80602091600093604051948580948193630a85bd0160e11b998a84523360048501614cbb565b03926001600160a01b03165af160009181614ddc575b50614dce57505050614da6614d17565b80519081614dc957505060405162461bcd60e51b815280612fd260048201612ff8565b602001fd5b6001600160e01b0319161490565b614df5919250614dec3d8261092b565b3d810190614ca6565b9038614d96565b92919091823b614e0f5750505050600190565b614d80926020926000604051809681958294630a85bd0160e11b9a8b85523360048601614ce6565b9190614e41611635565b6001600160401b038111614f04575b614e5f81611dc1600c54610f2b565b6000601f8211600114614e9857819293600092614e8d5750508160011b916000199060031b1c191617600c55565b013590503880611de0565b600c600052601f198216936000805160206152b283398151915291805b868110614eec5750836001959610614ed257505050811b01600c55565b0135600019600384901b60f8161c19169055388080611e38565b90926020600181928686013581550194019101614eb5565b614f0c6108b6565b614e50565b614f19611635565b60ff8019600954169115151617600955565b9190614f35611635565b6001600160401b038111614ff5575b600190614f5581611bff8454610f2b565b6000601f8211600114614f8d5781929394600092614f82575050600019600383901b1c191690821b179055565b013590503880611c1f565b6001600052601f1982169460008051602061539283398151915291805b878110614fdf57508385969710614fc557505050811b019055565b0135600019600384901b60f8161c19169055388080611c74565b8282013584559285019260209182019101614faa565b614ffd6108b6565b614f44565b919061500c611635565b6001600160401b0381116150cf575b61502a81611cde600254610f2b565b6000601f8211600114615063578192936000926150585750508160011b916000199060031b1c191617600255565b013590503880611cfd565b6002600052601f1982169360008051602061529283398151915291805b8681106150b7575083600195961061509d57505050811b01600255565b0135600019600384901b60f8161c19169055388080611d55565b90926020600181928686013581550194019101615080565b6150d76108b6565b61501b565b6150e4611635565b6001600160a01b03811690811561517b5760ff61510082611a4b565b54166151295761192961511291611a4b565b6000805160206153328339815191526000604051a2565b505060405162461bcd60e51b815260206004820152602160248201527f53656d616e7469635342543a206d696e74657220616c726561647920616464656044820152601960fa1b606482015260849150fd5b505060405162461bcd60e51b815260206004820152602c60248201527f53656d616e7469635342543a206d696e746572206d757374206e6f742062652060448201526b6e756c6c206164647265737360a01b606482015260849150fd5b6151e0611635565b6001600160a01b03811660008181526008602052604090205490919060ff161561523e5761520d90611a4b565b60ff1981541690557f7df677640dd30a79584f8ecea06aeea15d215b861c5d3b5f8c26962d691f820e6000604051a2565b505060405162461bcd60e51b815260206004820152602260248201527f53656d616e7469635342543a206d696e74657220646f6573206e6f74206578696044820152611cdd60f21b606482015260849150fdfe405787fa12a823e0f2b7631cc41b3ba8828b3321ca811111fa75cd3aa3bb5acedf6966c971051c3d54ec59162606531493a51404a002842f56009d7e5cf4a8c7d7b6990105719101dabeb77144f2a3385c8033acd3af97e9423a695e81ad1eb58ea074c4be03960be214c047b695cecdc52be7382eee092c135d1726fabfc44453656d616e7469635342543a207072656469636174652074797065206572726f3a159411d00fa06a3ec11d4578931f1b7f877cceadb1e083929d74ec020cb2438be0079c531659141344cd1fd0a4f28419497f9722a3daafe3b4186f6b6457e0ddf252ad1be2c89b69c2b068fc378daa952ba7f163c4a11628f55a4df523b3efb10e2d527612073b26eecdfd717e6a320cf44b4afac2b0732d9fcbe2b7fa0cf68c5be1e5ebec7d5bd14f71427d1e84f3dd0314c0f7b2291e5b200ac8c7c3b9258d1108e10bcb7c27dddfc02ed9d693a074039d026cf4ea4240b40f7d581ac802a3646970667358221220ad365f53a45044c7f8c94a884bc38704e6bfdf38b17fd8a4dbdafb5407438fa56c6578706572696d656e74616cf564736f6c634300080c0041",
  "linkReferences": {},
  "deployedLinkReferences": {}
}