{
  "_format": "hh-sol-artifact-1",
  "contractName": "SemanticSBTPrivacy",
  "sourceName": "contracts/core/SemanticSBTPrivacy.sol",
  "abi": [
    {
      "anonymous": false,
      "inputs": [
        {
          "indexed": true,
          "internalType": "address",
          "name": "owner",
          "type": "address"
        },
        {
          "indexed": true,
          "internalType": "address",
          "name": "approved",
          "type": "address"
        },
        {
          "indexed": true,
          "internalType": "uint256",
          "name": "tokenId",
          "type": "uint256"
        }
      ],
      "name": "Approval",
      "type": "event"
    },
    {
      "anonymous": false,
      "inputs": [
        {
          "indexed": true,
          "internalType": "address",
          "name": "owner",
          "type": "address"
        },
        {
          "indexed": true,
          "internalType": "address",
          "name": "operator",
          "type": "address"
        },
        {
          "indexed": false,
          "internalType": "bool",
          "name": "approved",
          "type": "bool"
        }
      ],
      "name": "ApprovalForAll",
      "type": "event"
    },
    {
      "anonymous": false,
      "inputs": [
        {
          "indexed": true,
          "internalType": "address",
          "name": "operator",
          "type": "address"
        },
        {
          "indexed": true,
          "internalType": "address",
          "name": "owner",
          "type": "address"
        },
        {
          "indexed": true,
          "internalType": "uint256",
          "name": "tokenId",
          "type": "uint256"
        },
        {
          "indexed": false,
          "internalType": "string",
          "name": "rdf",
          "type": "string"
        }
      ],
      "name": "CreateSBT",
      "type": "event"
    },
    {
      "anonymous": false,
      "inputs": [
        {
          "indexed": true,
          "internalType": "address",
          "name": "newMinter",
          "type": "address"
        }
      ],
      "name": "EventMinterAdded",
      "type": "event"
    },
    {
      "anonymous": false,
      "inputs": [
        {
          "indexed": true,
          "internalType": "address",
          "name": "oldMinter",
          "type": "address"
        }
      ],
      "name": "EventMinterRemoved",
      "type": "event"
    },
    {
      "anonymous": false,
      "inputs": [
        {
          "indexed": false,
          "internalType": "uint8",
          "name": "version",
          "type": "uint8"
        }
      ],
      "name": "Initialized",
      "type": "event"
    },
    {
      "anonymous": false,
      "inputs": [
        {
          "indexed": true,
          "internalType": "address",
          "name": "previousOwner",
          "type": "address"
        },
        {
          "indexed": true,
          "internalType": "address",
          "name": "newOwner",
          "type": "address"
        }
      ],
      "name": "OwnershipTransferred",
      "type": "event"
    },
    {
      "anonymous": false,
      "inputs": [
        {
          "indexed": true,
          "internalType": "address",
          "name": "operator",
          "type": "address"
        },
        {
          "indexed": true,
          "internalType": "address",
          "name": "owner",
          "type": "address"
        },
        {
          "indexed": true,
          "internalType": "uint256",
          "name": "tokenId",
          "type": "uint256"
        },
        {
          "indexed": false,
          "internalType": "string",
          "name": "rdf",
          "type": "string"
        }
      ],
      "name": "RemoveSBT",
      "type": "event"
    },
    {
      "anonymous": false,
      "inputs": [
        {
          "indexed": true,
          "internalType": "address",
          "name": "from",
          "type": "address"
        },
        {
          "indexed": true,
          "internalType": "address",
          "name": "to",
          "type": "address"
        },
        {
          "indexed": true,
          "internalType": "uint256",
          "name": "tokenId",
          "type": "uint256"
        }
      ],
      "name": "Transfer",
      "type": "event"
    },
    {
      "inputs": [
        {
          "internalType": "address",
          "name": "minter",
          "type": "address"
        }
      ],
      "name": "addMinter",
      "outputs": [],
      "stateMutability": "nonpayable",
      "type": "function"
    },
    {
      "inputs": [
        {
          "internalType": "string",
          "name": "value",
          "type": "string"
        },
        {
          "internalType": "string",
          "name": "className_",
          "type": "string"
        }
      ],
      "name": "addSubject",
      "outputs": [
        {
          "internalType": "uint256",
          "name": "sIndex",
          "type": "uint256"
        }
      ],
      "stateMutability": "nonpayable",
      "type": "function"
    },
    {
      "inputs": [
        {
          "internalType": "address[]",
          "name": "viewer",
          "type": "address[]"
        },
        {
          "internalType": "uint256",
          "name": "tokenId",
          "type": "uint256"
        }
      ],
      "name": "addViewer",
      "outputs": [],
      "stateMutability": "nonpayable",
      "type": "function"
    },
    {
      "inputs": [
        {
          "internalType": "address",
          "name": "to",
          "type": "address"
        },
        {
          "internalType": "uint256",
          "name": "tokenId",
          "type": "uint256"
        }
      ],
      "name": "approve",
      "outputs": [],
      "stateMutability": "nonpayable",
      "type": "function"
    },
    {
      "inputs": [
        {
          "internalType": "address",
          "name": "owner",
          "type": "address"
        }
      ],
      "name": "balanceOf",
      "outputs": [
        {
          "internalType": "uint256",
          "name": "",
          "type": "uint256"
        }
      ],
      "stateMutability": "view",
      "type": "function"
    },
    {
      "inputs": [],
      "name": "baseURI",
      "outputs": [
        {
          "internalType": "string",
          "name": "",
          "type": "string"
        }
      ],
      "stateMutability": "view",
      "type": "function"
    },
    {
      "inputs": [
        {
          "internalType": "address",
          "name": "account",
          "type": "address"
        },
        {
          "internalType": "uint256",
          "name": "id",
          "type": "uint256"
        }
      ],
      "name": "burn",
      "outputs": [],
      "stateMutability": "nonpayable",
      "type": "function"
    },
    {
      "inputs": [
        {
          "internalType": "address",
          "name": "account",
          "type": "address"
        },
        {
          "internalType": "uint256[]",
          "name": "ids",
          "type": "uint256[]"
        }
      ],
      "name": "burnBatch",
      "outputs": [],
      "stateMutability": "nonpayable",
      "type": "function"
    },
    {
      "inputs": [
        {
          "internalType": "string",
          "name": "className_",
          "type": "string"
        }
      ],
      "name": "classIndex",
      "outputs": [
        {
          "internalType": "uint256",
          "name": "classIndex_",
          "type": "uint256"
        }
      ],
      "stateMutability": "view",
      "type": "function"
    },
    {
      "inputs": [
        {
          "internalType": "uint256",
          "name": "cIndex",
          "type": "uint256"
        }
      ],
      "name": "className",
      "outputs": [
        {
          "internalType": "string",
          "name": "name_",
          "type": "string"
        }
      ],
      "stateMutability": "view",
      "type": "function"
    },
    {
      "inputs": [
        {
          "internalType": "uint256",
          "name": "tokenId",
          "type": "uint256"
        }
      ],
      "name": "getApproved",
      "outputs": [
        {
          "internalType": "address",
          "name": "",
          "type": "address"
        }
      ],
      "stateMutability": "view",
      "type": "function"
    },
    {
      "inputs": [],
      "name": "getMinted",
      "outputs": [
        {
          "internalType": "uint256",
          "name": "",
          "type": "uint256"
        }
      ],
      "stateMutability": "view",
      "type": "function"
    },
    {
      "inputs": [
        {
          "internalType": "address",
          "name": "minter",
          "type": "address"
        },
        {
          "internalType": "string",
          "name": "name_",
          "type": "string"
        },
        {
          "internalType": "string",
          "name": "symbol_",
          "type": "string"
        },
        {
          "internalType": "string",
          "name": "baseURI_",
          "type": "string"
        },
        {
          "internalType": "string",
          "name": "schemaURI_",
          "type": "string"
        },
        {
          "internalType": "string[]",
          "name": "classes_",
          "type": "string[]"
        },
        {
          "components": [
            {
              "internalType": "string",
              "name": "name",
              "type": "string"
            },
            {
              "internalType": "enum FieldType",
              "name": "fieldType",
              "type": "uint8"
            }
          ],
          "internalType": "struct Predicate[]",
          "name": "predicates_",
          "type": "tuple[]"
        }
      ],
      "name": "initialize",
      "outputs": [],
      "stateMutability": "nonpayable",
      "type": "function"
    },
    {
      "inputs": [
        {
          "internalType": "address",
          "name": "owner",
          "type": "address"
        },
        {
          "internalType": "address",
          "name": "operator",
          "type": "address"
        }
      ],
      "name": "isApprovedForAll",
      "outputs": [
        {
          "internalType": "bool",
          "name": "",
          "type": "bool"
        }
      ],
      "stateMutability": "view",
      "type": "function"
    },
    {
      "inputs": [
        {
          "internalType": "address",
          "name": "account",
          "type": "address"
        },
        {
          "internalType": "uint256",
          "name": "id",
          "type": "uint256"
        }
      ],
      "name": "isOwnerOf",
      "outputs": [
        {
          "internalType": "bool",
          "name": "",
          "type": "bool"
        }
      ],
      "stateMutability": "view",
      "type": "function"
    },
    {
      "inputs": [
        {
          "internalType": "address",
          "name": "viewer",
          "type": "address"
        },
        {
          "internalType": "uint256",
          "name": "tokenId",
          "type": "uint256"
        }
      ],
      "name": "isViewerOf",
      "outputs": [
        {
          "internalType": "bool",
          "name": "",
          "type": "bool"
        }
      ],
      "stateMutability": "view",
      "type": "function"
    },
    {
      "inputs": [
        {
          "internalType": "address",
          "name": "account",
          "type": "address"
        },
        {
          "internalType": "uint256",
          "name": "sIndex",
          "type": "uint256"
        },
        {
          "components": [
            {
              "internalType": "uint256",
              "name": "pIndex",
              "type": "uint256"
            },
            {
              "internalType": "uint256",
              "name": "o",
              "type": "uint256"
            }
          ],
          "internalType": "struct IntPO[]",
          "name": "intPOList",
          "type": "tuple[]"
        },
        {
          "components": [
            {
              "internalType": "uint256",
              "name": "pIndex",
              "type": "uint256"
            },
            {
              "internalType": "string",
              "name": "o",
              "type": "string"
            }
          ],
          "internalType": "struct StringPO[]",
          "name": "stringPOList",
          "type": "tuple[]"
        },
        {
          "components": [
            {
              "internalType": "uint256",
              "name": "pIndex",
              "type": "uint256"
            },
            {
              "internalType": "address",
              "name": "o",
              "type": "address"
            }
          ],
          "internalType": "struct AddressPO[]",
          "name": "addressPOList",
          "type": "tuple[]"
        },
        {
          "components": [
            {
              "internalType": "uint256",
              "name": "pIndex",
              "type": "uint256"
            },
            {
              "internalType": "uint256",
              "name": "oIndex",
              "type": "uint256"
            }
          ],
          "internalType": "struct SubjectPO[]",
          "name": "subjectPOList",
          "type": "tuple[]"
        },
        {
          "components": [
            {
              "internalType": "uint256",
              "name": "pIndex",
              "type": "uint256"
            },
            {
              "components": [
                {
                  "internalType": "uint256",
                  "name": "pIndex",
                  "type": "uint256"
                },
                {
                  "internalType": "uint256",
                  "name": "o",
                  "type": "uint256"
                }
              ],
              "internalType": "struct IntPO[]",
              "name": "intO",
              "type": "tuple[]"
            },
            {
              "components": [
                {
                  "internalType": "uint256",
                  "name": "pIndex",
                  "type": "uint256"
                },
                {
                  "internalType": "string",
                  "name": "o",
                  "type": "string"
                }
              ],
              "internalType": "struct StringPO[]",
              "name": "stringO",
              "type": "tuple[]"
            },
            {
              "components": [
                {
                  "internalType": "uint256",
                  "name": "pIndex",
                  "type": "uint256"
                },
                {
                  "internalType": "address",
                  "name": "o",
                  "type": "address"
                }
              ],
              "internalType": "struct AddressPO[]",
              "name": "addressO",
              "type": "tuple[]"
            },
            {
              "components": [
                {
                  "internalType": "uint256",
                  "name": "pIndex",
                  "type": "uint256"
                },
                {
                  "internalType": "uint256",
                  "name": "oIndex",
                  "type": "uint256"
                }
              ],
              "internalType": "struct SubjectPO[]",
              "name": "subjectO",
              "type": "tuple[]"
            }
          ],
          "internalType": "struct BlankNodePO[]",
          "name": "blankNodePOList",
          "type": "tuple[]"
        }
      ],
      "name": "mint",
      "outputs": [
        {
          "internalType": "uint256",
          "name": "",
          "type": "uint256"
        }
      ],
      "stateMutability": "nonpayable",
      "type": "function"
    },
    {
      "inputs": [
        {
          "internalType": "uint256",
          "name": "tokenId",
          "type": "uint256"
        },
        {
          "internalType": "uint256",
          "name": "pIndex",
          "type": "uint256"
        },
        {
          "internalType": "string",
          "name": "object",
          "type": "string"
        }
      ],
      "name": "mintPrivacy",
      "outputs": [
        {
          "internalType": "uint256",
          "name": "",
          "type": "uint256"
        }
      ],
      "stateMutability": "nonpayable",
      "type": "function"
    },
    {
      "inputs": [
        {
          "internalType": "address",
          "name": "account",
          "type": "address"
        }
      ],
      "name": "minters",
      "outputs": [
        {
          "internalType": "bool",
          "name": "",
          "type": "bool"
        }
      ],
      "stateMutability": "view",
      "type": "function"
    },
    {
      "inputs": [],
      "name": "name",
      "outputs": [
        {
          "internalType": "string",
          "name": "",
          "type": "string"
        }
      ],
      "stateMutability": "view",
      "type": "function"
    },
    {
      "inputs": [
        {
          "internalType": "address",
          "name": "owner",
          "type": "address"
        }
      ],
      "name": "ownedPrepareTokenId",
      "outputs": [
        {
          "internalType": "uint256",
          "name": "",
          "type": "uint256"
        }
      ],
      "stateMutability": "view",
      "type": "function"
    },
    {
      "inputs": [],
      "name": "owner",
      "outputs": [
        {
          "internalType": "address",
          "name": "",
          "type": "address"
        }
      ],
      "stateMutability": "view",
      "type": "function"
    },
    {
      "inputs": [
        {
          "internalType": "uint256",
          "name": "tokenId",
          "type": "uint256"
        }
      ],
      "name": "ownerOf",
      "outputs": [
        {
          "internalType": "address",
          "name": "",
          "type": "address"
        }
      ],
      "stateMutability": "view",
      "type": "function"
    },
    {
      "inputs": [
        {
          "internalType": "uint256",
          "name": "pIndex",
          "type": "uint256"
        }
      ],
      "name": "predicate",
      "outputs": [
        {
          "internalType": "string",
          "name": "name_",
          "type": "string"
        },
        {
          "internalType": "enum FieldType",
          "name": "fieldType",
          "type": "uint8"
        }
      ],
      "stateMutability": "view",
      "type": "function"
    },
    {
      "inputs": [
        {
          "internalType": "string",
          "name": "predicateName_",
          "type": "string"
        }
      ],
      "name": "predicateIndex",
      "outputs": [
        {
          "internalType": "uint256",
          "name": "predicateIndex_",
          "type": "uint256"
        }
      ],
      "stateMutability": "view",
      "type": "function"
    },
    {
      "inputs": [],
      "name": "prepareTokenId",
      "outputs": [
        {
          "internalType": "uint256",
          "name": "",
          "type": "uint256"
        }
      ],
      "stateMutability": "nonpayable",
      "type": "function"
    },
    {
      "inputs": [
        {
          "internalType": "uint256",
          "name": "tokenId",
          "type": "uint256"
        }
      ],
      "name": "rdfOf",
      "outputs": [
        {
          "internalType": "string",
          "name": "",
          "type": "string"
        }
      ],
      "stateMutability": "view",
      "type": "function"
    },
    {
      "inputs": [
        {
          "internalType": "address",
          "name": "minter",
          "type": "address"
        }
      ],
      "name": "removeMinter",
      "outputs": [],
      "stateMutability": "nonpayable",
      "type": "function"
    },
    {
      "inputs": [],
      "name": "renounceOwnership",
      "outputs": [],
      "stateMutability": "nonpayable",
      "type": "function"
    },
    {
      "inputs": [
        {
          "internalType": "address",
          "name": "from",
          "type": "address"
        },
        {
          "internalType": "address",
          "name": "to",
          "type": "address"
        },
        {
          "internalType": "uint256",
          "name": "tokenId",
          "type": "uint256"
        }
      ],
      "name": "safeTransferFrom",
      "outputs": [],
      "stateMutability": "nonpayable",
      "type": "function"
    },
    {
      "inputs": [
        {
          "internalType": "address",
          "name": "from",
          "type": "address"
        },
        {
          "internalType": "address",
          "name": "to",
          "type": "address"
        },
        {
          "internalType": "uint256",
          "name": "tokenId",
          "type": "uint256"
        },
        {
          "internalType": "bytes",
          "name": "_data",
          "type": "bytes"
        }
      ],
      "name": "safeTransferFrom",
      "outputs": [],
      "stateMutability": "nonpayable",
      "type": "function"
    },
    {
      "inputs": [],
      "name": "schemaURI",
      "outputs": [
        {
          "internalType": "string",
          "name": "",
          "type": "string"
        }
      ],
      "stateMutability": "view",
      "type": "function"
    },
    {
      "inputs": [
        {
          "internalType": "address",
          "name": "operator",
          "type": "address"
        },
        {
          "internalType": "bool",
          "name": "approved",
          "type": "bool"
        }
      ],
      "name": "setApprovalForAll",
      "outputs": [],
      "stateMutability": "nonpayable",
      "type": "function"
    },
    {
      "inputs": [
        {
          "internalType": "string",
          "name": "newName",
          "type": "string"
        }
      ],
      "name": "setName",
      "outputs": [],
      "stateMutability": "nonpayable",
      "type": "function"
    },
    {
      "inputs": [
        {
          "internalType": "string",
          "name": "newSymbol",
          "type": "string"
        }
      ],
      "name": "setSymbol",
      "outputs": [],
      "stateMutability": "nonpayable",
      "type": "function"
    },
    {
      "inputs": [
        {
          "internalType": "bool",
          "name": "transferable_",
          "type": "bool"
        }
      ],
      "name": "setTransferable",
      "outputs": [],
      "stateMutability": "nonpayable",
      "type": "function"
    },
    {
      "inputs": [
        {
          "internalType": "string",
          "name": "newURI",
          "type": "string"
        }
      ],
      "name": "setURI",
      "outputs": [],
      "stateMutability": "nonpayable",
      "type": "function"
    },
    {
      "inputs": [
        {
          "internalType": "uint256",
          "name": "index",
          "type": "uint256"
        }
      ],
      "name": "subject",
      "outputs": [
        {
          "internalType": "string",
          "name": "subjectValue",
          "type": "string"
        },
        {
          "internalType": "string",
          "name": "className_",
          "type": "string"
        }
      ],
      "stateMutability": "view",
      "type": "function"
    },
    {
      "inputs": [
        {
          "internalType": "string",
          "name": "subjectValue",
          "type": "string"
        },
        {
          "internalType": "string",
          "name": "className_",
          "type": "string"
        }
      ],
      "name": "subjectIndex",
      "outputs": [
        {
          "internalType": "uint256",
          "name": "",
          "type": "uint256"
        }
      ],
      "stateMutability": "view",
      "type": "function"
    },
    {
      "inputs": [
        {
          "internalType": "bytes4",
          "name": "interfaceId",
          "type": "bytes4"
        }
      ],
      "name": "supportsInterface",
      "outputs": [
        {
          "internalType": "bool",
          "name": "",
          "type": "bool"
        }
      ],
      "stateMutability": "view",
      "type": "function"
    },
    {
      "inputs": [],
      "name": "symbol",
      "outputs": [
        {
          "internalType": "string",
          "name": "",
          "type": "string"
        }
      ],
      "stateMutability": "view",
      "type": "function"
    },
    {
      "inputs": [
        {
          "internalType": "uint256",
          "name": "index",
          "type": "uint256"
        }
      ],
      "name": "tokenByIndex",
      "outputs": [
        {
          "internalType": "uint256",
          "name": "",
          "type": "uint256"
        }
      ],
      "stateMutability": "view",
      "type": "function"
    },
    {
      "inputs": [
        {
          "internalType": "address",
          "name": "owner",
          "type": "address"
        },
        {
          "internalType": "uint256",
          "name": "index",
          "type": "uint256"
        }
      ],
      "name": "tokenOfOwnerByIndex",
      "outputs": [
        {
          "internalType": "uint256",
          "name": "",
          "type": "uint256"
        }
      ],
      "stateMutability": "view",
      "type": "function"
    },
    {
      "inputs": [
        {
          "internalType": "uint256",
          "name": "tokenId",
          "type": "uint256"
        }
      ],
      "name": "tokenURI",
      "outputs": [
        {
          "internalType": "string",
          "name": "",
          "type": "string"
        }
      ],
      "stateMutability": "view",
      "type": "function"
    },
    {
      "inputs": [],
      "name": "totalSupply",
      "outputs": [
        {
          "internalType": "uint256",
          "name": "",
          "type": "uint256"
        }
      ],
      "stateMutability": "view",
      "type": "function"
    },
    {
      "inputs": [
        {
          "internalType": "address",
          "name": "from",
          "type": "address"
        },
        {
          "internalType": "address",
          "name": "to",
          "type": "address"
        },
        {
          "internalType": "uint256",
          "name": "tokenId",
          "type": "uint256"
        }
      ],
      "name": "transferFrom",
      "outputs": [],
      "stateMutability": "nonpayable",
      "type": "function"
    },
    {
      "inputs": [
        {
          "internalType": "address",
          "name": "newOwner",
          "type": "address"
        }
      ],
      "name": "transferOwnership",
      "outputs": [],
      "stateMutability": "nonpayable",
      "type": "function"
    },
    {
      "inputs": [],
      "name": "transferable",
      "outputs": [
        {
          "internalType": "bool",
          "name": "",
          "type": "bool"
        }
      ],
      "stateMutability": "view",
      "type": "function"
    }
  ],
  "bytecode": "0x60808060405234620000f45760008054336001600160a01b0319821681178355620000e49390916001600160a01b0316907f8be0079c531659141344cd1fd0a4f28419497f9722a3daafe3b4186f6b6457e0908490a3620000b86200006362000160565b6200006d62000160565b6200007762000111565b9184835284602084015260408301526060820152620000b26200009962000140565b91620000a46200019d565b8352846020840152620002a4565b620004c5565b620000c262000608565b620000cc62000140565b90620000d76200019d565b8252602082015262000703565b6040516159be9081620008618239f35b50600080fd5b50634e487b7160e01b600052604160045260246000fd5b60405190608082016001600160401b038111838210176200013157604052565b6200013b620000fa565b604052565b60408051919082016001600160401b038111838210176200013157604052565b6040516020810191906000906001600160401b038411818510176200018d575b8360405281815292369037565b62000197620000fa565b62000180565b60405190602082016001600160401b03811183821017620001c2575b60405260008252565b620001cc620000fa565b620001b9565b50634e487b7160e01b600052603260045260246000fd5b50634e487b7160e01b600052600060045260246000fd5b8181106200020c575050565b6000815560010162000200565b81519168010000000000000000831162000294575b815483835580841062000273575b50602080910191600052806000206000925b8484106200025d575050505050565b600183828293518555019201930192906200024e565b6200028d9083600052846020600020918201910162000200565b386200023c565b6200029e620000fa565b6200022e565b600454906801000000000000000080831015620003ca575b60019081840180600455841015620003ba575b60046000908152835160029590951b7f8a35acfbc15ff81a39ae7d344fd709f28e8600b4aa8c65c6b64bfe7fe36bd19b0180546001600160a01b0319166001600160a01b039690961695909517855560208085015184870155600286018160408701518051958611620003aa575b82548684558087106200038d575b5091845282842091015b8484106200037957505050505050906003606062000377930151910162000219565b565b805182559285019290850190820162000355565b838652828620620003a391810190880162000200565b386200034b565b620003b4620000fa565b6200033d565b620003c4620001d2565b620002cf565b620003d4620000fa565b620002bc565b600a54811015620003fb575b600a60005260206000209060011b0190600090565b62000405620001d2565b620003e6565b6011548110156200042c575b601160005260206000209060011b0190600090565b62000436620001d2565b62000417565b90600182811c9216801562000470575b60208310146200045857565b5050634e487b7160e01b600052602260045260246000fd5b91607f16916200044c565b9190601f81116200048b57505050565b62000377926000526020600020906020601f840160051c83019310620004ba575b601f0160051c019062000200565b9091508190620004ac565b600a5468010000000000000000811015620005f8575b620004ee600191828101600a55620003da565b929092620005e8575b805180519091906001600160401b038111620005d8575b62000526816200051f87546200043c565b876200047b565b806020938490601f831160011462000568576000926200055c575b5050600019600383901b1c191690841b1784555b0151910155565b01519050388062000541565b90869350601f198316916200058289600052602060002090565b9260005b88828210620005c15750508411620005a7575b505050811b01845562000555565b015160001960f88460031b161c1916905538808062000599565b8385015186558a9790950194938401930162000586565b620005e2620000fa565b6200050e565b620005f2620001e9565b620004f7565b62000602620000fa565b620004db565b6000600f54680100000000000000008110156200069f575b6001810180600f558110156200068f575b600f82527f8d1108e10bcb7c27dddfc02ed9d693a074039d026cf4ea4240b40f7d581ac80201805462000664906200043c565b601f811162000671575055565b818352602083206200068c91601f0160051c81019062000200565b55565b62000699620001d2565b62000631565b620006a9620000fa565b62000620565b60051115620006ba57565b50634e487b7160e01b600052602160045260246000fd5b906005811015620006ea5760ff80198354169116179055565b505050634e487b7160e01b600052602160045260246000fd5b906011546801000000000000000081101562000850575b6200072d6001918281016011556200040b565b91909162000840575b83518051946001600160401b03861162000830575b62000763866200075c86546200043c565b866200047b565b6020918290601f8811600114620007bb57968091620003779798600092620007af575b5050600019600383901b1c191690841b1784555b015191620007a883620006af565b01620006d1565b01519050388062000786565b90601f19881691620007d287600052602060002090565b9260005b8181106200081a5750918693918a620003779a9b941062000800575b505050811b0184556200079a565b015160001960f88460031b161c19169055388080620007f2565b82840151855593870193928601928601620007d6565b6200083a620000fa565b6200074b565b6200084a620001e9565b62000736565b6200085a620000fa565b6200071a56fe6040608081526004361015610015575b50600080fd5b600090813560e01c806301ffc9a7146107db57806302fe5305146107c357806306fdde03146107a7578063081812fc1461078b578063095ea7b314610773578063152407ae1461075757806318160ddd1461073b5780631dfc01e51461071e5780631f624755146106ec57806323b872dd146106d45780632f745c59146106b75780633092afd5146106a057806341be3f181461068357806342842e0e1461066b5780634862a96c146106535780634f6ccce7146106375780635036d1a81461061a57806352e89bbd146105f757806358e23bac146105db5780636352211e146105b45780636c0360eb1461059857806370a082311461057c578063715018a6146105655780638bb07877146105495780638da5cb5b1461052157806392ff0d31146104f65780639377268d146104da57806395d89b41146104be578063983b2d56146104a75780639cd23707146104905780639dc29fac14610478578063a22cb46514610460578063a6c1653d14610443578063a9ff13a61461041a578063ac72200d146103ef578063b2dc5dc3146103d7578063b84c8246146103bf578063b88d4fde146103a4578063c47f00271461038c578063c5b8f7721461036f578063c87b56dd14610353578063d49116f514610335578063d4b0c4031461030c578063deeec344146102f0578063e985e9c5146102c0578063f2fde38b146102a6578063f46eccc4146102605763fbafb69814610232575061000f565b3461025c57610258915061024d61024836610915565b612676565b905191829182610904565b0390f35b5080fd5b503461025c57610258915061029561027736610b50565b6001600160a01b031660009081526008602052604090205460ff1690565b905191829182901515815260200190565b503461025c576102bd6102b836610b50565b611820565b51f35b503461025c5761025891506102956102e96102e46102dd36611756565b9190611bc2565b611c10565b5460ff1690565b503461025c57610258915061024d61030736610915565b6122d8565b503461025c57610258915061032861032336610915565b61247a565b9290915192839283611717565b503461025c576102bd6103473661163f565b959490949391936118dd565b503461025c57610258915061024d61036a36610915565b612b50565b503461025c57610258915061029561038636610966565b90612a37565b503461025c576102bd61039e3661083a565b9061502b565b503461025c576102bd6103b636611498565b9291909161313c565b503461025c576102bd6103d13661083a565b90615102565b503461025c576102bd6103e936611437565b91614abc565b503461025c5761025891506104033661089c565b61040b612740565b90519081529081906020820190565b503461025c57610258915061043661043136610915565b61254d565b9290915192839283611412565b503461025c57610258915061040b61045a36610c67565b90612521565b503461025c576102bd610472366113e1565b90612f20565b503461025c576102bd61048a36610966565b90614936565b503461025c576102bd6104a2366113c5565b615011565b503461025c576102bd6104b936610b50565b6151dc565b503461025c5761025891506104d23661089c565b61024d611217565b503461025c57610258915061040b6104f136610af4565b61236d565b503461025c57610258915061050a3661089c565b60ff60095416905191829182901515815260200190565b503461025c57610258916105343661089c565b5490519182916001600160a01b031682610927565b503461025c57610258915061055d3661089c565b61040b6154d8565b503461025c576105743661089c565b6102bd611789565b503461025c57610258915061040b61059336610b50565b61293f565b503461025c5761025891506105ac3661089c565b61024d611190565b503461025c5761025891506105d06105cb36610915565b6129b9565b905191829182610927565b503461025c5761025891506105ef3661089c565b61024d61129e565b503461025c57610258915061040b61060e36610ff3565b95949094939193614039565b503461025c57610258915061040b61063136610c67565b90613f29565b503461025c57610258915061040b61064e36610915565b612872565b503461025c576102bd61066536610bd0565b90615432565b503461025c576102bd61067d36610b73565b916130ac565b503461025c57610258915061029561069a36610966565b90615391565b503461025c576102bd6106b236610b50565b6152d8565b503461025c57610258915061040b6106ce36610966565b9061279d565b503461025c576102bd6106e636610b73565b9161301a565b503461025c57610258915061040b61070336610b50565b6001600160a01b031660009081526015602052604090205490565b503461025c57610258915061040b61073536610b1e565b9161566c565b503461025c57610258915061074f3661089c565b61040b612752565b503461025c57610258915061040b61076e36610af4565b6122b4565b503461025c576102bd61078536610966565b90612d8e565b503461025c5761025891506105d06107a236610915565b612e9b565b503461025c5761025891506107bb3661089c565b61024d6110f8565b503461025c576102bd6107d53661083a565b90614f37565b5050346108095750607f196108046107fa6107f53661081f565b6121b7565b151560805260a090565b016080f35b80fd5b6001600160e01b03198116141561000f57565b602090600319011261000f576004356108378161080c565b90565b906020600319830112610895576001600160401b03916004359083821161088c578060238301121561088c57816004013593841161088c5760248483010111610884576024019190565b505050600080fd5b50505050600080fd5b5050600080fd5b600090600319011261000f57565b918091926000905b8282106108ca5750116108c3575050565b6000910152565b915080602091830151818601520182916108b2565b906020916108f8815180928185528580860191016108aa565b601f01601f1916010190565b9060206108379281815201906108df565b602090600319011261000f5760043590565b6001600160a01b03909116815260200190565b600435906001600160a01b03821682141561089557565b35906001600160a01b03821682141561089557565b604090600319011261000f576004356001600160a01b038116811415610895579060243590565b50634e487b7160e01b600052604160045260246000fd5b604081019081106001600160401b038211176109bf57604052565b6109c761098d565b604052565b608081019081106001600160401b038211176109bf57604052565b602081019081106001600160401b038211176109bf57604052565b606081019081106001600160401b038211176109bf57604052565b601f909101601f19168101906001600160401b038211908210176109bf57604052565b6040519060a082016001600160401b038111838210176109bf57604052565b60405190610a6c826109a4565b565b6020906001600160401b038111610a8b575b601f01601f19160190565b610a9361098d565b610a80565b929192610aa482610a6e565b91610ab26040519384610a1d565b829481845281830111610acf578281602093846000960137010152565b5050505050600080fd5b9080601f830112156108845781602061083793359101610a98565b602060031982011261089557600435906001600160401b0382116108845761083791600401610ad9565b6060600319820112610895576004359160243591604435906001600160401b038211610acf5761083791600401610ad9565b602090600319011261000f576004356001600160a01b0381168114156108955790565b606090600319011261000f576001600160a01b03906004358281168114156108845791602435908116811415610884579060443590565b6020906001600160401b038111610bc3575b60051b0190565b610bcb61098d565b610bbc565b6040600319820112610895576004356001600160401b038111610884578160238201121561088457806004013591610c0783610baa565b92610c156040519485610a1d565b80845260209260248486019260051b820101928311610c5c57602401905b828210610c4557505050509060243590565b838091610c5184610951565b815201910190610c33565b505050505050600080fd5b906040600319830112610895576001600160401b0360043581811161088c5783610c9391600401610ad9565b9260243591821161088c5761083791600401610ad9565b81601f8201121561088457803590610cc182610baa565b92604092610cd184519586610a1d565b808552602091828087019260061b85010193818511610d2c578301915b848310610cfe5750505050505090565b8583830312610d2c578386918251610d15816109a4565b853581528286013583820152815201920191610cee565b5050505050505050600080fd5b81601f8201121561088457803590610d5082610baa565b92604092610d6084519586610a1d565b808552602093848087019260051b85010193838511610d2c57858101925b858410610d8f575050505050505090565b6001600160401b038435818111610dfd5783019184601f198489030112610dfd578451610dbb816109a4565b89840135815285840135928311610dec57610ddd888b80969581960101610ad9565b83820152815201930192610d7e565b505050505050505050505050600080fd5b5050505050505050505050600080fd5b81601f8201121561088457803590610e2482610baa565b92604092610e3484519586610a1d565b808552602091828087019260061b85010193818511610d2c578301915b848310610e615750505050505090565b8583830312610d2c578386918251610e78816109a4565b85358152610e87838701610951565b83820152815201920191610e51565b9080601f83011215610884578135610ead81610baa565b92604091610ebd83519586610a1d565b808552602093848087019260051b84010193818511610d2c57858401925b858410610eec575050505050505090565b6001600160401b038435818111610dfd5786019160a080601f198588030112610dec57610f17610a40565b908a850135825285850135848111610fe057878c610f3792880101610caa565b8b83015260609081860135858111610fcc57888d610f5792890101610d39565b8784015260809182870135868111610fb757898e610f77928a0101610e0d565b90840152850135938411610fa557610f96878c80979681970101610caa565b90820152815201930192610edb565b50505050505050505050505050600080fd5b50505050505050505050505050505050600080fd5b505050505050505050505050505050600080fd5b5050505050505050505050505050600080fd5b9060e06003198301126108955761100861093a565b91602435916001600160401b03604435818111610c5c578361102c91600401610caa565b92606435828111611099578161104491600401610d39565b92608435838111610d2c578261105c91600401610e0d565b9260a43581811161108b578361107491600401610caa565b9260c43591821161108b5761083791600401610e96565b505050505050505050600080fd5b50505050505050600080fd5b50634e487b7160e01b600052600060045260246000fd5b90600182811c921680156110ee575b60208310146110d657565b5050634e487b7160e01b600052602260045260246000fd5b91607f16916110cb565b60405190600082600191825461110d816110bc565b808452908481169081156111735750600114611131575b50610a6c92500383610a1d565b9280915060005260209081600020936000915b81831061115b575050610a6c935082010138611124565b85548884018501529485019487945091830191611144565b94505050505060ff19166020830152610a6c826040810138611124565b60405190600082600c54916111a4836110bc565b80835260019380851690811561117357506001146111c95750610a6c92500383610a1d565b600c600090815260008051602061583b83398151915294602093509091905b8183106111ff575050610a6c935082010138611124565b855488840185015294850194879450918301916111e8565b604051906000826002549161122b836110bc565b80835260019380851690811561117357506001146112505750610a6c92500383610a1d565b6002600090815260008051602061581b83398151915294602093509091905b818310611286575050610a6c935082010138611124565b8554888401850152948501948794509183019161126f565b60405190600082600d54916112b2836110bc565b80835260019380851690811561117357506001146112d75750610a6c92500383610a1d565b600d600090815260008051602061585b83398151915294602093509091905b81831061130d575050610a6c935082010138611124565b855488840185015294850194879450918301916112f6565b9060405191826000825492611339846110bc565b9081845260019485811690816000146113a65750600114611363575b5050610a6c92500383610a1d565b9093915060005260209081600020936000915b81831061138e575050610a6c93508201013880611355565b85548884018501529485019487945091830191611376565b9550505050505060ff19166020830152610a6c82604081013880611355565b602090600319011261000f576004358015158114156108955790565b604090600319011261000f576004356001600160a01b03811681141561089557906024358015158114156108845790565b9091611429610837936040845260408401906108df565b9160208184039101526108df565b6040600319820112610895576004356001600160a01b03811681141561088457916001600160401b039160243590838211610acf5780602383011215610acf578160040135938411610acf5760248460051b8301011161088c576024019190565b906080600319830112610895576001600160a01b039160043583811681141561088c579260243590811681141561088c579160443591606435906001600160401b038211610c5c5780602383011215610c5c5781602461083793600401359101610a98565b9080601f830112156108845781359061151582610baa565b926115236040519485610a1d565b828452602092838086019160051b8301019280841161109957848301915b8483106115515750505050505090565b82356001600160401b03811161108b57869161157284848094890101610ad9565b815201920191611541565b9080601f830112156108845781359161159583610baa565b9260406115a481519586610a1d565b8185526020938486019185600594851b8601019482861161108b57868101935b8685106115d657505050505050505090565b6001600160401b03908535828111610dec5783019184601f198488030112610dec57845192611604846109a4565b8a810135918211610fa55761161e878c8894840101610ad9565b845201359087821015610dec57828a939284809401528152019401936115c4565b60e06003198201126108955761165361093a565b916001600160401b039160243590838211610acf57611676816004938401610ad9565b93604435818111611099578261168d918501610ad9565b93606435828111610d2c57836116a4918601610ad9565b9360843583811161108b57846116bb918301610ad9565b9360a4358481116116e757816116d29184016114fd565b9360c4359081116116e757610837920161157d565b50505050505050505050600080fd5b6005111561170057565b50634e487b7160e01b600052602160045260246000fd5b92919061172c906040855260408501906108df565b92600582101561173c5760200152565b50505050634e487b7160e01b600052602160045260246000fd5b604090600319011261000f576001600160a01b039060043582811681141561088457916024359081168114156108845790565b6117916117c6565b600080546001600160a01b0319811682556040516001600160a01b03909116906000805160206158db833981519152908390a3565b6000546001600160a01b03163314156117db57565b50606460405162461bcd60e51b815260206004820152602060248201527f4f776e61626c653a2063616c6c6572206973206e6f7420746865206f776e65726044820152fd5b6118286117c6565b6001600160a01b0390811690811561186757600080546001600160a01b03198116841782556040519216916000805160206158db8339815191529190a3565b505060405162461bcd60e51b815260206004820152602660248201527f4f776e61626c653a206e6577206f776e657220697320746865207a65726f206160448201526564647265737360d01b606482015260849150fd5b80546001600160a01b0319166001600160a01b03909216919091179055565b9492909593916000549660ff8860a81c161580988199611a07575b81156119e4575b5015611980576000805460ff60a01b1916600160a01b179055611926968861196857611a19565b61192c57565b6000805460ff60a81b19169055604051600181527f7f26b83ff96e1f2b6a682f133852f6798a09c465da95921460cefb384740249890602090a1565b6000805460ff60a81b1916600160a81b179055611a19565b505050505050505050608460405162461bcd60e51b815260206004820152602e60248201527f496e697469616c697a61626c653a20636f6e747261637420697320616c72656160448201526d191e481a5b9a5d1a585b1a5e995960921b6064820152fd5b303b159150816119f6575b50386118ff565b60a01c60ff166001149050386119ef565b9050600160ff8260a01c1610906118f8565b9593949194611a266117c6565b604051602081016020815281611a3f60408201856108df565b0391611a53601f1993848101835282610a1d565b51902090604051611a85602082019282611a798560409060208152600060208201520190565b03908101835282610a1d565b51902014611b0457611ad6611ae094611ad1611ae598611acc611adb96611ac7611aba8e611ab58e511515611b60565b611bdc565b805460ff19166001179055565b611d6b565b611e4c565b611f2f565b612012565b613380565b6134f6565b60018060a01b03166000805160206158bb8339815191526000604051a2565b5050505050505050608460405162461bcd60e51b815260206004820152602760248201527f53656d616e7469635342543a20736368656d61205552492063616e6e6f7420626044820152666520656d70747960c81b6064820152fd5b15611b6757565b5060405162461bcd60e51b815260206004820152602c60248201527f53656d616e7469635342543a207072656469636174652073697a652063616e2060448201526b6e6f7420626520656d70747960a01b6064820152608490fd5b6001600160a01b0316600090815260076020526040902090565b6001600160a01b0316600090815260086020526040902090565b6001600160a01b0316600090815260056020526040902090565b9060018060a01b0316600052602052604060002090565b818110611c32575050565b60008155600101611c27565b90601f8211611c4b575050565b610a6c91600c6000526020600020906020601f840160051c83019310611c79575b601f0160051c0190611c27565b9091508190611c6c565b90601f8211611c90575050565b610a6c9160016000526020600020906020601f840160051c83019310611c7957601f0160051c0190611c27565b90601f8211611cca575050565b610a6c9160026000526020600020906020601f840160051c83019310611c7957601f0160051c0190611c27565b90601f8211611d04575050565b610a6c91600d6000526020600020906020601f840160051c83019310611c7957601f0160051c0190611c27565b9190601f8111611d4057505050565b610a6c926000526020600020906020601f840160051c83019310611c7957601f0160051c0190611c27565b80519091906001600160401b038111611e3f575b600190611d9581611d9084546110bc565b611c83565b602080601f8311600114611dd0575081929394600092611dc5575b5050600019600383901b1c191690821b179055565b015190503880611db0565b6001600052601f1983169590919060008051602061591b833981519152926000905b888210611e285750508385969710611e0f575b505050811b019055565b015160001960f88460031b161c19169055388080611e05565b808785968294968601518155019501930190611df2565b611e4761098d565b611d7f565b80519091906001600160401b038111611f22575b611e7481611e6f6002546110bc565b611cbd565b602080601f8311600114611eb05750819293600092611ea5575b50508160011b916000199060031b1c191617600255565b015190503880611e8e565b6002600052601f1983169490919060008051602061581b833981519152926000905b878210611f0a575050836001959610611ef1575b505050811b01600255565b015160001960f88460031b161c19169055388080611ee6565b80600185968294968601518155019501930190611ed2565b611f2a61098d565b611e60565b80519091906001600160401b038111612005575b611f5781611f52600c546110bc565b611c3e565b602080601f8311600114611f935750819293600092611f88575b50508160011b916000199060031b1c191617600c55565b015190503880611f71565b600c600052601f1983169490919060008051602061583b833981519152926000905b878210611fed575050836001959610611fd4575b505050811b01600c55565b015160001960f88460031b161c19169055388080611fc9565b80600185968294968601518155019501930190611fb5565b61200d61098d565b611f43565b80519091906001600160401b0381116120e8575b61203a81612035600d546110bc565b611cf7565b602080601f8311600114612076575081929360009261206b575b50508160011b916000199060031b1c191617600d55565b015190503880612054565b600d600052601f1983169490919060008051602061585b833981519152926000905b8782106120d05750508360019596106120b7575b505050811b01600d55565b015160001960f88460031b161c191690553880806120ac565b80600185968294968601518155019501930190612098565b6120f061098d565b612026565b81519192916001600160401b0381116121aa575b61211d8161211784546110bc565b84611d31565b602080601f831160011461215957508192939460009261214e575b50508160011b916000199060031b1c1916179055565b015190503880612138565b90601f1983169561216f85600052602060002090565b926000905b88821061219257505083600195969710611e0f57505050811b019055565b80600185968294968601518155019501930190612174565b6121b261098d565b612109565b63ffffffff60e01b166380ac58cd60e01b811490811561221a575b8115612209575b81156121f8575b81156121ea575090565b6301ffc9a760e01b14919050565b6316388eeb60e21b811491506121e0565b631f75f6d360e31b811491506121d9565b635b5e139f60e01b811491506121d2565b9061223e602092828151948592016108aa565b0190565b602061225b9181604051938285809451938492016108aa565b8101600e81520301902090565b60206122819181604051938285809451938492016108aa565b8101601081520301902090565b6020906122a89282604051948386809551938492016108aa565b82019081520301902090565b6122bd90612242565b5490565b50634e487b7160e01b600052603260045260246000fd5b80151580612362575b1561231c5761083790600f5481101561230f575b600f60005260008051602061595b83398151915201611325565b6123176122c1565b6122f5565b505060405162461bcd60e51b815260206004820152601c60248201527b14d95b585b9d1a58d4d0950e8818db185cdcc81b9bdd08195e1a5cdd60221b6044820152606490fd5b50600f5481106122e1565b6122bd90612268565b1561237d57565b50606460405162461bcd60e51b815260206004820152602060248201527f53656d616e7469635342543a20707265646963617465206e6f742065786973746044820152fd5b6011548110156123e2575b601160005260206000209060011b0190600090565b6123ea6122c1565b6123cd565b600a5481101561240f575b600a60005260206000209060011b0190600090565b6124176122c1565b6123fa565b60135481101561243c575b601360005260206000209060011b0190600090565b6124446122c1565b612427565b90604051612456816109a4565b60ff6001829461246581611325565b845201541690600582101561173c5760200152565b61249861249e91801515806124cb575b61249390612376565b6123c2565b50612449565b906020825192015160058110156124b25790565b505050634e487b7160e01b600052602160045260246000fd5b50601154811061248a565b156124dd57565b5060405162461bcd60e51b815260206004820152601b60248201527a14d95b585b9d1a58d4d0950e88191bd95cc81b9bdd08195e1a5cdd602a1b6044820152606490fd5b61252d61254192612242565b54600052600b60205260406000209061228e565b546108378115156124d6565b90811515806125a7575b612560906124d6565b610837600161258061257a612574866123ef565b50611325565b946123ef565b500154600f5481101561230f57600f60005260008051602061595b83398151915201611325565b50600a548210612557565b6004548110156125d2575b600460005260206000209060021b0190600090565b6125da6122c1565b6125bd565b9060405191828154918282526020928383019160005283600020936000905b82821061261457505050610a6c92500383610a1d565b8554845260019586019588955093810193909101906125fe565b9060405161263b816109cc565b60606126716003839560018060a01b03815416855260018101546020860152612666600282016125df565b6040860152016125df565b910152565b61267f816131a4565b1561269e57612699612693610837926125b2565b5061262e565b6135e6565b505060405162461bcd60e51b815260206004820152602760248201527f53656d616e7469635342543a2053656d616e74696353425420646f6573206e6f6044820152661d08195e1a5cdd60ca1b6064820152608490fd5b50634e487b7160e01b600052601160045260246000fd5b6001811061271c575b6000190190565b6127246126f5565b612715565b818110612734570390565b61273c6126f5565b0390565b6004546001811061271c576000190190565b61275a612740565b60035490818110612734570390565b6001906000198114612779570190565b61223e6126f5565b6001906001198111612779570190565b81198111612779570190565b9060006001918293600454945b8581106128105750505050505050608460405162461bcd60e51b815260206004820152602b60248201527f455243373231456e756d657261626c653a206f776e657220696e646578206f7560448201526a74206f6620626f756e647360a81b6064820152fd5b612819816125b2565b50546001600160a01b0383811691161461283c575b61283790612769565b6127aa565b92828114612869578461283791600119811161285c575b0193905061282e565b6128646126f5565b612853565b50505091505090565b60006001908192600454935b8481106128e357505050505050608460405162461bcd60e51b815260206004820152602b60248201527f455243373231456e756d657261626c653a20746f6b656e20696e646578206f7560448201526a74206f6620626f756e647360a81b6064820152fd5b6128ec816125b2565b50546001600160a01b031661290a575b61290590612769565b61287e565b91818114612937578361290591600119811161292a575b019290506128fc565b6129326126f5565b612921565b505091505090565b6001600160a01b0316801561295f57600052600560205260406000205490565b505060405162461bcd60e51b815260206004820152602a60248201527f4552433732313a2062616c616e636520717565727920666f7220746865207a65604482015269726f206164647265737360b01b6064820152608490fd5b6129c2816131a4565b156129de576129d0906125b2565b50546001600160a01b031690565b505060405162461bcd60e51b815260206004820152602960248201527f4552433732313a206f776e657220717565727920666f72206e6f6e657869737460448201526832b73a103a37b5b2b760b91b6064820152608490fd5b90612a41906129b9565b6001600160a01b0390811691161490565b60405190612a5f826109e7565b60008252565b600c5460009291612a75826110bc565b91600190818116908115612ac65750600114612a9057505050565b9091929350600c60005260209081600020906000915b858310612ab557505050500190565b805485840152918301918101612aa6565b60ff191683525050019150565b600092918154612ae2816110bc565b92600191808316908115612b3b5750600114612aff575b50505050565b90919293945060005260209081600020906000915b858310612b2a5750505050019038808080612af9565b805485840152918301918101612b14565b60ff1916845250505001915038808080612af9565b612b59816131a4565b15612bc057612b69600c546110bc565b15612bb757610837612b7d612b9892612c51565b612ba9604051938492612b9260208501612a65565b9061222b565b64173539b7b760d91b815260050190565b03601f198101835282610a1d565b50610837612a52565b505060405162461bcd60e51b815260206004820152602f60248201527f4552433732314d657461646174613a2055524920717565727920666f72206e6f60448201526e3732bc34b9ba32b73a103a37b5b2b760891b6064820152608490fd5b90612c2982610a6e565b612c366040519182610a1d565b8281528092612c47601f1991610a6e565b0190602036910137565b6000908072184f03e93ff9f4daa797ed6e38ed64bf6a1f0160401b80821015612d80575b506904ee2d6d415b85acef8160201b80831015612d71575b50662386f26fc1000080831015612d62575b506305f5e10080831015612d53575b5061271080831015612d44575b506064821015612d34575b600a80921015612d2a575b600190816021612ce2828701612c1f565b95860101905b612cf4575b5050505090565b600019019083906f181899199a1a9b1b9c1cb0b131b232b360811b8282061a835304918215612d2557919082612ce8565b612ced565b9160010191612cd1565b9190606460029104910191612cc6565b60049193920491019138612cbb565b60089193920491019138612cae565b60109193920491019138612c9f565b60209193920491019138612c8d565b604093508104915038612c75565b90612d98816129b9565b6001600160a01b038181169084168114612e48573314908115612e2e575b5015612dc557610a6c91614d62565b505060405162461bcd60e51b815260206004820152603860248201527f4552433732313a20617070726f76652063616c6c6572206973206e6f74206f776044820152771b995c881b9bdc88185c1c1c9bdd995908199bdc88185b1b60421b606482015260849150fd5b60ff9150612e40906102e43391611bc2565b541638612db6565b5050505050608460405162461bcd60e51b815260206004820152602160248201527f4552433732313a20617070726f76616c20746f2063757272656e74206f776e656044820152603960f91b6064820152fd5b612ea4816131a4565b15612ec4576000908152600660205260409020546001600160a01b031690565b505060405162461bcd60e51b815260206004820152602c60248201527f4552433732313a20617070726f76656420717565727920666f72206e6f6e657860448201526b34b9ba32b73a103a37b5b2b760a11b6064820152608490fd5b6001600160a01b0381169190338314612f8957612f4a903360005260076020526040600020611c10565b9015159060ff1981541660ff83161790556040519081527f17307eab39ab6107e8899845ad3d59bd9653f200f220920489ca2b5937696c3160203392a3565b50505050606460405162461bcd60e51b815260206004820152601960248201527822a9219b99189d1030b8383937bb32903a379031b0b63632b960391b6044820152fd5b15612fd457565b5060405162461bcd60e51b815260206004820152601e60248201527f53656d616e7469635342543a206d757374207472616e7366657261626c6500006044820152606490fd5b90610a6c929161302e60ff60095416612fcd565b61304061303b84336131e4565b613045565b614c37565b1561304c57565b5060405162461bcd60e51b815260206004820152603160248201527f4552433732313a207472616e736665722063616c6c6572206973206e6f74206f6044820152701ddb995c881b9bdc88185c1c1c9bdd9959607a1b6064820152608490fd5b909161310a9260ff60095416926130c284612fcd565b604051936130ed90602086016001600160401b0381118782101761312f575b60405260008652612fcd565b6130fa61303b84336131e4565b613105838383614c37565b614efc565b1561311157565b5060405162461bcd60e51b81528061312b60048201613151565b0390fd5b61313761098d565b6130e1565b9061310a9392916130ed60ff60095416612fcd565b60809060208152603260208201527f4552433732313a207472616e7366657220746f206e6f6e20455243373231526560408201527131b2b4bb32b91034b6b83632b6b2b73a32b960711b60608201520190565b80151590816131d1575b816131b7575090565b6131c191506125b2565b50546001600160a01b0316151590565b90506131db612740565b811115906131ae565b6001600160a01b03806131f6846129b9565b169080831690828214948515613235575b505050821561321557505090565b60ff9250906132309160005260076020526040600020611c10565b541690565b6132429192939550612e9b565b161491388080613207565b60209080511561325b570190565b61223e6122c1565b6020918151811015613278575b60051b010190565b6132806122c1565b613270565b1561328c57565b5060405162461bcd60e51b815260206004820152602260248201527f53656d616e7469635342543a20436c6173732063616e6e6f7420626520656d70604482015261747960f01b6064820152608490fd5b156132e457565b5060405162461bcd60e51b815260206004820152601a60248201527914d95b585b9d1a58d4d0950e88185b1c9958591e48185919195960321b6044820152606490fd5b600f54610a6c9190600160401b811015613373575b6001810180600f55811015613366575b600f60005260008051602061595b833981519152016120f5565b61336e6122c1565b61334c565b61337b61098d565b61333c565b9060005b825181101561342f578061339b61342a9285613263565b516133f46040805160206133ea818301836133b68883610904565b03936133ca601f1995868101835282610a1d565b51902093519182019282611a798560409060208152600060208201520190565b5190201415613285565b61340761340082612242565b54156132dd565b61341081613327565b61342461341e600f5461270c565b91612242565b55612769565b613384565b509050565b1561343b57565b5060405162461bcd60e51b815260206004820152602660248201527f53656d616e7469635342543a205072656469636174652063616e6e6f7420626560448201526520656d70747960d01b6064820152608490fd5b602060016134b16011548260401b8110156134e9575b8281016011556123c2565b6134dc575b6134c18451826120f5565b0191015160058110156124b25760ff80198354169116179055565b6134e46110a5565b6134b6565b6134f161098d565b6134a6565b9060005b825181101561342f57806135116135669285613263565b5161353b8151604090815190613531602091836133b68482019283610904565b5190201415613434565b6135486134008251612268565b61355181613490565b61342461355f60115461270c565b9151612268565b6134fa565b6020610a6c91939293604051948161358c87935180928680870191016108aa565b82016135a0825180938680850191016108aa565b01038085520183610a1d565b604051906135b9826109a4565b60018252603b60f81b6020830152565b604051906135d6826109a4565b60018252601760f91b6020830152565b6135ef816138c3565b91600080935b60408401805180518710156137d5579161368891602061362461249861361e8b61368e98613263565b516123c2565b018051613630816116f6565b613639816116f6565b61369c5750906136706136799161366a6136548b8651613263565b516136638c60608d0151613263565b5190613ada565b9061356b565b915b515161270c565b8714156136945761366a6135c9565b94612769565b936135f5565b61366a6135ac565b80516136a7816116f6565b6136b0816116f6565b600114156136eb5750906136e56136799161366a6136cf8b8651613263565b516136de8c60608d0151613263565b5190613b15565b91613672565b80516136f6816116f6565b6136ff816116f6565b600214156137345750906136e56136799161366a61371e8b8651613263565b5161372d8c60608d0151613263565b5190613b8a565b805161373f816116f6565b613748816116f6565b6003141561377d5750906136e56136799161366a6137678b8651613263565b516137768c60608d0151613263565b5190613bf8565b51613787816116f6565b613790816116f6565b6004146137a1575b61367990613672565b906137cd6136799161366a6137b78b8651613263565b516137c68c60608d0151613263565b5190613d20565b919050613798565b50509350509050565b604051906137eb826109a4565b600482526314dbdd5b60e21b6020830152565b6040519061380b826109a4565b60018252601d60f91b6020830152565b60405190613828826109a4565b60018252605f60f81b6020830152565b60405190613845826109a4565b60018252600160fd1b6020830152565b919493610a6c9360405196879385516138768160209889808a0191016108aa565b850161388a825180938980850191016108aa565b0161389d825180938880850191016108aa565b016138b0825180938780850191016108aa565b016135a0825180938680850191016108aa565b60208101805161083792906000908061392f5750506138e06137de565b915b51908161391d57516138fd91506001600160a01b031661395e565b6139056137fe565b9161390e61381b565b90613917613838565b93613855565b5061257461392a916123ef565b6138fd565b602061394b92600f54831015613951575b600f81522001611325565b916138e2565b6139596122c1565b613940565b604051906001600160a01b031661397482610a02565b602a82526040366020840137603061398b8361324d565b536078613997836139fe565b536029905b600182116139af57610837915015613a3b565b80600f6139eb921660108110156139f1575b6f181899199a1a9b1b9c1cb0b131b232b360811b901a6139e18486613a0f565b5360041c91613a2e565b9061399c565b6139f96122c1565b6139c1565b60219080516001101561325b570190565b906020918051821015613a2157010190565b613a296122c1565b010190565b801561271c576000190190565b15613a4257565b50606460405162461bcd60e51b815260206004820152602060248201527f537472696e67733a20686578206c656e67746820696e73756666696369656e746044820152fd5b60405190613a94826109a4565b6002825261381d60f11b6020830152565b610a6c919392936040519485918351613ac6816020968780880191016108aa565b83016138b0825180938780850191016108aa565b90613b06613b00613af0612498610837956123c2565b613af8613a87565b90519061356b565b91612c51565b90613b0f613838565b90613aa5565b90613b28613af0612498610837946123c2565b90601254811015613b7d575b601260005260206000200190613b7560016040518094613b63601160f91b918260208501526021840190612ad3565b90815203601e19810185520183610a1d565b613b0f613838565b613b856122c1565b613b34565b90613b9d613af0612498610837946123c2565b613b75613ba86137fe565b613bb06137de565b613bca613bbb61381b565b956001600160a01b031661395e565b6040519586928451613be4816020978880890191016108aa565b840161389d825180938880850191016108aa565b90613c08612498610837936123c2565b90613b756001613c17836123ef565b500154600f54811015613cbb575b600f600052613cad613c49613c406020938460002001611325565b95613af8613a87565b93613c526137fe565b92613c64613c5e61381b565b926123ef565b50916040519785613c7e8a9751809286808b0191016108aa565b8601613c92825180938680850191016108aa565b01613ca5825180938580850191016108aa565b010190612ad3565b03601f198101845283610a1d565b613cc36122c1565b613c25565b60405190613cd5826109a4565b6002825261203b60f01b6020830152565b60405190613cf3826109a4565b60018252605b60f81b6020830152565b60405190613d10826109a4565b60018252605d60f81b6020830152565b90613d33613af0612498613d5c946123c2565b90613d4f613d49613d438361241c565b506125df565b9161241c565b50600193848092016125df565b91613d65612a52565b926000925b613d90575b5050506108379250613d7f613838565b613d87613ce6565b90613917613d03565b9091928251841015613ed85785906020613db061249861361e8888613263565b018051613dbc816116f6565b613dc5816116f6565b613e225750613de69061366a613ddb8787613263565b516136638887613263565b935b613df2845161270c565b8110613e0a575b613e0290612769565b929190613d6a565b93613e1a613e029161366a613cc8565b949050613df9565b8051613e2d816116f6565b613e36816116f6565b831415613e605750613e5a9061366a613e4f8787613263565b516136de8887613263565b93613de8565b8051613e6b816116f6565b613e74816116f6565b60021415613e995750613e5a9061366a613e8e8787613263565b5161372d8887613263565b94909451613ea6816116f6565b613eaf816116f6565b600314613ebb57613de8565b93613e5a9061366a613ecd8787613263565b516137768887613263565b92613d6f565b15613ee557565b5060405162461bcd60e51b815260206004820152601b60248201527a29b2b6b0b73a34b1a9a12a1d1036bab9ba1031329036b4b73a32b960291b6044820152606490fd5b6001604092613f506000913383526008602052613f4b60ff8785205416613ede565b612242565b5490613f5d821515613ff1565b818152600b602052613f746134008683208661228e565b613f8c600a54958284889452600b602052208561228e565b5560405192613f9a846109a4565b8352602083019081528160401b841015613fe4575b818401600a55613fd0613fc1856123ef565b949094613fd7575b51846120f5565b5191015590565b613fdf6110a5565b613fc9565b613fec61098d565b613faf565b15613ff857565b5060405162461bcd60e51b815260206004820152601860248201527729b2b6b0b73a34b1a9a12a1d103830b930b69032b93937b960411b6044820152606490fd5b9492909695939133600052600860205261405a60ff60406000205416613ede565b6001600160a01b0386169788156141b257614078600a548210613ff1565b614080614721565b614088614721565b916040519a6140968c6109cc565b8b5260208b015260408a015260608901526004546140c790600160401b8110156141a5575b600181016004556125b2565b989098614198575b80516140e4906001600160a01b03168a6118be565b60208181015160018b0155604082015180519160028c0191600160401b841161418b575b825484845580851061416e575b50019060005260206000206000915b838310614158575050505061083796979860036060614146930151910161473b565b61415160045461270c565b968761427a565b6001602082829351855501920192019190614124565b614185908460005285846000209182019101611c27565b38614115565b61419361098d565b614108565b6141a06110a5565b6140cf565b6141ad61098d565b6140bb565b505050505050505050608460405162461bcd60e51b815260206004820152602560248201527f53656d616e7469635342543a206d696e7420746f20746865207a65726f206164604482015264647265737360d81b6064820152fd5b1561421457565b5060405162461bcd60e51b815260206004820152603760248201527f53656d616e7469635342543a207472616e7366657220746f206e6f6e204552436044820152761b9918a932b1b2b4bb32b91034b6b83632b6b2b73a32b960491b6064820152608490fd5b91946142bf6142c69297956142b86142b19a966002614298886125b2565b50019b8c9a60036142a88a6125b2565b5001809c614477565b898c614547565b878a6145d9565b858861466c565b60005b835181101561438d57806143836142e36143889387613263565b516142f2815160115411612376565b61437d60135491614376614304614721565b61432761430f614721565b91614318610a5f565b908152602092838201526147b7565b6143308561241c565b509061434d60016143408861241c565b5001918501518284614477565b61435c60408501518284614547565b61436b606085015182846145d9565b60808401519161466c565b518b614432565b87614432565b612769565b6142c9565b509392509361439f9150541515613ff1565b6143a881611bf6565b6143b28154612781565b90556143ce6143c96143c2612a52565b8484614e47565b61420d565b60018060a01b0316818160006000805160206158fb83398151915281604051a46143fd612699612693846125b2565b7f6ca139c4cce2c6dfdd350d203c7ac907df3bdc839acb0c9f1d59d01950aaaead6040518061442d339482610904565b0390a4565b805490600160401b82101561446a575b6001820180825582101561445d575b60005260206000200155565b6144656122c1565b614451565b61447261098d565b614442565b929190600091825b815181101561453f576144928183613263565b519060ff60016144ae8451801515806124cb5761249390612376565b500154166005811015614523576144e0576143836020836144d36144db95518b614432565b015185614432565b61447f565b50505050505050608460405162461bcd60e51b8152602060048201526021602482015260008051602061589b8339815191526044820152603960f91b6064820152fd5b5050634e487b7160e01b84525050602160045250602492509050fd5b505050509050565b60009392845b815181101561453f57806143836145676145ba9385613263565b516145728151614880565b6145b46012916145ad835493848d6020908186015193600160401b8410156145cc575b600184018082558410156145bf575b815220016120f5565b5187614432565b86614432565b61454d565b6145c76122c1565b6145a4565b6145d461098d565b614595565b90929192600093845b815181101561453f576145f58183613263565b519060ff60016146118451801515806124cb5761249390612376565b50015416600581101561465057600214156144e0576143838261463861464b945188614432565b602001516001600160a01b031685614432565b6145e2565b5050634e487b7160e01b86525050602160045250602492915050fd5b90929160005b815181101561471a576146858183613263565b516146908151614906565b602090818101918251801515908161470e575b50156146c257506146bd92916145ad614383925187614432565b614672565b95505050505050606491506040519062461bcd60e51b82526004820152601e60248201527f53656d616e7469635342543a207375626a656374206e6f7420657869737400006044820152fd5b9050600a5411386146a3565b5050509050565b6040519061472e826109e7565b6000808352366020840137565b815191600160401b83116147aa575b815483835580841061478c575b50602080910191600052806000206000925b848410614777575050505050565b60018382829351855501920193019290614769565b6147a490836000528460206000209182019101611c27565b38614757565b6147b261098d565b61474a565b90601354600160401b9081811015614873575b6147db60019182810160135561241c565b929092614866575b8451908151908111614859575b835481855580821061483b575b50602080920184600052826000206000915b8383106148285750505050610a6c93940151910161473b565b805182559185019190850190840161480f565b61485390856000528260206000209182019101611c27565b386147fd565b61486161098d565b6147f0565b61486e6110a5565b6147e3565b61487b61098d565b6147ca565b600161489960ff92801515806124cb5761249390612376565b5001541660058110156148ee57600114156148b057565b5060405162461bcd60e51b8152602060048201526021602482015260008051602061589b8339815191526044820152603960f91b6064820152608490fd5b5050634e487b7160e01b600052602160045260246000fd5b600161491f60ff92801515806124cb5761249390612376565b5001541660058110156148ee57600314156148b057565b33600052600860205261495060ff60406000205416613ede565b61496261495d83336131e4565b614a14565b61496b826129b9565b6001600160a01b03808316929161498491168314614a76565b6149b3614996612699612693866125b2565b916149a085614d1e565b6149ab600354612769565b600355611bf6565b6149bd815461270c565b90556149c8836125b2565b5080546001600160a01b031916905560405160008051602061587b83398151915290846000856000805160206158fb8339815191528285a4602081528061442d339460208301906108df565b15614a1b57565b5060405162461bcd60e51b815260206004820152602c60248201527f53656d616e7469635342543a2063616c6c6572206973206e6f7420617070726f60448201526b3b32b21037b91037bbb732b960a11b6064820152608490fd5b15614a7d57565b5060405162461bcd60e51b815260206004820152601660248201527529b2b6b0b73a34b1a9a12a1d103737ba1037bbb732b960511b6044820152606490fd5b90916000913383526008602052604091614adb60ff8486205416613ede565b614aef614aea82600354612791565b600355565b614af882611bf6565b614b03828254612729565b9055835b818110614b1657505050505050565b80614b25614bc1928489614bc6565b35614b3361495d82336131e4565b614b45614b408287612a37565b614a76565b614b54612699612693836125b2565b614b5d82614d1e565b614b7a614b69836125b2565b5080546001600160a01b0319169055565b86516001600160a01b038716919060008051602061587b83398151915290848b856000805160206158fb8339815191528285a480614bb9339482610904565b0390a4612769565b614b07565b9190811015614bd65760051b0190565b610bcb6122c1565b15614be557565b5060405162461bcd60e51b8152602060048201526024808201527f4552433732313a207472616e7366657220746f20746865207a65726f206164646044820152637265737360e01b6064820152608490fd5b90614c41836129b9565b6001600160a01b038381169290918216831415614cc257614c7b614c8c92821694614c6d861515614bde565b614c7687614d1e565b611bf6565b614c85815461270c565b9055611bf6565b614c968154612781565b9055614cab82614ca5856125b2565b506118be565b6000805160206158fb8339815191526000604051a4565b505050505050608460405162461bcd60e51b815260206004820152602960248201527f4552433732313a207472616e73666572206f6620746f6b656e2074686174206960448201526839903737ba1037bbb760b91b6064820152fd5b600081815260066020526040812080546001600160a01b03191690556001600160a01b03614d4b836129b9565b1660008051602061593b83398151915282604051a4565b816000526006602052614d798160406000206118be565b6001600160a01b0380614d8b846129b9565b1691169060008051602061593b8339815191526000604051a4565b9081602091031261089557516108378161080c565b610837939260809260018060a01b0316825260006020830152604082015281606082015201906108df565b6001600160a01b039182168152911660208201526040810191909152608060608201819052610837929101906108df565b3d15614e42573d90614e2882610a6e565b91614e366040519384610a1d565b82523d6000602084013e565b606090565b919091803b614e5857505050600190565b614e80602091600093604051948580948193630a85bd0160e11b998a84523360048501614dbb565b03926001600160a01b03165af160009181614edc575b50614ece57505050614ea6614e17565b80519081614ec957505060405162461bcd60e51b81528061312b60048201613151565b602001fd5b6001600160e01b0319161490565b614ef5919250614eec3d82610a1d565b3d810190614da6565b9038614e96565b92919091823b614f0f5750505050600190565b614e80926020926000604051809681958294630a85bd0160e11b9a8b85523360048601614de6565b9190614f416117c6565b6001600160401b038111615004575b614f5f81611f52600c546110bc565b6000601f8211600114614f9857819293600092614f8d5750508160011b916000199060031b1c191617600c55565b013590503880611f71565b600c600052601f1982169360008051602061583b83398151915291805b868110614fec5750836001959610614fd257505050811b01600c55565b0135600019600384901b60f8161c19169055388080611fc9565b90926020600181928686013581550194019101614fb5565b61500c61098d565b614f50565b6150196117c6565b60ff8019600954169115151617600955565b91906150356117c6565b6001600160401b0381116150f5575b60019061505581611d9084546110bc565b6000601f821160011461508d5781929394600092615082575050600019600383901b1c191690821b179055565b013590503880611db0565b6001600052601f1982169460008051602061591b83398151915291805b8781106150df575083859697106150c557505050811b019055565b0135600019600384901b60f8161c19169055388080611e05565b82820135845592850192602091820191016150aa565b6150fd61098d565b615044565b919061510c6117c6565b6001600160401b0381116151cf575b61512a81611e6f6002546110bc565b6000601f8211600114615163578192936000926151585750508160011b916000199060031b1c191617600255565b013590503880611e8e565b6002600052601f1982169360008051602061581b83398151915291805b8681106151b7575083600195961061519d57505050811b01600255565b0135600019600384901b60f8161c19169055388080611ee6565b90926020600181928686013581550194019101615180565b6151d761098d565b61511b565b6151e46117c6565b6001600160a01b03811690811561527b5760ff61520082611bdc565b541661522957611aba61521291611bdc565b6000805160206158bb8339815191526000604051a2565b505060405162461bcd60e51b815260206004820152602160248201527f53656d616e7469635342543a206d696e74657220616c726561647920616464656044820152601960fa1b606482015260849150fd5b505060405162461bcd60e51b815260206004820152602c60248201527f53656d616e7469635342543a206d696e746572206d757374206e6f742062652060448201526b6e756c6c206164647265737360a01b606482015260849150fd5b6152e06117c6565b6001600160a01b03811660008181526008602052604090205490919060ff161561533e5761530d90611bdc565b60ff1981541690557f7df677640dd30a79584f8ecea06aeea15d215b861c5d3b5f8c26962d691f820e6000604051a2565b505060405162461bcd60e51b815260206004820152602260248201527f53656d616e7469635342543a206d696e74657220646f6573206e6f74206578696044820152611cdd60f21b606482015260849150fd5b9061539b816129b9565b6001600160a01b03928316921682149182156153b657505090565b909150600052601460205260406000209060005260205260ff6040600020541690565b156153e057565b5060405162461bcd60e51b8152602060048201526024808201527f53656d616e746963534254507269766163793a5065726d697373696f6e2064656044820152631b9a595960e21b6064820152608490fd5b91906001600160a01b03615451338261544a856129b9565b16146153d9565b60005b845181101561471a57808261546c61549b9388613263565b5116600052601460208181526040908160002087600052815260ff826000205416156154a0575b505050612769565b615454565b6154d092866154af868c613263565b5116600052815281600020908760005252600020600160ff19825416179055565b388080615493565b600033815260209060158252604081205461561a576154f5614721565b6154fd614721565b6040519161550a836109cc565b338352848301848152604084019182526060840192835260045491600160401b918284101561560d575b6155606155486001958681016004556125b2565b979097615600575b516001600160a01b0316876118be565b51838601558660028601915180519384116155f3575b82548484558085106155d9575b500190865286862086915b8383106155c6575050505050916155af60409260036015969551910161473b565b6155ba60045461270c565b93849333835252205590565b805182559184019190840190880161558e565b8389528289206155ed918101908601611c27565b38615583565b6155fb61098d565b615576565b6156086110a5565b615550565b61561561098d565b615534565b50608491506040519062461bcd60e51b82526004820152602360248201527f53656d616e746963534254507269766163793a416c72656164792070726570616044820152621c995960ea1b6064820152fd5b919061567781614880565b33600052601560205261569083604060002054146153d9565b3360005260166020526156a760406000208361228e565b5461571057816156e761570c926156e086956040516156c5816109a4565b60098152685b507269766163795d60b81b602082015261356b565b908561576b565b336000908152601560205260408120553360009081526016602052604090209061228e565b5590565b50505050606460405162461bcd60e51b815260206004820152601f60248201527f53656d616e746963534254507269766163793a416c7265616479206d696e74006044820152fd5b604051615764816109e7565b6000815290565b909160409384519061577c826109a4565b60018252600093845b6020808210156157b25788516020929161579e826109a4565b888252606081830152828701015201615785565b5050939190959294610a6c958451916157ca836109a4565b825260208201526157da8261324d565b526157e48161324d565b508251926157f1846109e7565b82845251916157ff836109e7565b8252615809615758565b92615812615758565b94339061427a56fe405787fa12a823e0f2b7631cc41b3ba8828b3321ca811111fa75cd3aa3bb5acedf6966c971051c3d54ec59162606531493a51404a002842f56009d7e5cf4a8c7d7b6990105719101dabeb77144f2a3385c8033acd3af97e9423a695e81ad1eb58ea074c4be03960be214c047b695cecdc52be7382eee092c135d1726fabfc44453656d616e7469635342543a207072656469636174652074797065206572726f3a159411d00fa06a3ec11d4578931f1b7f877cceadb1e083929d74ec020cb2438be0079c531659141344cd1fd0a4f28419497f9722a3daafe3b4186f6b6457e0ddf252ad1be2c89b69c2b068fc378daa952ba7f163c4a11628f55a4df523b3efb10e2d527612073b26eecdfd717e6a320cf44b4afac2b0732d9fcbe2b7fa0cf68c5be1e5ebec7d5bd14f71427d1e84f3dd0314c0f7b2291e5b200ac8c7c3b9258d1108e10bcb7c27dddfc02ed9d693a074039d026cf4ea4240b40f7d581ac802a364697066735822122059a762b85327dc13c28b46ca98522068c7c1943bbb699a967b00b0139de984616c6578706572696d656e74616cf564736f6c634300080c0041",
  "linkReferences": {},
  "deployedLinkReferences": {}
}