{
  "_format": "hh-sol-artifact-1",
  "contractName": "SemanticSBTPrivacy",
  "sourceName": "contracts/core/SemanticSBTPrivacy.sol",
  "abi": [
    {
      "anonymous": false,
      "inputs": [
        {
          "indexed": true,
          "internalType": "address",
          "name": "owner",
          "type": "address"
        },
        {
          "indexed": true,
          "internalType": "address",
          "name": "approved",
          "type": "address"
        },
        {
          "indexed": true,
          "internalType": "uint256",
          "name": "tokenId",
          "type": "uint256"
        }
      ],
      "name": "Approval",
      "type": "event"
    },
    {
      "anonymous": false,
      "inputs": [
        {
          "indexed": true,
          "internalType": "address",
          "name": "owner",
          "type": "address"
        },
        {
          "indexed": true,
          "internalType": "address",
          "name": "operator",
          "type": "address"
        },
        {
          "indexed": false,
          "internalType": "bool",
          "name": "approved",
          "type": "bool"
        }
      ],
      "name": "ApprovalForAll",
      "type": "event"
    },
    {
      "anonymous": false,
      "inputs": [
        {
          "indexed": true,
          "internalType": "address",
          "name": "operator",
          "type": "address"
        },
        {
          "indexed": true,
          "internalType": "address",
          "name": "owner",
          "type": "address"
        },
        {
          "indexed": true,
          "internalType": "uint256",
          "name": "tokenId",
          "type": "uint256"
        },
        {
          "indexed": false,
          "internalType": "string",
          "name": "rdf",
          "type": "string"
        }
      ],
      "name": "CreateSBT",
      "type": "event"
    },
    {
      "anonymous": false,
      "inputs": [
        {
          "indexed": true,
          "internalType": "address",
          "name": "newMinter",
          "type": "address"
        }
      ],
      "name": "EventMinterAdded",
      "type": "event"
    },
    {
      "anonymous": false,
      "inputs": [
        {
          "indexed": true,
          "internalType": "address",
          "name": "oldMinter",
          "type": "address"
        }
      ],
      "name": "EventMinterRemoved",
      "type": "event"
    },
    {
      "anonymous": false,
      "inputs": [
        {
          "indexed": false,
          "internalType": "uint8",
          "name": "version",
          "type": "uint8"
        }
      ],
      "name": "Initialized",
      "type": "event"
    },
    {
      "anonymous": false,
      "inputs": [
        {
          "indexed": true,
          "internalType": "address",
          "name": "previousOwner",
          "type": "address"
        },
        {
          "indexed": true,
          "internalType": "address",
          "name": "newOwner",
          "type": "address"
        }
      ],
      "name": "OwnershipTransferred",
      "type": "event"
    },
    {
      "anonymous": false,
      "inputs": [
        {
          "indexed": true,
          "internalType": "address",
          "name": "operator",
          "type": "address"
        },
        {
          "indexed": true,
          "internalType": "address",
          "name": "owner",
          "type": "address"
        },
        {
          "indexed": true,
          "internalType": "uint256",
          "name": "tokenId",
          "type": "uint256"
        },
        {
          "indexed": false,
          "internalType": "string",
          "name": "rdf",
          "type": "string"
        }
      ],
      "name": "RemoveSBT",
      "type": "event"
    },
    {
      "anonymous": false,
      "inputs": [
        {
          "indexed": true,
          "internalType": "address",
          "name": "from",
          "type": "address"
        },
        {
          "indexed": true,
          "internalType": "address",
          "name": "to",
          "type": "address"
        },
        {
          "indexed": true,
          "internalType": "uint256",
          "name": "tokenId",
          "type": "uint256"
        }
      ],
      "name": "Transfer",
      "type": "event"
    },
    {
      "inputs": [
        {
          "internalType": "address",
          "name": "minter",
          "type": "address"
        }
      ],
      "name": "addMinter",
      "outputs": [],
      "stateMutability": "nonpayable",
      "type": "function"
    },
    {
      "inputs": [
        {
          "internalType": "string",
          "name": "value",
          "type": "string"
        },
        {
          "internalType": "string",
          "name": "className_",
          "type": "string"
        }
      ],
      "name": "addSubject",
      "outputs": [
        {
          "internalType": "uint256",
          "name": "sIndex",
          "type": "uint256"
        }
      ],
      "stateMutability": "nonpayable",
      "type": "function"
    },
    {
      "inputs": [
        {
          "internalType": "address[]",
          "name": "viewer",
          "type": "address[]"
        },
        {
          "internalType": "uint256",
          "name": "tokenId",
          "type": "uint256"
        }
      ],
      "name": "addViewer",
      "outputs": [],
      "stateMutability": "nonpayable",
      "type": "function"
    },
    {
      "inputs": [
        {
          "internalType": "address",
          "name": "to",
          "type": "address"
        },
        {
          "internalType": "uint256",
          "name": "tokenId",
          "type": "uint256"
        }
      ],
      "name": "approve",
      "outputs": [],
      "stateMutability": "nonpayable",
      "type": "function"
    },
    {
      "inputs": [
        {
          "internalType": "address",
          "name": "owner",
          "type": "address"
        }
      ],
      "name": "balanceOf",
      "outputs": [
        {
          "internalType": "uint256",
          "name": "",
          "type": "uint256"
        }
      ],
      "stateMutability": "view",
      "type": "function"
    },
    {
      "inputs": [],
      "name": "baseURI",
      "outputs": [
        {
          "internalType": "string",
          "name": "",
          "type": "string"
        }
      ],
      "stateMutability": "view",
      "type": "function"
    },
    {
      "inputs": [
        {
          "internalType": "address",
          "name": "account",
          "type": "address"
        },
        {
          "internalType": "uint256",
          "name": "id",
          "type": "uint256"
        }
      ],
      "name": "burn",
      "outputs": [],
      "stateMutability": "nonpayable",
      "type": "function"
    },
    {
      "inputs": [
        {
          "internalType": "address",
          "name": "account",
          "type": "address"
        },
        {
          "internalType": "uint256[]",
          "name": "ids",
          "type": "uint256[]"
        }
      ],
      "name": "burnBatch",
      "outputs": [],
      "stateMutability": "nonpayable",
      "type": "function"
    },
    {
      "inputs": [
        {
          "internalType": "string",
          "name": "className_",
          "type": "string"
        }
      ],
      "name": "classIndex",
      "outputs": [
        {
          "internalType": "uint256",
          "name": "classIndex_",
          "type": "uint256"
        }
      ],
      "stateMutability": "view",
      "type": "function"
    },
    {
      "inputs": [
        {
          "internalType": "uint256",
          "name": "cIndex",
          "type": "uint256"
        }
      ],
      "name": "className",
      "outputs": [
        {
          "internalType": "string",
          "name": "name_",
          "type": "string"
        }
      ],
      "stateMutability": "view",
      "type": "function"
    },
    {
      "inputs": [
        {
          "internalType": "uint256",
          "name": "tokenId",
          "type": "uint256"
        }
      ],
      "name": "getApproved",
      "outputs": [
        {
          "internalType": "address",
          "name": "",
          "type": "address"
        }
      ],
      "stateMutability": "view",
      "type": "function"
    },
    {
      "inputs": [],
      "name": "getMinted",
      "outputs": [
        {
          "internalType": "uint256",
          "name": "",
          "type": "uint256"
        }
      ],
      "stateMutability": "view",
      "type": "function"
    },
    {
      "inputs": [
        {
          "internalType": "address",
          "name": "minter",
          "type": "address"
        },
        {
          "internalType": "string",
          "name": "name_",
          "type": "string"
        },
        {
          "internalType": "string",
          "name": "symbol_",
          "type": "string"
        },
        {
          "internalType": "string",
          "name": "baseURI_",
          "type": "string"
        },
        {
          "internalType": "string",
          "name": "schemaURI_",
          "type": "string"
        },
        {
          "internalType": "string[]",
          "name": "classes_",
          "type": "string[]"
        },
        {
          "components": [
            {
              "internalType": "string",
              "name": "name",
              "type": "string"
            },
            {
              "internalType": "enum FieldType",
              "name": "fieldType",
              "type": "uint8"
            }
          ],
          "internalType": "struct Predicate[]",
          "name": "predicates_",
          "type": "tuple[]"
        }
      ],
      "name": "initialize",
      "outputs": [],
      "stateMutability": "nonpayable",
      "type": "function"
    },
    {
      "inputs": [
        {
          "internalType": "address",
          "name": "owner",
          "type": "address"
        },
        {
          "internalType": "address",
          "name": "operator",
          "type": "address"
        }
      ],
      "name": "isApprovedForAll",
      "outputs": [
        {
          "internalType": "bool",
          "name": "",
          "type": "bool"
        }
      ],
      "stateMutability": "view",
      "type": "function"
    },
    {
      "inputs": [
        {
          "internalType": "address",
          "name": "account",
          "type": "address"
        },
        {
          "internalType": "uint256",
          "name": "id",
          "type": "uint256"
        }
      ],
      "name": "isOwnerOf",
      "outputs": [
        {
          "internalType": "bool",
          "name": "",
          "type": "bool"
        }
      ],
      "stateMutability": "view",
      "type": "function"
    },
    {
      "inputs": [
        {
          "internalType": "address",
          "name": "viewer",
          "type": "address"
        },
        {
          "internalType": "uint256",
          "name": "tokenId",
          "type": "uint256"
        }
      ],
      "name": "isViewerOf",
      "outputs": [
        {
          "internalType": "bool",
          "name": "",
          "type": "bool"
        }
      ],
      "stateMutability": "view",
      "type": "function"
    },
    {
      "inputs": [
        {
          "internalType": "address",
          "name": "account",
          "type": "address"
        },
        {
          "internalType": "uint256",
          "name": "sIndex",
          "type": "uint256"
        },
        {
          "components": [
            {
              "internalType": "uint256",
              "name": "pIndex",
              "type": "uint256"
            },
            {
              "internalType": "uint256",
              "name": "o",
              "type": "uint256"
            }
          ],
          "internalType": "struct IntPO[]",
          "name": "intPOList",
          "type": "tuple[]"
        },
        {
          "components": [
            {
              "internalType": "uint256",
              "name": "pIndex",
              "type": "uint256"
            },
            {
              "internalType": "string",
              "name": "o",
              "type": "string"
            }
          ],
          "internalType": "struct StringPO[]",
          "name": "stringPOList",
          "type": "tuple[]"
        },
        {
          "components": [
            {
              "internalType": "uint256",
              "name": "pIndex",
              "type": "uint256"
            },
            {
              "internalType": "address",
              "name": "o",
              "type": "address"
            }
          ],
          "internalType": "struct AddressPO[]",
          "name": "addressPOList",
          "type": "tuple[]"
        },
        {
          "components": [
            {
              "internalType": "uint256",
              "name": "pIndex",
              "type": "uint256"
            },
            {
              "internalType": "uint256",
              "name": "oIndex",
              "type": "uint256"
            }
          ],
          "internalType": "struct SubjectPO[]",
          "name": "subjectPOList",
          "type": "tuple[]"
        },
        {
          "components": [
            {
              "internalType": "uint256",
              "name": "pIndex",
              "type": "uint256"
            },
            {
              "components": [
                {
                  "internalType": "uint256",
                  "name": "pIndex",
                  "type": "uint256"
                },
                {
                  "internalType": "uint256",
                  "name": "o",
                  "type": "uint256"
                }
              ],
              "internalType": "struct IntPO[]",
              "name": "intO",
              "type": "tuple[]"
            },
            {
              "components": [
                {
                  "internalType": "uint256",
                  "name": "pIndex",
                  "type": "uint256"
                },
                {
                  "internalType": "string",
                  "name": "o",
                  "type": "string"
                }
              ],
              "internalType": "struct StringPO[]",
              "name": "stringO",
              "type": "tuple[]"
            },
            {
              "components": [
                {
                  "internalType": "uint256",
                  "name": "pIndex",
                  "type": "uint256"
                },
                {
                  "internalType": "address",
                  "name": "o",
                  "type": "address"
                }
              ],
              "internalType": "struct AddressPO[]",
              "name": "addressO",
              "type": "tuple[]"
            },
            {
              "components": [
                {
                  "internalType": "uint256",
                  "name": "pIndex",
                  "type": "uint256"
                },
                {
                  "internalType": "uint256",
                  "name": "oIndex",
                  "type": "uint256"
                }
              ],
              "internalType": "struct SubjectPO[]",
              "name": "subjectO",
              "type": "tuple[]"
            }
          ],
          "internalType": "struct BlankNodePO[]",
          "name": "blankNodePOList",
          "type": "tuple[]"
        }
      ],
      "name": "mint",
      "outputs": [
        {
          "internalType": "uint256",
          "name": "",
          "type": "uint256"
        }
      ],
      "stateMutability": "nonpayable",
      "type": "function"
    },
    {
      "inputs": [
        {
          "internalType": "uint256",
          "name": "tokenId",
          "type": "uint256"
        },
        {
          "internalType": "uint256",
          "name": "pIndex",
          "type": "uint256"
        },
        {
          "internalType": "string",
          "name": "object",
          "type": "string"
        }
      ],
      "name": "mintPrivacy",
      "outputs": [
        {
          "internalType": "uint256",
          "name": "",
          "type": "uint256"
        }
      ],
      "stateMutability": "nonpayable",
      "type": "function"
    },
    {
      "inputs": [
        {
          "internalType": "address",
          "name": "account",
          "type": "address"
        }
      ],
      "name": "minters",
      "outputs": [
        {
          "internalType": "bool",
          "name": "",
          "type": "bool"
        }
      ],
      "stateMutability": "view",
      "type": "function"
    },
    {
      "inputs": [],
      "name": "name",
      "outputs": [
        {
          "internalType": "string",
          "name": "",
          "type": "string"
        }
      ],
      "stateMutability": "view",
      "type": "function"
    },
    {
      "inputs": [
        {
          "internalType": "address",
          "name": "owner",
          "type": "address"
        }
      ],
      "name": "ownedPrepareToken",
      "outputs": [
        {
          "internalType": "uint256",
          "name": "",
          "type": "uint256"
        }
      ],
      "stateMutability": "view",
      "type": "function"
    },
    {
      "inputs": [],
      "name": "owner",
      "outputs": [
        {
          "internalType": "address",
          "name": "",
          "type": "address"
        }
      ],
      "stateMutability": "view",
      "type": "function"
    },
    {
      "inputs": [
        {
          "internalType": "uint256",
          "name": "tokenId",
          "type": "uint256"
        }
      ],
      "name": "ownerOf",
      "outputs": [
        {
          "internalType": "address",
          "name": "",
          "type": "address"
        }
      ],
      "stateMutability": "view",
      "type": "function"
    },
    {
      "inputs": [
        {
          "internalType": "uint256",
          "name": "pIndex",
          "type": "uint256"
        }
      ],
      "name": "predicate",
      "outputs": [
        {
          "internalType": "string",
          "name": "name_",
          "type": "string"
        },
        {
          "internalType": "enum FieldType",
          "name": "fieldType",
          "type": "uint8"
        }
      ],
      "stateMutability": "view",
      "type": "function"
    },
    {
      "inputs": [
        {
          "internalType": "string",
          "name": "predicateName_",
          "type": "string"
        }
      ],
      "name": "predicateIndex",
      "outputs": [
        {
          "internalType": "uint256",
          "name": "predicateIndex_",
          "type": "uint256"
        }
      ],
      "stateMutability": "view",
      "type": "function"
    },
    {
      "inputs": [],
      "name": "prepareToken",
      "outputs": [
        {
          "internalType": "uint256",
          "name": "",
          "type": "uint256"
        }
      ],
      "stateMutability": "nonpayable",
      "type": "function"
    },
    {
      "inputs": [
        {
          "internalType": "uint256",
          "name": "tokenId",
          "type": "uint256"
        }
      ],
      "name": "rdfOf",
      "outputs": [
        {
          "internalType": "string",
          "name": "",
          "type": "string"
        }
      ],
      "stateMutability": "view",
      "type": "function"
    },
    {
      "inputs": [
        {
          "internalType": "address",
          "name": "minter",
          "type": "address"
        }
      ],
      "name": "removeMinter",
      "outputs": [],
      "stateMutability": "nonpayable",
      "type": "function"
    },
    {
      "inputs": [],
      "name": "renounceOwnership",
      "outputs": [],
      "stateMutability": "nonpayable",
      "type": "function"
    },
    {
      "inputs": [
        {
          "internalType": "address",
          "name": "from",
          "type": "address"
        },
        {
          "internalType": "address",
          "name": "to",
          "type": "address"
        },
        {
          "internalType": "uint256",
          "name": "tokenId",
          "type": "uint256"
        }
      ],
      "name": "safeTransferFrom",
      "outputs": [],
      "stateMutability": "nonpayable",
      "type": "function"
    },
    {
      "inputs": [
        {
          "internalType": "address",
          "name": "from",
          "type": "address"
        },
        {
          "internalType": "address",
          "name": "to",
          "type": "address"
        },
        {
          "internalType": "uint256",
          "name": "tokenId",
          "type": "uint256"
        },
        {
          "internalType": "bytes",
          "name": "_data",
          "type": "bytes"
        }
      ],
      "name": "safeTransferFrom",
      "outputs": [],
      "stateMutability": "nonpayable",
      "type": "function"
    },
    {
      "inputs": [],
      "name": "schemaURI",
      "outputs": [
        {
          "internalType": "string",
          "name": "",
          "type": "string"
        }
      ],
      "stateMutability": "view",
      "type": "function"
    },
    {
      "inputs": [
        {
          "internalType": "address",
          "name": "operator",
          "type": "address"
        },
        {
          "internalType": "bool",
          "name": "approved",
          "type": "bool"
        }
      ],
      "name": "setApprovalForAll",
      "outputs": [],
      "stateMutability": "nonpayable",
      "type": "function"
    },
    {
      "inputs": [
        {
          "internalType": "string",
          "name": "newName",
          "type": "string"
        }
      ],
      "name": "setName",
      "outputs": [],
      "stateMutability": "nonpayable",
      "type": "function"
    },
    {
      "inputs": [
        {
          "internalType": "string",
          "name": "newSymbol",
          "type": "string"
        }
      ],
      "name": "setSymbol",
      "outputs": [],
      "stateMutability": "nonpayable",
      "type": "function"
    },
    {
      "inputs": [
        {
          "internalType": "bool",
          "name": "transferable_",
          "type": "bool"
        }
      ],
      "name": "setTransferable",
      "outputs": [],
      "stateMutability": "nonpayable",
      "type": "function"
    },
    {
      "inputs": [
        {
          "internalType": "string",
          "name": "newURI",
          "type": "string"
        }
      ],
      "name": "setURI",
      "outputs": [],
      "stateMutability": "nonpayable",
      "type": "function"
    },
    {
      "inputs": [
        {
          "internalType": "uint256",
          "name": "index",
          "type": "uint256"
        }
      ],
      "name": "subject",
      "outputs": [
        {
          "internalType": "string",
          "name": "subjectValue",
          "type": "string"
        },
        {
          "internalType": "string",
          "name": "className_",
          "type": "string"
        }
      ],
      "stateMutability": "view",
      "type": "function"
    },
    {
      "inputs": [
        {
          "internalType": "string",
          "name": "subjectValue",
          "type": "string"
        },
        {
          "internalType": "string",
          "name": "className_",
          "type": "string"
        }
      ],
      "name": "subjectIndex",
      "outputs": [
        {
          "internalType": "uint256",
          "name": "",
          "type": "uint256"
        }
      ],
      "stateMutability": "view",
      "type": "function"
    },
    {
      "inputs": [
        {
          "internalType": "bytes4",
          "name": "interfaceId",
          "type": "bytes4"
        }
      ],
      "name": "supportsInterface",
      "outputs": [
        {
          "internalType": "bool",
          "name": "",
          "type": "bool"
        }
      ],
      "stateMutability": "view",
      "type": "function"
    },
    {
      "inputs": [],
      "name": "symbol",
      "outputs": [
        {
          "internalType": "string",
          "name": "",
          "type": "string"
        }
      ],
      "stateMutability": "view",
      "type": "function"
    },
    {
      "inputs": [
        {
          "internalType": "uint256",
          "name": "index",
          "type": "uint256"
        }
      ],
      "name": "tokenByIndex",
      "outputs": [
        {
          "internalType": "uint256",
          "name": "",
          "type": "uint256"
        }
      ],
      "stateMutability": "view",
      "type": "function"
    },
    {
      "inputs": [
        {
          "internalType": "address",
          "name": "owner",
          "type": "address"
        },
        {
          "internalType": "uint256",
          "name": "index",
          "type": "uint256"
        }
      ],
      "name": "tokenOfOwnerByIndex",
      "outputs": [
        {
          "internalType": "uint256",
          "name": "",
          "type": "uint256"
        }
      ],
      "stateMutability": "view",
      "type": "function"
    },
    {
      "inputs": [
        {
          "internalType": "uint256",
          "name": "tokenId",
          "type": "uint256"
        }
      ],
      "name": "tokenURI",
      "outputs": [
        {
          "internalType": "string",
          "name": "",
          "type": "string"
        }
      ],
      "stateMutability": "view",
      "type": "function"
    },
    {
      "inputs": [],
      "name": "totalSupply",
      "outputs": [
        {
          "internalType": "uint256",
          "name": "",
          "type": "uint256"
        }
      ],
      "stateMutability": "view",
      "type": "function"
    },
    {
      "inputs": [
        {
          "internalType": "address",
          "name": "from",
          "type": "address"
        },
        {
          "internalType": "address",
          "name": "to",
          "type": "address"
        },
        {
          "internalType": "uint256",
          "name": "tokenId",
          "type": "uint256"
        }
      ],
      "name": "transferFrom",
      "outputs": [],
      "stateMutability": "nonpayable",
      "type": "function"
    },
    {
      "inputs": [
        {
          "internalType": "address",
          "name": "newOwner",
          "type": "address"
        }
      ],
      "name": "transferOwnership",
      "outputs": [],
      "stateMutability": "nonpayable",
      "type": "function"
    },
    {
      "inputs": [],
      "name": "transferable",
      "outputs": [
        {
          "internalType": "bool",
          "name": "",
          "type": "bool"
        }
      ],
      "stateMutability": "view",
      "type": "function"
    }
  ],
  "bytecode": "0x60808060405234620000f45760008054336001600160a01b0319821681178355620000e49390916001600160a01b0316907f8be0079c531659141344cd1fd0a4f28419497f9722a3daafe3b4186f6b6457e0908490a3620000b86200006362000160565b6200006d62000160565b6200007762000111565b9184835284602084015260408301526060820152620000b26200009962000140565b91620000a46200019d565b8352846020840152620002a4565b620004c5565b620000c262000608565b620000cc62000140565b90620000d76200019d565b8252602082015262000703565b604051615a459081620008618239f35b50600080fd5b50634e487b7160e01b600052604160045260246000fd5b60405190608082016001600160401b038111838210176200013157604052565b6200013b620000fa565b604052565b60408051919082016001600160401b038111838210176200013157604052565b6040516020810191906000906001600160401b038411818510176200018d575b8360405281815292369037565b62000197620000fa565b62000180565b60405190602082016001600160401b03811183821017620001c2575b60405260008252565b620001cc620000fa565b620001b9565b50634e487b7160e01b600052603260045260246000fd5b50634e487b7160e01b600052600060045260246000fd5b8181106200020c575050565b6000815560010162000200565b81519168010000000000000000831162000294575b815483835580841062000273575b50602080910191600052806000206000925b8484106200025d575050505050565b600183828293518555019201930192906200024e565b6200028d9083600052846020600020918201910162000200565b386200023c565b6200029e620000fa565b6200022e565b600454906801000000000000000080831015620003ca575b60019081840180600455841015620003ba575b60046000908152835160029590951b7f8a35acfbc15ff81a39ae7d344fd709f28e8600b4aa8c65c6b64bfe7fe36bd19b0180546001600160a01b0319166001600160a01b039690961695909517855560208085015184870155600286018160408701518051958611620003aa575b82548684558087106200038d575b5091845282842091015b8484106200037957505050505050906003606062000377930151910162000219565b565b805182559285019290850190820162000355565b838652828620620003a391810190880162000200565b386200034b565b620003b4620000fa565b6200033d565b620003c4620001d2565b620002cf565b620003d4620000fa565b620002bc565b600a54811015620003fb575b600a60005260206000209060011b0190600090565b62000405620001d2565b620003e6565b6011548110156200042c575b601160005260206000209060011b0190600090565b62000436620001d2565b62000417565b90600182811c9216801562000470575b60208310146200045857565b5050634e487b7160e01b600052602260045260246000fd5b91607f16916200044c565b9190601f81116200048b57505050565b62000377926000526020600020906020601f840160051c83019310620004ba575b601f0160051c019062000200565b9091508190620004ac565b600a5468010000000000000000811015620005f8575b620004ee600191828101600a55620003da565b929092620005e8575b805180519091906001600160401b038111620005d8575b62000526816200051f87546200043c565b876200047b565b806020938490601f831160011462000568576000926200055c575b5050600019600383901b1c191690841b1784555b0151910155565b01519050388062000541565b90869350601f198316916200058289600052602060002090565b9260005b88828210620005c15750508411620005a7575b505050811b01845562000555565b015160001960f88460031b161c1916905538808062000599565b8385015186558a9790950194938401930162000586565b620005e2620000fa565b6200050e565b620005f2620001e9565b620004f7565b62000602620000fa565b620004db565b6000600f54680100000000000000008110156200069f575b6001810180600f558110156200068f575b600f82527f8d1108e10bcb7c27dddfc02ed9d693a074039d026cf4ea4240b40f7d581ac80201805462000664906200043c565b601f811162000671575055565b818352602083206200068c91601f0160051c81019062000200565b55565b62000699620001d2565b62000631565b620006a9620000fa565b62000620565b60051115620006ba57565b50634e487b7160e01b600052602160045260246000fd5b906005811015620006ea5760ff80198354169116179055565b505050634e487b7160e01b600052602160045260246000fd5b906011546801000000000000000081101562000850575b6200072d6001918281016011556200040b565b91909162000840575b83518051946001600160401b03861162000830575b62000763866200075c86546200043c565b866200047b565b6020918290601f8811600114620007bb57968091620003779798600092620007af575b5050600019600383901b1c191690841b1784555b015191620007a883620006af565b01620006d1565b01519050388062000786565b90601f19881691620007d287600052602060002090565b9260005b8181106200081a5750918693918a620003779a9b941062000800575b505050811b0184556200079a565b015160001960f88460031b161c19169055388080620007f2565b82840151855593870193928601928601620007d6565b6200083a620000fa565b6200074b565b6200084a620001e9565b62000736565b6200085a620000fa565b6200071a56fe6040608081526004361015610015575b50600080fd5b600090813560e01c806301ffc9a7146107db57806302fe5305146107c357806306fdde03146107a7578063081812fc1461078b578063095ea7b314610773578063152407ae1461075757806318160ddd1461073b5780631dfc01e51461071e57806323b872dd146107065780632f745c59146106e95780633092afd5146106d257806341be3f18146106b557806342842e0e1461069d5780634862a96c146106855780634f6ccce7146106695780635036d1a81461064c57806352e89bbd1461062957806358e23bac1461060d5780636352211e146105e65780636c0360eb146105ca57806370a08231146105ae578063715018a6146105975780638da5cb5b1461056f57806392ff0d31146105445780639377268d1461052857806395d89b411461050c578063983b2d56146104f55780639cd23707146104de5780639d317c0e146104c25780639dc29fac146104aa578063a22cb46514610492578063a6c1653d14610475578063a9ff13a61461044c578063ac72200d14610430578063b2dc5dc314610418578063b75a61a3146103d7578063b84c8246146103bf578063b88d4fde146103a4578063c47f00271461038c578063c5b8f7721461036f578063c87b56dd14610353578063d49116f514610335578063d4b0c4031461030c578063deeec344146102f0578063e985e9c5146102c0578063f2fde38b146102a6578063f46eccc4146102605763fbafb69814610232575061000f565b3461025c57610258915061024d61024836610915565b6126aa565b905191829182610904565b0390f35b5080fd5b503461025c57610258915061029561027736610b87565b6001600160a01b031660009081526008602052604090205460ff1690565b905191829182901515815260200190565b503461025c576102bd6102b836610b87565b611820565b51f35b503461025c5761025891506102956102e96102e46102dd36611756565b9190611bc2565b611c44565b5460ff1690565b503461025c57610258915061024d61030736610915565b61230c565b503461025c57610258915061032861032336610915565b6124ae565b9290915192839283611717565b503461025c576102bd6103473661163f565b959490949391936118dd565b503461025c57610258915061024d61036a36610915565b612b84565b503461025c57610258915061029561038636610966565b90612a6b565b503461025c576102bd61039e3661083a565b9061505f565b503461025c576102bd6103b636611498565b92919091613170565b503461025c576102bd6103d13661083a565b90615136565b503461025c5761025891506104096103ee36610b87565b6001600160a01b031660009081526015602052604090205490565b90519081529081906020820190565b503461025c576102bd61042a36611437565b91614af0565b503461025c5761025891506104443661089c565b610409612774565b503461025c57610258915061046861046336610915565b612581565b9290915192839283611412565b503461025c57610258915061040961048c36610c67565b90612555565b503461025c576102bd6104a4366113e1565b90612f54565b503461025c576102bd6104bc36610966565b9061496a565b503461025c5761025891506104d63661089c565b61040961550c565b503461025c576102bd6104f0366113c5565b615045565b503461025c576102bd61050736610b87565b615210565b503461025c5761025891506105203661089c565b61024d611217565b503461025c57610258915061040961053f36610af4565b6123a1565b503461025c5761025891506105583661089c565b60ff60095416905191829182901515815260200190565b503461025c57610258916105823661089c565b5490519182916001600160a01b031682610927565b503461025c576105a63661089c565b6102bd611789565b503461025c5761025891506104096105c536610b87565b612973565b503461025c5761025891506105de3661089c565b61024d611190565b503461025c5761025891506106026105fd36610915565b6129ed565b905191829182610927565b503461025c5761025891506106213661089c565b61024d61129e565b503461025c57610258915061040961064036610ff3565b9594909493919361406d565b503461025c57610258915061040961066336610c67565b90613f5d565b503461025c57610258915061040961068036610915565b6128a6565b503461025c576102bd61069736610bd0565b90615466565b503461025c576102bd6106af36610b50565b916130e0565b503461025c5761025891506102956106cc36610966565b906153c5565b503461025c576102bd6106e436610b87565b61530c565b503461025c57610258915061040961070036610966565b906127d1565b503461025c576102bd61071836610b50565b9161304e565b503461025c57610258915061040961073536610b1e565b916156c5565b503461025c57610258915061074f3661089c565b610409612786565b503461025c57610258915061040961076e36610af4565b6122e8565b503461025c576102bd61078536610966565b90612dc2565b503461025c5761025891506106026107a236610915565b612ecf565b503461025c5761025891506107bb3661089c565b61024d6110f8565b503461025c576102bd6107d53661083a565b90614f6b565b5050346108095750607f196108046107fa6107f53661081f565b6121eb565b151560805260a090565b016080f35b80fd5b6001600160e01b03198116141561000f57565b602090600319011261000f576004356108378161080c565b90565b906020600319830112610895576001600160401b03916004359083821161088c578060238301121561088c57816004013593841161088c5760248483010111610884576024019190565b505050600080fd5b50505050600080fd5b5050600080fd5b600090600319011261000f57565b918091926000905b8282106108ca5750116108c3575050565b6000910152565b915080602091830151818601520182916108b2565b906020916108f8815180928185528580860191016108aa565b601f01601f1916010190565b9060206108379281815201906108df565b602090600319011261000f5760043590565b6001600160a01b03909116815260200190565b600435906001600160a01b03821682141561089557565b35906001600160a01b03821682141561089557565b604090600319011261000f576004356001600160a01b038116811415610895579060243590565b50634e487b7160e01b600052604160045260246000fd5b604081019081106001600160401b038211176109bf57604052565b6109c761098d565b604052565b608081019081106001600160401b038211176109bf57604052565b602081019081106001600160401b038211176109bf57604052565b606081019081106001600160401b038211176109bf57604052565b601f909101601f19168101906001600160401b038211908210176109bf57604052565b6040519060a082016001600160401b038111838210176109bf57604052565b60405190610a6c826109a4565b565b6020906001600160401b038111610a8b575b601f01601f19160190565b610a9361098d565b610a80565b929192610aa482610a6e565b91610ab26040519384610a1d565b829481845281830111610acf578281602093846000960137010152565b5050505050600080fd5b9080601f830112156108845781602061083793359101610a98565b602060031982011261089557600435906001600160401b0382116108845761083791600401610ad9565b6060600319820112610895576004359160243591604435906001600160401b038211610acf5761083791600401610ad9565b606090600319011261000f576001600160a01b03906004358281168114156108845791602435908116811415610884579060443590565b602090600319011261000f576004356001600160a01b0381168114156108955790565b6020906001600160401b038111610bc3575b60051b0190565b610bcb61098d565b610bbc565b6040600319820112610895576004356001600160401b038111610884578160238201121561088457806004013591610c0783610baa565b92610c156040519485610a1d565b80845260209260248486019260051b820101928311610c5c57602401905b828210610c4557505050509060243590565b838091610c5184610951565b815201910190610c33565b505050505050600080fd5b906040600319830112610895576001600160401b0360043581811161088c5783610c9391600401610ad9565b9260243591821161088c5761083791600401610ad9565b81601f8201121561088457803590610cc182610baa565b92604092610cd184519586610a1d565b808552602091828087019260061b85010193818511610d2c578301915b848310610cfe5750505050505090565b8583830312610d2c578386918251610d15816109a4565b853581528286013583820152815201920191610cee565b5050505050505050600080fd5b81601f8201121561088457803590610d5082610baa565b92604092610d6084519586610a1d565b808552602093848087019260051b85010193838511610d2c57858101925b858410610d8f575050505050505090565b6001600160401b038435818111610dfd5783019184601f198489030112610dfd578451610dbb816109a4565b89840135815285840135928311610dec57610ddd888b80969581960101610ad9565b83820152815201930192610d7e565b505050505050505050505050600080fd5b5050505050505050505050600080fd5b81601f8201121561088457803590610e2482610baa565b92604092610e3484519586610a1d565b808552602091828087019260061b85010193818511610d2c578301915b848310610e615750505050505090565b8583830312610d2c578386918251610e78816109a4565b85358152610e87838701610951565b83820152815201920191610e51565b9080601f83011215610884578135610ead81610baa565b92604091610ebd83519586610a1d565b808552602093848087019260051b84010193818511610d2c57858401925b858410610eec575050505050505090565b6001600160401b038435818111610dfd5786019160a080601f198588030112610dec57610f17610a40565b908a850135825285850135848111610fe057878c610f3792880101610caa565b8b83015260609081860135858111610fcc57888d610f5792890101610d39565b8784015260809182870135868111610fb757898e610f77928a0101610e0d565b90840152850135938411610fa557610f96878c80979681970101610caa565b90820152815201930192610edb565b50505050505050505050505050600080fd5b50505050505050505050505050505050600080fd5b505050505050505050505050505050600080fd5b5050505050505050505050505050600080fd5b9060e06003198301126108955761100861093a565b91602435916001600160401b03604435818111610c5c578361102c91600401610caa565b92606435828111611099578161104491600401610d39565b92608435838111610d2c578261105c91600401610e0d565b9260a43581811161108b578361107491600401610caa565b9260c43591821161108b5761083791600401610e96565b505050505050505050600080fd5b50505050505050600080fd5b50634e487b7160e01b600052600060045260246000fd5b90600182811c921680156110ee575b60208310146110d657565b5050634e487b7160e01b600052602260045260246000fd5b91607f16916110cb565b60405190600082600191825461110d816110bc565b808452908481169081156111735750600114611131575b50610a6c92500383610a1d565b9280915060005260209081600020936000915b81831061115b575050610a6c935082010138611124565b85548884018501529485019487945091830191611144565b94505050505060ff19166020830152610a6c826040810138611124565b60405190600082600c54916111a4836110bc565b80835260019380851690811561117357506001146111c95750610a6c92500383610a1d565b600c60009081526000805160206158c283398151915294602093509091905b8183106111ff575050610a6c935082010138611124565b855488840185015294850194879450918301916111e8565b604051906000826002549161122b836110bc565b80835260019380851690811561117357506001146112505750610a6c92500383610a1d565b600260009081526000805160206158a283398151915294602093509091905b818310611286575050610a6c935082010138611124565b8554888401850152948501948794509183019161126f565b60405190600082600d54916112b2836110bc565b80835260019380851690811561117357506001146112d75750610a6c92500383610a1d565b600d60009081526000805160206158e283398151915294602093509091905b81831061130d575050610a6c935082010138611124565b855488840185015294850194879450918301916112f6565b9060405191826000825492611339846110bc565b9081845260019485811690816000146113a65750600114611363575b5050610a6c92500383610a1d565b9093915060005260209081600020936000915b81831061138e575050610a6c93508201013880611355565b85548884018501529485019487945091830191611376565b9550505050505060ff19166020830152610a6c82604081013880611355565b602090600319011261000f576004358015158114156108955790565b604090600319011261000f576004356001600160a01b03811681141561089557906024358015158114156108845790565b9091611429610837936040845260408401906108df565b9160208184039101526108df565b6040600319820112610895576004356001600160a01b03811681141561088457916001600160401b039160243590838211610acf5780602383011215610acf578160040135938411610acf5760248460051b8301011161088c576024019190565b906080600319830112610895576001600160a01b039160043583811681141561088c579260243590811681141561088c579160443591606435906001600160401b038211610c5c5780602383011215610c5c5781602461083793600401359101610a98565b9080601f830112156108845781359061151582610baa565b926115236040519485610a1d565b828452602092838086019160051b8301019280841161109957848301915b8483106115515750505050505090565b82356001600160401b03811161108b57869161157284848094890101610ad9565b815201920191611541565b9080601f830112156108845781359161159583610baa565b9260406115a481519586610a1d565b8185526020938486019185600594851b8601019482861161108b57868101935b8685106115d657505050505050505090565b6001600160401b03908535828111610dec5783019184601f198488030112610dec57845192611604846109a4565b8a810135918211610fa55761161e878c8894840101610ad9565b845201359087821015610dec57828a939284809401528152019401936115c4565b60e06003198201126108955761165361093a565b916001600160401b039160243590838211610acf57611676816004938401610ad9565b93604435818111611099578261168d918501610ad9565b93606435828111610d2c57836116a4918601610ad9565b9360843583811161108b57846116bb918301610ad9565b9360a4358481116116e757816116d29184016114fd565b9360c4359081116116e757610837920161157d565b50505050505050505050600080fd5b6005111561170057565b50634e487b7160e01b600052602160045260246000fd5b92919061172c906040855260408501906108df565b92600582101561173c5760200152565b50505050634e487b7160e01b600052602160045260246000fd5b604090600319011261000f576001600160a01b039060043582811681141561088457916024359081168114156108845790565b6117916117c6565b600080546001600160a01b0319811682556040516001600160a01b0390911690600080516020615962833981519152908390a3565b6000546001600160a01b03163314156117db57565b50606460405162461bcd60e51b815260206004820152602060248201527f4f776e61626c653a2063616c6c6572206973206e6f7420746865206f776e65726044820152fd5b6118286117c6565b6001600160a01b0390811690811561186757600080546001600160a01b03198116841782556040519216916000805160206159628339815191529190a3565b505060405162461bcd60e51b815260206004820152602660248201527f4f776e61626c653a206e6577206f776e657220697320746865207a65726f206160448201526564647265737360d01b606482015260849150fd5b80546001600160a01b0319166001600160a01b03909216919091179055565b9492909593916000549660ff8860a81c161580988199611a07575b81156119e4575b5015611980576000805460ff60a01b1916600160a01b179055611926968861196857611a19565b61192c57565b6000805460ff60a81b19169055604051600181527f7f26b83ff96e1f2b6a682f133852f6798a09c465da95921460cefb384740249890602090a1565b6000805460ff60a81b1916600160a81b179055611a19565b505050505050505050608460405162461bcd60e51b815260206004820152602e60248201527f496e697469616c697a61626c653a20636f6e747261637420697320616c72656160448201526d191e481a5b9a5d1a585b1a5e995960921b6064820152fd5b303b159150816119f6575b50386118ff565b60a01c60ff166001149050386119ef565b9050600160ff8260a01c1610906118f8565b9593949194611a266117c6565b604051602081016020815281611a3f60408201856108df565b0391611a53601f1993848101835282610a1d565b51902090604051611a85602082019282611a798560409060208152600060208201520190565b03908101835282610a1d565b51902014611b0457611ad6611ae094611ad1611ae598611acc611adb96611ac7611aba8e611ab58e511515611b60565b611bdc565b805460ff19166001179055565b611d9f565b611e80565b611f63565b612046565b6133b4565b61352a565b60018060a01b03166000805160206159428339815191526000604051a2565b5050505050505050608460405162461bcd60e51b815260206004820152602760248201527f53656d616e7469635342543a20736368656d61205552492063616e6e6f7420626044820152666520656d70747960c81b6064820152fd5b15611b6757565b5060405162461bcd60e51b815260206004820152602c60248201527f53656d616e7469635342543a207072656469636174652073697a652063616e2060448201526b6e6f7420626520656d70747960a01b6064820152608490fd5b6001600160a01b0316600090815260076020526040902090565b6001600160a01b0316600090815260086020526040902090565b6001600160a01b0316600090815260056020526040902090565b6001600160a01b0316600090815260156020526040902090565b6001600160a01b0316600090815260166020526040902090565b9060018060a01b0316600052602052604060002090565b818110611c66575050565b60008155600101611c5b565b90601f8211611c7f575050565b610a6c91600c6000526020600020906020601f840160051c83019310611cad575b601f0160051c0190611c5b565b9091508190611ca0565b90601f8211611cc4575050565b610a6c9160016000526020600020906020601f840160051c83019310611cad57601f0160051c0190611c5b565b90601f8211611cfe575050565b610a6c9160026000526020600020906020601f840160051c83019310611cad57601f0160051c0190611c5b565b90601f8211611d38575050565b610a6c91600d6000526020600020906020601f840160051c83019310611cad57601f0160051c0190611c5b565b9190601f8111611d7457505050565b610a6c926000526020600020906020601f840160051c83019310611cad57601f0160051c0190611c5b565b80519091906001600160401b038111611e73575b600190611dc981611dc484546110bc565b611cb7565b602080601f8311600114611e04575081929394600092611df9575b5050600019600383901b1c191690821b179055565b015190503880611de4565b6001600052601f198316959091906000805160206159a2833981519152926000905b888210611e5c5750508385969710611e43575b505050811b019055565b015160001960f88460031b161c19169055388080611e39565b808785968294968601518155019501930190611e26565b611e7b61098d565b611db3565b80519091906001600160401b038111611f56575b611ea881611ea36002546110bc565b611cf1565b602080601f8311600114611ee45750819293600092611ed9575b50508160011b916000199060031b1c191617600255565b015190503880611ec2565b6002600052601f198316949091906000805160206158a2833981519152926000905b878210611f3e575050836001959610611f25575b505050811b01600255565b015160001960f88460031b161c19169055388080611f1a565b80600185968294968601518155019501930190611f06565b611f5e61098d565b611e94565b80519091906001600160401b038111612039575b611f8b81611f86600c546110bc565b611c72565b602080601f8311600114611fc75750819293600092611fbc575b50508160011b916000199060031b1c191617600c55565b015190503880611fa5565b600c600052601f198316949091906000805160206158c2833981519152926000905b878210612021575050836001959610612008575b505050811b01600c55565b015160001960f88460031b161c19169055388080611ffd565b80600185968294968601518155019501930190611fe9565b61204161098d565b611f77565b80519091906001600160401b03811161211c575b61206e81612069600d546110bc565b611d2b565b602080601f83116001146120aa575081929360009261209f575b50508160011b916000199060031b1c191617600d55565b015190503880612088565b600d600052601f198316949091906000805160206158e2833981519152926000905b8782106121045750508360019596106120eb575b505050811b01600d55565b015160001960f88460031b161c191690553880806120e0565b806001859682949686015181550195019301906120cc565b61212461098d565b61205a565b81519192916001600160401b0381116121de575b6121518161214b84546110bc565b84611d65565b602080601f831160011461218d575081929394600092612182575b50508160011b916000199060031b1c1916179055565b01519050388061216c565b90601f198316956121a385600052602060002090565b926000905b8882106121c657505083600195969710611e4357505050811b019055565b806001859682949686015181550195019301906121a8565b6121e661098d565b61213d565b63ffffffff60e01b166380ac58cd60e01b811490811561224e575b811561223d575b811561222c575b811561221e575090565b6301ffc9a760e01b14919050565b6316388eeb60e21b81149150612214565b631f75f6d360e31b8114915061220d565b635b5e139f60e01b81149150612206565b90612272602092828151948592016108aa565b0190565b602061228f9181604051938285809451938492016108aa565b8101600e81520301902090565b60206122b59181604051938285809451938492016108aa565b8101601081520301902090565b6020906122dc9282604051948386809551938492016108aa565b82019081520301902090565b6122f190612276565b5490565b50634e487b7160e01b600052603260045260246000fd5b80151580612396575b156123505761083790600f54811015612343575b600f6000526000805160206159e283398151915201611325565b61234b6122f5565b612329565b505060405162461bcd60e51b815260206004820152601c60248201527b14d95b585b9d1a58d4d0950e8818db185cdcc81b9bdd08195e1a5cdd60221b6044820152606490fd5b50600f548110612315565b6122f19061229c565b156123b157565b50606460405162461bcd60e51b815260206004820152602060248201527f53656d616e7469635342543a20707265646963617465206e6f742065786973746044820152fd5b601154811015612416575b601160005260206000209060011b0190600090565b61241e6122f5565b612401565b600a54811015612443575b600a60005260206000209060011b0190600090565b61244b6122f5565b61242e565b601354811015612470575b601360005260206000209060011b0190600090565b6124786122f5565b61245b565b9060405161248a816109a4565b60ff6001829461249981611325565b845201541690600582101561173c5760200152565b6124cc6124d291801515806124ff575b6124c7906123aa565b6123f6565b5061247d565b906020825192015160058110156124e65790565b505050634e487b7160e01b600052602160045260246000fd5b5060115481106124be565b1561251157565b5060405162461bcd60e51b815260206004820152601b60248201527a14d95b585b9d1a58d4d0950e88191bd95cc81b9bdd08195e1a5cdd602a1b6044820152606490fd5b61256161257592612276565b54600052600b6020526040600020906122c2565b5461083781151561250a565b90811515806125db575b6125949061250a565b61083760016125b46125ae6125a886612423565b50611325565b94612423565b500154600f5481101561234357600f6000526000805160206159e283398151915201611325565b50600a54821061258b565b600454811015612606575b600460005260206000209060021b0190600090565b61260e6122f5565b6125f1565b9060405191828154918282526020928383019160005283600020936000905b82821061264857505050610a6c92500383610a1d565b855484526001958601958895509381019390910190612632565b9060405161266f816109cc565b60606126a56003839560018060a01b0381541685526001810154602086015261269a60028201612613565b604086015201612613565b910152565b6126b3816131d8565b156126d2576126cd6126c7610837926125e6565b50612662565b61361a565b505060405162461bcd60e51b815260206004820152602760248201527f53656d616e7469635342543a2053656d616e74696353425420646f6573206e6f6044820152661d08195e1a5cdd60ca1b6064820152608490fd5b50634e487b7160e01b600052601160045260246000fd5b60018110612750575b6000190190565b612758612729565b612749565b818110612768570390565b612770612729565b0390565b60045460018110612750576000190190565b61278e612774565b60035490818110612768570390565b60019060001981146127ad570190565b612272612729565b60019060011981116127ad570190565b811981116127ad570190565b9060006001918293600454945b8581106128445750505050505050608460405162461bcd60e51b815260206004820152602b60248201527f455243373231456e756d657261626c653a206f776e657220696e646578206f7560448201526a74206f6620626f756e647360a81b6064820152fd5b61284d816125e6565b50546001600160a01b03838116911614612870575b61286b9061279d565b6127de565b9282811461289d578461286b916001198111612890575b01939050612862565b612898612729565b612887565b50505091505090565b60006001908192600454935b84811061291757505050505050608460405162461bcd60e51b815260206004820152602b60248201527f455243373231456e756d657261626c653a20746f6b656e20696e646578206f7560448201526a74206f6620626f756e647360a81b6064820152fd5b612920816125e6565b50546001600160a01b031661293e575b6129399061279d565b6128b2565b9181811461296b578361293991600119811161295e575b01929050612930565b612966612729565b612955565b505091505090565b6001600160a01b0316801561299357600052600560205260406000205490565b505060405162461bcd60e51b815260206004820152602a60248201527f4552433732313a2062616c616e636520717565727920666f7220746865207a65604482015269726f206164647265737360b01b6064820152608490fd5b6129f6816131d8565b15612a1257612a04906125e6565b50546001600160a01b031690565b505060405162461bcd60e51b815260206004820152602960248201527f4552433732313a206f776e657220717565727920666f72206e6f6e657869737460448201526832b73a103a37b5b2b760b91b6064820152608490fd5b90612a75906129ed565b6001600160a01b0390811691161490565b60405190612a93826109e7565b60008252565b600c5460009291612aa9826110bc565b91600190818116908115612afa5750600114612ac457505050565b9091929350600c60005260209081600020906000915b858310612ae957505050500190565b805485840152918301918101612ada565b60ff191683525050019150565b600092918154612b16816110bc565b92600191808316908115612b6f5750600114612b33575b50505050565b90919293945060005260209081600020906000915b858310612b5e5750505050019038808080612b2d565b805485840152918301918101612b48565b60ff1916845250505001915038808080612b2d565b612b8d816131d8565b15612bf457612b9d600c546110bc565b15612beb57610837612bb1612bcc92612c85565b612bdd604051938492612bc660208501612a99565b9061225f565b64173539b7b760d91b815260050190565b03601f198101835282610a1d565b50610837612a86565b505060405162461bcd60e51b815260206004820152602f60248201527f4552433732314d657461646174613a2055524920717565727920666f72206e6f60448201526e3732bc34b9ba32b73a103a37b5b2b760891b6064820152608490fd5b90612c5d82610a6e565b612c6a6040519182610a1d565b8281528092612c7b601f1991610a6e565b0190602036910137565b6000908072184f03e93ff9f4daa797ed6e38ed64bf6a1f0160401b80821015612db4575b506904ee2d6d415b85acef8160201b80831015612da5575b50662386f26fc1000080831015612d96575b506305f5e10080831015612d87575b5061271080831015612d78575b506064821015612d68575b600a80921015612d5e575b600190816021612d16828701612c53565b95860101905b612d28575b5050505090565b600019019083906f181899199a1a9b1b9c1cb0b131b232b360811b8282061a835304918215612d5957919082612d1c565b612d21565b9160010191612d05565b9190606460029104910191612cfa565b60049193920491019138612cef565b60089193920491019138612ce2565b60109193920491019138612cd3565b60209193920491019138612cc1565b604093508104915038612ca9565b90612dcc816129ed565b6001600160a01b038181169084168114612e7c573314908115612e62575b5015612df957610a6c91614d96565b505060405162461bcd60e51b815260206004820152603860248201527f4552433732313a20617070726f76652063616c6c6572206973206e6f74206f776044820152771b995c881b9bdc88185c1c1c9bdd995908199bdc88185b1b60421b606482015260849150fd5b60ff9150612e74906102e43391611bc2565b541638612dea565b5050505050608460405162461bcd60e51b815260206004820152602160248201527f4552433732313a20617070726f76616c20746f2063757272656e74206f776e656044820152603960f91b6064820152fd5b612ed8816131d8565b15612ef8576000908152600660205260409020546001600160a01b031690565b505060405162461bcd60e51b815260206004820152602c60248201527f4552433732313a20617070726f76656420717565727920666f72206e6f6e657860448201526b34b9ba32b73a103a37b5b2b760a11b6064820152608490fd5b6001600160a01b0381169190338314612fbd57612f7e903360005260076020526040600020611c44565b9015159060ff1981541660ff83161790556040519081527f17307eab39ab6107e8899845ad3d59bd9653f200f220920489ca2b5937696c3160203392a3565b50505050606460405162461bcd60e51b815260206004820152601960248201527822a9219b99189d1030b8383937bb32903a379031b0b63632b960391b6044820152fd5b1561300857565b5060405162461bcd60e51b815260206004820152601e60248201527f53656d616e7469635342543a206d757374207472616e7366657261626c6500006044820152606490fd5b90610a6c929161306260ff60095416613001565b61307461306f8433613218565b613079565b614c6b565b1561308057565b5060405162461bcd60e51b815260206004820152603160248201527f4552433732313a207472616e736665722063616c6c6572206973206e6f74206f6044820152701ddb995c881b9bdc88185c1c1c9bdd9959607a1b6064820152608490fd5b909161313e9260ff60095416926130f684613001565b6040519361312190602086016001600160401b03811187821017613163575b60405260008652613001565b61312e61306f8433613218565b613139838383614c6b565b614f30565b1561314557565b5060405162461bcd60e51b81528061315f60048201613185565b0390fd5b61316b61098d565b613115565b9061313e93929161312160ff60095416613001565b60809060208152603260208201527f4552433732313a207472616e7366657220746f206e6f6e20455243373231526560408201527131b2b4bb32b91034b6b83632b6b2b73a32b960711b60608201520190565b8015159081613205575b816131eb575090565b6131f591506125e6565b50546001600160a01b0316151590565b905061320f612774565b811115906131e2565b6001600160a01b038061322a846129ed565b169080831690828214948515613269575b505050821561324957505090565b60ff9250906132649160005260076020526040600020611c44565b541690565b6132769192939550612ecf565b16149138808061323b565b60209080511561328f570190565b6122726122f5565b60209181518110156132ac575b60051b010190565b6132b46122f5565b6132a4565b156132c057565b5060405162461bcd60e51b815260206004820152602260248201527f53656d616e7469635342543a20436c6173732063616e6e6f7420626520656d70604482015261747960f01b6064820152608490fd5b1561331857565b5060405162461bcd60e51b815260206004820152601a60248201527914d95b585b9d1a58d4d0950e88185b1c9958591e48185919195960321b6044820152606490fd5b600f54610a6c9190600160401b8110156133a7575b6001810180600f5581101561339a575b600f6000526000805160206159e283398151915201612129565b6133a26122f5565b613380565b6133af61098d565b613370565b9060005b825181101561346357806133cf61345e9285613297565b5161342860408051602061341e818301836133ea8883610904565b03936133fe601f1995868101835282610a1d565b51902093519182019282611a798560409060208152600060208201520190565b51902014156132b9565b61343b61343482612276565b5415613311565b6134448161335b565b613458613452600f54612740565b91612276565b5561279d565b6133b8565b509050565b1561346f57565b5060405162461bcd60e51b815260206004820152602660248201527f53656d616e7469635342543a205072656469636174652063616e6e6f7420626560448201526520656d70747960d01b6064820152608490fd5b602060016134e56011548260401b81101561351d575b8281016011556123f6565b613510575b6134f5845182612129565b0191015160058110156124e65760ff80198354169116179055565b6135186110a5565b6134ea565b61352561098d565b6134da565b9060005b8251811015613463578061354561359a9285613297565b5161356f8151604090815190613565602091836133ea8482019283610904565b5190201415613468565b61357c613434825161229c565b613585816134c4565b613458613593601154612740565b915161229c565b61352e565b6020610a6c9193929360405194816135c087935180928680870191016108aa565b82016135d4825180938680850191016108aa565b01038085520183610a1d565b604051906135ed826109a4565b60018252603b60f81b6020830152565b6040519061360a826109a4565b60018252601760f91b6020830152565b613623816138f7565b91600080935b604084018051805187101561380957916136bc9160206136586124cc6136528b6136c298613297565b516123f6565b018051613664816116f6565b61366d816116f6565b6136d05750906136a46136ad9161369e6136888b8651613297565b516136978c60608d0151613297565b5190613b0e565b9061359f565b915b5151612740565b8714156136c85761369e6135fd565b9461279d565b93613629565b61369e6135e0565b80516136db816116f6565b6136e4816116f6565b6001141561371f5750906137196136ad9161369e6137038b8651613297565b516137128c60608d0151613297565b5190613b49565b916136a6565b805161372a816116f6565b613733816116f6565b600214156137685750906137196136ad9161369e6137528b8651613297565b516137618c60608d0151613297565b5190613bbe565b8051613773816116f6565b61377c816116f6565b600314156137b15750906137196136ad9161369e61379b8b8651613297565b516137aa8c60608d0151613297565b5190613c2c565b516137bb816116f6565b6137c4816116f6565b6004146137d5575b6136ad906136a6565b906138016136ad9161369e6137eb8b8651613297565b516137fa8c60608d0151613297565b5190613d54565b9190506137cc565b50509350509050565b6040519061381f826109a4565b600482526314dbdd5b60e21b6020830152565b6040519061383f826109a4565b60018252601d60f91b6020830152565b6040519061385c826109a4565b60018252605f60f81b6020830152565b60405190613879826109a4565b60018252600160fd1b6020830152565b919493610a6c9360405196879385516138aa8160209889808a0191016108aa565b85016138be825180938980850191016108aa565b016138d1825180938880850191016108aa565b016138e4825180938780850191016108aa565b016135d4825180938680850191016108aa565b602081018051610837929060009080613963575050613914613812565b915b519081613951575161393191506001600160a01b0316613992565b613939613832565b9161394261384f565b9061394b61386c565b93613889565b506125a861395e91612423565b613931565b602061397f92600f54831015613985575b600f81522001611325565b91613916565b61398d6122f5565b613974565b604051906001600160a01b03166139a882610a02565b602a8252604036602084013760306139bf83613281565b5360786139cb83613a32565b536029905b600182116139e357610837915015613a6f565b80600f613a1f92166010811015613a25575b6f181899199a1a9b1b9c1cb0b131b232b360811b901a613a158486613a43565b5360041c91613a62565b906139d0565b613a2d6122f5565b6139f5565b60219080516001101561328f570190565b906020918051821015613a5557010190565b613a5d6122f5565b010190565b8015612750576000190190565b15613a7657565b50606460405162461bcd60e51b815260206004820152602060248201527f537472696e67733a20686578206c656e67746820696e73756666696369656e746044820152fd5b60405190613ac8826109a4565b6002825261381d60f11b6020830152565b610a6c919392936040519485918351613afa816020968780880191016108aa565b83016138e4825180938780850191016108aa565b90613b3a613b34613b246124cc610837956123f6565b613b2c613abb565b90519061359f565b91612c85565b90613b4361386c565b90613ad9565b90613b5c613b246124cc610837946123f6565b90601254811015613bb1575b601260005260206000200190613ba960016040518094613b97601160f91b918260208501526021840190612b07565b90815203601e19810185520183610a1d565b613b4361386c565b613bb96122f5565b613b68565b90613bd1613b246124cc610837946123f6565b613ba9613bdc613832565b613be4613812565b613bfe613bef61384f565b956001600160a01b0316613992565b6040519586928451613c18816020978880890191016108aa565b84016138d1825180938880850191016108aa565b90613c3c6124cc610837936123f6565b90613ba96001613c4b83612423565b500154600f54811015613cef575b600f600052613ce1613c7d613c746020938460002001611325565b95613b2c613abb565b93613c86613832565b92613c98613c9261384f565b92612423565b50916040519785613cb28a9751809286808b0191016108aa565b8601613cc6825180938680850191016108aa565b01613cd9825180938580850191016108aa565b010190612b07565b03601f198101845283610a1d565b613cf76122f5565b613c59565b60405190613d09826109a4565b6002825261203b60f01b6020830152565b60405190613d27826109a4565b60018252605b60f81b6020830152565b60405190613d44826109a4565b60018252605d60f81b6020830152565b90613d67613b246124cc613d90946123f6565b90613d83613d7d613d7783612450565b50612613565b91612450565b5060019384809201612613565b91613d99612a86565b926000925b613dc4575b5050506108379250613db361386c565b613dbb613d1a565b9061394b613d37565b9091928251841015613f0c5785906020613de46124cc6136528888613297565b018051613df0816116f6565b613df9816116f6565b613e565750613e1a9061369e613e0f8787613297565b516136978887613297565b935b613e268451612740565b8110613e3e575b613e369061279d565b929190613d9e565b93613e4e613e369161369e613cfc565b949050613e2d565b8051613e61816116f6565b613e6a816116f6565b831415613e945750613e8e9061369e613e838787613297565b516137128887613297565b93613e1c565b8051613e9f816116f6565b613ea8816116f6565b60021415613ecd5750613e8e9061369e613ec28787613297565b516137618887613297565b94909451613eda816116f6565b613ee3816116f6565b600314613eef57613e1c565b93613e8e9061369e613f018787613297565b516137aa8887613297565b92613da3565b15613f1957565b5060405162461bcd60e51b815260206004820152601b60248201527a29b2b6b0b73a34b1a9a12a1d1036bab9ba1031329036b4b73a32b960291b6044820152606490fd5b6001604092613f846000913383526008602052613f7f60ff8785205416613f12565b612276565b5490613f91821515614025565b818152600b602052613fa8613434868320866122c2565b613fc0600a54958284889452600b60205220856122c2565b5560405192613fce846109a4565b8352602083019081528160401b841015614018575b818401600a55614004613ff585612423565b94909461400b575b5184612129565b5191015590565b6140136110a5565b613ffd565b61402061098d565b613fe3565b1561402c57565b5060405162461bcd60e51b815260206004820152601860248201527729b2b6b0b73a34b1a9a12a1d103830b930b69032b93937b960411b6044820152606490fd5b9492909695939133600052600860205261408e60ff60406000205416613f12565b6001600160a01b0386169788156141e6576140ac600a548210614025565b6140b4614755565b6140bc614755565b916040519a6140ca8c6109cc565b8b5260208b015260408a015260608901526004546140fb90600160401b8110156141d9575b600181016004556125e6565b9890986141cc575b8051614118906001600160a01b03168a6118be565b60208181015160018b0155604082015180519160028c0191600160401b84116141bf575b82548484558085106141a2575b50019060005260206000206000915b83831061418c57505050506108379697986003606061417a930151910161476f565b614185600454612740565b96876142ae565b6001602082829351855501920192019190614158565b6141b9908460005285846000209182019101611c5b565b38614149565b6141c761098d565b61413c565b6141d46110a5565b614103565b6141e161098d565b6140ef565b505050505050505050608460405162461bcd60e51b815260206004820152602560248201527f53656d616e7469635342543a206d696e7420746f20746865207a65726f206164604482015264647265737360d81b6064820152fd5b1561424857565b5060405162461bcd60e51b815260206004820152603760248201527f53656d616e7469635342543a207472616e7366657220746f206e6f6e204552436044820152761b9918a932b1b2b4bb32b91034b6b83632b6b2b73a32b960491b6064820152608490fd5b91946142f36142fa9297956142ec6142e59a9660026142cc886125e6565b50019b8c9a60036142dc8a6125e6565b5001809c6144ab565b898c61457b565b878a61460d565b85886146a0565b60005b83518110156143c157806143b76143176143bc9387613297565b516143268151601154116123aa565b6143b1601354916143aa614338614755565b61435b614343614755565b9161434c610a5f565b908152602092838201526147eb565b61436485612450565b5090614381600161437488612450565b50019185015182846144ab565b6143906040850151828461457b565b61439f6060850151828461460d565b6080840151916146a0565b518b614466565b87614466565b61279d565b6142fd565b50939250936143d39150541515614025565b6143dc81611bf6565b6143e681546127b5565b90556144026143fd6143f6612a86565b8484614e7b565b614241565b60018060a01b03168181600060008051602061598283398151915281604051a46144316126cd6126c7846125e6565b7f6ca139c4cce2c6dfdd350d203c7ac907df3bdc839acb0c9f1d59d01950aaaead60405180614461339482610904565b0390a4565b805490600160401b82101561449e575b60018201808255821015614491575b60005260206000200155565b6144996122f5565b614485565b6144a661098d565b614476565b929190600091825b8151811015614573576144c68183613297565b519060ff60016144e28451801515806124ff576124c7906123aa565b50015416600581101561455757614514576143b760208361450761450f95518b614466565b015185614466565b6144b3565b50505050505050608460405162461bcd60e51b815260206004820152602160248201526000805160206159228339815191526044820152603960f91b6064820152fd5b5050634e487b7160e01b84525050602160045250602492509050fd5b505050509050565b60009392845b815181101561457357806143b761459b6145ee9385613297565b516145a681516148b4565b6145e86012916145e1835493848d6020908186015193600160401b841015614600575b600184018082558410156145f3575b81522001612129565b5187614466565b86614466565b614581565b6145fb6122f5565b6145d8565b61460861098d565b6145c9565b90929192600093845b8151811015614573576146298183613297565b519060ff60016146458451801515806124ff576124c7906123aa565b5001541660058110156146845760021415614514576143b78261466c61467f945188614466565b602001516001600160a01b031685614466565b614616565b5050634e487b7160e01b86525050602160045250602492915050fd5b90929160005b815181101561474e576146b98183613297565b516146c4815161493a565b6020908181019182518015159081614742575b50156146f657506146f192916145e16143b7925187614466565b6146a6565b95505050505050606491506040519062461bcd60e51b82526004820152601e60248201527f53656d616e7469635342543a207375626a656374206e6f7420657869737400006044820152fd5b9050600a5411386146d7565b5050509050565b60405190614762826109e7565b6000808352366020840137565b815191600160401b83116147de575b81548383558084106147c0575b50602080910191600052806000206000925b8484106147ab575050505050565b6001838282935185550192019301929061479d565b6147d890836000528460206000209182019101611c5b565b3861478b565b6147e661098d565b61477e565b90601354600160401b90818110156148a7575b61480f600191828101601355612450565b92909261489a575b845190815190811161488d575b835481855580821061486f575b50602080920184600052826000206000915b83831061485c5750505050610a6c93940151910161476f565b8051825591850191908501908401614843565b61488790856000528260206000209182019101611c5b565b38614831565b61489561098d565b614824565b6148a26110a5565b614817565b6148af61098d565b6147fe565b60016148cd60ff92801515806124ff576124c7906123aa565b50015416600581101561492257600114156148e457565b5060405162461bcd60e51b815260206004820152602160248201526000805160206159228339815191526044820152603960f91b6064820152608490fd5b5050634e487b7160e01b600052602160045260246000fd5b600161495360ff92801515806124ff576124c7906123aa565b50015416600581101561492257600314156148e457565b33600052600860205261498460ff60406000205416613f12565b6149966149918333613218565b614a48565b61499f826129ed565b6001600160a01b0380831692916149b891168314614aaa565b6149e76149ca6126cd6126c7866125e6565b916149d485614d52565b6149df60035461279d565b600355611bf6565b6149f18154612740565b90556149fc836125e6565b5080546001600160a01b031916905560405160008051602061590283398151915290846000856000805160206159828339815191528285a46020815280614461339460208301906108df565b15614a4f57565b5060405162461bcd60e51b815260206004820152602c60248201527f53656d616e7469635342543a2063616c6c6572206973206e6f7420617070726f60448201526b3b32b21037b91037bbb732b960a11b6064820152608490fd5b15614ab157565b5060405162461bcd60e51b815260206004820152601660248201527529b2b6b0b73a34b1a9a12a1d103737ba1037bbb732b960511b6044820152606490fd5b90916000913383526008602052604091614b0f60ff8486205416613f12565b614b23614b1e826003546127c5565b600355565b614b2c82611bf6565b614b3782825461275d565b9055835b818110614b4a57505050505050565b80614b59614bf5928489614bfa565b35614b676149918233613218565b614b79614b748287612a6b565b614aaa565b614b886126cd6126c7836125e6565b614b9182614d52565b614bae614b9d836125e6565b5080546001600160a01b0319169055565b86516001600160a01b038716919060008051602061590283398151915290848b856000805160206159828339815191528285a480614bed339482610904565b0390a461279d565b614b3b565b9190811015614c0a5760051b0190565b610bcb6122f5565b15614c1957565b5060405162461bcd60e51b8152602060048201526024808201527f4552433732313a207472616e7366657220746f20746865207a65726f206164646044820152637265737360e01b6064820152608490fd5b90614c75836129ed565b6001600160a01b038381169290918216831415614cf657614caf614cc092821694614ca1861515614c12565b614caa87614d52565b611bf6565b614cb98154612740565b9055611bf6565b614cca81546127b5565b9055614cdf82614cd9856125e6565b506118be565b6000805160206159828339815191526000604051a4565b505050505050608460405162461bcd60e51b815260206004820152602960248201527f4552433732313a207472616e73666572206f6620746f6b656e2074686174206960448201526839903737ba1037bbb760b91b6064820152fd5b600081815260066020526040812080546001600160a01b03191690556001600160a01b03614d7f836129ed565b166000805160206159c283398151915282604051a4565b816000526006602052614dad8160406000206118be565b6001600160a01b0380614dbf846129ed565b169116906000805160206159c28339815191526000604051a4565b9081602091031261089557516108378161080c565b610837939260809260018060a01b0316825260006020830152604082015281606082015201906108df565b6001600160a01b039182168152911660208201526040810191909152608060608201819052610837929101906108df565b3d15614e76573d90614e5c82610a6e565b91614e6a6040519384610a1d565b82523d6000602084013e565b606090565b919091803b614e8c57505050600190565b614eb4602091600093604051948580948193630a85bd0160e11b998a84523360048501614def565b03926001600160a01b03165af160009181614f10575b50614f0257505050614eda614e4b565b80519081614efd57505060405162461bcd60e51b81528061315f60048201613185565b602001fd5b6001600160e01b0319161490565b614f29919250614f203d82610a1d565b3d810190614dda565b9038614eca565b92919091823b614f435750505050600190565b614eb4926020926000604051809681958294630a85bd0160e11b9a8b85523360048601614e1a565b9190614f756117c6565b6001600160401b038111615038575b614f9381611f86600c546110bc565b6000601f8211600114614fcc57819293600092614fc15750508160011b916000199060031b1c191617600c55565b013590503880611fa5565b600c600052601f198216936000805160206158c283398151915291805b868110615020575083600195961061500657505050811b01600c55565b0135600019600384901b60f8161c19169055388080611ffd565b90926020600181928686013581550194019101614fe9565b61504061098d565b614f84565b61504d6117c6565b60ff8019600954169115151617600955565b91906150696117c6565b6001600160401b038111615129575b60019061508981611dc484546110bc565b6000601f82116001146150c157819293946000926150b6575050600019600383901b1c191690821b179055565b013590503880611de4565b6001600052601f198216946000805160206159a283398151915291805b878110615113575083859697106150f957505050811b019055565b0135600019600384901b60f8161c19169055388080611e39565b82820135845592850192602091820191016150de565b61513161098d565b615078565b91906151406117c6565b6001600160401b038111615203575b61515e81611ea36002546110bc565b6000601f82116001146151975781929360009261518c5750508160011b916000199060031b1c191617600255565b013590503880611ec2565b6002600052601f198216936000805160206158a283398151915291805b8681106151eb57508360019596106151d157505050811b01600255565b0135600019600384901b60f8161c19169055388080611f1a565b909260206001819286860135815501940191016151b4565b61520b61098d565b61514f565b6152186117c6565b6001600160a01b0381169081156152af5760ff61523482611bdc565b541661525d57611aba61524691611bdc565b6000805160206159428339815191526000604051a2565b505060405162461bcd60e51b815260206004820152602160248201527f53656d616e7469635342543a206d696e74657220616c726561647920616464656044820152601960fa1b606482015260849150fd5b505060405162461bcd60e51b815260206004820152602c60248201527f53656d616e7469635342543a206d696e746572206d757374206e6f742062652060448201526b6e756c6c206164647265737360a01b606482015260849150fd5b6153146117c6565b6001600160a01b03811660008181526008602052604090205490919060ff16156153725761534190611bdc565b60ff1981541690557f7df677640dd30a79584f8ecea06aeea15d215b861c5d3b5f8c26962d691f820e6000604051a2565b505060405162461bcd60e51b815260206004820152602260248201527f53656d616e7469635342543a206d696e74657220646f6573206e6f74206578696044820152611cdd60f21b606482015260849150fd5b906153cf816129ed565b6001600160a01b03928316921682149182156153ea57505090565b909150600052601460205260406000209060005260205260ff6040600020541690565b1561541457565b5060405162461bcd60e51b8152602060048201526024808201527f53656d616e746963534254507269766163793a5065726d697373696f6e2064656044820152631b9a595960e21b6064820152608490fd5b91906001600160a01b03615485338261547e856129ed565b161461540d565b60005b845181101561474e5780826154a06154cf9388613297565b5116600052601460208181526040908160002087600052815260ff826000205416156154d4575b50505061279d565b615488565b61550492866154e3868c613297565b5116600052815281600020908760005252600020600160ff19825416179055565b3880806154c7565b600033815260209060158252604081205461564e57615529614755565b615531614755565b6040519161553e836109cc565b338352848301848152604084019182526060840192835260045491600160401b9182841015615641575b61559461557c6001958681016004556125e6565b979097615634575b516001600160a01b0316876118be565b5183860155866002860191518051938411615627575b825484845580851061560d575b500190865286862086915b8383106155fa575050505050916155e360409260036015969551910161476f565b6155ee600454612740565b93849333835252205590565b80518255918401919084019088016155c2565b838952828920615621918101908601611c5b565b386155b7565b61562f61098d565b6155aa565b61563c6110a5565b615584565b61564961098d565b615568565b50608491506040519062461bcd60e51b82526004820152602360248201527f53656d616e746963534254507269766163793a416c72656164792070726570616044820152621c995960ea1b6064820152fd5b604051906156ad826109a4565b60098252685b507269766163795d60b81b6020830152565b91906156d0816148b4565b8215615789576156ea836156e333611c10565b541461540d565b6156fc6156f633611c2a565b836122c2565b54615741578161572261573d9261571b86956157166156a0565b61359f565b90856157f2565b600061572d33611c10565b5561573733611c2a565b906122c2565b5590565b50505050606460405162461bcd60e51b815260206004820152601f60248201527f53656d616e746963534254507269766163793a416c7265616479206d696e74006044820152fd5b50505050608460405162461bcd60e51b815260206004820152602560248201527f53656d616e746963534254507269766163793a546f6b656e206964206e6f7420604482015264195e1a5cdd60da1b6064820152fd5b6040516157eb816109e7565b6000815290565b9091604093845190615803826109a4565b60018252600093845b60208082101561583957885160209291615825826109a4565b88825260608183015282870101520161580c565b5050939190959294610a6c95845191615851836109a4565b8252602082015261586182613281565b5261586b81613281565b50825192615878846109e7565b8284525191615886836109e7565b82526158906157df565b926158996157df565b9433906142ae56fe405787fa12a823e0f2b7631cc41b3ba8828b3321ca811111fa75cd3aa3bb5acedf6966c971051c3d54ec59162606531493a51404a002842f56009d7e5cf4a8c7d7b6990105719101dabeb77144f2a3385c8033acd3af97e9423a695e81ad1eb58ea074c4be03960be214c047b695cecdc52be7382eee092c135d1726fabfc44453656d616e7469635342543a207072656469636174652074797065206572726f3a159411d00fa06a3ec11d4578931f1b7f877cceadb1e083929d74ec020cb2438be0079c531659141344cd1fd0a4f28419497f9722a3daafe3b4186f6b6457e0ddf252ad1be2c89b69c2b068fc378daa952ba7f163c4a11628f55a4df523b3efb10e2d527612073b26eecdfd717e6a320cf44b4afac2b0732d9fcbe2b7fa0cf68c5be1e5ebec7d5bd14f71427d1e84f3dd0314c0f7b2291e5b200ac8c7c3b9258d1108e10bcb7c27dddfc02ed9d693a074039d026cf4ea4240b40f7d581ac802a3646970667358221220937277794a610b28e821ba7388ca3533bb6023548968cfd057595f365348fb606c6578706572696d656e74616cf564736f6c634300080c0041",
  "linkReferences": {},
  "deployedLinkReferences": {}
}