{
  "_format": "hh-sol-artifact-1",
  "contractName": "SemanticSBTPrivacy",
  "sourceName": "contracts/core/SemanticSBTPrivacy.sol",
  "abi": [
    {
      "anonymous": false,
      "inputs": [
        {
          "indexed": true,
          "internalType": "address",
          "name": "owner",
          "type": "address"
        },
        {
          "indexed": true,
          "internalType": "address",
          "name": "approved",
          "type": "address"
        },
        {
          "indexed": true,
          "internalType": "uint256",
          "name": "tokenId",
          "type": "uint256"
        }
      ],
      "name": "Approval",
      "type": "event"
    },
    {
      "anonymous": false,
      "inputs": [
        {
          "indexed": true,
          "internalType": "address",
          "name": "owner",
          "type": "address"
        },
        {
          "indexed": true,
          "internalType": "address",
          "name": "operator",
          "type": "address"
        },
        {
          "indexed": false,
          "internalType": "bool",
          "name": "approved",
          "type": "bool"
        }
      ],
      "name": "ApprovalForAll",
      "type": "event"
    },
    {
      "anonymous": false,
      "inputs": [
        {
          "indexed": true,
          "internalType": "address",
          "name": "operator",
          "type": "address"
        },
        {
          "indexed": true,
          "internalType": "address",
          "name": "owner",
          "type": "address"
        },
        {
          "indexed": true,
          "internalType": "uint256",
          "name": "tokenId",
          "type": "uint256"
        },
        {
          "indexed": false,
          "internalType": "string",
          "name": "rdf",
          "type": "string"
        }
      ],
      "name": "CreateSBT",
      "type": "event"
    },
    {
      "anonymous": false,
      "inputs": [
        {
          "indexed": true,
          "internalType": "address",
          "name": "newMinter",
          "type": "address"
        }
      ],
      "name": "EventMinterAdded",
      "type": "event"
    },
    {
      "anonymous": false,
      "inputs": [
        {
          "indexed": true,
          "internalType": "address",
          "name": "oldMinter",
          "type": "address"
        }
      ],
      "name": "EventMinterRemoved",
      "type": "event"
    },
    {
      "anonymous": false,
      "inputs": [
        {
          "indexed": false,
          "internalType": "uint8",
          "name": "version",
          "type": "uint8"
        }
      ],
      "name": "Initialized",
      "type": "event"
    },
    {
      "anonymous": false,
      "inputs": [
        {
          "indexed": true,
          "internalType": "address",
          "name": "previousOwner",
          "type": "address"
        },
        {
          "indexed": true,
          "internalType": "address",
          "name": "newOwner",
          "type": "address"
        }
      ],
      "name": "OwnershipTransferred",
      "type": "event"
    },
    {
      "anonymous": false,
      "inputs": [
        {
          "indexed": true,
          "internalType": "address",
          "name": "operator",
          "type": "address"
        },
        {
          "indexed": true,
          "internalType": "address",
          "name": "owner",
          "type": "address"
        },
        {
          "indexed": true,
          "internalType": "uint256",
          "name": "tokenId",
          "type": "uint256"
        },
        {
          "indexed": false,
          "internalType": "string",
          "name": "rdf",
          "type": "string"
        }
      ],
      "name": "RemoveSBT",
      "type": "event"
    },
    {
      "anonymous": false,
      "inputs": [
        {
          "indexed": true,
          "internalType": "address",
          "name": "from",
          "type": "address"
        },
        {
          "indexed": true,
          "internalType": "address",
          "name": "to",
          "type": "address"
        },
        {
          "indexed": true,
          "internalType": "uint256",
          "name": "tokenId",
          "type": "uint256"
        }
      ],
      "name": "Transfer",
      "type": "event"
    },
    {
      "inputs": [
        {
          "internalType": "address",
          "name": "minter",
          "type": "address"
        }
      ],
      "name": "addMinter",
      "outputs": [],
      "stateMutability": "nonpayable",
      "type": "function"
    },
    {
      "inputs": [
        {
          "internalType": "string",
          "name": "value",
          "type": "string"
        },
        {
          "internalType": "string",
          "name": "className_",
          "type": "string"
        }
      ],
      "name": "addSubject",
      "outputs": [
        {
          "internalType": "uint256",
          "name": "sIndex",
          "type": "uint256"
        }
      ],
      "stateMutability": "nonpayable",
      "type": "function"
    },
    {
      "inputs": [
        {
          "internalType": "address",
          "name": "viewer",
          "type": "address"
        },
        {
          "internalType": "uint256",
          "name": "tokenId",
          "type": "uint256"
        }
      ],
      "name": "addViewer",
      "outputs": [],
      "stateMutability": "nonpayable",
      "type": "function"
    },
    {
      "inputs": [
        {
          "internalType": "address",
          "name": "to",
          "type": "address"
        },
        {
          "internalType": "uint256",
          "name": "tokenId",
          "type": "uint256"
        }
      ],
      "name": "approve",
      "outputs": [],
      "stateMutability": "nonpayable",
      "type": "function"
    },
    {
      "inputs": [
        {
          "internalType": "address",
          "name": "owner",
          "type": "address"
        }
      ],
      "name": "balanceOf",
      "outputs": [
        {
          "internalType": "uint256",
          "name": "",
          "type": "uint256"
        }
      ],
      "stateMutability": "view",
      "type": "function"
    },
    {
      "inputs": [],
      "name": "baseURI",
      "outputs": [
        {
          "internalType": "string",
          "name": "",
          "type": "string"
        }
      ],
      "stateMutability": "view",
      "type": "function"
    },
    {
      "inputs": [
        {
          "internalType": "address",
          "name": "account",
          "type": "address"
        },
        {
          "internalType": "uint256",
          "name": "id",
          "type": "uint256"
        }
      ],
      "name": "burn",
      "outputs": [],
      "stateMutability": "nonpayable",
      "type": "function"
    },
    {
      "inputs": [
        {
          "internalType": "address",
          "name": "account",
          "type": "address"
        },
        {
          "internalType": "uint256[]",
          "name": "ids",
          "type": "uint256[]"
        }
      ],
      "name": "burnBatch",
      "outputs": [],
      "stateMutability": "nonpayable",
      "type": "function"
    },
    {
      "inputs": [
        {
          "internalType": "string",
          "name": "className_",
          "type": "string"
        }
      ],
      "name": "classIndex",
      "outputs": [
        {
          "internalType": "uint256",
          "name": "classIndex_",
          "type": "uint256"
        }
      ],
      "stateMutability": "view",
      "type": "function"
    },
    {
      "inputs": [
        {
          "internalType": "uint256",
          "name": "cIndex",
          "type": "uint256"
        }
      ],
      "name": "className",
      "outputs": [
        {
          "internalType": "string",
          "name": "name_",
          "type": "string"
        }
      ],
      "stateMutability": "view",
      "type": "function"
    },
    {
      "inputs": [
        {
          "internalType": "uint256",
          "name": "tokenId",
          "type": "uint256"
        }
      ],
      "name": "getApproved",
      "outputs": [
        {
          "internalType": "address",
          "name": "",
          "type": "address"
        }
      ],
      "stateMutability": "view",
      "type": "function"
    },
    {
      "inputs": [],
      "name": "getMinted",
      "outputs": [
        {
          "internalType": "uint256",
          "name": "",
          "type": "uint256"
        }
      ],
      "stateMutability": "view",
      "type": "function"
    },
    {
      "inputs": [
        {
          "internalType": "address",
          "name": "minter",
          "type": "address"
        },
        {
          "internalType": "string",
          "name": "name_",
          "type": "string"
        },
        {
          "internalType": "string",
          "name": "symbol_",
          "type": "string"
        },
        {
          "internalType": "string",
          "name": "baseURI_",
          "type": "string"
        },
        {
          "internalType": "string",
          "name": "schemaURI_",
          "type": "string"
        },
        {
          "internalType": "string[]",
          "name": "classes_",
          "type": "string[]"
        },
        {
          "components": [
            {
              "internalType": "string",
              "name": "name",
              "type": "string"
            },
            {
              "internalType": "enum FieldType",
              "name": "fieldType",
              "type": "uint8"
            }
          ],
          "internalType": "struct Predicate[]",
          "name": "predicates_",
          "type": "tuple[]"
        }
      ],
      "name": "initialize",
      "outputs": [],
      "stateMutability": "nonpayable",
      "type": "function"
    },
    {
      "inputs": [
        {
          "internalType": "address",
          "name": "owner",
          "type": "address"
        },
        {
          "internalType": "address",
          "name": "operator",
          "type": "address"
        }
      ],
      "name": "isApprovedForAll",
      "outputs": [
        {
          "internalType": "bool",
          "name": "",
          "type": "bool"
        }
      ],
      "stateMutability": "view",
      "type": "function"
    },
    {
      "inputs": [
        {
          "internalType": "address",
          "name": "account",
          "type": "address"
        },
        {
          "internalType": "uint256",
          "name": "id",
          "type": "uint256"
        }
      ],
      "name": "isOwnerOf",
      "outputs": [
        {
          "internalType": "bool",
          "name": "",
          "type": "bool"
        }
      ],
      "stateMutability": "view",
      "type": "function"
    },
    {
      "inputs": [
        {
          "internalType": "address",
          "name": "viewer",
          "type": "address"
        },
        {
          "internalType": "uint256",
          "name": "tokenId",
          "type": "uint256"
        }
      ],
      "name": "isViewerOf",
      "outputs": [
        {
          "internalType": "bool",
          "name": "",
          "type": "bool"
        }
      ],
      "stateMutability": "view",
      "type": "function"
    },
    {
      "inputs": [
        {
          "internalType": "address",
          "name": "account",
          "type": "address"
        },
        {
          "internalType": "uint256",
          "name": "sIndex",
          "type": "uint256"
        },
        {
          "components": [
            {
              "internalType": "uint256",
              "name": "pIndex",
              "type": "uint256"
            },
            {
              "internalType": "uint256",
              "name": "o",
              "type": "uint256"
            }
          ],
          "internalType": "struct IntPO[]",
          "name": "intPOList",
          "type": "tuple[]"
        },
        {
          "components": [
            {
              "internalType": "uint256",
              "name": "pIndex",
              "type": "uint256"
            },
            {
              "internalType": "string",
              "name": "o",
              "type": "string"
            }
          ],
          "internalType": "struct StringPO[]",
          "name": "stringPOList",
          "type": "tuple[]"
        },
        {
          "components": [
            {
              "internalType": "uint256",
              "name": "pIndex",
              "type": "uint256"
            },
            {
              "internalType": "address",
              "name": "o",
              "type": "address"
            }
          ],
          "internalType": "struct AddressPO[]",
          "name": "addressPOList",
          "type": "tuple[]"
        },
        {
          "components": [
            {
              "internalType": "uint256",
              "name": "pIndex",
              "type": "uint256"
            },
            {
              "internalType": "uint256",
              "name": "oIndex",
              "type": "uint256"
            }
          ],
          "internalType": "struct SubjectPO[]",
          "name": "subjectPOList",
          "type": "tuple[]"
        },
        {
          "components": [
            {
              "internalType": "uint256",
              "name": "pIndex",
              "type": "uint256"
            },
            {
              "components": [
                {
                  "internalType": "uint256",
                  "name": "pIndex",
                  "type": "uint256"
                },
                {
                  "internalType": "uint256",
                  "name": "o",
                  "type": "uint256"
                }
              ],
              "internalType": "struct IntPO[]",
              "name": "intO",
              "type": "tuple[]"
            },
            {
              "components": [
                {
                  "internalType": "uint256",
                  "name": "pIndex",
                  "type": "uint256"
                },
                {
                  "internalType": "string",
                  "name": "o",
                  "type": "string"
                }
              ],
              "internalType": "struct StringPO[]",
              "name": "stringO",
              "type": "tuple[]"
            },
            {
              "components": [
                {
                  "internalType": "uint256",
                  "name": "pIndex",
                  "type": "uint256"
                },
                {
                  "internalType": "address",
                  "name": "o",
                  "type": "address"
                }
              ],
              "internalType": "struct AddressPO[]",
              "name": "addressO",
              "type": "tuple[]"
            },
            {
              "components": [
                {
                  "internalType": "uint256",
                  "name": "pIndex",
                  "type": "uint256"
                },
                {
                  "internalType": "uint256",
                  "name": "oIndex",
                  "type": "uint256"
                }
              ],
              "internalType": "struct SubjectPO[]",
              "name": "subjectO",
              "type": "tuple[]"
            }
          ],
          "internalType": "struct BlankNodePO[]",
          "name": "blankNodePOList",
          "type": "tuple[]"
        }
      ],
      "name": "mint",
      "outputs": [
        {
          "internalType": "uint256",
          "name": "",
          "type": "uint256"
        }
      ],
      "stateMutability": "nonpayable",
      "type": "function"
    },
    {
      "inputs": [
        {
          "internalType": "uint256",
          "name": "tokenId",
          "type": "uint256"
        },
        {
          "internalType": "uint256",
          "name": "pIndex",
          "type": "uint256"
        },
        {
          "internalType": "string",
          "name": "object",
          "type": "string"
        }
      ],
      "name": "mintPrivacy",
      "outputs": [
        {
          "internalType": "uint256",
          "name": "",
          "type": "uint256"
        }
      ],
      "stateMutability": "nonpayable",
      "type": "function"
    },
    {
      "inputs": [
        {
          "internalType": "address",
          "name": "account",
          "type": "address"
        }
      ],
      "name": "minters",
      "outputs": [
        {
          "internalType": "bool",
          "name": "",
          "type": "bool"
        }
      ],
      "stateMutability": "view",
      "type": "function"
    },
    {
      "inputs": [],
      "name": "name",
      "outputs": [
        {
          "internalType": "string",
          "name": "",
          "type": "string"
        }
      ],
      "stateMutability": "view",
      "type": "function"
    },
    {
      "inputs": [
        {
          "internalType": "address",
          "name": "owner",
          "type": "address"
        }
      ],
      "name": "ownedPrepareTokenId",
      "outputs": [
        {
          "internalType": "uint256",
          "name": "",
          "type": "uint256"
        }
      ],
      "stateMutability": "view",
      "type": "function"
    },
    {
      "inputs": [],
      "name": "owner",
      "outputs": [
        {
          "internalType": "address",
          "name": "",
          "type": "address"
        }
      ],
      "stateMutability": "view",
      "type": "function"
    },
    {
      "inputs": [
        {
          "internalType": "uint256",
          "name": "tokenId",
          "type": "uint256"
        }
      ],
      "name": "ownerOf",
      "outputs": [
        {
          "internalType": "address",
          "name": "",
          "type": "address"
        }
      ],
      "stateMutability": "view",
      "type": "function"
    },
    {
      "inputs": [
        {
          "internalType": "uint256",
          "name": "pIndex",
          "type": "uint256"
        }
      ],
      "name": "predicate",
      "outputs": [
        {
          "internalType": "string",
          "name": "name_",
          "type": "string"
        },
        {
          "internalType": "enum FieldType",
          "name": "fieldType",
          "type": "uint8"
        }
      ],
      "stateMutability": "view",
      "type": "function"
    },
    {
      "inputs": [
        {
          "internalType": "string",
          "name": "predicateName_",
          "type": "string"
        }
      ],
      "name": "predicateIndex",
      "outputs": [
        {
          "internalType": "uint256",
          "name": "predicateIndex_",
          "type": "uint256"
        }
      ],
      "stateMutability": "view",
      "type": "function"
    },
    {
      "inputs": [],
      "name": "prepareTokenId",
      "outputs": [
        {
          "internalType": "uint256",
          "name": "",
          "type": "uint256"
        }
      ],
      "stateMutability": "nonpayable",
      "type": "function"
    },
    {
      "inputs": [
        {
          "internalType": "uint256",
          "name": "tokenId",
          "type": "uint256"
        }
      ],
      "name": "rdfOf",
      "outputs": [
        {
          "internalType": "string",
          "name": "",
          "type": "string"
        }
      ],
      "stateMutability": "view",
      "type": "function"
    },
    {
      "inputs": [
        {
          "internalType": "address",
          "name": "minter",
          "type": "address"
        }
      ],
      "name": "removeMinter",
      "outputs": [],
      "stateMutability": "nonpayable",
      "type": "function"
    },
    {
      "inputs": [],
      "name": "renounceOwnership",
      "outputs": [],
      "stateMutability": "nonpayable",
      "type": "function"
    },
    {
      "inputs": [
        {
          "internalType": "address",
          "name": "from",
          "type": "address"
        },
        {
          "internalType": "address",
          "name": "to",
          "type": "address"
        },
        {
          "internalType": "uint256",
          "name": "tokenId",
          "type": "uint256"
        }
      ],
      "name": "safeTransferFrom",
      "outputs": [],
      "stateMutability": "nonpayable",
      "type": "function"
    },
    {
      "inputs": [
        {
          "internalType": "address",
          "name": "from",
          "type": "address"
        },
        {
          "internalType": "address",
          "name": "to",
          "type": "address"
        },
        {
          "internalType": "uint256",
          "name": "tokenId",
          "type": "uint256"
        },
        {
          "internalType": "bytes",
          "name": "_data",
          "type": "bytes"
        }
      ],
      "name": "safeTransferFrom",
      "outputs": [],
      "stateMutability": "nonpayable",
      "type": "function"
    },
    {
      "inputs": [],
      "name": "schemaURI",
      "outputs": [
        {
          "internalType": "string",
          "name": "",
          "type": "string"
        }
      ],
      "stateMutability": "view",
      "type": "function"
    },
    {
      "inputs": [
        {
          "internalType": "address",
          "name": "operator",
          "type": "address"
        },
        {
          "internalType": "bool",
          "name": "approved",
          "type": "bool"
        }
      ],
      "name": "setApprovalForAll",
      "outputs": [],
      "stateMutability": "nonpayable",
      "type": "function"
    },
    {
      "inputs": [
        {
          "internalType": "string",
          "name": "newName",
          "type": "string"
        }
      ],
      "name": "setName",
      "outputs": [],
      "stateMutability": "nonpayable",
      "type": "function"
    },
    {
      "inputs": [
        {
          "internalType": "string",
          "name": "newSymbol",
          "type": "string"
        }
      ],
      "name": "setSymbol",
      "outputs": [],
      "stateMutability": "nonpayable",
      "type": "function"
    },
    {
      "inputs": [
        {
          "internalType": "bool",
          "name": "transferable_",
          "type": "bool"
        }
      ],
      "name": "setTransferable",
      "outputs": [],
      "stateMutability": "nonpayable",
      "type": "function"
    },
    {
      "inputs": [
        {
          "internalType": "string",
          "name": "newURI",
          "type": "string"
        }
      ],
      "name": "setURI",
      "outputs": [],
      "stateMutability": "nonpayable",
      "type": "function"
    },
    {
      "inputs": [
        {
          "internalType": "uint256",
          "name": "index",
          "type": "uint256"
        }
      ],
      "name": "subject",
      "outputs": [
        {
          "internalType": "string",
          "name": "subjectValue",
          "type": "string"
        },
        {
          "internalType": "string",
          "name": "className_",
          "type": "string"
        }
      ],
      "stateMutability": "view",
      "type": "function"
    },
    {
      "inputs": [
        {
          "internalType": "string",
          "name": "subjectValue",
          "type": "string"
        },
        {
          "internalType": "string",
          "name": "className_",
          "type": "string"
        }
      ],
      "name": "subjectIndex",
      "outputs": [
        {
          "internalType": "uint256",
          "name": "",
          "type": "uint256"
        }
      ],
      "stateMutability": "view",
      "type": "function"
    },
    {
      "inputs": [
        {
          "internalType": "bytes4",
          "name": "interfaceId",
          "type": "bytes4"
        }
      ],
      "name": "supportsInterface",
      "outputs": [
        {
          "internalType": "bool",
          "name": "",
          "type": "bool"
        }
      ],
      "stateMutability": "view",
      "type": "function"
    },
    {
      "inputs": [],
      "name": "symbol",
      "outputs": [
        {
          "internalType": "string",
          "name": "",
          "type": "string"
        }
      ],
      "stateMutability": "view",
      "type": "function"
    },
    {
      "inputs": [
        {
          "internalType": "uint256",
          "name": "index",
          "type": "uint256"
        }
      ],
      "name": "tokenByIndex",
      "outputs": [
        {
          "internalType": "uint256",
          "name": "",
          "type": "uint256"
        }
      ],
      "stateMutability": "view",
      "type": "function"
    },
    {
      "inputs": [
        {
          "internalType": "address",
          "name": "owner",
          "type": "address"
        },
        {
          "internalType": "uint256",
          "name": "index",
          "type": "uint256"
        }
      ],
      "name": "tokenOfOwnerByIndex",
      "outputs": [
        {
          "internalType": "uint256",
          "name": "",
          "type": "uint256"
        }
      ],
      "stateMutability": "view",
      "type": "function"
    },
    {
      "inputs": [
        {
          "internalType": "uint256",
          "name": "tokenId",
          "type": "uint256"
        }
      ],
      "name": "tokenURI",
      "outputs": [
        {
          "internalType": "string",
          "name": "",
          "type": "string"
        }
      ],
      "stateMutability": "view",
      "type": "function"
    },
    {
      "inputs": [],
      "name": "totalSupply",
      "outputs": [
        {
          "internalType": "uint256",
          "name": "",
          "type": "uint256"
        }
      ],
      "stateMutability": "view",
      "type": "function"
    },
    {
      "inputs": [
        {
          "internalType": "address",
          "name": "from",
          "type": "address"
        },
        {
          "internalType": "address",
          "name": "to",
          "type": "address"
        },
        {
          "internalType": "uint256",
          "name": "tokenId",
          "type": "uint256"
        }
      ],
      "name": "transferFrom",
      "outputs": [],
      "stateMutability": "nonpayable",
      "type": "function"
    },
    {
      "inputs": [
        {
          "internalType": "address",
          "name": "newOwner",
          "type": "address"
        }
      ],
      "name": "transferOwnership",
      "outputs": [],
      "stateMutability": "nonpayable",
      "type": "function"
    },
    {
      "inputs": [],
      "name": "transferable",
      "outputs": [
        {
          "internalType": "bool",
          "name": "",
          "type": "bool"
        }
      ],
      "stateMutability": "view",
      "type": "function"
    }
  ],
  "bytecode": "0x60808060405234620000f45760008054336001600160a01b0319821681178355620000e49390916001600160a01b0316907f8be0079c531659141344cd1fd0a4f28419497f9722a3daafe3b4186f6b6457e0908490a3620000b86200006362000160565b6200006d62000160565b6200007762000111565b9184835284602084015260408301526060820152620000b26200009962000140565b91620000a46200019d565b8352846020840152620002a4565b620004c5565b620000c262000608565b620000cc62000140565b90620000d76200019d565b8252602082015262000703565b6040516158c59081620008618239f35b50600080fd5b50634e487b7160e01b600052604160045260246000fd5b60405190608082016001600160401b038111838210176200013157604052565b6200013b620000fa565b604052565b60408051919082016001600160401b038111838210176200013157604052565b6040516020810191906000906001600160401b038411818510176200018d575b8360405281815292369037565b62000197620000fa565b62000180565b60405190602082016001600160401b03811183821017620001c2575b60405260008252565b620001cc620000fa565b620001b9565b50634e487b7160e01b600052603260045260246000fd5b50634e487b7160e01b600052600060045260246000fd5b8181106200020c575050565b6000815560010162000200565b81519168010000000000000000831162000294575b815483835580841062000273575b50602080910191600052806000206000925b8484106200025d575050505050565b600183828293518555019201930192906200024e565b6200028d9083600052846020600020918201910162000200565b386200023c565b6200029e620000fa565b6200022e565b600454906801000000000000000080831015620003ca575b60019081840180600455841015620003ba575b60046000908152835160029590951b7f8a35acfbc15ff81a39ae7d344fd709f28e8600b4aa8c65c6b64bfe7fe36bd19b0180546001600160a01b0319166001600160a01b039690961695909517855560208085015184870155600286018160408701518051958611620003aa575b82548684558087106200038d575b5091845282842091015b8484106200037957505050505050906003606062000377930151910162000219565b565b805182559285019290850190820162000355565b838652828620620003a391810190880162000200565b386200034b565b620003b4620000fa565b6200033d565b620003c4620001d2565b620002cf565b620003d4620000fa565b620002bc565b600a54811015620003fb575b600a60005260206000209060011b0190600090565b62000405620001d2565b620003e6565b6011548110156200042c575b601160005260206000209060011b0190600090565b62000436620001d2565b62000417565b90600182811c9216801562000470575b60208310146200045857565b5050634e487b7160e01b600052602260045260246000fd5b91607f16916200044c565b9190601f81116200048b57505050565b62000377926000526020600020906020601f840160051c83019310620004ba575b601f0160051c019062000200565b9091508190620004ac565b600a5468010000000000000000811015620005f8575b620004ee600191828101600a55620003da565b929092620005e8575b805180519091906001600160401b038111620005d8575b62000526816200051f87546200043c565b876200047b565b806020938490601f831160011462000568576000926200055c575b5050600019600383901b1c191690841b1784555b0151910155565b01519050388062000541565b90869350601f198316916200058289600052602060002090565b9260005b88828210620005c15750508411620005a7575b505050811b01845562000555565b015160001960f88460031b161c1916905538808062000599565b8385015186558a9790950194938401930162000586565b620005e2620000fa565b6200050e565b620005f2620001e9565b620004f7565b62000602620000fa565b620004db565b6000600f54680100000000000000008110156200069f575b6001810180600f558110156200068f575b600f82527f8d1108e10bcb7c27dddfc02ed9d693a074039d026cf4ea4240b40f7d581ac80201805462000664906200043c565b601f811162000671575055565b818352602083206200068c91601f0160051c81019062000200565b55565b62000699620001d2565b62000631565b620006a9620000fa565b62000620565b60051115620006ba57565b50634e487b7160e01b600052602160045260246000fd5b906005811015620006ea5760ff80198354169116179055565b505050634e487b7160e01b600052602160045260246000fd5b906011546801000000000000000081101562000850575b6200072d6001918281016011556200040b565b91909162000840575b83518051946001600160401b03861162000830575b62000763866200075c86546200043c565b866200047b565b6020918290601f8811600114620007bb57968091620003779798600092620007af575b5050600019600383901b1c191690841b1784555b015191620007a883620006af565b01620006d1565b01519050388062000786565b90601f19881691620007d287600052602060002090565b9260005b8181106200081a5750918693918a620003779a9b941062000800575b505050811b0184556200079a565b015160001960f88460031b161c19169055388080620007f2565b82840151855593870193928601928601620007d6565b6200083a620000fa565b6200074b565b6200084a620001e9565b62000736565b6200085a620000fa565b6200071a56fe6040608081526004361015610015575b50600080fd5b600090813560e01c806301ffc9a7146107db57806302fe5305146107c357806306fdde03146107a7578063081812fc1461078b578063095ea7b314610773578063152407ae1461075757806318160ddd1461073b5780631b1d639d146107235780631dfc01e5146107065780631f624755146106d457806323b872dd146106bc5780632f745c591461069f5780633092afd51461068857806341be3f181461066b57806342842e0e146106535780634f6ccce7146106375780635036d1a81461061a57806352e89bbd146105f757806358e23bac146105db5780636352211e146105b45780636c0360eb1461059857806370a082311461057c578063715018a6146105655780638bb07877146105495780638da5cb5b1461052157806392ff0d31146104f65780639377268d146104da57806395d89b41146104be578063983b2d56146104a75780639cd23707146104905780639dc29fac14610478578063a22cb46514610460578063a6c1653d14610443578063a9ff13a61461041a578063ac72200d146103ef578063b2dc5dc3146103d7578063b84c8246146103bf578063b88d4fde146103a4578063c47f00271461038c578063c5b8f7721461036f578063c87b56dd14610353578063d49116f514610335578063d4b0c4031461030c578063deeec344146102f0578063e985e9c5146102c0578063f2fde38b146102a6578063f46eccc4146102605763fbafb69814610232575061000f565b3461025c57610258915061024d61024836610915565b612604565b905191829182610904565b0390f35b5080fd5b503461025c57610258915061029561027736610b50565b6001600160a01b031660009081526008602052604090205460ff1690565b905191829182901515815260200190565b503461025c576102bd6102b836610b50565b611794565b51f35b503461025c5761025891506102956102e96102e46102dd366116ca565b9190611b36565b611b9e565b5460ff1690565b503461025c57610258915061024d61030736610915565b612266565b503461025c57610258915061032861032336610915565b612408565b929091519283928361168b565b503461025c576102bd610347366115b3565b95949094939193611851565b503461025c57610258915061024d61036a36610915565b612ade565b503461025c57610258915061029561038636610966565b906129c5565b503461025c576102bd61039e3661083a565b90614fb9565b503461025c576102bd6103b63661140c565b929190916130ca565b503461025c576102bd6103d13661083a565b90615090565b503461025c576102bd6103e9366113ab565b91614a4a565b503461025c5761025891506104033661089c565b61040b6126ce565b90519081529081906020820190565b503461025c57610258915061043661043136610915565b6124db565b9290915192839283611386565b503461025c57610258915061040b61045a36610baa565b906124af565b503461025c576102bd61047236611355565b90612eae565b503461025c576102bd61048a36610966565b906148c4565b503461025c576102bd6104a236611339565b614f9f565b503461025c576102bd6104b936610b50565b61516a565b503461025c5761025891506104d23661089c565b61024d61118b565b503461025c57610258915061040b6104f136610af4565b6122fb565b503461025c57610258915061050a3661089c565b60ff60095416905191829182901515815260200190565b503461025c57610258916105343661089c565b5490519182916001600160a01b031682610927565b503461025c57610258915061055d3661089c565b61040b6153e8565b503461025c576105743661089c565b6102bd6116fd565b503461025c57610258915061040b61059336610b50565b6128cd565b503461025c5761025891506105ac3661089c565b61024d611104565b503461025c5761025891506105d06105cb36610915565b612947565b905191829182610927565b503461025c5761025891506105ef3661089c565b61024d611212565b503461025c57610258915061040b61060e36610f5c565b95949094939193613fc7565b503461025c57610258915061040b61063136610baa565b90613eb7565b503461025c57610258915061040b61064e36610915565b612800565b503461025c576102bd61066536610b73565b9161303a565b503461025c57610258915061029561068236610966565b9061531f565b503461025c576102bd61069a36610b50565b615266565b503461025c57610258915061040b6106b636610966565b9061272b565b503461025c576102bd6106ce36610b73565b91612fa8565b503461025c57610258915061040b6106eb36610b50565b6001600160a01b031660009081526015602052604090205490565b503461025c57610258915061040b61071d36610b1e565b9161559f565b503461025c576102bd61073536610966565b90615367565b503461025c57610258915061074f3661089c565b61040b6126e0565b503461025c57610258915061040b61076e36610af4565b612242565b503461025c576102bd61078536610966565b90612d1c565b503461025c5761025891506105d06107a236610915565b612e29565b503461025c5761025891506107bb3661089c565b61024d61106c565b503461025c576102bd6107d53661083a565b90614ec5565b5050346108095750607f196108046107fa6107f53661081f565b612145565b151560805260a090565b016080f35b80fd5b6001600160e01b03198116141561000f57565b602090600319011261000f576004356108378161080c565b90565b906020600319830112610895576001600160401b03916004359083821161088c578060238301121561088c57816004013593841161088c5760248483010111610884576024019190565b505050600080fd5b50505050600080fd5b5050600080fd5b600090600319011261000f57565b918091926000905b8282106108ca5750116108c3575050565b6000910152565b915080602091830151818601520182916108b2565b906020916108f8815180928185528580860191016108aa565b601f01601f1916010190565b9060206108379281815201906108df565b602090600319011261000f5760043590565b6001600160a01b03909116815260200190565b600435906001600160a01b03821682141561089557565b35906001600160a01b03821682141561089557565b604090600319011261000f576004356001600160a01b038116811415610895579060243590565b50634e487b7160e01b600052604160045260246000fd5b604081019081106001600160401b038211176109bf57604052565b6109c761098d565b604052565b608081019081106001600160401b038211176109bf57604052565b602081019081106001600160401b038211176109bf57604052565b606081019081106001600160401b038211176109bf57604052565b601f909101601f19168101906001600160401b038211908210176109bf57604052565b6040519060a082016001600160401b038111838210176109bf57604052565b60405190610a6c826109a4565b565b6020906001600160401b038111610a8b575b601f01601f19160190565b610a9361098d565b610a80565b929192610aa482610a6e565b91610ab26040519384610a1d565b829481845281830111610acf578281602093846000960137010152565b5050505050600080fd5b9080601f830112156108845781602061083793359101610a98565b602060031982011261089557600435906001600160401b0382116108845761083791600401610ad9565b6060600319820112610895576004359160243591604435906001600160401b038211610acf5761083791600401610ad9565b602090600319011261000f576004356001600160a01b0381168114156108955790565b606090600319011261000f576001600160a01b03906004358281168114156108845791602435908116811415610884579060443590565b906040600319830112610895576001600160401b0360043581811161088c5783610bd691600401610ad9565b9260243591821161088c5761083791600401610ad9565b6020906001600160401b038111610c06575b60051b0190565b610c0e61098d565b610bff565b81601f8201121561088457803590610c2a82610bed565b92604092610c3a84519586610a1d565b808552602091828087019260061b85010193818511610c95578301915b848310610c675750505050505090565b8583830312610c95578386918251610c7e816109a4565b853581528286013583820152815201920191610c57565b5050505050505050600080fd5b81601f8201121561088457803590610cb982610bed565b92604092610cc984519586610a1d565b808552602093848087019260051b85010193838511610c9557858101925b858410610cf8575050505050505090565b6001600160401b038435818111610d665783019184601f198489030112610d66578451610d24816109a4565b89840135815285840135928311610d5557610d46888b80969581960101610ad9565b83820152815201930192610ce7565b505050505050505050505050600080fd5b5050505050505050505050600080fd5b81601f8201121561088457803590610d8d82610bed565b92604092610d9d84519586610a1d565b808552602091828087019260061b85010193818511610c95578301915b848310610dca5750505050505090565b8583830312610c95578386918251610de1816109a4565b85358152610df0838701610951565b83820152815201920191610dba565b9080601f83011215610884578135610e1681610bed565b92604091610e2683519586610a1d565b808552602093848087019260051b84010193818511610c9557858401925b858410610e55575050505050505090565b6001600160401b038435818111610d665786019160a080601f198588030112610d5557610e80610a40565b908a850135825285850135848111610f4957878c610ea092880101610c13565b8b83015260609081860135858111610f3557888d610ec092890101610ca2565b8784015260809182870135868111610f2057898e610ee0928a0101610d76565b90840152850135938411610f0e57610eff878c80979681970101610c13565b90820152815201930192610e44565b50505050505050505050505050600080fd5b50505050505050505050505050505050600080fd5b505050505050505050505050505050600080fd5b5050505050505050505050505050600080fd5b9060e060031983011261089557610f7161093a565b91602435916001600160401b0360443581811161100e5783610f9591600401610c13565b926064358281116110025781610fad91600401610ca2565b92608435838111610c955782610fc591600401610d76565b9260a435818111610ff45783610fdd91600401610c13565b9260c435918211610ff45761083791600401610dff565b505050505050505050600080fd5b50505050505050600080fd5b505050505050600080fd5b50634e487b7160e01b600052600060045260246000fd5b90600182811c92168015611062575b602083101461104a57565b5050634e487b7160e01b600052602260045260246000fd5b91607f169161103f565b60405190600082600191825461108181611030565b808452908481169081156110e757506001146110a5575b50610a6c92500383610a1d565b9280915060005260209081600020936000915b8183106110cf575050610a6c935082010138611098565b855488840185015294850194879450918301916110b8565b94505050505060ff19166020830152610a6c826040810138611098565b60405190600082600c549161111883611030565b8083526001938085169081156110e7575060011461113d5750610a6c92500383610a1d565b600c600090815260008051602061574283398151915294602093509091905b818310611173575050610a6c935082010138611098565b8554888401850152948501948794509183019161115c565b604051906000826002549161119f83611030565b8083526001938085169081156110e757506001146111c45750610a6c92500383610a1d565b6002600090815260008051602061572283398151915294602093509091905b8183106111fa575050610a6c935082010138611098565b855488840185015294850194879450918301916111e3565b60405190600082600d549161122683611030565b8083526001938085169081156110e7575060011461124b5750610a6c92500383610a1d565b600d600090815260008051602061576283398151915294602093509091905b818310611281575050610a6c935082010138611098565b8554888401850152948501948794509183019161126a565b90604051918260008254926112ad84611030565b90818452600194858116908160001461131a57506001146112d7575b5050610a6c92500383610a1d565b9093915060005260209081600020936000915b818310611302575050610a6c935082010138806112c9565b855488840185015294850194879450918301916112ea565b9550505050505060ff19166020830152610a6c826040810138806112c9565b602090600319011261000f576004358015158114156108955790565b604090600319011261000f576004356001600160a01b03811681141561089557906024358015158114156108845790565b909161139d610837936040845260408401906108df565b9160208184039101526108df565b6040600319820112610895576004356001600160a01b03811681141561088457916001600160401b039160243590838211610acf5780602383011215610acf578160040135938411610acf5760248460051b8301011161088c576024019190565b906080600319830112610895576001600160a01b039160043583811681141561088c579260243590811681141561088c579160443591606435906001600160401b03821161100e578060238301121561100e5781602461083793600401359101610a98565b9080601f830112156108845781359061148982610bed565b926114976040519485610a1d565b828452602092838086019160051b8301019280841161100257848301915b8483106114c55750505050505090565b82356001600160401b038111610ff45786916114e684848094890101610ad9565b8152019201916114b5565b9080601f830112156108845781359161150983610bed565b92604061151881519586610a1d565b8185526020938486019185600594851b86010194828611610ff457868101935b86851061154a57505050505050505090565b6001600160401b03908535828111610d555783019184601f198488030112610d5557845192611578846109a4565b8a810135918211610f0e57611592878c8894840101610ad9565b845201359087821015610d5557828a93928480940152815201940193611538565b60e0600319820112610895576115c761093a565b916001600160401b039160243590838211610acf576115ea816004938401610ad9565b936044358181116110025782611601918501610ad9565b93606435828111610c955783611618918601610ad9565b93608435838111610ff4578461162f918301610ad9565b9360a43584811161165b5781611646918401611471565b9360c43590811161165b5761083792016114f1565b50505050505050505050600080fd5b6005111561167457565b50634e487b7160e01b600052602160045260246000fd5b9291906116a0906040855260408501906108df565b9260058210156116b05760200152565b50505050634e487b7160e01b600052602160045260246000fd5b604090600319011261000f576001600160a01b039060043582811681141561088457916024359081168114156108845790565b61170561173a565b600080546001600160a01b0319811682556040516001600160a01b03909116906000805160206157e2833981519152908390a3565b6000546001600160a01b031633141561174f57565b50606460405162461bcd60e51b815260206004820152602060248201527f4f776e61626c653a2063616c6c6572206973206e6f7420746865206f776e65726044820152fd5b61179c61173a565b6001600160a01b039081169081156117db57600080546001600160a01b03198116841782556040519216916000805160206157e28339815191529190a3565b505060405162461bcd60e51b815260206004820152602660248201527f4f776e61626c653a206e6577206f776e657220697320746865207a65726f206160448201526564647265737360d01b606482015260849150fd5b80546001600160a01b0319166001600160a01b03909216919091179055565b9492909593916000549660ff8860a81c16158098819961197b575b8115611958575b50156118f4576000805460ff60a01b1916600160a01b17905561189a96886118dc5761198d565b6118a057565b6000805460ff60a81b19169055604051600181527f7f26b83ff96e1f2b6a682f133852f6798a09c465da95921460cefb384740249890602090a1565b6000805460ff60a81b1916600160a81b17905561198d565b505050505050505050608460405162461bcd60e51b815260206004820152602e60248201527f496e697469616c697a61626c653a20636f6e747261637420697320616c72656160448201526d191e481a5b9a5d1a585b1a5e995960921b6064820152fd5b303b1591508161196a575b5038611873565b60a01c60ff16600114905038611963565b9050600160ff8260a01c16109061186c565b959394919461199a61173a565b6040516020810160208152816119b360408201856108df565b03916119c7601f1993848101835282610a1d565b519020906040516119f96020820192826119ed8560409060208152600060208201520190565b03908101835282610a1d565b51902014611a7857611a4a611a5494611a45611a5998611a40611a4f96611a3b611a2e8e611a298e511515611ad4565b611b50565b805460ff19166001179055565b611cf9565b611dda565b611ebd565b611fa0565b61330e565b613484565b60018060a01b03166000805160206157c28339815191526000604051a2565b5050505050505050608460405162461bcd60e51b815260206004820152602760248201527f53656d616e7469635342543a20736368656d61205552492063616e6e6f7420626044820152666520656d70747960c81b6064820152fd5b15611adb57565b5060405162461bcd60e51b815260206004820152602c60248201527f53656d616e7469635342543a207072656469636174652073697a652063616e2060448201526b6e6f7420626520656d70747960a01b6064820152608490fd5b6001600160a01b0316600090815260076020526040902090565b6001600160a01b0316600090815260086020526040902090565b6001600160a01b0316600090815260056020526040902090565b6001600160a01b0316600090815260176020526040902090565b9060018060a01b0316600052602052604060002090565b818110611bc0575050565b60008155600101611bb5565b90601f8211611bd9575050565b610a6c91600c6000526020600020906020601f840160051c83019310611c07575b601f0160051c0190611bb5565b9091508190611bfa565b90601f8211611c1e575050565b610a6c9160016000526020600020906020601f840160051c83019310611c0757601f0160051c0190611bb5565b90601f8211611c58575050565b610a6c9160026000526020600020906020601f840160051c83019310611c0757601f0160051c0190611bb5565b90601f8211611c92575050565b610a6c91600d6000526020600020906020601f840160051c83019310611c0757601f0160051c0190611bb5565b9190601f8111611cce57505050565b610a6c926000526020600020906020601f840160051c83019310611c0757601f0160051c0190611bb5565b80519091906001600160401b038111611dcd575b600190611d2381611d1e8454611030565b611c11565b602080601f8311600114611d5e575081929394600092611d53575b5050600019600383901b1c191690821b179055565b015190503880611d3e565b6001600052601f19831695909190600080516020615822833981519152926000905b888210611db65750508385969710611d9d575b505050811b019055565b015160001960f88460031b161c19169055388080611d93565b808785968294968601518155019501930190611d80565b611dd561098d565b611d0d565b80519091906001600160401b038111611eb0575b611e0281611dfd600254611030565b611c4b565b602080601f8311600114611e3e5750819293600092611e33575b50508160011b916000199060031b1c191617600255565b015190503880611e1c565b6002600052601f19831694909190600080516020615722833981519152926000905b878210611e98575050836001959610611e7f575b505050811b01600255565b015160001960f88460031b161c19169055388080611e74565b80600185968294968601518155019501930190611e60565b611eb861098d565b611dee565b80519091906001600160401b038111611f93575b611ee581611ee0600c54611030565b611bcc565b602080601f8311600114611f215750819293600092611f16575b50508160011b916000199060031b1c191617600c55565b015190503880611eff565b600c600052601f19831694909190600080516020615742833981519152926000905b878210611f7b575050836001959610611f62575b505050811b01600c55565b015160001960f88460031b161c19169055388080611f57565b80600185968294968601518155019501930190611f43565b611f9b61098d565b611ed1565b80519091906001600160401b038111612076575b611fc881611fc3600d54611030565b611c85565b602080601f83116001146120045750819293600092611ff9575b50508160011b916000199060031b1c191617600d55565b015190503880611fe2565b600d600052601f19831694909190600080516020615762833981519152926000905b87821061205e575050836001959610612045575b505050811b01600d55565b015160001960f88460031b161c1916905538808061203a565b80600185968294968601518155019501930190612026565b61207e61098d565b611fb4565b81519192916001600160401b038111612138575b6120ab816120a58454611030565b84611cbf565b602080601f83116001146120e75750819293946000926120dc575b50508160011b916000199060031b1c1916179055565b0151905038806120c6565b90601f198316956120fd85600052602060002090565b926000905b88821061212057505083600195969710611d9d57505050811b019055565b80600185968294968601518155019501930190612102565b61214061098d565b612097565b63ffffffff60e01b166380ac58cd60e01b81149081156121a8575b8115612197575b8115612186575b8115612178575090565b6301ffc9a760e01b14919050565b6316388eeb60e21b8114915061216e565b631f75f6d360e31b81149150612167565b635b5e139f60e01b81149150612160565b906121cc602092828151948592016108aa565b0190565b60206121e99181604051938285809451938492016108aa565b8101600e81520301902090565b602061220f9181604051938285809451938492016108aa565b8101601081520301902090565b6020906122369282604051948386809551938492016108aa565b82019081520301902090565b61224b906121d0565b5490565b50634e487b7160e01b600052603260045260246000fd5b801515806122f0575b156122aa5761083790600f5481101561229d575b600f60005260008051602061586283398151915201611299565b6122a561224f565b612283565b505060405162461bcd60e51b815260206004820152601c60248201527b14d95b585b9d1a58d4d0950e8818db185cdcc81b9bdd08195e1a5cdd60221b6044820152606490fd5b50600f54811061226f565b61224b906121f6565b1561230b57565b50606460405162461bcd60e51b815260206004820152602060248201527f53656d616e7469635342543a20707265646963617465206e6f742065786973746044820152fd5b601154811015612370575b601160005260206000209060011b0190600090565b61237861224f565b61235b565b600a5481101561239d575b600a60005260206000209060011b0190600090565b6123a561224f565b612388565b6013548110156123ca575b601360005260206000209060011b0190600090565b6123d261224f565b6123b5565b906040516123e4816109a4565b60ff600182946123f381611299565b84520154169060058210156116b05760200152565b61242661242c9180151580612459575b61242190612304565b612350565b506123d7565b906020825192015160058110156124405790565b505050634e487b7160e01b600052602160045260246000fd5b506011548110612418565b1561246b57565b5060405162461bcd60e51b815260206004820152601b60248201527a14d95b585b9d1a58d4d0950e88191bd95cc81b9bdd08195e1a5cdd602a1b6044820152606490fd5b6124bb6124cf926121d0565b54600052600b60205260406000209061221c565b54610837811515612464565b9081151580612535575b6124ee90612464565b610837600161250e6125086125028661237d565b50611299565b9461237d565b500154600f5481101561229d57600f60005260008051602061586283398151915201611299565b50600a5482106124e5565b600454811015612560575b600460005260206000209060021b0190600090565b61256861224f565b61254b565b9060405191828154918282526020928383019160005283600020936000905b8282106125a257505050610a6c92500383610a1d565b85548452600195860195889550938101939091019061258c565b906040516125c9816109cc565b60606125ff6003839560018060a01b038154168552600181015460208601526125f46002820161256d565b60408601520161256d565b910152565b61260d81613132565b1561262c5761262761262161083792612540565b506125bc565b613574565b505060405162461bcd60e51b815260206004820152602760248201527f53656d616e7469635342543a2053656d616e74696353425420646f6573206e6f6044820152661d08195e1a5cdd60ca1b6064820152608490fd5b50634e487b7160e01b600052601160045260246000fd5b600181106126aa575b6000190190565b6126b2612683565b6126a3565b8181106126c2570390565b6126ca612683565b0390565b600454600181106126aa576000190190565b6126e86126ce565b600354908181106126c2570390565b6001906000198114612707570190565b6121cc612683565b6001906001198111612707570190565b81198111612707570190565b9060006001918293600454945b85811061279e5750505050505050608460405162461bcd60e51b815260206004820152602b60248201527f455243373231456e756d657261626c653a206f776e657220696e646578206f7560448201526a74206f6620626f756e647360a81b6064820152fd5b6127a781612540565b50546001600160a01b038381169116146127ca575b6127c5906126f7565b612738565b928281146127f757846127c59160011981116127ea575b019390506127bc565b6127f2612683565b6127e1565b50505091505090565b60006001908192600454935b84811061287157505050505050608460405162461bcd60e51b815260206004820152602b60248201527f455243373231456e756d657261626c653a20746f6b656e20696e646578206f7560448201526a74206f6620626f756e647360a81b6064820152fd5b61287a81612540565b50546001600160a01b0316612898575b612893906126f7565b61280c565b918181146128c557836128939160011981116128b8575b0192905061288a565b6128c0612683565b6128af565b505091505090565b6001600160a01b031680156128ed57600052600560205260406000205490565b505060405162461bcd60e51b815260206004820152602a60248201527f4552433732313a2062616c616e636520717565727920666f7220746865207a65604482015269726f206164647265737360b01b6064820152608490fd5b61295081613132565b1561296c5761295e90612540565b50546001600160a01b031690565b505060405162461bcd60e51b815260206004820152602960248201527f4552433732313a206f776e657220717565727920666f72206e6f6e657869737460448201526832b73a103a37b5b2b760b91b6064820152608490fd5b906129cf90612947565b6001600160a01b0390811691161490565b604051906129ed826109e7565b60008252565b600c5460009291612a0382611030565b91600190818116908115612a545750600114612a1e57505050565b9091929350600c60005260209081600020906000915b858310612a4357505050500190565b805485840152918301918101612a34565b60ff191683525050019150565b600092918154612a7081611030565b92600191808316908115612ac95750600114612a8d575b50505050565b90919293945060005260209081600020906000915b858310612ab85750505050019038808080612a87565b805485840152918301918101612aa2565b60ff1916845250505001915038808080612a87565b612ae781613132565b15612b4e57612af7600c54611030565b15612b4557610837612b0b612b2692612bdf565b612b37604051938492612b20602085016129f3565b906121b9565b64173539b7b760d91b815260050190565b03601f198101835282610a1d565b506108376129e0565b505060405162461bcd60e51b815260206004820152602f60248201527f4552433732314d657461646174613a2055524920717565727920666f72206e6f60448201526e3732bc34b9ba32b73a103a37b5b2b760891b6064820152608490fd5b90612bb782610a6e565b612bc46040519182610a1d565b8281528092612bd5601f1991610a6e565b0190602036910137565b6000908072184f03e93ff9f4daa797ed6e38ed64bf6a1f0160401b80821015612d0e575b506904ee2d6d415b85acef8160201b80831015612cff575b50662386f26fc1000080831015612cf0575b506305f5e10080831015612ce1575b5061271080831015612cd2575b506064821015612cc2575b600a80921015612cb8575b600190816021612c70828701612bad565b95860101905b612c82575b5050505090565b600019019083906f181899199a1a9b1b9c1cb0b131b232b360811b8282061a835304918215612cb357919082612c76565b612c7b565b9160010191612c5f565b9190606460029104910191612c54565b60049193920491019138612c49565b60089193920491019138612c3c565b60109193920491019138612c2d565b60209193920491019138612c1b565b604093508104915038612c03565b90612d2681612947565b6001600160a01b038181169084168114612dd6573314908115612dbc575b5015612d5357610a6c91614cf0565b505060405162461bcd60e51b815260206004820152603860248201527f4552433732313a20617070726f76652063616c6c6572206973206e6f74206f776044820152771b995c881b9bdc88185c1c1c9bdd995908199bdc88185b1b60421b606482015260849150fd5b60ff9150612dce906102e43391611b36565b541638612d44565b5050505050608460405162461bcd60e51b815260206004820152602160248201527f4552433732313a20617070726f76616c20746f2063757272656e74206f776e656044820152603960f91b6064820152fd5b612e3281613132565b15612e52576000908152600660205260409020546001600160a01b031690565b505060405162461bcd60e51b815260206004820152602c60248201527f4552433732313a20617070726f76656420717565727920666f72206e6f6e657860448201526b34b9ba32b73a103a37b5b2b760a11b6064820152608490fd5b6001600160a01b0381169190338314612f1757612ed8903360005260076020526040600020611b9e565b9015159060ff1981541660ff83161790556040519081527f17307eab39ab6107e8899845ad3d59bd9653f200f220920489ca2b5937696c3160203392a3565b50505050606460405162461bcd60e51b815260206004820152601960248201527822a9219b99189d1030b8383937bb32903a379031b0b63632b960391b6044820152fd5b15612f6257565b5060405162461bcd60e51b815260206004820152601e60248201527f53656d616e7469635342543a206d757374207472616e7366657261626c6500006044820152606490fd5b90610a6c9291612fbc60ff60095416612f5b565b612fce612fc98433613172565b612fd3565b614bc5565b15612fda57565b5060405162461bcd60e51b815260206004820152603160248201527f4552433732313a207472616e736665722063616c6c6572206973206e6f74206f6044820152701ddb995c881b9bdc88185c1c1c9bdd9959607a1b6064820152608490fd5b90916130989260ff600954169261305084612f5b565b6040519361307b90602086016001600160401b038111878210176130bd575b60405260008652612f5b565b613088612fc98433613172565b613093838383614bc5565b614e8a565b1561309f57565b5060405162461bcd60e51b8152806130b9600482016130df565b0390fd5b6130c561098d565b61306f565b9061309893929161307b60ff60095416612f5b565b60809060208152603260208201527f4552433732313a207472616e7366657220746f206e6f6e20455243373231526560408201527131b2b4bb32b91034b6b83632b6b2b73a32b960711b60608201520190565b801515908161315f575b81613145575090565b61314f9150612540565b50546001600160a01b0316151590565b90506131696126ce565b8111159061313c565b6001600160a01b038061318484612947565b1690808316908282149485156131c3575b50505082156131a357505090565b60ff9250906131be9160005260076020526040600020611b9e565b541690565b6131d09192939550612e29565b161491388080613195565b6020908051156131e9570190565b6121cc61224f565b6020918151811015613206575b60051b010190565b61320e61224f565b6131fe565b1561321a57565b5060405162461bcd60e51b815260206004820152602260248201527f53656d616e7469635342543a20436c6173732063616e6e6f7420626520656d70604482015261747960f01b6064820152608490fd5b1561327257565b5060405162461bcd60e51b815260206004820152601a60248201527914d95b585b9d1a58d4d0950e88185b1c9958591e48185919195960321b6044820152606490fd5b600f54610a6c9190600160401b811015613301575b6001810180600f558110156132f4575b600f60005260008051602061586283398151915201612083565b6132fc61224f565b6132da565b61330961098d565b6132ca565b9060005b82518110156133bd57806133296133b892856131f1565b51613382604080516020613378818301836133448883610904565b0393613358601f1995868101835282610a1d565b519020935191820192826119ed8560409060208152600060208201520190565b5190201415613213565b61339561338e826121d0565b541561326b565b61339e816132b5565b6133b26133ac600f5461269a565b916121d0565b556126f7565b613312565b509050565b156133c957565b5060405162461bcd60e51b815260206004820152602660248201527f53656d616e7469635342543a205072656469636174652063616e6e6f7420626560448201526520656d70747960d01b6064820152608490fd5b6020600161343f6011548260401b811015613477575b828101601155612350565b61346a575b61344f845182612083565b0191015160058110156124405760ff80198354169116179055565b613472611019565b613444565b61347f61098d565b613434565b9060005b82518110156133bd578061349f6134f492856131f1565b516134c981516040908151906134bf602091836133448482019283610904565b51902014156133c2565b6134d661338e82516121f6565b6134df8161341e565b6133b26134ed60115461269a565b91516121f6565b613488565b6020610a6c91939293604051948161351a87935180928680870191016108aa565b820161352e825180938680850191016108aa565b01038085520183610a1d565b60405190613547826109a4565b60018252603b60f81b6020830152565b60405190613564826109a4565b60018252601760f91b6020830152565b61357d81613851565b91600080935b604084018051805187101561376357916136169160206135b26124266135ac8b61361c986131f1565b51612350565b0180516135be8161166a565b6135c78161166a565b61362a5750906135fe613607916135f86135e28b86516131f1565b516135f18c60608d01516131f1565b5190613a68565b906134f9565b915b515161269a565b871415613622576135f8613557565b946126f7565b93613583565b6135f861353a565b80516136358161166a565b61363e8161166a565b60011415613679575090613673613607916135f861365d8b86516131f1565b5161366c8c60608d01516131f1565b5190613aa3565b91613600565b80516136848161166a565b61368d8161166a565b600214156136c2575090613673613607916135f86136ac8b86516131f1565b516136bb8c60608d01516131f1565b5190613b18565b80516136cd8161166a565b6136d68161166a565b6003141561370b575090613673613607916135f86136f58b86516131f1565b516137048c60608d01516131f1565b5190613b86565b516137158161166a565b61371e8161166a565b60041461372f575b61360790613600565b9061375b613607916135f86137458b86516131f1565b516137548c60608d01516131f1565b5190613cae565b919050613726565b50509350509050565b60405190613779826109a4565b600482526314dbdd5b60e21b6020830152565b60405190613799826109a4565b60018252601d60f91b6020830152565b604051906137b6826109a4565b60018252605f60f81b6020830152565b604051906137d3826109a4565b60018252600160fd1b6020830152565b919493610a6c9360405196879385516138048160209889808a0191016108aa565b8501613818825180938980850191016108aa565b0161382b825180938880850191016108aa565b0161383e825180938780850191016108aa565b0161352e825180938680850191016108aa565b6020810180516108379290600090806138bd57505061386e61376c565b915b5190816138ab575161388b91506001600160a01b03166138ec565b61389361378c565b9161389c6137a9565b906138a56137c6565b936137e3565b506125026138b89161237d565b61388b565b60206138d992600f548310156138df575b600f81522001611299565b91613870565b6138e761224f565b6138ce565b604051906001600160a01b031661390282610a02565b602a825260403660208401376030613919836131db565b5360786139258361398c565b536029905b6001821161393d576108379150156139c9565b80600f6139799216601081101561397f575b6f181899199a1a9b1b9c1cb0b131b232b360811b901a61396f848661399d565b5360041c916139bc565b9061392a565b61398761224f565b61394f565b6021908051600110156131e9570190565b9060209180518210156139af57010190565b6139b761224f565b010190565b80156126aa576000190190565b156139d057565b50606460405162461bcd60e51b815260206004820152602060248201527f537472696e67733a20686578206c656e67746820696e73756666696369656e746044820152fd5b60405190613a22826109a4565b6002825261381d60f11b6020830152565b610a6c919392936040519485918351613a54816020968780880191016108aa565b830161383e825180938780850191016108aa565b90613a94613a8e613a7e61242661083795612350565b613a86613a15565b9051906134f9565b91612bdf565b90613a9d6137c6565b90613a33565b90613ab6613a7e61242661083794612350565b90601254811015613b0b575b601260005260206000200190613b0360016040518094613af1601160f91b918260208501526021840190612a61565b90815203601e19810185520183610a1d565b613a9d6137c6565b613b1361224f565b613ac2565b90613b2b613a7e61242661083794612350565b613b03613b3661378c565b613b3e61376c565b613b58613b496137a9565b956001600160a01b03166138ec565b6040519586928451613b72816020978880890191016108aa565b840161382b825180938880850191016108aa565b90613b9661242661083793612350565b90613b036001613ba58361237d565b500154600f54811015613c49575b600f600052613c3b613bd7613bce6020938460002001611299565b95613a86613a15565b93613be061378c565b92613bf2613bec6137a9565b9261237d565b50916040519785613c0c8a9751809286808b0191016108aa565b8601613c20825180938680850191016108aa565b01613c33825180938580850191016108aa565b010190612a61565b03601f198101845283610a1d565b613c5161224f565b613bb3565b60405190613c63826109a4565b6002825261203b60f01b6020830152565b60405190613c81826109a4565b60018252605b60f81b6020830152565b60405190613c9e826109a4565b60018252605d60f81b6020830152565b90613cc1613a7e612426613cea94612350565b90613cdd613cd7613cd1836123aa565b5061256d565b916123aa565b506001938480920161256d565b91613cf36129e0565b926000925b613d1e575b5050506108379250613d0d6137c6565b613d15613c74565b906138a5613c91565b9091928251841015613e665785906020613d3e6124266135ac88886131f1565b018051613d4a8161166a565b613d538161166a565b613db05750613d74906135f8613d6987876131f1565b516135f188876131f1565b935b613d80845161269a565b8110613d98575b613d90906126f7565b929190613cf8565b93613da8613d90916135f8613c56565b949050613d87565b8051613dbb8161166a565b613dc48161166a565b831415613dee5750613de8906135f8613ddd87876131f1565b5161366c88876131f1565b93613d76565b8051613df98161166a565b613e028161166a565b60021415613e275750613de8906135f8613e1c87876131f1565b516136bb88876131f1565b94909451613e348161166a565b613e3d8161166a565b600314613e4957613d76565b93613de8906135f8613e5b87876131f1565b5161370488876131f1565b92613cfd565b15613e7357565b5060405162461bcd60e51b815260206004820152601b60248201527a29b2b6b0b73a34b1a9a12a1d1036bab9ba1031329036b4b73a32b960291b6044820152606490fd5b6001604092613ede6000913383526008602052613ed960ff8785205416613e6c565b6121d0565b5490613eeb821515613f7f565b818152600b602052613f0261338e8683208661221c565b613f1a600a54958284889452600b602052208561221c565b5560405192613f28846109a4565b8352602083019081528160401b841015613f72575b818401600a55613f5e613f4f8561237d565b949094613f65575b5184612083565b5191015590565b613f6d611019565b613f57565b613f7a61098d565b613f3d565b15613f8657565b5060405162461bcd60e51b815260206004820152601860248201527729b2b6b0b73a34b1a9a12a1d103830b930b69032b93937b960411b6044820152606490fd5b94929096959391336000526008602052613fe860ff60406000205416613e6c565b6001600160a01b03861697881561414057614006600a548210613f7f565b61400e6146af565b6140166146af565b916040519a6140248c6109cc565b8b5260208b015260408a0152606089015260045461405590600160401b811015614133575b60018101600455612540565b989098614126575b8051614072906001600160a01b03168a611832565b60208181015160018b0155604082015180519160028c0191600160401b8411614119575b82548484558085106140fc575b50019060005260206000206000915b8383106140e65750505050610837969798600360606140d493015191016146c9565b6140df60045461269a565b9687614208565b60016020828293518555019201920191906140b2565b614113908460005285846000209182019101611bb5565b386140a3565b61412161098d565b614096565b61412e611019565b61405d565b61413b61098d565b614049565b505050505050505050608460405162461bcd60e51b815260206004820152602560248201527f53656d616e7469635342543a206d696e7420746f20746865207a65726f206164604482015264647265737360d81b6064820152fd5b156141a257565b5060405162461bcd60e51b815260206004820152603760248201527f53656d616e7469635342543a207472616e7366657220746f206e6f6e204552436044820152761b9918a932b1b2b4bb32b91034b6b83632b6b2b73a32b960491b6064820152608490fd5b919461424d61425492979561424661423f9a96600261422688612540565b50019b8c9a60036142368a612540565b5001809c614405565b898c6144d5565b878a614567565b85886145fa565b60005b835181101561431b578061431161427161431693876131f1565b51614280815160115411612304565b61430b601354916143046142926146af565b6142b561429d6146af565b916142a6610a5f565b90815260209283820152614745565b6142be856123aa565b50906142db60016142ce886123aa565b5001918501518284614405565b6142ea604085015182846144d5565b6142f960608501518284614567565b6080840151916145fa565b518b6143c0565b876143c0565b6126f7565b614257565b509392509361432d9150541515613f7f565b61433681611b6a565b614340815461270f565b905561435c6143576143506129e0565b8484614dd5565b61419b565b60018060a01b03168181600060008051602061580283398151915281604051a461438b61262761262184612540565b7f6ca139c4cce2c6dfdd350d203c7ac907df3bdc839acb0c9f1d59d01950aaaead604051806143bb339482610904565b0390a4565b805490600160401b8210156143f8575b600182018082558210156143eb575b60005260206000200155565b6143f361224f565b6143df565b61440061098d565b6143d0565b929190600091825b81518110156144cd5761442081836131f1565b519060ff600161443c8451801515806124595761242190612304565b5001541660058110156144b15761446e5761431160208361446161446995518b6143c0565b0151856143c0565b61440d565b50505050505050608460405162461bcd60e51b815260206004820152602160248201526000805160206157a28339815191526044820152603960f91b6064820152fd5b5050634e487b7160e01b84525050602160045250602492509050fd5b505050509050565b60009392845b81518110156144cd57806143116144f561454893856131f1565b51614500815161480e565b61454260129161453b835493848d6020908186015193600160401b84101561455a575b6001840180825584101561454d575b81522001612083565b51876143c0565b866143c0565b6144db565b61455561224f565b614532565b61456261098d565b614523565b90929192600093845b81518110156144cd5761458381836131f1565b519060ff600161459f8451801515806124595761242190612304565b5001541660058110156145de576002141561446e57614311826145c66145d99451886143c0565b602001516001600160a01b0316856143c0565b614570565b5050634e487b7160e01b86525050602160045250602492915050fd5b90929160005b81518110156146a85761461381836131f1565b5161461e8151614894565b602090818101918251801515908161469c575b5015614650575061464b929161453b6143119251876143c0565b614600565b95505050505050606491506040519062461bcd60e51b82526004820152601e60248201527f53656d616e7469635342543a207375626a656374206e6f7420657869737400006044820152fd5b9050600a541138614631565b5050509050565b604051906146bc826109e7565b6000808352366020840137565b815191600160401b8311614738575b815483835580841061471a575b50602080910191600052806000206000925b848410614705575050505050565b600183828293518555019201930192906146f7565b61473290836000528460206000209182019101611bb5565b386146e5565b61474061098d565b6146d8565b90601354600160401b9081811015614801575b6147696001918281016013556123aa565b9290926147f4575b84519081519081116147e7575b83548185558082106147c9575b50602080920184600052826000206000915b8383106147b65750505050610a6c9394015191016146c9565b805182559185019190850190840161479d565b6147e190856000528260206000209182019101611bb5565b3861478b565b6147ef61098d565b61477e565b6147fc611019565b614771565b61480961098d565b614758565b600161482760ff92801515806124595761242190612304565b50015416600581101561487c576001141561483e57565b5060405162461bcd60e51b815260206004820152602160248201526000805160206157a28339815191526044820152603960f91b6064820152608490fd5b5050634e487b7160e01b600052602160045260246000fd5b60016148ad60ff92801515806124595761242190612304565b50015416600581101561487c576003141561483e57565b3360005260086020526148de60ff60406000205416613e6c565b6148f06148eb8333613172565b6149a2565b6148f982612947565b6001600160a01b03808316929161491291168314614a04565b61494161492461262761262186612540565b9161492e85614cac565b6149396003546126f7565b600355611b6a565b61494b815461269a565b905561495683612540565b5080546001600160a01b031916905560405160008051602061578283398151915290846000856000805160206158028339815191528285a460208152806143bb339460208301906108df565b156149a957565b5060405162461bcd60e51b815260206004820152602c60248201527f53656d616e7469635342543a2063616c6c6572206973206e6f7420617070726f60448201526b3b32b21037b91037bbb732b960a11b6064820152608490fd5b15614a0b57565b5060405162461bcd60e51b815260206004820152601660248201527529b2b6b0b73a34b1a9a12a1d103737ba1037bbb732b960511b6044820152606490fd5b90916000913383526008602052604091614a6960ff8486205416613e6c565b614a7d614a788260035461271f565b600355565b614a8682611b6a565b614a918282546126b7565b9055835b818110614aa457505050505050565b80614ab3614b4f928489614b54565b35614ac16148eb8233613172565b614ad3614ace82876129c5565b614a04565b614ae261262761262183612540565b614aeb82614cac565b614b08614af783612540565b5080546001600160a01b0319169055565b86516001600160a01b038716919060008051602061578283398151915290848b856000805160206158028339815191528285a480614b47339482610904565b0390a46126f7565b614a95565b9190811015614b645760051b0190565b610c0e61224f565b15614b7357565b5060405162461bcd60e51b8152602060048201526024808201527f4552433732313a207472616e7366657220746f20746865207a65726f206164646044820152637265737360e01b6064820152608490fd5b90614bcf83612947565b6001600160a01b038381169290918216831415614c5057614c09614c1a92821694614bfb861515614b6c565b614c0487614cac565b611b6a565b614c13815461269a565b9055611b6a565b614c24815461270f565b9055614c3982614c3385612540565b50611832565b6000805160206158028339815191526000604051a4565b505050505050608460405162461bcd60e51b815260206004820152602960248201527f4552433732313a207472616e73666572206f6620746f6b656e2074686174206960448201526839903737ba1037bbb760b91b6064820152fd5b600081815260066020526040812080546001600160a01b03191690556001600160a01b03614cd983612947565b1660008051602061584283398151915282604051a4565b816000526006602052614d07816040600020611832565b6001600160a01b0380614d1984612947565b169116906000805160206158428339815191526000604051a4565b9081602091031261089557516108378161080c565b610837939260809260018060a01b0316825260006020830152604082015281606082015201906108df565b6001600160a01b039182168152911660208201526040810191909152608060608201819052610837929101906108df565b3d15614dd0573d90614db682610a6e565b91614dc46040519384610a1d565b82523d6000602084013e565b606090565b919091803b614de657505050600190565b614e0e602091600093604051948580948193630a85bd0160e11b998a84523360048501614d49565b03926001600160a01b03165af160009181614e6a575b50614e5c57505050614e34614da5565b80519081614e5757505060405162461bcd60e51b8152806130b9600482016130df565b602001fd5b6001600160e01b0319161490565b614e83919250614e7a3d82610a1d565b3d810190614d34565b9038614e24565b92919091823b614e9d5750505050600190565b614e0e926020926000604051809681958294630a85bd0160e11b9a8b85523360048601614d74565b9190614ecf61173a565b6001600160401b038111614f92575b614eed81611ee0600c54611030565b6000601f8211600114614f2657819293600092614f1b5750508160011b916000199060031b1c191617600c55565b013590503880611eff565b600c600052601f1982169360008051602061574283398151915291805b868110614f7a5750836001959610614f6057505050811b01600c55565b0135600019600384901b60f8161c19169055388080611f57565b90926020600181928686013581550194019101614f43565b614f9a61098d565b614ede565b614fa761173a565b60ff8019600954169115151617600955565b9190614fc361173a565b6001600160401b038111615083575b600190614fe381611d1e8454611030565b6000601f821160011461501b5781929394600092615010575050600019600383901b1c191690821b179055565b013590503880611d3e565b6001600052601f1982169460008051602061582283398151915291805b87811061506d5750838596971061505357505050811b019055565b0135600019600384901b60f8161c19169055388080611d93565b8282013584559285019260209182019101615038565b61508b61098d565b614fd2565b919061509a61173a565b6001600160401b03811161515d575b6150b881611dfd600254611030565b6000601f82116001146150f1578192936000926150e65750508160011b916000199060031b1c191617600255565b013590503880611e1c565b6002600052601f1982169360008051602061572283398151915291805b868110615145575083600195961061512b57505050811b01600255565b0135600019600384901b60f8161c19169055388080611e74565b9092602060018192868601358155019401910161510e565b61516561098d565b6150a9565b61517261173a565b6001600160a01b0381169081156152095760ff61518e82611b50565b54166151b757611a2e6151a091611b50565b6000805160206157c28339815191526000604051a2565b505060405162461bcd60e51b815260206004820152602160248201527f53656d616e7469635342543a206d696e74657220616c726561647920616464656044820152601960fa1b606482015260849150fd5b505060405162461bcd60e51b815260206004820152602c60248201527f53656d616e7469635342543a206d696e746572206d757374206e6f742062652060448201526b6e756c6c206164647265737360a01b606482015260849150fd5b61526e61173a565b6001600160a01b03811660008181526008602052604090205490919060ff16156152cc5761529b90611b50565b60ff1981541690557f7df677640dd30a79584f8ecea06aeea15d215b861c5d3b5f8c26962d691f820e6000604051a2565b505060405162461bcd60e51b815260206004820152602260248201527f53656d616e7469635342543a206d696e74657220646f6573206e6f74206578696044820152611cdd60f21b606482015260849150fd5b9061532981612947565b6001600160a01b039283169216821491821561534457505090565b909150600052601460205260406000209060005260205260ff6040600020541690565b6001600160a01b0390338261537b85612947565b1614156153ac57166000526014602052604060002090600052602052610a6c6040600020600160ff19825416179055565b50505050606460405162461bcd60e51b815260206004820152601160248201527014195c9b5a5cdcda5bdb8819195b9a5959607a1b6044820152fd5b600033815260209060158252604081205461552a576154056146af565b61540d6146af565b6040519161541a836109cc565b338352848301848152604084019182526060840192835260045491600160401b918284101561551d575b615470615458600195868101600455612540565b979097615510575b516001600160a01b031687611832565b5183860155866002860191518051938411615503575b82548484558085106154e9575b500190865286862086915b8383106154d6575050505050916154bf6040926003601596955191016146c9565b6154ca60045461269a565b93849333835252205590565b805182559184019190840190880161549e565b8389528289206154fd918101908601611bb5565b38615493565b61550b61098d565b615486565b615518611019565b615460565b61552561098d565b615444565b50606491506040519062461bcd60e51b82526004820152601060248201526f185b1c9958591e481c1c995c185c995960821b6044820152fd5b1561556a57565b5060405162461bcd60e51b815260206004820152600c60248201526b185b1c9958591e481b5a5b9d60a21b6044820152606490fd5b91906155aa8161480e565b336000526015602052604060002054151580615651575b1561561557816155f28493615611936155ec6155e56155df33611b84565b8461221c565b5415615563565b85615672565b3360009081526015602052604081205561560b33611b84565b9061221c565b5590565b50505050606460405162461bcd60e51b81526020600482015260116024820152701c195c9b5a5cdcda5bdb8819195b9a5959607a1b6044820152fd5b5082604060002054146155c1565b60405161566b816109e7565b6000815290565b9091604093845190615683826109a4565b60018252600093845b6020808210156156b9578851602092916156a5826109a4565b88825260608183015282870101520161568c565b5050939190959294610a6c958451916156d1836109a4565b825260208201526156e1826131db565b526156eb816131db565b508251926156f8846109e7565b8284525191615706836109e7565b825261571061565f565b9261571961565f565b94339061420856fe405787fa12a823e0f2b7631cc41b3ba8828b3321ca811111fa75cd3aa3bb5acedf6966c971051c3d54ec59162606531493a51404a002842f56009d7e5cf4a8c7d7b6990105719101dabeb77144f2a3385c8033acd3af97e9423a695e81ad1eb58ea074c4be03960be214c047b695cecdc52be7382eee092c135d1726fabfc44453656d616e7469635342543a207072656469636174652074797065206572726f3a159411d00fa06a3ec11d4578931f1b7f877cceadb1e083929d74ec020cb2438be0079c531659141344cd1fd0a4f28419497f9722a3daafe3b4186f6b6457e0ddf252ad1be2c89b69c2b068fc378daa952ba7f163c4a11628f55a4df523b3efb10e2d527612073b26eecdfd717e6a320cf44b4afac2b0732d9fcbe2b7fa0cf68c5be1e5ebec7d5bd14f71427d1e84f3dd0314c0f7b2291e5b200ac8c7c3b9258d1108e10bcb7c27dddfc02ed9d693a074039d026cf4ea4240b40f7d581ac802a36469706673582212205cf69a14e1e906f3f3faca6747fcc9567356c36b7cfc7ec5bd67eb290a35947d6c6578706572696d656e74616cf564736f6c634300080c0041",
  "linkReferences": {},
  "deployedLinkReferences": {}
}